{
	"contracts/InvoiceData.sol": {
		"InvoiceData": {
			"abi": [
				{
					"inputs": [
						{
							"internalType": "uint256",
							"name": "_empNumber",
							"type": "uint256"
						},
						{
							"internalType": "string",
							"name": "_name",
							"type": "string"
						},
						{
							"internalType": "string",
							"name": "_accountingInfo",
							"type": "string"
						},
						{
							"internalType": "uint256",
							"name": "_timestamp",
							"type": "uint256"
						}
					],
					"name": "addEmployee",
					"outputs": [
						{
							"internalType": "uint256",
							"name": "",
							"type": "uint256"
						}
					],
					"stateMutability": "nonpayable",
					"type": "function"
				},
				{
					"inputs": [
						{
							"internalType": "uint256",
							"name": "_date",
							"type": "uint256"
						},
						{
							"internalType": "enum InvoiceData.InvoiceType",
							"name": "_invoiceType",
							"type": "uint8"
						},
						{
							"internalType": "uint256",
							"name": "_amountPaid",
							"type": "uint256"
						},
						{
							"internalType": "string[]",
							"name": "_productNames",
							"type": "string[]"
						},
						{
							"internalType": "uint256[]",
							"name": "_pricesBeforeTax",
							"type": "uint256[]"
						},
						{
							"internalType": "uint256[]",
							"name": "_taxes",
							"type": "uint256[]"
						},
						{
							"internalType": "uint256[]",
							"name": "_pricesAfterTax",
							"type": "uint256[]"
						},
						{
							"internalType": "uint256",
							"name": "_totalBeforeTax",
							"type": "uint256"
						},
						{
							"internalType": "uint256",
							"name": "_totalTax",
							"type": "uint256"
						},
						{
							"internalType": "uint256",
							"name": "_totalWithTax",
							"type": "uint256"
						},
						{
							"internalType": "string",
							"name": "_taxInvoiceCode",
							"type": "string"
						}
					],
					"name": "createInvoice",
					"outputs": [],
					"stateMutability": "nonpayable",
					"type": "function"
				},
				{
					"inputs": [
						{
							"internalType": "uint256",
							"name": "",
							"type": "uint256"
						}
					],
					"name": "empData",
					"outputs": [
						{
							"internalType": "uint256",
							"name": "empNumber",
							"type": "uint256"
						},
						{
							"internalType": "string",
							"name": "name",
							"type": "string"
						},
						{
							"internalType": "string",
							"name": "accountingInfo",
							"type": "string"
						},
						{
							"internalType": "uint256",
							"name": "timestamp",
							"type": "uint256"
						}
					],
					"stateMutability": "view",
					"type": "function"
				},
				{
					"inputs": [
						{
							"internalType": "uint256",
							"name": "_empNumber",
							"type": "uint256"
						}
					],
					"name": "getEmployeeInfo",
					"outputs": [
						{
							"internalType": "uint256",
							"name": "",
							"type": "uint256"
						},
						{
							"internalType": "string",
							"name": "",
							"type": "string"
						},
						{
							"internalType": "string",
							"name": "",
							"type": "string"
						},
						{
							"internalType": "uint256",
							"name": "",
							"type": "uint256"
						}
					],
					"stateMutability": "view",
					"type": "function"
				},
				{
					"inputs": [],
					"name": "invoiceCount",
					"outputs": [
						{
							"internalType": "uint256",
							"name": "",
							"type": "uint256"
						}
					],
					"stateMutability": "view",
					"type": "function"
				},
				{
					"inputs": [
						{
							"internalType": "uint256",
							"name": "",
							"type": "uint256"
						}
					],
					"name": "invoices",
					"outputs": [
						{
							"internalType": "uint256",
							"name": "date",
							"type": "uint256"
						},
						{
							"internalType": "enum InvoiceData.InvoiceType",
							"name": "invoiceType",
							"type": "uint8"
						},
						{
							"internalType": "uint256",
							"name": "amountPaid",
							"type": "uint256"
						},
						{
							"internalType": "uint256",
							"name": "totalBeforeTax",
							"type": "uint256"
						},
						{
							"internalType": "uint256",
							"name": "totalTax",
							"type": "uint256"
						},
						{
							"internalType": "uint256",
							"name": "totalWithTax",
							"type": "uint256"
						},
						{
							"internalType": "string",
							"name": "taxInvoiceCode",
							"type": "string"
						}
					],
					"stateMutability": "view",
					"type": "function"
				},
				{
					"inputs": [
						{
							"internalType": "uint256",
							"name": "_clientId",
							"type": "uint256"
						},
						{
							"internalType": "string",
							"name": "_clientName",
							"type": "string"
						},
						{
							"internalType": "string",
							"name": "_taxNumber",
							"type": "string"
						},
						{
							"internalType": "string",
							"name": "_postalCode",
							"type": "string"
						},
						{
							"internalType": "string",
							"name": "_clientIdString",
							"type": "string"
						}
					],
					"name": "saveClient",
					"outputs": [],
					"stateMutability": "nonpayable",
					"type": "function"
				},
				{
					"inputs": [
						{
							"internalType": "uint256",
							"name": "_companyId",
							"type": "uint256"
						},
						{
							"internalType": "string",
							"name": "_companyName",
							"type": "string"
						},
						{
							"internalType": "string",
							"name": "_taxNumber",
							"type": "string"
						},
						{
							"internalType": "string",
							"name": "_postalCode",
							"type": "string"
						},
						{
							"internalType": "string",
							"name": "_ownerId",
							"type": "string"
						}
					],
					"name": "saveCompany",
					"outputs": [],
					"stateMutability": "nonpayable",
					"type": "function"
				}
			],
			"devdoc": {
				"kind": "dev",
				"methods": {},
				"version": 1
			},
			"evm": {
				"assembly": "    /* \"contracts/InvoiceData.sol\":67:4704  contract InvoiceData {... */\n  mstore(0x40, 0x80)\n    /* \"contracts/InvoiceData.sol\":2247:2248  0 */\n  0x00\n    /* \"contracts/InvoiceData.sol\":2217:2248  uint256 public invoiceCount = 0 */\n  0x04\n  sstore\n    /* \"contracts/InvoiceData.sol\":67:4704  contract InvoiceData {... */\n  callvalue\n  dup1\n  iszero\n  tag_1\n  jumpi\n  0x00\n  dup1\n  revert\ntag_1:\n  pop\n  dataSize(sub_0)\n  dup1\n  dataOffset(sub_0)\n  0x00\n  codecopy\n  0x00\n  return\nstop\n\nsub_0: assembly {\n        /* \"contracts/InvoiceData.sol\":67:4704  contract InvoiceData {... */\n      mstore(0x40, 0x80)\n      callvalue\n      dup1\n      iszero\n      tag_1\n      jumpi\n      0x00\n      dup1\n      revert\n    tag_1:\n      pop\n      jumpi(tag_2, lt(calldatasize, 0x04))\n      shr(0xe0, calldataload(0x00))\n      dup1\n      0x40646bd5\n      gt\n      tag_11\n      jumpi\n      dup1\n      0x40646bd5\n      eq\n      tag_7\n      jumpi\n      dup1\n      0x4e6d1405\n      eq\n      tag_8\n      jumpi\n      dup1\n      0xd44f376e\n      eq\n      tag_9\n      jumpi\n      dup1\n      0xf6757cff\n      eq\n      tag_10\n      jumpi\n      jump(tag_2)\n    tag_11:\n      dup1\n      0x0786a6a6\n      eq\n      tag_3\n      jumpi\n      dup1\n      0x08aabe9c\n      eq\n      tag_4\n      jumpi\n      dup1\n      0x1346f0c4\n      eq\n      tag_5\n      jumpi\n      dup1\n      0x272cc76a\n      eq\n      tag_6\n      jumpi\n    tag_2:\n      0x00\n      dup1\n      revert\n        /* \"contracts/InvoiceData.sol\":3023:4189  function createInvoice(... */\n    tag_3:\n      tag_12\n      0x04\n      dup1\n      calldatasize\n      sub\n      dup2\n      add\n      swap1\n      tag_13\n      swap2\n      swap1\n      tag_14\n      jump\t// in\n    tag_13:\n      tag_15\n      jump\t// in\n    tag_12:\n      stop\n        /* \"contracts/InvoiceData.sol\":2259:2630  function saveCompany(... */\n    tag_4:\n      tag_16\n      0x04\n      dup1\n      calldatasize\n      sub\n      dup2\n      add\n      swap1\n      tag_17\n      swap2\n      swap1\n      tag_18\n      jump\t// in\n    tag_17:\n      tag_19\n      jump\t// in\n    tag_16:\n      stop\n        /* \"contracts/InvoiceData.sol\":2217:2248  uint256 public invoiceCount = 0 */\n    tag_5:\n      tag_20\n      tag_21\n      jump\t// in\n    tag_20:\n      mload(0x40)\n      tag_22\n      swap2\n      swap1\n      tag_23\n      jump\t// in\n    tag_22:\n      mload(0x40)\n      dup1\n      swap2\n      sub\n      swap1\n      return\n        /* \"contracts/InvoiceData.sol\":243:286  mapping(uint256 => Employee) public empData */\n    tag_6:\n      tag_24\n      0x04\n      dup1\n      calldatasize\n      sub\n      dup2\n      add\n      swap1\n      tag_25\n      swap2\n      swap1\n      tag_26\n      jump\t// in\n    tag_25:\n      tag_27\n      jump\t// in\n    tag_24:\n      mload(0x40)\n      tag_28\n      swap5\n      swap4\n      swap3\n      swap2\n      swap1\n      tag_29\n      jump\t// in\n    tag_28:\n      mload(0x40)\n      dup1\n      swap2\n      sub\n      swap1\n      return\n        /* \"contracts/InvoiceData.sol\":2638:3015  function saveClient(... */\n    tag_7:\n      tag_30\n      0x04\n      dup1\n      calldatasize\n      sub\n      dup2\n      add\n      swap1\n      tag_31\n      swap2\n      swap1\n      tag_18\n      jump\t// in\n    tag_31:\n      tag_32\n      jump\t// in\n    tag_30:\n      stop\n        /* \"contracts/InvoiceData.sol\":2167:2210  mapping(uint256 => Invoice) public invoices */\n    tag_8:\n      tag_33\n      0x04\n      dup1\n      calldatasize\n      sub\n      dup2\n      add\n      swap1\n      tag_34\n      swap2\n      swap1\n      tag_26\n      jump\t// in\n    tag_34:\n      tag_35\n      jump\t// in\n    tag_33:\n      mload(0x40)\n      tag_36\n      swap8\n      swap7\n      swap6\n      swap5\n      swap4\n      swap3\n      swap2\n      swap1\n      tag_37\n      jump\t// in\n    tag_36:\n      mload(0x40)\n      dup1\n      swap2\n      sub\n      swap1\n      return\n        /* \"contracts/InvoiceData.sol\":295:864  function addEmployee(... */\n    tag_9:\n      tag_38\n      0x04\n      dup1\n      calldatasize\n      sub\n      dup2\n      add\n      swap1\n      tag_39\n      swap2\n      swap1\n      tag_40\n      jump\t// in\n    tag_39:\n      tag_41\n      jump\t// in\n    tag_38:\n      mload(0x40)\n      tag_42\n      swap2\n      swap1\n      tag_23\n      jump\t// in\n    tag_42:\n      mload(0x40)\n      dup1\n      swap2\n      sub\n      swap1\n      return\n        /* \"contracts/InvoiceData.sol\":872:1307  function getEmployeeInfo(uint256 _empNumber)... */\n    tag_10:\n      tag_43\n      0x04\n      dup1\n      calldatasize\n      sub\n      dup2\n      add\n      swap1\n      tag_44\n      swap2\n      swap1\n      tag_26\n      jump\t// in\n    tag_44:\n      tag_45\n      jump\t// in\n    tag_43:\n      mload(0x40)\n      tag_46\n      swap5\n      swap4\n      swap3\n      swap2\n      swap1\n      tag_29\n      jump\t// in\n    tag_46:\n      mload(0x40)\n      dup1\n      swap2\n      sub\n      swap1\n      return\n        /* \"contracts/InvoiceData.sol\":3023:4189  function createInvoice(... */\n    tag_15:\n        /* \"contracts/InvoiceData.sol\":3445:3461  _pricesBeforeTax */\n      dup7\n        /* \"contracts/InvoiceData.sol\":3445:3468  _pricesBeforeTax.length */\n      mload\n        /* \"contracts/InvoiceData.sol\":3421:3434  _productNames */\n      dup9\n        /* \"contracts/InvoiceData.sol\":3421:3441  _productNames.length */\n      mload\n        /* \"contracts/InvoiceData.sol\":3421:3468  _productNames.length == _pricesBeforeTax.length */\n      eq\n        /* \"contracts/InvoiceData.sol\":3421:3521  _productNames.length == _pricesBeforeTax.length &&... */\n      dup1\n      iszero\n      tag_48\n      jumpi\n      pop\n        /* \"contracts/InvoiceData.sol\":3508:3514  _taxes */\n      dup6\n        /* \"contracts/InvoiceData.sol\":3508:3521  _taxes.length */\n      mload\n        /* \"contracts/InvoiceData.sol\":3481:3497  _pricesBeforeTax */\n      dup8\n        /* \"contracts/InvoiceData.sol\":3481:3504  _pricesBeforeTax.length */\n      mload\n        /* \"contracts/InvoiceData.sol\":3481:3521  _pricesBeforeTax.length == _taxes.length */\n      eq\n        /* \"contracts/InvoiceData.sol\":3421:3521  _productNames.length == _pricesBeforeTax.length &&... */\n    tag_48:\n        /* \"contracts/InvoiceData.sol\":3421:3573  _productNames.length == _pricesBeforeTax.length &&... */\n      dup1\n      iszero\n      tag_49\n      jumpi\n      pop\n        /* \"contracts/InvoiceData.sol\":3551:3566  _pricesAfterTax */\n      dup5\n        /* \"contracts/InvoiceData.sol\":3551:3573  _pricesAfterTax.length */\n      mload\n        /* \"contracts/InvoiceData.sol\":3534:3540  _taxes */\n      dup7\n        /* \"contracts/InvoiceData.sol\":3534:3547  _taxes.length */\n      mload\n        /* \"contracts/InvoiceData.sol\":3534:3573  _taxes.length == _pricesAfterTax.length */\n      eq\n        /* \"contracts/InvoiceData.sol\":3421:3573  _productNames.length == _pricesBeforeTax.length &&... */\n    tag_49:\n        /* \"contracts/InvoiceData.sol\":3403:3631  require(... */\n      tag_50\n      jumpi\n      mload(0x40)\n      0x08c379a000000000000000000000000000000000000000000000000000000000\n      dup2\n      mstore\n      0x04\n      add\n      tag_51\n      swap1\n      tag_52\n      jump\t// in\n    tag_51:\n      mload(0x40)\n      dup1\n      swap2\n      sub\n      swap1\n      revert\n    tag_50:\n        /* \"contracts/InvoiceData.sol\":3680:3706  Invoice storage newInvoice */\n      0x00\n        /* \"contracts/InvoiceData.sol\":3709:3717  invoices */\n      0x03\n        /* \"contracts/InvoiceData.sol\":3709:3731  invoices[invoiceCount] */\n      0x00\n        /* \"contracts/InvoiceData.sol\":3718:3730  invoiceCount */\n      sload(0x04)\n        /* \"contracts/InvoiceData.sol\":3709:3731  invoices[invoiceCount] */\n      dup2\n      mstore\n      0x20\n      add\n      swap1\n      dup2\n      mstore\n      0x20\n      add\n      0x00\n      keccak256\n        /* \"contracts/InvoiceData.sol\":3680:3731  Invoice storage newInvoice = invoices[invoiceCount] */\n      swap1\n      pop\n        /* \"contracts/InvoiceData.sol\":3756:3761  _date */\n      dup12\n        /* \"contracts/InvoiceData.sol\":3738:3748  newInvoice */\n      dup2\n        /* \"contracts/InvoiceData.sol\":3738:3753  newInvoice.date */\n      0x00\n      add\n        /* \"contracts/InvoiceData.sol\":3738:3761  newInvoice.date = _date */\n      dup2\n      swap1\n      sstore\n      pop\n        /* \"contracts/InvoiceData.sol\":3793:3805  _invoiceType */\n      dup11\n        /* \"contracts/InvoiceData.sol\":3768:3778  newInvoice */\n      dup2\n        /* \"contracts/InvoiceData.sol\":3768:3790  newInvoice.invoiceType */\n      0x01\n      add\n      0x00\n        /* \"contracts/InvoiceData.sol\":3768:3805  newInvoice.invoiceType = _invoiceType */\n      0x0100\n      exp\n      dup2\n      sload\n      dup2\n      0xff\n      mul\n      not\n      and\n      swap1\n      dup4\n      0x02\n      dup2\n      gt\n      iszero\n      tag_53\n      jumpi\n      tag_54\n      tag_55\n      jump\t// in\n    tag_54:\n    tag_53:\n      mul\n      or\n      swap1\n      sstore\n      pop\n        /* \"contracts/InvoiceData.sol\":3836:3847  _amountPaid */\n      dup10\n        /* \"contracts/InvoiceData.sol\":3812:3822  newInvoice */\n      dup2\n        /* \"contracts/InvoiceData.sol\":3812:3833  newInvoice.amountPaid */\n      0x02\n      add\n        /* \"contracts/InvoiceData.sol\":3812:3847  newInvoice.amountPaid = _amountPaid */\n      dup2\n      swap1\n      sstore\n      pop\n        /* \"contracts/InvoiceData.sol\":3882:3897  _totalBeforeTax */\n      dup5\n        /* \"contracts/InvoiceData.sol\":3854:3864  newInvoice */\n      dup2\n        /* \"contracts/InvoiceData.sol\":3854:3879  newInvoice.totalBeforeTax */\n      0x04\n      add\n        /* \"contracts/InvoiceData.sol\":3854:3897  newInvoice.totalBeforeTax = _totalBeforeTax */\n      dup2\n      swap1\n      sstore\n      pop\n        /* \"contracts/InvoiceData.sol\":3926:3935  _totalTax */\n      dup4\n        /* \"contracts/InvoiceData.sol\":3904:3914  newInvoice */\n      dup2\n        /* \"contracts/InvoiceData.sol\":3904:3923  newInvoice.totalTax */\n      0x05\n      add\n        /* \"contracts/InvoiceData.sol\":3904:3935  newInvoice.totalTax = _totalTax */\n      dup2\n      swap1\n      sstore\n      pop\n        /* \"contracts/InvoiceData.sol\":3968:3981  _totalWithTax */\n      dup3\n        /* \"contracts/InvoiceData.sol\":3942:3952  newInvoice */\n      dup2\n        /* \"contracts/InvoiceData.sol\":3942:3965  newInvoice.totalWithTax */\n      0x06\n      add\n        /* \"contracts/InvoiceData.sol\":3942:3981  newInvoice.totalWithTax = _totalWithTax */\n      dup2\n      swap1\n      sstore\n      pop\n        /* \"contracts/InvoiceData.sol\":4016:4031  _taxInvoiceCode */\n      dup2\n        /* \"contracts/InvoiceData.sol\":3988:3998  newInvoice */\n      dup2\n        /* \"contracts/InvoiceData.sol\":3988:4013  newInvoice.taxInvoiceCode */\n      0x07\n      add\n        /* \"contracts/InvoiceData.sol\":3988:4031  newInvoice.taxInvoiceCode = _taxInvoiceCode */\n      swap1\n      dup2\n      tag_56\n      swap2\n      swap1\n      tag_57\n      jump\t// in\n    tag_56:\n      pop\n        /* \"contracts/InvoiceData.sol\":4072:4162  addProductsToInvoice(newInvoice, _productNames, _pricesBeforeTax, _taxes, _pricesAfterTax) */\n      tag_58\n        /* \"contracts/InvoiceData.sol\":4093:4103  newInvoice */\n      dup2\n        /* \"contracts/InvoiceData.sol\":4105:4118  _productNames */\n      dup11\n        /* \"contracts/InvoiceData.sol\":4120:4136  _pricesBeforeTax */\n      dup11\n        /* \"contracts/InvoiceData.sol\":4138:4144  _taxes */\n      dup11\n        /* \"contracts/InvoiceData.sol\":4146:4161  _pricesAfterTax */\n      dup11\n        /* \"contracts/InvoiceData.sol\":4072:4092  addProductsToInvoice */\n      tag_59\n        /* \"contracts/InvoiceData.sol\":4072:4162  addProductsToInvoice(newInvoice, _productNames, _pricesBeforeTax, _taxes, _pricesAfterTax) */\n      jump\t// in\n    tag_58:\n        /* \"contracts/InvoiceData.sol\":4171:4183  invoiceCount */\n      0x04\n      0x00\n        /* \"contracts/InvoiceData.sol\":4171:4185  invoiceCount++ */\n      dup2\n      sload\n      dup1\n      swap3\n      swap2\n      swap1\n      tag_60\n      swap1\n      tag_61\n      jump\t// in\n    tag_60:\n      swap2\n      swap1\n      pop\n      sstore\n      pop\n        /* \"contracts/InvoiceData.sol\":3396:4189  {... */\n      pop\n        /* \"contracts/InvoiceData.sol\":3023:4189  function createInvoice(... */\n      pop\n      pop\n      pop\n      pop\n      pop\n      pop\n      pop\n      pop\n      pop\n      pop\n      pop\n      jump\t// out\n        /* \"contracts/InvoiceData.sol\":2259:2630  function saveCompany(... */\n    tag_19:\n        /* \"contracts/InvoiceData.sol\":2499:2622  CompanyInfo(... */\n      mload(0x40)\n      dup1\n      0x80\n      add\n      0x40\n      mstore\n      dup1\n        /* \"contracts/InvoiceData.sol\":2525:2537  _companyName */\n      dup6\n        /* \"contracts/InvoiceData.sol\":2499:2622  CompanyInfo(... */\n      dup2\n      mstore\n      0x20\n      add\n        /* \"contracts/InvoiceData.sol\":2552:2562  _taxNumber */\n      dup5\n        /* \"contracts/InvoiceData.sol\":2499:2622  CompanyInfo(... */\n      dup2\n      mstore\n      0x20\n      add\n        /* \"contracts/InvoiceData.sol\":2577:2588  _postalCode */\n      dup4\n        /* \"contracts/InvoiceData.sol\":2499:2622  CompanyInfo(... */\n      dup2\n      mstore\n      0x20\n      add\n        /* \"contracts/InvoiceData.sol\":2603:2611  _ownerId */\n      dup3\n        /* \"contracts/InvoiceData.sol\":2499:2622  CompanyInfo(... */\n      dup2\n      mstore\n      pop\n        /* \"contracts/InvoiceData.sol\":2475:2484  companies */\n      0x01\n        /* \"contracts/InvoiceData.sol\":2475:2496  companies[_companyId] */\n      0x00\n        /* \"contracts/InvoiceData.sol\":2485:2495  _companyId */\n      dup8\n        /* \"contracts/InvoiceData.sol\":2475:2496  companies[_companyId] */\n      dup2\n      mstore\n      0x20\n      add\n      swap1\n      dup2\n      mstore\n      0x20\n      add\n      0x00\n      keccak256\n        /* \"contracts/InvoiceData.sol\":2475:2622  companies[_companyId] = CompanyInfo(... */\n      0x00\n      dup3\n      add\n      mload\n      dup2\n      0x00\n      add\n      swap1\n      dup2\n      tag_63\n      swap2\n      swap1\n      tag_57\n      jump\t// in\n    tag_63:\n      pop\n      0x20\n      dup3\n      add\n      mload\n      dup2\n      0x01\n      add\n      swap1\n      dup2\n      tag_64\n      swap2\n      swap1\n      tag_57\n      jump\t// in\n    tag_64:\n      pop\n      0x40\n      dup3\n      add\n      mload\n      dup2\n      0x02\n      add\n      swap1\n      dup2\n      tag_65\n      swap2\n      swap1\n      tag_57\n      jump\t// in\n    tag_65:\n      pop\n      0x60\n      dup3\n      add\n      mload\n      dup2\n      0x03\n      add\n      swap1\n      dup2\n      tag_66\n      swap2\n      swap1\n      tag_57\n      jump\t// in\n    tag_66:\n      pop\n      swap1\n      pop\n      pop\n        /* \"contracts/InvoiceData.sol\":2259:2630  function saveCompany(... */\n      pop\n      pop\n      pop\n      pop\n      pop\n      jump\t// out\n        /* \"contracts/InvoiceData.sol\":2217:2248  uint256 public invoiceCount = 0 */\n    tag_21:\n      sload(0x04)\n      dup2\n      jump\t// out\n        /* \"contracts/InvoiceData.sol\":243:286  mapping(uint256 => Employee) public empData */\n    tag_27:\n      mstore(0x20, 0x00)\n      dup1\n      0x00\n      mstore\n      keccak256(0x00, 0x40)\n      0x00\n      swap2\n      pop\n      swap1\n      pop\n      dup1\n      0x00\n      add\n      sload\n      swap1\n      dup1\n      0x01\n      add\n      dup1\n      sload\n      tag_67\n      swap1\n      tag_68\n      jump\t// in\n    tag_67:\n      dup1\n      0x1f\n      add\n      0x20\n      dup1\n      swap2\n      div\n      mul\n      0x20\n      add\n      mload(0x40)\n      swap1\n      dup2\n      add\n      0x40\n      mstore\n      dup1\n      swap3\n      swap2\n      swap1\n      dup2\n      dup2\n      mstore\n      0x20\n      add\n      dup3\n      dup1\n      sload\n      tag_69\n      swap1\n      tag_68\n      jump\t// in\n    tag_69:\n      dup1\n      iszero\n      tag_70\n      jumpi\n      dup1\n      0x1f\n      lt\n      tag_71\n      jumpi\n      0x0100\n      dup1\n      dup4\n      sload\n      div\n      mul\n      dup4\n      mstore\n      swap2\n      0x20\n      add\n      swap2\n      jump(tag_70)\n    tag_71:\n      dup3\n      add\n      swap2\n      swap1\n      0x00\n      mstore\n      keccak256(0x00, 0x20)\n      swap1\n    tag_72:\n      dup2\n      sload\n      dup2\n      mstore\n      swap1\n      0x01\n      add\n      swap1\n      0x20\n      add\n      dup1\n      dup4\n      gt\n      tag_72\n      jumpi\n      dup3\n      swap1\n      sub\n      0x1f\n      and\n      dup3\n      add\n      swap2\n    tag_70:\n      pop\n      pop\n      pop\n      pop\n      pop\n      swap1\n      dup1\n      0x02\n      add\n      dup1\n      sload\n      tag_73\n      swap1\n      tag_68\n      jump\t// in\n    tag_73:\n      dup1\n      0x1f\n      add\n      0x20\n      dup1\n      swap2\n      div\n      mul\n      0x20\n      add\n      mload(0x40)\n      swap1\n      dup2\n      add\n      0x40\n      mstore\n      dup1\n      swap3\n      swap2\n      swap1\n      dup2\n      dup2\n      mstore\n      0x20\n      add\n      dup3\n      dup1\n      sload\n      tag_74\n      swap1\n      tag_68\n      jump\t// in\n    tag_74:\n      dup1\n      iszero\n      tag_75\n      jumpi\n      dup1\n      0x1f\n      lt\n      tag_76\n      jumpi\n      0x0100\n      dup1\n      dup4\n      sload\n      div\n      mul\n      dup4\n      mstore\n      swap2\n      0x20\n      add\n      swap2\n      jump(tag_75)\n    tag_76:\n      dup3\n      add\n      swap2\n      swap1\n      0x00\n      mstore\n      keccak256(0x00, 0x20)\n      swap1\n    tag_77:\n      dup2\n      sload\n      dup2\n      mstore\n      swap1\n      0x01\n      add\n      swap1\n      0x20\n      add\n      dup1\n      dup4\n      gt\n      tag_77\n      jumpi\n      dup3\n      swap1\n      sub\n      0x1f\n      and\n      dup3\n      add\n      swap2\n    tag_75:\n      pop\n      pop\n      pop\n      pop\n      pop\n      swap1\n      dup1\n      0x03\n      add\n      sload\n      swap1\n      pop\n      dup5\n      jump\t// out\n        /* \"contracts/InvoiceData.sol\":2638:3015  function saveClient(... */\n    tag_32:\n        /* \"contracts/InvoiceData.sol\":2879:3007  ClientInfo(... */\n      mload(0x40)\n      dup1\n      0x80\n      add\n      0x40\n      mstore\n      dup1\n        /* \"contracts/InvoiceData.sol\":2904:2915  _clientName */\n      dup6\n        /* \"contracts/InvoiceData.sol\":2879:3007  ClientInfo(... */\n      dup2\n      mstore\n      0x20\n      add\n        /* \"contracts/InvoiceData.sol\":2930:2940  _taxNumber */\n      dup5\n        /* \"contracts/InvoiceData.sol\":2879:3007  ClientInfo(... */\n      dup2\n      mstore\n      0x20\n      add\n        /* \"contracts/InvoiceData.sol\":2955:2966  _postalCode */\n      dup4\n        /* \"contracts/InvoiceData.sol\":2879:3007  ClientInfo(... */\n      dup2\n      mstore\n      0x20\n      add\n        /* \"contracts/InvoiceData.sol\":2981:2996  _clientIdString */\n      dup3\n        /* \"contracts/InvoiceData.sol\":2879:3007  ClientInfo(... */\n      dup2\n      mstore\n      pop\n        /* \"contracts/InvoiceData.sol\":2858:2865  clients */\n      0x02\n        /* \"contracts/InvoiceData.sol\":2858:2876  clients[_clientId] */\n      0x00\n        /* \"contracts/InvoiceData.sol\":2866:2875  _clientId */\n      dup8\n        /* \"contracts/InvoiceData.sol\":2858:2876  clients[_clientId] */\n      dup2\n      mstore\n      0x20\n      add\n      swap1\n      dup2\n      mstore\n      0x20\n      add\n      0x00\n      keccak256\n        /* \"contracts/InvoiceData.sol\":2858:3007  clients[_clientId] = ClientInfo(... */\n      0x00\n      dup3\n      add\n      mload\n      dup2\n      0x00\n      add\n      swap1\n      dup2\n      tag_79\n      swap2\n      swap1\n      tag_57\n      jump\t// in\n    tag_79:\n      pop\n      0x20\n      dup3\n      add\n      mload\n      dup2\n      0x01\n      add\n      swap1\n      dup2\n      tag_80\n      swap2\n      swap1\n      tag_57\n      jump\t// in\n    tag_80:\n      pop\n      0x40\n      dup3\n      add\n      mload\n      dup2\n      0x02\n      add\n      swap1\n      dup2\n      tag_81\n      swap2\n      swap1\n      tag_57\n      jump\t// in\n    tag_81:\n      pop\n      0x60\n      dup3\n      add\n      mload\n      dup2\n      0x03\n      add\n      swap1\n      dup2\n      tag_82\n      swap2\n      swap1\n      tag_57\n      jump\t// in\n    tag_82:\n      pop\n      swap1\n      pop\n      pop\n        /* \"contracts/InvoiceData.sol\":2638:3015  function saveClient(... */\n      pop\n      pop\n      pop\n      pop\n      pop\n      jump\t// out\n        /* \"contracts/InvoiceData.sol\":2167:2210  mapping(uint256 => Invoice) public invoices */\n    tag_35:\n      mstore(0x20, 0x03)\n      dup1\n      0x00\n      mstore\n      keccak256(0x00, 0x40)\n      0x00\n      swap2\n      pop\n      swap1\n      pop\n      dup1\n      0x00\n      add\n      sload\n      swap1\n      dup1\n      0x01\n      add\n      0x00\n      swap1\n      sload\n      swap1\n      0x0100\n      exp\n      swap1\n      div\n      0xff\n      and\n      swap1\n      dup1\n      0x02\n      add\n      sload\n      swap1\n      dup1\n      0x04\n      add\n      sload\n      swap1\n      dup1\n      0x05\n      add\n      sload\n      swap1\n      dup1\n      0x06\n      add\n      sload\n      swap1\n      dup1\n      0x07\n      add\n      dup1\n      sload\n      tag_83\n      swap1\n      tag_68\n      jump\t// in\n    tag_83:\n      dup1\n      0x1f\n      add\n      0x20\n      dup1\n      swap2\n      div\n      mul\n      0x20\n      add\n      mload(0x40)\n      swap1\n      dup2\n      add\n      0x40\n      mstore\n      dup1\n      swap3\n      swap2\n      swap1\n      dup2\n      dup2\n      mstore\n      0x20\n      add\n      dup3\n      dup1\n      sload\n      tag_84\n      swap1\n      tag_68\n      jump\t// in\n    tag_84:\n      dup1\n      iszero\n      tag_85\n      jumpi\n      dup1\n      0x1f\n      lt\n      tag_86\n      jumpi\n      0x0100\n      dup1\n      dup4\n      sload\n      div\n      mul\n      dup4\n      mstore\n      swap2\n      0x20\n      add\n      swap2\n      jump(tag_85)\n    tag_86:\n      dup3\n      add\n      swap2\n      swap1\n      0x00\n      mstore\n      keccak256(0x00, 0x20)\n      swap1\n    tag_87:\n      dup2\n      sload\n      dup2\n      mstore\n      swap1\n      0x01\n      add\n      swap1\n      0x20\n      add\n      dup1\n      dup4\n      gt\n      tag_87\n      jumpi\n      dup3\n      swap1\n      sub\n      0x1f\n      and\n      dup3\n      add\n      swap2\n    tag_85:\n      pop\n      pop\n      pop\n      pop\n      pop\n      swap1\n      pop\n      dup8\n      jump\t// out\n        /* \"contracts/InvoiceData.sol\":295:864  function addEmployee(... */\n    tag_41:\n        /* \"contracts/InvoiceData.sol\":467:474  uint256 */\n      0x00\n        /* \"contracts/InvoiceData.sol\":594:595  0 */\n      dup1\n        /* \"contracts/InvoiceData.sol\":561:568  empData */\n      0x00\n        /* \"contracts/InvoiceData.sol\":561:580  empData[_empNumber] */\n      dup1\n        /* \"contracts/InvoiceData.sol\":569:579  _empNumber */\n      dup8\n        /* \"contracts/InvoiceData.sol\":561:580  empData[_empNumber] */\n      dup2\n      mstore\n      0x20\n      add\n      swap1\n      dup2\n      mstore\n      0x20\n      add\n      0x00\n      keccak256\n        /* \"contracts/InvoiceData.sol\":561:590  empData[_empNumber].empNumber */\n      0x00\n      add\n      sload\n        /* \"contracts/InvoiceData.sol\":561:595  empData[_empNumber].empNumber == 0 */\n      eq\n        /* \"contracts/InvoiceData.sol\":553:623  require(empData[_empNumber].empNumber == 0, \"Employee already exists\") */\n      tag_89\n      jumpi\n      mload(0x40)\n      0x08c379a000000000000000000000000000000000000000000000000000000000\n      dup2\n      mstore\n      0x04\n      add\n      tag_90\n      swap1\n      tag_91\n      jump\t// in\n    tag_90:\n      mload(0x40)\n      dup1\n      swap2\n      sub\n      swap1\n      revert\n    tag_89:\n        /* \"contracts/InvoiceData.sol\":707:826  Employee(... */\n      mload(0x40)\n      dup1\n      0x80\n      add\n      0x40\n      mstore\n      dup1\n        /* \"contracts/InvoiceData.sol\":730:740  _empNumber */\n      dup7\n        /* \"contracts/InvoiceData.sol\":707:826  Employee(... */\n      dup2\n      mstore\n      0x20\n      add\n        /* \"contracts/InvoiceData.sol\":755:760  _name */\n      dup6\n        /* \"contracts/InvoiceData.sol\":707:826  Employee(... */\n      dup2\n      mstore\n      0x20\n      add\n        /* \"contracts/InvoiceData.sol\":775:790  _accountingInfo */\n      dup5\n        /* \"contracts/InvoiceData.sol\":707:826  Employee(... */\n      dup2\n      mstore\n      0x20\n      add\n        /* \"contracts/InvoiceData.sol\":805:815  _timestamp */\n      dup4\n        /* \"contracts/InvoiceData.sol\":707:826  Employee(... */\n      dup2\n      mstore\n      pop\n        /* \"contracts/InvoiceData.sol\":685:692  empData */\n      0x00\n        /* \"contracts/InvoiceData.sol\":685:704  empData[_empNumber] */\n      dup1\n        /* \"contracts/InvoiceData.sol\":693:703  _empNumber */\n      dup8\n        /* \"contracts/InvoiceData.sol\":685:704  empData[_empNumber] */\n      dup2\n      mstore\n      0x20\n      add\n      swap1\n      dup2\n      mstore\n      0x20\n      add\n      0x00\n      keccak256\n        /* \"contracts/InvoiceData.sol\":685:826  empData[_empNumber] = Employee(... */\n      0x00\n      dup3\n      add\n      mload\n      dup2\n      0x00\n      add\n      sstore\n      0x20\n      dup3\n      add\n      mload\n      dup2\n      0x01\n      add\n      swap1\n      dup2\n      tag_92\n      swap2\n      swap1\n      tag_57\n      jump\t// in\n    tag_92:\n      pop\n      0x40\n      dup3\n      add\n      mload\n      dup2\n      0x02\n      add\n      swap1\n      dup2\n      tag_93\n      swap2\n      swap1\n      tag_57\n      jump\t// in\n    tag_93:\n      pop\n      0x60\n      dup3\n      add\n      mload\n      dup2\n      0x03\n      add\n      sstore\n      swap1\n      pop\n      pop\n        /* \"contracts/InvoiceData.sol\":846:856  _empNumber */\n      dup5\n        /* \"contracts/InvoiceData.sol\":839:856  return _empNumber */\n      swap1\n      pop\n        /* \"contracts/InvoiceData.sol\":295:864  function addEmployee(... */\n      swap5\n      swap4\n      pop\n      pop\n      pop\n      pop\n      jump\t// out\n        /* \"contracts/InvoiceData.sol\":872:1307  function getEmployeeInfo(uint256 _empNumber)... */\n    tag_45:\n        /* \"contracts/InvoiceData.sol\":979:986  uint256 */\n      0x00\n        /* \"contracts/InvoiceData.sol\":1001:1014  string memory */\n      0x60\n        /* \"contracts/InvoiceData.sol\":1029:1042  string memory */\n      dup1\n        /* \"contracts/InvoiceData.sol\":1057:1064  uint256 */\n      0x00\n        /* \"contracts/InvoiceData.sol\":1092:1116  Employee memory employee */\n      dup1\n        /* \"contracts/InvoiceData.sol\":1119:1126  empData */\n      0x00\n        /* \"contracts/InvoiceData.sol\":1119:1138  empData[_empNumber] */\n      dup1\n        /* \"contracts/InvoiceData.sol\":1127:1137  _empNumber */\n      dup8\n        /* \"contracts/InvoiceData.sol\":1119:1138  empData[_empNumber] */\n      dup2\n      mstore\n      0x20\n      add\n      swap1\n      dup2\n      mstore\n      0x20\n      add\n      0x00\n      keccak256\n        /* \"contracts/InvoiceData.sol\":1092:1138  Employee memory employee = empData[_empNumber] */\n      mload(0x40)\n      dup1\n      0x80\n      add\n      0x40\n      mstore\n      swap1\n      dup2\n      0x00\n      dup3\n      add\n      sload\n      dup2\n      mstore\n      0x20\n      add\n      0x01\n      dup3\n      add\n      dup1\n      sload\n      tag_95\n      swap1\n      tag_68\n      jump\t// in\n    tag_95:\n      dup1\n      0x1f\n      add\n      0x20\n      dup1\n      swap2\n      div\n      mul\n      0x20\n      add\n      mload(0x40)\n      swap1\n      dup2\n      add\n      0x40\n      mstore\n      dup1\n      swap3\n      swap2\n      swap1\n      dup2\n      dup2\n      mstore\n      0x20\n      add\n      dup3\n      dup1\n      sload\n      tag_96\n      swap1\n      tag_68\n      jump\t// in\n    tag_96:\n      dup1\n      iszero\n      tag_97\n      jumpi\n      dup1\n      0x1f\n      lt\n      tag_98\n      jumpi\n      0x0100\n      dup1\n      dup4\n      sload\n      div\n      mul\n      dup4\n      mstore\n      swap2\n      0x20\n      add\n      swap2\n      jump(tag_97)\n    tag_98:\n      dup3\n      add\n      swap2\n      swap1\n      0x00\n      mstore\n      keccak256(0x00, 0x20)\n      swap1\n    tag_99:\n      dup2\n      sload\n      dup2\n      mstore\n      swap1\n      0x01\n      add\n      swap1\n      0x20\n      add\n      dup1\n      dup4\n      gt\n      tag_99\n      jumpi\n      dup3\n      swap1\n      sub\n      0x1f\n      and\n      dup3\n      add\n      swap2\n    tag_97:\n      pop\n      pop\n      pop\n      pop\n      pop\n      dup2\n      mstore\n      0x20\n      add\n      0x02\n      dup3\n      add\n      dup1\n      sload\n      tag_100\n      swap1\n      tag_68\n      jump\t// in\n    tag_100:\n      dup1\n      0x1f\n      add\n      0x20\n      dup1\n      swap2\n      div\n      mul\n      0x20\n      add\n      mload(0x40)\n      swap1\n      dup2\n      add\n      0x40\n      mstore\n      dup1\n      swap3\n      swap2\n      swap1\n      dup2\n      dup2\n      mstore\n      0x20\n      add\n      dup3\n      dup1\n      sload\n      tag_101\n      swap1\n      tag_68\n      jump\t// in\n    tag_101:\n      dup1\n      iszero\n      tag_102\n      jumpi\n      dup1\n      0x1f\n      lt\n      tag_103\n      jumpi\n      0x0100\n      dup1\n      dup4\n      sload\n      div\n      mul\n      dup4\n      mstore\n      swap2\n      0x20\n      add\n      swap2\n      jump(tag_102)\n    tag_103:\n      dup3\n      add\n      swap2\n      swap1\n      0x00\n      mstore\n      keccak256(0x00, 0x20)\n      swap1\n    tag_104:\n      dup2\n      sload\n      dup2\n      mstore\n      swap1\n      0x01\n      add\n      swap1\n      0x20\n      add\n      dup1\n      dup4\n      gt\n      tag_104\n      jumpi\n      dup3\n      swap1\n      sub\n      0x1f\n      and\n      dup3\n      add\n      swap2\n    tag_102:\n      pop\n      pop\n      pop\n      pop\n      pop\n      dup2\n      mstore\n      0x20\n      add\n      0x03\n      dup3\n      add\n      sload\n      dup2\n      mstore\n      pop\n      pop\n      swap1\n      pop\n        /* \"contracts/InvoiceData.sol\":1171:1179  employee */\n      dup1\n        /* \"contracts/InvoiceData.sol\":1171:1189  employee.empNumber */\n      0x00\n      add\n      mload\n        /* \"contracts/InvoiceData.sol\":1204:1212  employee */\n      dup2\n        /* \"contracts/InvoiceData.sol\":1204:1217  employee.name */\n      0x20\n      add\n      mload\n        /* \"contracts/InvoiceData.sol\":1232:1240  employee */\n      dup3\n        /* \"contracts/InvoiceData.sol\":1232:1255  employee.accountingInfo */\n      0x40\n      add\n      mload\n        /* \"contracts/InvoiceData.sol\":1270:1278  employee */\n      dup4\n        /* \"contracts/InvoiceData.sol\":1270:1288  employee.timestamp */\n      0x60\n      add\n      mload\n        /* \"contracts/InvoiceData.sol\":1149:1299  return (... */\n      swap5\n      pop\n      swap5\n      pop\n      swap5\n      pop\n      swap5\n      pop\n      pop\n        /* \"contracts/InvoiceData.sol\":872:1307  function getEmployeeInfo(uint256 _empNumber)... */\n      swap2\n      swap4\n      pop\n      swap2\n      swap4\n      jump\t// out\n        /* \"contracts/InvoiceData.sol\":4193:4697  function addProductsToInvoice(... */\n    tag_59:\n        /* \"contracts/InvoiceData.sol\":4422:4431  uint256 i */\n      0x00\n        /* \"contracts/InvoiceData.sol\":4417:4694  for (uint256 i = 0; i < _productNames.length; i++) {... */\n    tag_106:\n        /* \"contracts/InvoiceData.sol\":4441:4454  _productNames */\n      dup5\n        /* \"contracts/InvoiceData.sol\":4441:4461  _productNames.length */\n      mload\n        /* \"contracts/InvoiceData.sol\":4437:4438  i */\n      dup2\n        /* \"contracts/InvoiceData.sol\":4437:4461  i < _productNames.length */\n      lt\n        /* \"contracts/InvoiceData.sol\":4417:4694  for (uint256 i = 0; i < _productNames.length; i++) {... */\n      iszero\n      tag_107\n      jumpi\n        /* \"contracts/InvoiceData.sol\":4479:4486  invoice */\n      dup6\n        /* \"contracts/InvoiceData.sol\":4479:4495  invoice.products */\n      0x03\n      add\n        /* \"contracts/InvoiceData.sol\":4515:4675  Product(... */\n      mload(0x40)\n      dup1\n      0x80\n      add\n      0x40\n      mstore\n      dup1\n        /* \"contracts/InvoiceData.sol\":4541:4554  _productNames */\n      dup8\n        /* \"contracts/InvoiceData.sol\":4555:4556  i */\n      dup5\n        /* \"contracts/InvoiceData.sol\":4541:4557  _productNames[i] */\n      dup2\n      mload\n      dup2\n      lt\n      tag_109\n      jumpi\n      tag_110\n      tag_111\n      jump\t// in\n    tag_110:\n    tag_109:\n      0x20\n      mul\n      0x20\n      add\n      add\n      mload\n        /* \"contracts/InvoiceData.sol\":4515:4675  Product(... */\n      dup2\n      mstore\n      0x20\n      add\n        /* \"contracts/InvoiceData.sol\":4576:4592  _pricesBeforeTax */\n      dup7\n        /* \"contracts/InvoiceData.sol\":4593:4594  i */\n      dup5\n        /* \"contracts/InvoiceData.sol\":4576:4595  _pricesBeforeTax[i] */\n      dup2\n      mload\n      dup2\n      lt\n      tag_112\n      jumpi\n      tag_113\n      tag_111\n      jump\t// in\n    tag_113:\n    tag_112:\n      0x20\n      mul\n      0x20\n      add\n      add\n      mload\n        /* \"contracts/InvoiceData.sol\":4515:4675  Product(... */\n      dup2\n      mstore\n      0x20\n      add\n        /* \"contracts/InvoiceData.sol\":4614:4620  _taxes */\n      dup6\n        /* \"contracts/InvoiceData.sol\":4621:4622  i */\n      dup5\n        /* \"contracts/InvoiceData.sol\":4614:4623  _taxes[i] */\n      dup2\n      mload\n      dup2\n      lt\n      tag_114\n      jumpi\n      tag_115\n      tag_111\n      jump\t// in\n    tag_115:\n    tag_114:\n      0x20\n      mul\n      0x20\n      add\n      add\n      mload\n        /* \"contracts/InvoiceData.sol\":4515:4675  Product(... */\n      dup2\n      mstore\n      0x20\n      add\n        /* \"contracts/InvoiceData.sol\":4642:4657  _pricesAfterTax */\n      dup5\n        /* \"contracts/InvoiceData.sol\":4658:4659  i */\n      dup5\n        /* \"contracts/InvoiceData.sol\":4642:4660  _pricesAfterTax[i] */\n      dup2\n      mload\n      dup2\n      lt\n      tag_116\n      jumpi\n      tag_117\n      tag_111\n      jump\t// in\n    tag_117:\n    tag_116:\n      0x20\n      mul\n      0x20\n      add\n      add\n      mload\n        /* \"contracts/InvoiceData.sol\":4515:4675  Product(... */\n      dup2\n      mstore\n      pop\n        /* \"contracts/InvoiceData.sol\":4479:4686  invoice.products.push(... */\n      swap1\n      dup1\n      0x01\n      dup2\n      sload\n      add\n      dup1\n      dup3\n      sstore\n      dup1\n      swap2\n      pop\n      pop\n      0x01\n      swap1\n      sub\n      swap1\n      0x00\n      mstore\n      keccak256(0x00, 0x20)\n      swap1\n      0x04\n      mul\n      add\n      0x00\n      swap1\n      swap2\n      swap1\n      swap2\n      swap1\n      swap2\n      pop\n      0x00\n      dup3\n      add\n      mload\n      dup2\n      0x00\n      add\n      swap1\n      dup2\n      tag_119\n      swap2\n      swap1\n      tag_57\n      jump\t// in\n    tag_119:\n      pop\n      0x20\n      dup3\n      add\n      mload\n      dup2\n      0x01\n      add\n      sstore\n      0x40\n      dup3\n      add\n      mload\n      dup2\n      0x02\n      add\n      sstore\n      0x60\n      dup3\n      add\n      mload\n      dup2\n      0x03\n      add\n      sstore\n      pop\n      pop\n        /* \"contracts/InvoiceData.sol\":4463:4466  i++ */\n      dup1\n      dup1\n      0x01\n      add\n      swap2\n      pop\n      pop\n        /* \"contracts/InvoiceData.sol\":4417:4694  for (uint256 i = 0; i < _productNames.length; i++) {... */\n      jump(tag_106)\n    tag_107:\n      pop\n        /* \"contracts/InvoiceData.sol\":4193:4697  function addProductsToInvoice(... */\n      pop\n      pop\n      pop\n      pop\n      pop\n      jump\t// out\n        /* \"#utility.yul\":7:82   */\n    tag_120:\n        /* \"#utility.yul\":40:46   */\n      0x00\n        /* \"#utility.yul\":73:75   */\n      0x40\n        /* \"#utility.yul\":67:76   */\n      mload\n        /* \"#utility.yul\":57:76   */\n      swap1\n      pop\n        /* \"#utility.yul\":7:82   */\n      swap1\n      jump\t// out\n        /* \"#utility.yul\":88:205   */\n    tag_121:\n        /* \"#utility.yul\":197:198   */\n      0x00\n        /* \"#utility.yul\":194:195   */\n      dup1\n        /* \"#utility.yul\":187:199   */\n      revert\n        /* \"#utility.yul\":211:328   */\n    tag_122:\n        /* \"#utility.yul\":320:321   */\n      0x00\n        /* \"#utility.yul\":317:318   */\n      dup1\n        /* \"#utility.yul\":310:322   */\n      revert\n        /* \"#utility.yul\":334:411   */\n    tag_123:\n        /* \"#utility.yul\":371:378   */\n      0x00\n        /* \"#utility.yul\":400:405   */\n      dup2\n        /* \"#utility.yul\":389:405   */\n      swap1\n      pop\n        /* \"#utility.yul\":334:411   */\n      swap2\n      swap1\n      pop\n      jump\t// out\n        /* \"#utility.yul\":417:539   */\n    tag_124:\n        /* \"#utility.yul\":490:514   */\n      tag_181\n        /* \"#utility.yul\":508:513   */\n      dup2\n        /* \"#utility.yul\":490:514   */\n      tag_123\n      jump\t// in\n    tag_181:\n        /* \"#utility.yul\":483:488   */\n      dup2\n        /* \"#utility.yul\":480:515   */\n      eq\n        /* \"#utility.yul\":470:533   */\n      tag_182\n      jumpi\n        /* \"#utility.yul\":529:530   */\n      0x00\n        /* \"#utility.yul\":526:527   */\n      dup1\n        /* \"#utility.yul\":519:531   */\n      revert\n        /* \"#utility.yul\":470:533   */\n    tag_182:\n        /* \"#utility.yul\":417:539   */\n      pop\n      jump\t// out\n        /* \"#utility.yul\":545:684   */\n    tag_125:\n        /* \"#utility.yul\":591:596   */\n      0x00\n        /* \"#utility.yul\":629:635   */\n      dup2\n        /* \"#utility.yul\":616:636   */\n      calldataload\n        /* \"#utility.yul\":607:636   */\n      swap1\n      pop\n        /* \"#utility.yul\":645:678   */\n      tag_184\n        /* \"#utility.yul\":672:677   */\n      dup2\n        /* \"#utility.yul\":645:678   */\n      tag_124\n      jump\t// in\n    tag_184:\n        /* \"#utility.yul\":545:684   */\n      swap3\n      swap2\n      pop\n      pop\n      jump\t// out\n        /* \"#utility.yul\":690:804   */\n    tag_126:\n        /* \"#utility.yul\":778:779   */\n      0x03\n        /* \"#utility.yul\":771:776   */\n      dup2\n        /* \"#utility.yul\":768:780   */\n      lt\n        /* \"#utility.yul\":758:798   */\n      tag_186\n      jumpi\n        /* \"#utility.yul\":794:795   */\n      0x00\n        /* \"#utility.yul\":791:792   */\n      dup1\n        /* \"#utility.yul\":784:796   */\n      revert\n        /* \"#utility.yul\":758:798   */\n    tag_186:\n        /* \"#utility.yul\":690:804   */\n      pop\n      jump\t// out\n        /* \"#utility.yul\":810:979   */\n    tag_127:\n        /* \"#utility.yul\":871:876   */\n      0x00\n        /* \"#utility.yul\":909:915   */\n      dup2\n        /* \"#utility.yul\":896:916   */\n      calldataload\n        /* \"#utility.yul\":887:916   */\n      swap1\n      pop\n        /* \"#utility.yul\":925:973   */\n      tag_188\n        /* \"#utility.yul\":967:972   */\n      dup2\n        /* \"#utility.yul\":925:973   */\n      tag_126\n      jump\t// in\n    tag_188:\n        /* \"#utility.yul\":810:979   */\n      swap3\n      swap2\n      pop\n      pop\n      jump\t// out\n        /* \"#utility.yul\":985:1102   */\n    tag_128:\n        /* \"#utility.yul\":1094:1095   */\n      0x00\n        /* \"#utility.yul\":1091:1092   */\n      dup1\n        /* \"#utility.yul\":1084:1096   */\n      revert\n        /* \"#utility.yul\":1108:1210   */\n    tag_129:\n        /* \"#utility.yul\":1149:1155   */\n      0x00\n        /* \"#utility.yul\":1200:1202   */\n      0x1f\n        /* \"#utility.yul\":1196:1203   */\n      not\n        /* \"#utility.yul\":1191:1193   */\n      0x1f\n        /* \"#utility.yul\":1184:1189   */\n      dup4\n        /* \"#utility.yul\":1180:1194   */\n      add\n        /* \"#utility.yul\":1176:1204   */\n      and\n        /* \"#utility.yul\":1166:1204   */\n      swap1\n      pop\n        /* \"#utility.yul\":1108:1210   */\n      swap2\n      swap1\n      pop\n      jump\t// out\n        /* \"#utility.yul\":1216:1396   */\n    tag_130:\n        /* \"#utility.yul\":1264:1341   */\n      0x4e487b7100000000000000000000000000000000000000000000000000000000\n        /* \"#utility.yul\":1261:1262   */\n      0x00\n        /* \"#utility.yul\":1254:1342   */\n      mstore\n        /* \"#utility.yul\":1361:1365   */\n      0x41\n        /* \"#utility.yul\":1358:1359   */\n      0x04\n        /* \"#utility.yul\":1351:1366   */\n      mstore\n        /* \"#utility.yul\":1385:1389   */\n      0x24\n        /* \"#utility.yul\":1382:1383   */\n      0x00\n        /* \"#utility.yul\":1375:1390   */\n      revert\n        /* \"#utility.yul\":1402:1683   */\n    tag_131:\n        /* \"#utility.yul\":1485:1512   */\n      tag_193\n        /* \"#utility.yul\":1507:1511   */\n      dup3\n        /* \"#utility.yul\":1485:1512   */\n      tag_129\n      jump\t// in\n    tag_193:\n        /* \"#utility.yul\":1477:1483   */\n      dup2\n        /* \"#utility.yul\":1473:1513   */\n      add\n        /* \"#utility.yul\":1615:1621   */\n      dup2\n        /* \"#utility.yul\":1603:1613   */\n      dup2\n        /* \"#utility.yul\":1600:1622   */\n      lt\n        /* \"#utility.yul\":1579:1597   */\n      0xffffffffffffffff\n        /* \"#utility.yul\":1567:1577   */\n      dup3\n        /* \"#utility.yul\":1564:1598   */\n      gt\n        /* \"#utility.yul\":1561:1623   */\n      or\n        /* \"#utility.yul\":1558:1646   */\n      iszero\n      tag_194\n      jumpi\n        /* \"#utility.yul\":1626:1644   */\n      tag_195\n      tag_130\n      jump\t// in\n    tag_195:\n        /* \"#utility.yul\":1558:1646   */\n    tag_194:\n        /* \"#utility.yul\":1666:1676   */\n      dup1\n        /* \"#utility.yul\":1662:1664   */\n      0x40\n        /* \"#utility.yul\":1655:1677   */\n      mstore\n        /* \"#utility.yul\":1445:1683   */\n      pop\n        /* \"#utility.yul\":1402:1683   */\n      pop\n      pop\n      jump\t// out\n        /* \"#utility.yul\":1689:1818   */\n    tag_132:\n        /* \"#utility.yul\":1723:1729   */\n      0x00\n        /* \"#utility.yul\":1750:1770   */\n      tag_197\n      tag_120\n      jump\t// in\n    tag_197:\n        /* \"#utility.yul\":1740:1770   */\n      swap1\n      pop\n        /* \"#utility.yul\":1779:1812   */\n      tag_198\n        /* \"#utility.yul\":1807:1811   */\n      dup3\n        /* \"#utility.yul\":1799:1805   */\n      dup3\n        /* \"#utility.yul\":1779:1812   */\n      tag_131\n      jump\t// in\n    tag_198:\n        /* \"#utility.yul\":1689:1818   */\n      swap2\n      swap1\n      pop\n      jump\t// out\n        /* \"#utility.yul\":1824:2145   */\n    tag_133:\n        /* \"#utility.yul\":1911:1915   */\n      0x00\n        /* \"#utility.yul\":2001:2019   */\n      0xffffffffffffffff\n        /* \"#utility.yul\":1993:1999   */\n      dup3\n        /* \"#utility.yul\":1990:2020   */\n      gt\n        /* \"#utility.yul\":1987:2043   */\n      iszero\n      tag_200\n      jumpi\n        /* \"#utility.yul\":2023:2041   */\n      tag_201\n      tag_130\n      jump\t// in\n    tag_201:\n        /* \"#utility.yul\":1987:2043   */\n    tag_200:\n        /* \"#utility.yul\":2073:2077   */\n      0x20\n        /* \"#utility.yul\":2065:2071   */\n      dup3\n        /* \"#utility.yul\":2061:2078   */\n      mul\n        /* \"#utility.yul\":2053:2078   */\n      swap1\n      pop\n        /* \"#utility.yul\":2133:2137   */\n      0x20\n        /* \"#utility.yul\":2127:2131   */\n      dup2\n        /* \"#utility.yul\":2123:2138   */\n      add\n        /* \"#utility.yul\":2115:2138   */\n      swap1\n      pop\n        /* \"#utility.yul\":1824:2145   */\n      swap2\n      swap1\n      pop\n      jump\t// out\n        /* \"#utility.yul\":2151:2268   */\n    tag_134:\n        /* \"#utility.yul\":2260:2261   */\n      0x00\n        /* \"#utility.yul\":2257:2258   */\n      dup1\n        /* \"#utility.yul\":2250:2262   */\n      revert\n        /* \"#utility.yul\":2274:2391   */\n    tag_135:\n        /* \"#utility.yul\":2383:2384   */\n      0x00\n        /* \"#utility.yul\":2380:2381   */\n      dup1\n        /* \"#utility.yul\":2373:2385   */\n      revert\n        /* \"#utility.yul\":2397:2705   */\n    tag_136:\n        /* \"#utility.yul\":2459:2463   */\n      0x00\n        /* \"#utility.yul\":2549:2567   */\n      0xffffffffffffffff\n        /* \"#utility.yul\":2541:2547   */\n      dup3\n        /* \"#utility.yul\":2538:2568   */\n      gt\n        /* \"#utility.yul\":2535:2591   */\n      iszero\n      tag_205\n      jumpi\n        /* \"#utility.yul\":2571:2589   */\n      tag_206\n      tag_130\n      jump\t// in\n    tag_206:\n        /* \"#utility.yul\":2535:2591   */\n    tag_205:\n        /* \"#utility.yul\":2609:2638   */\n      tag_207\n        /* \"#utility.yul\":2631:2637   */\n      dup3\n        /* \"#utility.yul\":2609:2638   */\n      tag_129\n      jump\t// in\n    tag_207:\n        /* \"#utility.yul\":2601:2638   */\n      swap1\n      pop\n        /* \"#utility.yul\":2693:2697   */\n      0x20\n        /* \"#utility.yul\":2687:2691   */\n      dup2\n        /* \"#utility.yul\":2683:2698   */\n      add\n        /* \"#utility.yul\":2675:2698   */\n      swap1\n      pop\n        /* \"#utility.yul\":2397:2705   */\n      swap2\n      swap1\n      pop\n      jump\t// out\n        /* \"#utility.yul\":2711:2859   */\n    tag_137:\n        /* \"#utility.yul\":2809:2815   */\n      dup3\n        /* \"#utility.yul\":2804:2807   */\n      dup2\n        /* \"#utility.yul\":2799:2802   */\n      dup4\n        /* \"#utility.yul\":2786:2816   */\n      calldatacopy\n        /* \"#utility.yul\":2850:2851   */\n      0x00\n        /* \"#utility.yul\":2841:2847   */\n      dup4\n        /* \"#utility.yul\":2836:2839   */\n      dup4\n        /* \"#utility.yul\":2832:2848   */\n      add\n        /* \"#utility.yul\":2825:2852   */\n      mstore\n        /* \"#utility.yul\":2711:2859   */\n      pop\n      pop\n      pop\n      jump\t// out\n        /* \"#utility.yul\":2865:3290   */\n    tag_138:\n        /* \"#utility.yul\":2943:2948   */\n      0x00\n        /* \"#utility.yul\":2968:3034   */\n      tag_210\n        /* \"#utility.yul\":2984:3033   */\n      tag_211\n        /* \"#utility.yul\":3026:3032   */\n      dup5\n        /* \"#utility.yul\":2984:3033   */\n      tag_136\n      jump\t// in\n    tag_211:\n        /* \"#utility.yul\":2968:3034   */\n      tag_132\n      jump\t// in\n    tag_210:\n        /* \"#utility.yul\":2959:3034   */\n      swap1\n      pop\n        /* \"#utility.yul\":3057:3063   */\n      dup3\n        /* \"#utility.yul\":3050:3055   */\n      dup2\n        /* \"#utility.yul\":3043:3064   */\n      mstore\n        /* \"#utility.yul\":3095:3099   */\n      0x20\n        /* \"#utility.yul\":3088:3093   */\n      dup2\n        /* \"#utility.yul\":3084:3100   */\n      add\n        /* \"#utility.yul\":3133:3136   */\n      dup5\n        /* \"#utility.yul\":3124:3130   */\n      dup5\n        /* \"#utility.yul\":3119:3122   */\n      dup5\n        /* \"#utility.yul\":3115:3131   */\n      add\n        /* \"#utility.yul\":3112:3137   */\n      gt\n        /* \"#utility.yul\":3109:3221   */\n      iszero\n      tag_212\n      jumpi\n        /* \"#utility.yul\":3140:3219   */\n      tag_213\n      tag_135\n      jump\t// in\n    tag_213:\n        /* \"#utility.yul\":3109:3221   */\n    tag_212:\n        /* \"#utility.yul\":3230:3284   */\n      tag_214\n        /* \"#utility.yul\":3277:3283   */\n      dup5\n        /* \"#utility.yul\":3272:3275   */\n      dup3\n        /* \"#utility.yul\":3267:3270   */\n      dup6\n        /* \"#utility.yul\":3230:3284   */\n      tag_137\n      jump\t// in\n    tag_214:\n        /* \"#utility.yul\":2949:3290   */\n      pop\n        /* \"#utility.yul\":2865:3290   */\n      swap4\n      swap3\n      pop\n      pop\n      pop\n      jump\t// out\n        /* \"#utility.yul\":3310:3650   */\n    tag_139:\n        /* \"#utility.yul\":3366:3371   */\n      0x00\n        /* \"#utility.yul\":3415:3418   */\n      dup3\n        /* \"#utility.yul\":3408:3412   */\n      0x1f\n        /* \"#utility.yul\":3400:3406   */\n      dup4\n        /* \"#utility.yul\":3396:3413   */\n      add\n        /* \"#utility.yul\":3392:3419   */\n      slt\n        /* \"#utility.yul\":3382:3504   */\n      tag_216\n      jumpi\n        /* \"#utility.yul\":3423:3502   */\n      tag_217\n      tag_128\n      jump\t// in\n    tag_217:\n        /* \"#utility.yul\":3382:3504   */\n    tag_216:\n        /* \"#utility.yul\":3540:3546   */\n      dup2\n        /* \"#utility.yul\":3527:3547   */\n      calldataload\n        /* \"#utility.yul\":3565:3644   */\n      tag_218\n        /* \"#utility.yul\":3640:3643   */\n      dup5\n        /* \"#utility.yul\":3632:3638   */\n      dup3\n        /* \"#utility.yul\":3625:3629   */\n      0x20\n        /* \"#utility.yul\":3617:3623   */\n      dup7\n        /* \"#utility.yul\":3613:3630   */\n      add\n        /* \"#utility.yul\":3565:3644   */\n      tag_138\n      jump\t// in\n    tag_218:\n        /* \"#utility.yul\":3556:3644   */\n      swap2\n      pop\n        /* \"#utility.yul\":3372:3650   */\n      pop\n        /* \"#utility.yul\":3310:3650   */\n      swap3\n      swap2\n      pop\n      pop\n      jump\t// out\n        /* \"#utility.yul\":3672:4617   */\n    tag_140:\n        /* \"#utility.yul\":3778:3783   */\n      0x00\n        /* \"#utility.yul\":3803:3894   */\n      tag_220\n        /* \"#utility.yul\":3819:3893   */\n      tag_221\n        /* \"#utility.yul\":3886:3892   */\n      dup5\n        /* \"#utility.yul\":3819:3893   */\n      tag_133\n      jump\t// in\n    tag_221:\n        /* \"#utility.yul\":3803:3894   */\n      tag_132\n      jump\t// in\n    tag_220:\n        /* \"#utility.yul\":3794:3894   */\n      swap1\n      pop\n        /* \"#utility.yul\":3914:3919   */\n      dup1\n        /* \"#utility.yul\":3943:3949   */\n      dup4\n        /* \"#utility.yul\":3936:3941   */\n      dup3\n        /* \"#utility.yul\":3929:3950   */\n      mstore\n        /* \"#utility.yul\":3977:3981   */\n      0x20\n        /* \"#utility.yul\":3970:3975   */\n      dup3\n        /* \"#utility.yul\":3966:3982   */\n      add\n        /* \"#utility.yul\":3959:3982   */\n      swap1\n      pop\n        /* \"#utility.yul\":4030:4034   */\n      0x20\n        /* \"#utility.yul\":4022:4028   */\n      dup5\n        /* \"#utility.yul\":4018:4035   */\n      mul\n        /* \"#utility.yul\":4010:4016   */\n      dup4\n        /* \"#utility.yul\":4006:4036   */\n      add\n        /* \"#utility.yul\":4059:4062   */\n      dup6\n        /* \"#utility.yul\":4051:4057   */\n      dup2\n        /* \"#utility.yul\":4048:4063   */\n      gt\n        /* \"#utility.yul\":4045:4167   */\n      iszero\n      tag_222\n      jumpi\n        /* \"#utility.yul\":4078:4157   */\n      tag_223\n      tag_134\n      jump\t// in\n    tag_223:\n        /* \"#utility.yul\":4045:4167   */\n    tag_222:\n        /* \"#utility.yul\":4193:4199   */\n      dup4\n        /* \"#utility.yul\":4176:4611   */\n    tag_224:\n        /* \"#utility.yul\":4210:4216   */\n      dup2\n        /* \"#utility.yul\":4205:4208   */\n      dup2\n        /* \"#utility.yul\":4202:4217   */\n      lt\n        /* \"#utility.yul\":4176:4611   */\n      iszero\n      tag_226\n      jumpi\n        /* \"#utility.yul\":4299:4302   */\n      dup1\n        /* \"#utility.yul\":4286:4303   */\n      calldataload\n        /* \"#utility.yul\":4335:4353   */\n      0xffffffffffffffff\n        /* \"#utility.yul\":4322:4333   */\n      dup2\n        /* \"#utility.yul\":4319:4354   */\n      gt\n        /* \"#utility.yul\":4316:4438   */\n      iszero\n      tag_227\n      jumpi\n        /* \"#utility.yul\":4357:4436   */\n      tag_228\n      tag_128\n      jump\t// in\n    tag_228:\n        /* \"#utility.yul\":4316:4438   */\n    tag_227:\n        /* \"#utility.yul\":4481:4492   */\n      dup1\n        /* \"#utility.yul\":4473:4479   */\n      dup7\n        /* \"#utility.yul\":4469:4493   */\n      add\n        /* \"#utility.yul\":4519:4566   */\n      tag_229\n        /* \"#utility.yul\":4562:4565   */\n      dup10\n        /* \"#utility.yul\":4550:4560   */\n      dup3\n        /* \"#utility.yul\":4519:4566   */\n      tag_139\n      jump\t// in\n    tag_229:\n        /* \"#utility.yul\":4514:4517   */\n      dup6\n        /* \"#utility.yul\":4507:4567   */\n      mstore\n        /* \"#utility.yul\":4596:4600   */\n      0x20\n        /* \"#utility.yul\":4591:4594   */\n      dup6\n        /* \"#utility.yul\":4587:4601   */\n      add\n        /* \"#utility.yul\":4580:4601   */\n      swap5\n      pop\n        /* \"#utility.yul\":4252:4611   */\n      pop\n      pop\n        /* \"#utility.yul\":4236:4240   */\n      0x20\n        /* \"#utility.yul\":4231:4234   */\n      dup2\n        /* \"#utility.yul\":4227:4241   */\n      add\n        /* \"#utility.yul\":4220:4241   */\n      swap1\n      pop\n        /* \"#utility.yul\":4176:4611   */\n      jump(tag_224)\n    tag_226:\n        /* \"#utility.yul\":4180:4201   */\n      pop\n        /* \"#utility.yul\":3784:4617   */\n      pop\n      pop\n        /* \"#utility.yul\":3672:4617   */\n      swap4\n      swap3\n      pop\n      pop\n      pop\n      jump\t// out\n        /* \"#utility.yul\":4639:5029   */\n    tag_141:\n        /* \"#utility.yul\":4720:4725   */\n      0x00\n        /* \"#utility.yul\":4769:4772   */\n      dup3\n        /* \"#utility.yul\":4762:4766   */\n      0x1f\n        /* \"#utility.yul\":4754:4760   */\n      dup4\n        /* \"#utility.yul\":4750:4767   */\n      add\n        /* \"#utility.yul\":4746:4773   */\n      slt\n        /* \"#utility.yul\":4736:4858   */\n      tag_231\n      jumpi\n        /* \"#utility.yul\":4777:4856   */\n      tag_232\n      tag_128\n      jump\t// in\n    tag_232:\n        /* \"#utility.yul\":4736:4858   */\n    tag_231:\n        /* \"#utility.yul\":4894:4900   */\n      dup2\n        /* \"#utility.yul\":4881:4901   */\n      calldataload\n        /* \"#utility.yul\":4919:5023   */\n      tag_233\n        /* \"#utility.yul\":5019:5022   */\n      dup5\n        /* \"#utility.yul\":5011:5017   */\n      dup3\n        /* \"#utility.yul\":5004:5008   */\n      0x20\n        /* \"#utility.yul\":4996:5002   */\n      dup7\n        /* \"#utility.yul\":4992:5009   */\n      add\n        /* \"#utility.yul\":4919:5023   */\n      tag_140\n      jump\t// in\n    tag_233:\n        /* \"#utility.yul\":4910:5023   */\n      swap2\n      pop\n        /* \"#utility.yul\":4726:5029   */\n      pop\n        /* \"#utility.yul\":4639:5029   */\n      swap3\n      swap2\n      pop\n      pop\n      jump\t// out\n        /* \"#utility.yul\":5035:5346   */\n    tag_142:\n        /* \"#utility.yul\":5112:5116   */\n      0x00\n        /* \"#utility.yul\":5202:5220   */\n      0xffffffffffffffff\n        /* \"#utility.yul\":5194:5200   */\n      dup3\n        /* \"#utility.yul\":5191:5221   */\n      gt\n        /* \"#utility.yul\":5188:5244   */\n      iszero\n      tag_235\n      jumpi\n        /* \"#utility.yul\":5224:5242   */\n      tag_236\n      tag_130\n      jump\t// in\n    tag_236:\n        /* \"#utility.yul\":5188:5244   */\n    tag_235:\n        /* \"#utility.yul\":5274:5278   */\n      0x20\n        /* \"#utility.yul\":5266:5272   */\n      dup3\n        /* \"#utility.yul\":5262:5279   */\n      mul\n        /* \"#utility.yul\":5254:5279   */\n      swap1\n      pop\n        /* \"#utility.yul\":5334:5338   */\n      0x20\n        /* \"#utility.yul\":5328:5332   */\n      dup2\n        /* \"#utility.yul\":5324:5339   */\n      add\n        /* \"#utility.yul\":5316:5339   */\n      swap1\n      pop\n        /* \"#utility.yul\":5035:5346   */\n      swap2\n      swap1\n      pop\n      jump\t// out\n        /* \"#utility.yul\":5369:6079   */\n    tag_143:\n        /* \"#utility.yul\":5465:5470   */\n      0x00\n        /* \"#utility.yul\":5490:5571   */\n      tag_238\n        /* \"#utility.yul\":5506:5570   */\n      tag_239\n        /* \"#utility.yul\":5563:5569   */\n      dup5\n        /* \"#utility.yul\":5506:5570   */\n      tag_142\n      jump\t// in\n    tag_239:\n        /* \"#utility.yul\":5490:5571   */\n      tag_132\n      jump\t// in\n    tag_238:\n        /* \"#utility.yul\":5481:5571   */\n      swap1\n      pop\n        /* \"#utility.yul\":5591:5596   */\n      dup1\n        /* \"#utility.yul\":5620:5626   */\n      dup4\n        /* \"#utility.yul\":5613:5618   */\n      dup3\n        /* \"#utility.yul\":5606:5627   */\n      mstore\n        /* \"#utility.yul\":5654:5658   */\n      0x20\n        /* \"#utility.yul\":5647:5652   */\n      dup3\n        /* \"#utility.yul\":5643:5659   */\n      add\n        /* \"#utility.yul\":5636:5659   */\n      swap1\n      pop\n        /* \"#utility.yul\":5707:5711   */\n      0x20\n        /* \"#utility.yul\":5699:5705   */\n      dup5\n        /* \"#utility.yul\":5695:5712   */\n      mul\n        /* \"#utility.yul\":5687:5693   */\n      dup4\n        /* \"#utility.yul\":5683:5713   */\n      add\n        /* \"#utility.yul\":5736:5739   */\n      dup6\n        /* \"#utility.yul\":5728:5734   */\n      dup2\n        /* \"#utility.yul\":5725:5740   */\n      gt\n        /* \"#utility.yul\":5722:5844   */\n      iszero\n      tag_240\n      jumpi\n        /* \"#utility.yul\":5755:5834   */\n      tag_241\n      tag_134\n      jump\t// in\n    tag_241:\n        /* \"#utility.yul\":5722:5844   */\n    tag_240:\n        /* \"#utility.yul\":5870:5876   */\n      dup4\n        /* \"#utility.yul\":5853:6073   */\n    tag_242:\n        /* \"#utility.yul\":5887:5893   */\n      dup2\n        /* \"#utility.yul\":5882:5885   */\n      dup2\n        /* \"#utility.yul\":5879:5894   */\n      lt\n        /* \"#utility.yul\":5853:6073   */\n      iszero\n      tag_244\n      jumpi\n        /* \"#utility.yul\":5962:5965   */\n      dup1\n        /* \"#utility.yul\":5991:6028   */\n      tag_245\n        /* \"#utility.yul\":6024:6027   */\n      dup9\n        /* \"#utility.yul\":6012:6022   */\n      dup3\n        /* \"#utility.yul\":5991:6028   */\n      tag_125\n      jump\t// in\n    tag_245:\n        /* \"#utility.yul\":5986:5989   */\n      dup5\n        /* \"#utility.yul\":5979:6029   */\n      mstore\n        /* \"#utility.yul\":6058:6062   */\n      0x20\n        /* \"#utility.yul\":6053:6056   */\n      dup5\n        /* \"#utility.yul\":6049:6063   */\n      add\n        /* \"#utility.yul\":6042:6063   */\n      swap4\n      pop\n        /* \"#utility.yul\":5929:6073   */\n      pop\n        /* \"#utility.yul\":5913:5917   */\n      0x20\n        /* \"#utility.yul\":5908:5911   */\n      dup2\n        /* \"#utility.yul\":5904:5918   */\n      add\n        /* \"#utility.yul\":5897:5918   */\n      swap1\n      pop\n        /* \"#utility.yul\":5853:6073   */\n      jump(tag_242)\n    tag_244:\n        /* \"#utility.yul\":5857:5878   */\n      pop\n        /* \"#utility.yul\":5471:6079   */\n      pop\n      pop\n        /* \"#utility.yul\":5369:6079   */\n      swap4\n      swap3\n      pop\n      pop\n      pop\n      jump\t// out\n        /* \"#utility.yul\":6102:6472   */\n    tag_144:\n        /* \"#utility.yul\":6173:6178   */\n      0x00\n        /* \"#utility.yul\":6222:6225   */\n      dup3\n        /* \"#utility.yul\":6215:6219   */\n      0x1f\n        /* \"#utility.yul\":6207:6213   */\n      dup4\n        /* \"#utility.yul\":6203:6220   */\n      add\n        /* \"#utility.yul\":6199:6226   */\n      slt\n        /* \"#utility.yul\":6189:6311   */\n      tag_247\n      jumpi\n        /* \"#utility.yul\":6230:6309   */\n      tag_248\n      tag_128\n      jump\t// in\n    tag_248:\n        /* \"#utility.yul\":6189:6311   */\n    tag_247:\n        /* \"#utility.yul\":6347:6353   */\n      dup2\n        /* \"#utility.yul\":6334:6354   */\n      calldataload\n        /* \"#utility.yul\":6372:6466   */\n      tag_249\n        /* \"#utility.yul\":6462:6465   */\n      dup5\n        /* \"#utility.yul\":6454:6460   */\n      dup3\n        /* \"#utility.yul\":6447:6451   */\n      0x20\n        /* \"#utility.yul\":6439:6445   */\n      dup7\n        /* \"#utility.yul\":6435:6452   */\n      add\n        /* \"#utility.yul\":6372:6466   */\n      tag_143\n      jump\t// in\n    tag_249:\n        /* \"#utility.yul\":6363:6466   */\n      swap2\n      pop\n        /* \"#utility.yul\":6179:6472   */\n      pop\n        /* \"#utility.yul\":6102:6472   */\n      swap3\n      swap2\n      pop\n      pop\n      jump\t// out\n        /* \"#utility.yul\":6478:9337   */\n    tag_14:\n        /* \"#utility.yul\":6762:6768   */\n      0x00\n        /* \"#utility.yul\":6770:6776   */\n      dup1\n        /* \"#utility.yul\":6778:6784   */\n      0x00\n        /* \"#utility.yul\":6786:6792   */\n      dup1\n        /* \"#utility.yul\":6794:6800   */\n      0x00\n        /* \"#utility.yul\":6802:6808   */\n      dup1\n        /* \"#utility.yul\":6810:6816   */\n      0x00\n        /* \"#utility.yul\":6818:6824   */\n      dup1\n        /* \"#utility.yul\":6826:6832   */\n      0x00\n        /* \"#utility.yul\":6834:6840   */\n      dup1\n        /* \"#utility.yul\":6842:6849   */\n      0x00\n        /* \"#utility.yul\":6892:6895   */\n      0x0160\n        /* \"#utility.yul\":6880:6889   */\n      dup13\n        /* \"#utility.yul\":6871:6878   */\n      dup15\n        /* \"#utility.yul\":6867:6890   */\n      sub\n        /* \"#utility.yul\":6863:6896   */\n      slt\n        /* \"#utility.yul\":6860:6980   */\n      iszero\n      tag_251\n      jumpi\n        /* \"#utility.yul\":6899:6978   */\n      tag_252\n      tag_121\n      jump\t// in\n    tag_252:\n        /* \"#utility.yul\":6860:6980   */\n    tag_251:\n        /* \"#utility.yul\":7019:7020   */\n      0x00\n        /* \"#utility.yul\":7044:7097   */\n      tag_253\n        /* \"#utility.yul\":7089:7096   */\n      dup15\n        /* \"#utility.yul\":7080:7086   */\n      dup3\n        /* \"#utility.yul\":7069:7078   */\n      dup16\n        /* \"#utility.yul\":7065:7087   */\n      add\n        /* \"#utility.yul\":7044:7097   */\n      tag_125\n      jump\t// in\n    tag_253:\n        /* \"#utility.yul\":7034:7097   */\n      swap12\n      pop\n        /* \"#utility.yul\":6990:7107   */\n      pop\n        /* \"#utility.yul\":7146:7148   */\n      0x20\n        /* \"#utility.yul\":7172:7240   */\n      tag_254\n        /* \"#utility.yul\":7232:7239   */\n      dup15\n        /* \"#utility.yul\":7223:7229   */\n      dup3\n        /* \"#utility.yul\":7212:7221   */\n      dup16\n        /* \"#utility.yul\":7208:7230   */\n      add\n        /* \"#utility.yul\":7172:7240   */\n      tag_127\n      jump\t// in\n    tag_254:\n        /* \"#utility.yul\":7162:7240   */\n      swap11\n      pop\n        /* \"#utility.yul\":7117:7250   */\n      pop\n        /* \"#utility.yul\":7289:7291   */\n      0x40\n        /* \"#utility.yul\":7315:7368   */\n      tag_255\n        /* \"#utility.yul\":7360:7367   */\n      dup15\n        /* \"#utility.yul\":7351:7357   */\n      dup3\n        /* \"#utility.yul\":7340:7349   */\n      dup16\n        /* \"#utility.yul\":7336:7358   */\n      add\n        /* \"#utility.yul\":7315:7368   */\n      tag_125\n      jump\t// in\n    tag_255:\n        /* \"#utility.yul\":7305:7368   */\n      swap10\n      pop\n        /* \"#utility.yul\":7260:7378   */\n      pop\n        /* \"#utility.yul\":7445:7447   */\n      0x60\n        /* \"#utility.yul\":7434:7443   */\n      dup13\n        /* \"#utility.yul\":7430:7448   */\n      add\n        /* \"#utility.yul\":7417:7449   */\n      calldataload\n        /* \"#utility.yul\":7476:7494   */\n      0xffffffffffffffff\n        /* \"#utility.yul\":7468:7474   */\n      dup2\n        /* \"#utility.yul\":7465:7495   */\n      gt\n        /* \"#utility.yul\":7462:7579   */\n      iszero\n      tag_256\n      jumpi\n        /* \"#utility.yul\":7498:7577   */\n      tag_257\n      tag_122\n      jump\t// in\n    tag_257:\n        /* \"#utility.yul\":7462:7579   */\n    tag_256:\n        /* \"#utility.yul\":7603:7691   */\n      tag_258\n        /* \"#utility.yul\":7683:7690   */\n      dup15\n        /* \"#utility.yul\":7674:7680   */\n      dup3\n        /* \"#utility.yul\":7663:7672   */\n      dup16\n        /* \"#utility.yul\":7659:7681   */\n      add\n        /* \"#utility.yul\":7603:7691   */\n      tag_141\n      jump\t// in\n    tag_258:\n        /* \"#utility.yul\":7593:7691   */\n      swap9\n      pop\n        /* \"#utility.yul\":7388:7701   */\n      pop\n        /* \"#utility.yul\":7768:7771   */\n      0x80\n        /* \"#utility.yul\":7757:7766   */\n      dup13\n        /* \"#utility.yul\":7753:7772   */\n      add\n        /* \"#utility.yul\":7740:7773   */\n      calldataload\n        /* \"#utility.yul\":7800:7818   */\n      0xffffffffffffffff\n        /* \"#utility.yul\":7792:7798   */\n      dup2\n        /* \"#utility.yul\":7789:7819   */\n      gt\n        /* \"#utility.yul\":7786:7903   */\n      iszero\n      tag_259\n      jumpi\n        /* \"#utility.yul\":7822:7901   */\n      tag_260\n      tag_122\n      jump\t// in\n    tag_260:\n        /* \"#utility.yul\":7786:7903   */\n    tag_259:\n        /* \"#utility.yul\":7927:8005   */\n      tag_261\n        /* \"#utility.yul\":7997:8004   */\n      dup15\n        /* \"#utility.yul\":7988:7994   */\n      dup3\n        /* \"#utility.yul\":7977:7986   */\n      dup16\n        /* \"#utility.yul\":7973:7995   */\n      add\n        /* \"#utility.yul\":7927:8005   */\n      tag_144\n      jump\t// in\n    tag_261:\n        /* \"#utility.yul\":7917:8005   */\n      swap8\n      pop\n        /* \"#utility.yul\":7711:8015   */\n      pop\n        /* \"#utility.yul\":8082:8085   */\n      0xa0\n        /* \"#utility.yul\":8071:8080   */\n      dup13\n        /* \"#utility.yul\":8067:8086   */\n      add\n        /* \"#utility.yul\":8054:8087   */\n      calldataload\n        /* \"#utility.yul\":8114:8132   */\n      0xffffffffffffffff\n        /* \"#utility.yul\":8106:8112   */\n      dup2\n        /* \"#utility.yul\":8103:8133   */\n      gt\n        /* \"#utility.yul\":8100:8217   */\n      iszero\n      tag_262\n      jumpi\n        /* \"#utility.yul\":8136:8215   */\n      tag_263\n      tag_122\n      jump\t// in\n    tag_263:\n        /* \"#utility.yul\":8100:8217   */\n    tag_262:\n        /* \"#utility.yul\":8241:8319   */\n      tag_264\n        /* \"#utility.yul\":8311:8318   */\n      dup15\n        /* \"#utility.yul\":8302:8308   */\n      dup3\n        /* \"#utility.yul\":8291:8300   */\n      dup16\n        /* \"#utility.yul\":8287:8309   */\n      add\n        /* \"#utility.yul\":8241:8319   */\n      tag_144\n      jump\t// in\n    tag_264:\n        /* \"#utility.yul\":8231:8319   */\n      swap7\n      pop\n        /* \"#utility.yul\":8025:8329   */\n      pop\n        /* \"#utility.yul\":8396:8399   */\n      0xc0\n        /* \"#utility.yul\":8385:8394   */\n      dup13\n        /* \"#utility.yul\":8381:8400   */\n      add\n        /* \"#utility.yul\":8368:8401   */\n      calldataload\n        /* \"#utility.yul\":8428:8446   */\n      0xffffffffffffffff\n        /* \"#utility.yul\":8420:8426   */\n      dup2\n        /* \"#utility.yul\":8417:8447   */\n      gt\n        /* \"#utility.yul\":8414:8531   */\n      iszero\n      tag_265\n      jumpi\n        /* \"#utility.yul\":8450:8529   */\n      tag_266\n      tag_122\n      jump\t// in\n    tag_266:\n        /* \"#utility.yul\":8414:8531   */\n    tag_265:\n        /* \"#utility.yul\":8555:8633   */\n      tag_267\n        /* \"#utility.yul\":8625:8632   */\n      dup15\n        /* \"#utility.yul\":8616:8622   */\n      dup3\n        /* \"#utility.yul\":8605:8614   */\n      dup16\n        /* \"#utility.yul\":8601:8623   */\n      add\n        /* \"#utility.yul\":8555:8633   */\n      tag_144\n      jump\t// in\n    tag_267:\n        /* \"#utility.yul\":8545:8633   */\n      swap6\n      pop\n        /* \"#utility.yul\":8339:8643   */\n      pop\n        /* \"#utility.yul\":8682:8685   */\n      0xe0\n        /* \"#utility.yul\":8709:8762   */\n      tag_268\n        /* \"#utility.yul\":8754:8761   */\n      dup15\n        /* \"#utility.yul\":8745:8751   */\n      dup3\n        /* \"#utility.yul\":8734:8743   */\n      dup16\n        /* \"#utility.yul\":8730:8752   */\n      add\n        /* \"#utility.yul\":8709:8762   */\n      tag_125\n      jump\t// in\n    tag_268:\n        /* \"#utility.yul\":8699:8762   */\n      swap5\n      pop\n        /* \"#utility.yul\":8653:8772   */\n      pop\n        /* \"#utility.yul\":8811:8814   */\n      0x0100\n        /* \"#utility.yul\":8838:8891   */\n      tag_269\n        /* \"#utility.yul\":8883:8890   */\n      dup15\n        /* \"#utility.yul\":8874:8880   */\n      dup3\n        /* \"#utility.yul\":8863:8872   */\n      dup16\n        /* \"#utility.yul\":8859:8881   */\n      add\n        /* \"#utility.yul\":8838:8891   */\n      tag_125\n      jump\t// in\n    tag_269:\n        /* \"#utility.yul\":8828:8891   */\n      swap4\n      pop\n        /* \"#utility.yul\":8782:8901   */\n      pop\n        /* \"#utility.yul\":8940:8943   */\n      0x0120\n        /* \"#utility.yul\":8967:9020   */\n      tag_270\n        /* \"#utility.yul\":9012:9019   */\n      dup15\n        /* \"#utility.yul\":9003:9009   */\n      dup3\n        /* \"#utility.yul\":8992:9001   */\n      dup16\n        /* \"#utility.yul\":8988:9010   */\n      add\n        /* \"#utility.yul\":8967:9020   */\n      tag_125\n      jump\t// in\n    tag_270:\n        /* \"#utility.yul\":8957:9020   */\n      swap3\n      pop\n        /* \"#utility.yul\":8911:9030   */\n      pop\n        /* \"#utility.yul\":9097:9100   */\n      0x0140\n        /* \"#utility.yul\":9086:9095   */\n      dup13\n        /* \"#utility.yul\":9082:9101   */\n      add\n        /* \"#utility.yul\":9069:9102   */\n      calldataload\n        /* \"#utility.yul\":9129:9147   */\n      0xffffffffffffffff\n        /* \"#utility.yul\":9121:9127   */\n      dup2\n        /* \"#utility.yul\":9118:9148   */\n      gt\n        /* \"#utility.yul\":9115:9232   */\n      iszero\n      tag_271\n      jumpi\n        /* \"#utility.yul\":9151:9230   */\n      tag_272\n      tag_122\n      jump\t// in\n    tag_272:\n        /* \"#utility.yul\":9115:9232   */\n    tag_271:\n        /* \"#utility.yul\":9257:9320   */\n      tag_273\n        /* \"#utility.yul\":9312:9319   */\n      dup15\n        /* \"#utility.yul\":9303:9309   */\n      dup3\n        /* \"#utility.yul\":9292:9301   */\n      dup16\n        /* \"#utility.yul\":9288:9310   */\n      add\n        /* \"#utility.yul\":9257:9320   */\n      tag_139\n      jump\t// in\n    tag_273:\n        /* \"#utility.yul\":9246:9320   */\n      swap2\n      pop\n        /* \"#utility.yul\":9040:9330   */\n      pop\n        /* \"#utility.yul\":6478:9337   */\n      swap3\n      swap6\n      swap9\n      swap12\n      pop\n      swap3\n      swap6\n      swap9\n      swap12\n      swap1\n      swap4\n      swap7\n      swap10\n      pop\n      jump\t// out\n        /* \"#utility.yul\":9343:10974   */\n    tag_18:\n        /* \"#utility.yul\":9478:9484   */\n      0x00\n        /* \"#utility.yul\":9486:9492   */\n      dup1\n        /* \"#utility.yul\":9494:9500   */\n      0x00\n        /* \"#utility.yul\":9502:9508   */\n      dup1\n        /* \"#utility.yul\":9510:9516   */\n      0x00\n        /* \"#utility.yul\":9559:9562   */\n      0xa0\n        /* \"#utility.yul\":9547:9556   */\n      dup7\n        /* \"#utility.yul\":9538:9545   */\n      dup9\n        /* \"#utility.yul\":9534:9557   */\n      sub\n        /* \"#utility.yul\":9530:9563   */\n      slt\n        /* \"#utility.yul\":9527:9647   */\n      iszero\n      tag_275\n      jumpi\n        /* \"#utility.yul\":9566:9645   */\n      tag_276\n      tag_121\n      jump\t// in\n    tag_276:\n        /* \"#utility.yul\":9527:9647   */\n    tag_275:\n        /* \"#utility.yul\":9686:9687   */\n      0x00\n        /* \"#utility.yul\":9711:9764   */\n      tag_277\n        /* \"#utility.yul\":9756:9763   */\n      dup9\n        /* \"#utility.yul\":9747:9753   */\n      dup3\n        /* \"#utility.yul\":9736:9745   */\n      dup10\n        /* \"#utility.yul\":9732:9754   */\n      add\n        /* \"#utility.yul\":9711:9764   */\n      tag_125\n      jump\t// in\n    tag_277:\n        /* \"#utility.yul\":9701:9764   */\n      swap6\n      pop\n        /* \"#utility.yul\":9657:9774   */\n      pop\n        /* \"#utility.yul\":9841:9843   */\n      0x20\n        /* \"#utility.yul\":9830:9839   */\n      dup7\n        /* \"#utility.yul\":9826:9844   */\n      add\n        /* \"#utility.yul\":9813:9845   */\n      calldataload\n        /* \"#utility.yul\":9872:9890   */\n      0xffffffffffffffff\n        /* \"#utility.yul\":9864:9870   */\n      dup2\n        /* \"#utility.yul\":9861:9891   */\n      gt\n        /* \"#utility.yul\":9858:9975   */\n      iszero\n      tag_278\n      jumpi\n        /* \"#utility.yul\":9894:9973   */\n      tag_279\n      tag_122\n      jump\t// in\n    tag_279:\n        /* \"#utility.yul\":9858:9975   */\n    tag_278:\n        /* \"#utility.yul\":9999:10062   */\n      tag_280\n        /* \"#utility.yul\":10054:10061   */\n      dup9\n        /* \"#utility.yul\":10045:10051   */\n      dup3\n        /* \"#utility.yul\":10034:10043   */\n      dup10\n        /* \"#utility.yul\":10030:10052   */\n      add\n        /* \"#utility.yul\":9999:10062   */\n      tag_139\n      jump\t// in\n    tag_280:\n        /* \"#utility.yul\":9989:10062   */\n      swap5\n      pop\n        /* \"#utility.yul\":9784:10072   */\n      pop\n        /* \"#utility.yul\":10139:10141   */\n      0x40\n        /* \"#utility.yul\":10128:10137   */\n      dup7\n        /* \"#utility.yul\":10124:10142   */\n      add\n        /* \"#utility.yul\":10111:10143   */\n      calldataload\n        /* \"#utility.yul\":10170:10188   */\n      0xffffffffffffffff\n        /* \"#utility.yul\":10162:10168   */\n      dup2\n        /* \"#utility.yul\":10159:10189   */\n      gt\n        /* \"#utility.yul\":10156:10273   */\n      iszero\n      tag_281\n      jumpi\n        /* \"#utility.yul\":10192:10271   */\n      tag_282\n      tag_122\n      jump\t// in\n    tag_282:\n        /* \"#utility.yul\":10156:10273   */\n    tag_281:\n        /* \"#utility.yul\":10297:10360   */\n      tag_283\n        /* \"#utility.yul\":10352:10359   */\n      dup9\n        /* \"#utility.yul\":10343:10349   */\n      dup3\n        /* \"#utility.yul\":10332:10341   */\n      dup10\n        /* \"#utility.yul\":10328:10350   */\n      add\n        /* \"#utility.yul\":10297:10360   */\n      tag_139\n      jump\t// in\n    tag_283:\n        /* \"#utility.yul\":10287:10360   */\n      swap4\n      pop\n        /* \"#utility.yul\":10082:10370   */\n      pop\n        /* \"#utility.yul\":10437:10439   */\n      0x60\n        /* \"#utility.yul\":10426:10435   */\n      dup7\n        /* \"#utility.yul\":10422:10440   */\n      add\n        /* \"#utility.yul\":10409:10441   */\n      calldataload\n        /* \"#utility.yul\":10468:10486   */\n      0xffffffffffffffff\n        /* \"#utility.yul\":10460:10466   */\n      dup2\n        /* \"#utility.yul\":10457:10487   */\n      gt\n        /* \"#utility.yul\":10454:10571   */\n      iszero\n      tag_284\n      jumpi\n        /* \"#utility.yul\":10490:10569   */\n      tag_285\n      tag_122\n      jump\t// in\n    tag_285:\n        /* \"#utility.yul\":10454:10571   */\n    tag_284:\n        /* \"#utility.yul\":10595:10658   */\n      tag_286\n        /* \"#utility.yul\":10650:10657   */\n      dup9\n        /* \"#utility.yul\":10641:10647   */\n      dup3\n        /* \"#utility.yul\":10630:10639   */\n      dup10\n        /* \"#utility.yul\":10626:10648   */\n      add\n        /* \"#utility.yul\":10595:10658   */\n      tag_139\n      jump\t// in\n    tag_286:\n        /* \"#utility.yul\":10585:10658   */\n      swap3\n      pop\n        /* \"#utility.yul\":10380:10668   */\n      pop\n        /* \"#utility.yul\":10735:10738   */\n      0x80\n        /* \"#utility.yul\":10724:10733   */\n      dup7\n        /* \"#utility.yul\":10720:10739   */\n      add\n        /* \"#utility.yul\":10707:10740   */\n      calldataload\n        /* \"#utility.yul\":10767:10785   */\n      0xffffffffffffffff\n        /* \"#utility.yul\":10759:10765   */\n      dup2\n        /* \"#utility.yul\":10756:10786   */\n      gt\n        /* \"#utility.yul\":10753:10870   */\n      iszero\n      tag_287\n      jumpi\n        /* \"#utility.yul\":10789:10868   */\n      tag_288\n      tag_122\n      jump\t// in\n    tag_288:\n        /* \"#utility.yul\":10753:10870   */\n    tag_287:\n        /* \"#utility.yul\":10894:10957   */\n      tag_289\n        /* \"#utility.yul\":10949:10956   */\n      dup9\n        /* \"#utility.yul\":10940:10946   */\n      dup3\n        /* \"#utility.yul\":10929:10938   */\n      dup10\n        /* \"#utility.yul\":10925:10947   */\n      add\n        /* \"#utility.yul\":10894:10957   */\n      tag_139\n      jump\t// in\n    tag_289:\n        /* \"#utility.yul\":10884:10957   */\n      swap2\n      pop\n        /* \"#utility.yul\":10678:10967   */\n      pop\n        /* \"#utility.yul\":9343:10974   */\n      swap3\n      swap6\n      pop\n      swap3\n      swap6\n      swap1\n      swap4\n      pop\n      jump\t// out\n        /* \"#utility.yul\":10980:11098   */\n    tag_145:\n        /* \"#utility.yul\":11067:11091   */\n      tag_291\n        /* \"#utility.yul\":11085:11090   */\n      dup2\n        /* \"#utility.yul\":11067:11091   */\n      tag_123\n      jump\t// in\n    tag_291:\n        /* \"#utility.yul\":11062:11065   */\n      dup3\n        /* \"#utility.yul\":11055:11092   */\n      mstore\n        /* \"#utility.yul\":10980:11098   */\n      pop\n      pop\n      jump\t// out\n        /* \"#utility.yul\":11104:11326   */\n    tag_23:\n        /* \"#utility.yul\":11197:11201   */\n      0x00\n        /* \"#utility.yul\":11235:11237   */\n      0x20\n        /* \"#utility.yul\":11224:11233   */\n      dup3\n        /* \"#utility.yul\":11220:11238   */\n      add\n        /* \"#utility.yul\":11212:11238   */\n      swap1\n      pop\n        /* \"#utility.yul\":11248:11319   */\n      tag_293\n        /* \"#utility.yul\":11316:11317   */\n      0x00\n        /* \"#utility.yul\":11305:11314   */\n      dup4\n        /* \"#utility.yul\":11301:11318   */\n      add\n        /* \"#utility.yul\":11292:11298   */\n      dup5\n        /* \"#utility.yul\":11248:11319   */\n      tag_145\n      jump\t// in\n    tag_293:\n        /* \"#utility.yul\":11104:11326   */\n      swap3\n      swap2\n      pop\n      pop\n      jump\t// out\n        /* \"#utility.yul\":11332:11661   */\n    tag_26:\n        /* \"#utility.yul\":11391:11397   */\n      0x00\n        /* \"#utility.yul\":11440:11442   */\n      0x20\n        /* \"#utility.yul\":11428:11437   */\n      dup3\n        /* \"#utility.yul\":11419:11426   */\n      dup5\n        /* \"#utility.yul\":11415:11438   */\n      sub\n        /* \"#utility.yul\":11411:11443   */\n      slt\n        /* \"#utility.yul\":11408:11527   */\n      iszero\n      tag_295\n      jumpi\n        /* \"#utility.yul\":11446:11525   */\n      tag_296\n      tag_121\n      jump\t// in\n    tag_296:\n        /* \"#utility.yul\":11408:11527   */\n    tag_295:\n        /* \"#utility.yul\":11566:11567   */\n      0x00\n        /* \"#utility.yul\":11591:11644   */\n      tag_297\n        /* \"#utility.yul\":11636:11643   */\n      dup5\n        /* \"#utility.yul\":11627:11633   */\n      dup3\n        /* \"#utility.yul\":11616:11625   */\n      dup6\n        /* \"#utility.yul\":11612:11634   */\n      add\n        /* \"#utility.yul\":11591:11644   */\n      tag_125\n      jump\t// in\n    tag_297:\n        /* \"#utility.yul\":11581:11644   */\n      swap2\n      pop\n        /* \"#utility.yul\":11537:11654   */\n      pop\n        /* \"#utility.yul\":11332:11661   */\n      swap3\n      swap2\n      pop\n      pop\n      jump\t// out\n        /* \"#utility.yul\":11667:11766   */\n    tag_146:\n        /* \"#utility.yul\":11719:11725   */\n      0x00\n        /* \"#utility.yul\":11753:11758   */\n      dup2\n        /* \"#utility.yul\":11747:11759   */\n      mload\n        /* \"#utility.yul\":11737:11759   */\n      swap1\n      pop\n        /* \"#utility.yul\":11667:11766   */\n      swap2\n      swap1\n      pop\n      jump\t// out\n        /* \"#utility.yul\":11772:11941   */\n    tag_147:\n        /* \"#utility.yul\":11856:11867   */\n      0x00\n        /* \"#utility.yul\":11890:11896   */\n      dup3\n        /* \"#utility.yul\":11885:11888   */\n      dup3\n        /* \"#utility.yul\":11878:11897   */\n      mstore\n        /* \"#utility.yul\":11930:11934   */\n      0x20\n        /* \"#utility.yul\":11925:11928   */\n      dup3\n        /* \"#utility.yul\":11921:11935   */\n      add\n        /* \"#utility.yul\":11906:11935   */\n      swap1\n      pop\n        /* \"#utility.yul\":11772:11941   */\n      swap3\n      swap2\n      pop\n      pop\n      jump\t// out\n        /* \"#utility.yul\":11947:12086   */\n    tag_148:\n        /* \"#utility.yul\":12036:12042   */\n      dup3\n        /* \"#utility.yul\":12031:12034   */\n      dup2\n        /* \"#utility.yul\":12026:12029   */\n      dup4\n        /* \"#utility.yul\":12020:12043   */\n      mcopy\n        /* \"#utility.yul\":12077:12078   */\n      0x00\n        /* \"#utility.yul\":12068:12074   */\n      dup4\n        /* \"#utility.yul\":12063:12066   */\n      dup4\n        /* \"#utility.yul\":12059:12075   */\n      add\n        /* \"#utility.yul\":12052:12079   */\n      mstore\n        /* \"#utility.yul\":11947:12086   */\n      pop\n      pop\n      pop\n      jump\t// out\n        /* \"#utility.yul\":12092:12469   */\n    tag_149:\n        /* \"#utility.yul\":12180:12183   */\n      0x00\n        /* \"#utility.yul\":12208:12247   */\n      tag_302\n        /* \"#utility.yul\":12241:12246   */\n      dup3\n        /* \"#utility.yul\":12208:12247   */\n      tag_146\n      jump\t// in\n    tag_302:\n        /* \"#utility.yul\":12263:12334   */\n      tag_303\n        /* \"#utility.yul\":12327:12333   */\n      dup2\n        /* \"#utility.yul\":12322:12325   */\n      dup6\n        /* \"#utility.yul\":12263:12334   */\n      tag_147\n      jump\t// in\n    tag_303:\n        /* \"#utility.yul\":12256:12334   */\n      swap4\n      pop\n        /* \"#utility.yul\":12343:12408   */\n      tag_304\n        /* \"#utility.yul\":12401:12407   */\n      dup2\n        /* \"#utility.yul\":12396:12399   */\n      dup6\n        /* \"#utility.yul\":12389:12393   */\n      0x20\n        /* \"#utility.yul\":12382:12387   */\n      dup7\n        /* \"#utility.yul\":12378:12394   */\n      add\n        /* \"#utility.yul\":12343:12408   */\n      tag_148\n      jump\t// in\n    tag_304:\n        /* \"#utility.yul\":12433:12462   */\n      tag_305\n        /* \"#utility.yul\":12455:12461   */\n      dup2\n        /* \"#utility.yul\":12433:12462   */\n      tag_129\n      jump\t// in\n    tag_305:\n        /* \"#utility.yul\":12428:12431   */\n      dup5\n        /* \"#utility.yul\":12424:12463   */\n      add\n        /* \"#utility.yul\":12417:12463   */\n      swap2\n      pop\n        /* \"#utility.yul\":12184:12469   */\n      pop\n        /* \"#utility.yul\":12092:12469   */\n      swap3\n      swap2\n      pop\n      pop\n      jump\t// out\n        /* \"#utility.yul\":12475:13210   */\n    tag_29:\n        /* \"#utility.yul\":12692:12696   */\n      0x00\n        /* \"#utility.yul\":12730:12733   */\n      0x80\n        /* \"#utility.yul\":12719:12728   */\n      dup3\n        /* \"#utility.yul\":12715:12734   */\n      add\n        /* \"#utility.yul\":12707:12734   */\n      swap1\n      pop\n        /* \"#utility.yul\":12744:12815   */\n      tag_307\n        /* \"#utility.yul\":12812:12813   */\n      0x00\n        /* \"#utility.yul\":12801:12810   */\n      dup4\n        /* \"#utility.yul\":12797:12814   */\n      add\n        /* \"#utility.yul\":12788:12794   */\n      dup8\n        /* \"#utility.yul\":12744:12815   */\n      tag_145\n      jump\t// in\n    tag_307:\n        /* \"#utility.yul\":12862:12871   */\n      dup2\n        /* \"#utility.yul\":12856:12860   */\n      dup2\n        /* \"#utility.yul\":12852:12872   */\n      sub\n        /* \"#utility.yul\":12847:12849   */\n      0x20\n        /* \"#utility.yul\":12836:12845   */\n      dup4\n        /* \"#utility.yul\":12832:12850   */\n      add\n        /* \"#utility.yul\":12825:12873   */\n      mstore\n        /* \"#utility.yul\":12890:12968   */\n      tag_308\n        /* \"#utility.yul\":12963:12967   */\n      dup2\n        /* \"#utility.yul\":12954:12960   */\n      dup7\n        /* \"#utility.yul\":12890:12968   */\n      tag_149\n      jump\t// in\n    tag_308:\n        /* \"#utility.yul\":12882:12968   */\n      swap1\n      pop\n        /* \"#utility.yul\":13015:13024   */\n      dup2\n        /* \"#utility.yul\":13009:13013   */\n      dup2\n        /* \"#utility.yul\":13005:13025   */\n      sub\n        /* \"#utility.yul\":13000:13002   */\n      0x40\n        /* \"#utility.yul\":12989:12998   */\n      dup4\n        /* \"#utility.yul\":12985:13003   */\n      add\n        /* \"#utility.yul\":12978:13026   */\n      mstore\n        /* \"#utility.yul\":13043:13121   */\n      tag_309\n        /* \"#utility.yul\":13116:13120   */\n      dup2\n        /* \"#utility.yul\":13107:13113   */\n      dup6\n        /* \"#utility.yul\":13043:13121   */\n      tag_149\n      jump\t// in\n    tag_309:\n        /* \"#utility.yul\":13035:13121   */\n      swap1\n      pop\n        /* \"#utility.yul\":13131:13203   */\n      tag_310\n        /* \"#utility.yul\":13199:13201   */\n      0x60\n        /* \"#utility.yul\":13188:13197   */\n      dup4\n        /* \"#utility.yul\":13184:13202   */\n      add\n        /* \"#utility.yul\":13175:13181   */\n      dup5\n        /* \"#utility.yul\":13131:13203   */\n      tag_145\n      jump\t// in\n    tag_310:\n        /* \"#utility.yul\":12475:13210   */\n      swap6\n      swap5\n      pop\n      pop\n      pop\n      pop\n      pop\n      jump\t// out\n        /* \"#utility.yul\":13216:13396   */\n    tag_55:\n        /* \"#utility.yul\":13264:13341   */\n      0x4e487b7100000000000000000000000000000000000000000000000000000000\n        /* \"#utility.yul\":13261:13262   */\n      0x00\n        /* \"#utility.yul\":13254:13342   */\n      mstore\n        /* \"#utility.yul\":13361:13365   */\n      0x21\n        /* \"#utility.yul\":13358:13359   */\n      0x04\n        /* \"#utility.yul\":13351:13366   */\n      mstore\n        /* \"#utility.yul\":13385:13389   */\n      0x24\n        /* \"#utility.yul\":13382:13383   */\n      0x00\n        /* \"#utility.yul\":13375:13390   */\n      revert\n        /* \"#utility.yul\":13402:13522   */\n    tag_150:\n        /* \"#utility.yul\":13490:13491   */\n      0x03\n        /* \"#utility.yul\":13483:13488   */\n      dup2\n        /* \"#utility.yul\":13480:13492   */\n      lt\n        /* \"#utility.yul\":13470:13516   */\n      tag_313\n      jumpi\n        /* \"#utility.yul\":13496:13514   */\n      tag_314\n      tag_55\n      jump\t// in\n    tag_314:\n        /* \"#utility.yul\":13470:13516   */\n    tag_313:\n        /* \"#utility.yul\":13402:13522   */\n      pop\n      jump\t// out\n        /* \"#utility.yul\":13528:13669   */\n    tag_151:\n        /* \"#utility.yul\":13580:13587   */\n      0x00\n        /* \"#utility.yul\":13609:13614   */\n      dup2\n        /* \"#utility.yul\":13598:13614   */\n      swap1\n      pop\n        /* \"#utility.yul\":13615:13663   */\n      tag_316\n        /* \"#utility.yul\":13657:13662   */\n      dup3\n        /* \"#utility.yul\":13615:13663   */\n      tag_150\n      jump\t// in\n    tag_316:\n        /* \"#utility.yul\":13528:13669   */\n      swap2\n      swap1\n      pop\n      jump\t// out\n        /* \"#utility.yul\":13675:13816   */\n    tag_152:\n        /* \"#utility.yul\":13738:13747   */\n      0x00\n        /* \"#utility.yul\":13771:13810   */\n      tag_318\n        /* \"#utility.yul\":13804:13809   */\n      dup3\n        /* \"#utility.yul\":13771:13810   */\n      tag_151\n      jump\t// in\n    tag_318:\n        /* \"#utility.yul\":13758:13810   */\n      swap1\n      pop\n        /* \"#utility.yul\":13675:13816   */\n      swap2\n      swap1\n      pop\n      jump\t// out\n        /* \"#utility.yul\":13822:13979   */\n    tag_153:\n        /* \"#utility.yul\":13922:13972   */\n      tag_320\n        /* \"#utility.yul\":13966:13971   */\n      dup2\n        /* \"#utility.yul\":13922:13972   */\n      tag_152\n      jump\t// in\n    tag_320:\n        /* \"#utility.yul\":13917:13920   */\n      dup3\n        /* \"#utility.yul\":13910:13973   */\n      mstore\n        /* \"#utility.yul\":13822:13979   */\n      pop\n      pop\n      jump\t// out\n        /* \"#utility.yul\":13985:14988   */\n    tag_37:\n        /* \"#utility.yul\":14279:14283   */\n      0x00\n        /* \"#utility.yul\":14317:14320   */\n      0xe0\n        /* \"#utility.yul\":14306:14315   */\n      dup3\n        /* \"#utility.yul\":14302:14321   */\n      add\n        /* \"#utility.yul\":14294:14321   */\n      swap1\n      pop\n        /* \"#utility.yul\":14331:14402   */\n      tag_322\n        /* \"#utility.yul\":14399:14400   */\n      0x00\n        /* \"#utility.yul\":14388:14397   */\n      dup4\n        /* \"#utility.yul\":14384:14401   */\n      add\n        /* \"#utility.yul\":14375:14381   */\n      dup11\n        /* \"#utility.yul\":14331:14402   */\n      tag_145\n      jump\t// in\n    tag_322:\n        /* \"#utility.yul\":14412:14497   */\n      tag_323\n        /* \"#utility.yul\":14493:14495   */\n      0x20\n        /* \"#utility.yul\":14482:14491   */\n      dup4\n        /* \"#utility.yul\":14478:14496   */\n      add\n        /* \"#utility.yul\":14469:14475   */\n      dup10\n        /* \"#utility.yul\":14412:14497   */\n      tag_153\n      jump\t// in\n    tag_323:\n        /* \"#utility.yul\":14507:14579   */\n      tag_324\n        /* \"#utility.yul\":14575:14577   */\n      0x40\n        /* \"#utility.yul\":14564:14573   */\n      dup4\n        /* \"#utility.yul\":14560:14578   */\n      add\n        /* \"#utility.yul\":14551:14557   */\n      dup9\n        /* \"#utility.yul\":14507:14579   */\n      tag_145\n      jump\t// in\n    tag_324:\n        /* \"#utility.yul\":14589:14661   */\n      tag_325\n        /* \"#utility.yul\":14657:14659   */\n      0x60\n        /* \"#utility.yul\":14646:14655   */\n      dup4\n        /* \"#utility.yul\":14642:14660   */\n      add\n        /* \"#utility.yul\":14633:14639   */\n      dup8\n        /* \"#utility.yul\":14589:14661   */\n      tag_145\n      jump\t// in\n    tag_325:\n        /* \"#utility.yul\":14671:14744   */\n      tag_326\n        /* \"#utility.yul\":14739:14742   */\n      0x80\n        /* \"#utility.yul\":14728:14737   */\n      dup4\n        /* \"#utility.yul\":14724:14743   */\n      add\n        /* \"#utility.yul\":14715:14721   */\n      dup7\n        /* \"#utility.yul\":14671:14744   */\n      tag_145\n      jump\t// in\n    tag_326:\n        /* \"#utility.yul\":14754:14827   */\n      tag_327\n        /* \"#utility.yul\":14822:14825   */\n      0xa0\n        /* \"#utility.yul\":14811:14820   */\n      dup4\n        /* \"#utility.yul\":14807:14826   */\n      add\n        /* \"#utility.yul\":14798:14804   */\n      dup6\n        /* \"#utility.yul\":14754:14827   */\n      tag_145\n      jump\t// in\n    tag_327:\n        /* \"#utility.yul\":14875:14884   */\n      dup2\n        /* \"#utility.yul\":14869:14873   */\n      dup2\n        /* \"#utility.yul\":14865:14885   */\n      sub\n        /* \"#utility.yul\":14859:14862   */\n      0xc0\n        /* \"#utility.yul\":14848:14857   */\n      dup4\n        /* \"#utility.yul\":14844:14863   */\n      add\n        /* \"#utility.yul\":14837:14886   */\n      mstore\n        /* \"#utility.yul\":14903:14981   */\n      tag_328\n        /* \"#utility.yul\":14976:14980   */\n      dup2\n        /* \"#utility.yul\":14967:14973   */\n      dup5\n        /* \"#utility.yul\":14903:14981   */\n      tag_149\n      jump\t// in\n    tag_328:\n        /* \"#utility.yul\":14895:14981   */\n      swap1\n      pop\n        /* \"#utility.yul\":13985:14988   */\n      swap9\n      swap8\n      pop\n      pop\n      pop\n      pop\n      pop\n      pop\n      pop\n      pop\n      jump\t// out\n        /* \"#utility.yul\":14994:16119   */\n    tag_40:\n        /* \"#utility.yul\":15100:15106   */\n      0x00\n        /* \"#utility.yul\":15108:15114   */\n      dup1\n        /* \"#utility.yul\":15116:15122   */\n      0x00\n        /* \"#utility.yul\":15124:15130   */\n      dup1\n        /* \"#utility.yul\":15173:15176   */\n      0x80\n        /* \"#utility.yul\":15161:15170   */\n      dup6\n        /* \"#utility.yul\":15152:15159   */\n      dup8\n        /* \"#utility.yul\":15148:15171   */\n      sub\n        /* \"#utility.yul\":15144:15177   */\n      slt\n        /* \"#utility.yul\":15141:15261   */\n      iszero\n      tag_330\n      jumpi\n        /* \"#utility.yul\":15180:15259   */\n      tag_331\n      tag_121\n      jump\t// in\n    tag_331:\n        /* \"#utility.yul\":15141:15261   */\n    tag_330:\n        /* \"#utility.yul\":15300:15301   */\n      0x00\n        /* \"#utility.yul\":15325:15378   */\n      tag_332\n        /* \"#utility.yul\":15370:15377   */\n      dup8\n        /* \"#utility.yul\":15361:15367   */\n      dup3\n        /* \"#utility.yul\":15350:15359   */\n      dup9\n        /* \"#utility.yul\":15346:15368   */\n      add\n        /* \"#utility.yul\":15325:15378   */\n      tag_125\n      jump\t// in\n    tag_332:\n        /* \"#utility.yul\":15315:15378   */\n      swap5\n      pop\n        /* \"#utility.yul\":15271:15388   */\n      pop\n        /* \"#utility.yul\":15455:15457   */\n      0x20\n        /* \"#utility.yul\":15444:15453   */\n      dup6\n        /* \"#utility.yul\":15440:15458   */\n      add\n        /* \"#utility.yul\":15427:15459   */\n      calldataload\n        /* \"#utility.yul\":15486:15504   */\n      0xffffffffffffffff\n        /* \"#utility.yul\":15478:15484   */\n      dup2\n        /* \"#utility.yul\":15475:15505   */\n      gt\n        /* \"#utility.yul\":15472:15589   */\n      iszero\n      tag_333\n      jumpi\n        /* \"#utility.yul\":15508:15587   */\n      tag_334\n      tag_122\n      jump\t// in\n    tag_334:\n        /* \"#utility.yul\":15472:15589   */\n    tag_333:\n        /* \"#utility.yul\":15613:15676   */\n      tag_335\n        /* \"#utility.yul\":15668:15675   */\n      dup8\n        /* \"#utility.yul\":15659:15665   */\n      dup3\n        /* \"#utility.yul\":15648:15657   */\n      dup9\n        /* \"#utility.yul\":15644:15666   */\n      add\n        /* \"#utility.yul\":15613:15676   */\n      tag_139\n      jump\t// in\n    tag_335:\n        /* \"#utility.yul\":15603:15676   */\n      swap4\n      pop\n        /* \"#utility.yul\":15398:15686   */\n      pop\n        /* \"#utility.yul\":15753:15755   */\n      0x40\n        /* \"#utility.yul\":15742:15751   */\n      dup6\n        /* \"#utility.yul\":15738:15756   */\n      add\n        /* \"#utility.yul\":15725:15757   */\n      calldataload\n        /* \"#utility.yul\":15784:15802   */\n      0xffffffffffffffff\n        /* \"#utility.yul\":15776:15782   */\n      dup2\n        /* \"#utility.yul\":15773:15803   */\n      gt\n        /* \"#utility.yul\":15770:15887   */\n      iszero\n      tag_336\n      jumpi\n        /* \"#utility.yul\":15806:15885   */\n      tag_337\n      tag_122\n      jump\t// in\n    tag_337:\n        /* \"#utility.yul\":15770:15887   */\n    tag_336:\n        /* \"#utility.yul\":15911:15974   */\n      tag_338\n        /* \"#utility.yul\":15966:15973   */\n      dup8\n        /* \"#utility.yul\":15957:15963   */\n      dup3\n        /* \"#utility.yul\":15946:15955   */\n      dup9\n        /* \"#utility.yul\":15942:15964   */\n      add\n        /* \"#utility.yul\":15911:15974   */\n      tag_139\n      jump\t// in\n    tag_338:\n        /* \"#utility.yul\":15901:15974   */\n      swap3\n      pop\n        /* \"#utility.yul\":15696:15984   */\n      pop\n        /* \"#utility.yul\":16023:16025   */\n      0x60\n        /* \"#utility.yul\":16049:16102   */\n      tag_339\n        /* \"#utility.yul\":16094:16101   */\n      dup8\n        /* \"#utility.yul\":16085:16091   */\n      dup3\n        /* \"#utility.yul\":16074:16083   */\n      dup9\n        /* \"#utility.yul\":16070:16092   */\n      add\n        /* \"#utility.yul\":16049:16102   */\n      tag_125\n      jump\t// in\n    tag_339:\n        /* \"#utility.yul\":16039:16102   */\n      swap2\n      pop\n        /* \"#utility.yul\":15994:16112   */\n      pop\n        /* \"#utility.yul\":14994:16119   */\n      swap3\n      swap6\n      swap2\n      swap5\n      pop\n      swap3\n      pop\n      jump\t// out\n        /* \"#utility.yul\":16125:16350   */\n    tag_154:\n        /* \"#utility.yul\":16265:16299   */\n      0x50726f6475637420617272617973206d757374206265206f6620657175616c20\n        /* \"#utility.yul\":16261:16262   */\n      0x00\n        /* \"#utility.yul\":16253:16259   */\n      dup3\n        /* \"#utility.yul\":16249:16263   */\n      add\n        /* \"#utility.yul\":16242:16300   */\n      mstore\n        /* \"#utility.yul\":16334:16342   */\n      0x6c656e6774680000000000000000000000000000000000000000000000000000\n        /* \"#utility.yul\":16329:16331   */\n      0x20\n        /* \"#utility.yul\":16321:16327   */\n      dup3\n        /* \"#utility.yul\":16317:16332   */\n      add\n        /* \"#utility.yul\":16310:16343   */\n      mstore\n        /* \"#utility.yul\":16125:16350   */\n      pop\n      jump\t// out\n        /* \"#utility.yul\":16356:16722   */\n    tag_155:\n        /* \"#utility.yul\":16498:16501   */\n      0x00\n        /* \"#utility.yul\":16519:16586   */\n      tag_342\n        /* \"#utility.yul\":16583:16585   */\n      0x26\n        /* \"#utility.yul\":16578:16581   */\n      dup4\n        /* \"#utility.yul\":16519:16586   */\n      tag_147\n      jump\t// in\n    tag_342:\n        /* \"#utility.yul\":16512:16586   */\n      swap2\n      pop\n        /* \"#utility.yul\":16595:16688   */\n      tag_343\n        /* \"#utility.yul\":16684:16687   */\n      dup3\n        /* \"#utility.yul\":16595:16688   */\n      tag_154\n      jump\t// in\n    tag_343:\n        /* \"#utility.yul\":16713:16715   */\n      0x40\n        /* \"#utility.yul\":16708:16711   */\n      dup3\n        /* \"#utility.yul\":16704:16716   */\n      add\n        /* \"#utility.yul\":16697:16716   */\n      swap1\n      pop\n        /* \"#utility.yul\":16356:16722   */\n      swap2\n      swap1\n      pop\n      jump\t// out\n        /* \"#utility.yul\":16728:17147   */\n    tag_52:\n        /* \"#utility.yul\":16894:16898   */\n      0x00\n        /* \"#utility.yul\":16932:16934   */\n      0x20\n        /* \"#utility.yul\":16921:16930   */\n      dup3\n        /* \"#utility.yul\":16917:16935   */\n      add\n        /* \"#utility.yul\":16909:16935   */\n      swap1\n      pop\n        /* \"#utility.yul\":16981:16990   */\n      dup2\n        /* \"#utility.yul\":16975:16979   */\n      dup2\n        /* \"#utility.yul\":16971:16991   */\n      sub\n        /* \"#utility.yul\":16967:16968   */\n      0x00\n        /* \"#utility.yul\":16956:16965   */\n      dup4\n        /* \"#utility.yul\":16952:16969   */\n      add\n        /* \"#utility.yul\":16945:16992   */\n      mstore\n        /* \"#utility.yul\":17009:17140   */\n      tag_345\n        /* \"#utility.yul\":17135:17139   */\n      dup2\n        /* \"#utility.yul\":17009:17140   */\n      tag_155\n      jump\t// in\n    tag_345:\n        /* \"#utility.yul\":17001:17140   */\n      swap1\n      pop\n        /* \"#utility.yul\":16728:17147   */\n      swap2\n      swap1\n      pop\n      jump\t// out\n        /* \"#utility.yul\":17153:17333   */\n    tag_156:\n        /* \"#utility.yul\":17201:17278   */\n      0x4e487b7100000000000000000000000000000000000000000000000000000000\n        /* \"#utility.yul\":17198:17199   */\n      0x00\n        /* \"#utility.yul\":17191:17279   */\n      mstore\n        /* \"#utility.yul\":17298:17302   */\n      0x22\n        /* \"#utility.yul\":17295:17296   */\n      0x04\n        /* \"#utility.yul\":17288:17303   */\n      mstore\n        /* \"#utility.yul\":17322:17326   */\n      0x24\n        /* \"#utility.yul\":17319:17320   */\n      0x00\n        /* \"#utility.yul\":17312:17327   */\n      revert\n        /* \"#utility.yul\":17339:17659   */\n    tag_68:\n        /* \"#utility.yul\":17383:17389   */\n      0x00\n        /* \"#utility.yul\":17420:17421   */\n      0x02\n        /* \"#utility.yul\":17414:17418   */\n      dup3\n        /* \"#utility.yul\":17410:17422   */\n      div\n        /* \"#utility.yul\":17400:17422   */\n      swap1\n      pop\n        /* \"#utility.yul\":17467:17468   */\n      0x01\n        /* \"#utility.yul\":17461:17465   */\n      dup3\n        /* \"#utility.yul\":17457:17469   */\n      and\n        /* \"#utility.yul\":17488:17506   */\n      dup1\n        /* \"#utility.yul\":17478:17559   */\n      tag_348\n      jumpi\n        /* \"#utility.yul\":17544:17548   */\n      0x7f\n        /* \"#utility.yul\":17536:17542   */\n      dup3\n        /* \"#utility.yul\":17532:17549   */\n      and\n        /* \"#utility.yul\":17522:17549   */\n      swap2\n      pop\n        /* \"#utility.yul\":17478:17559   */\n    tag_348:\n        /* \"#utility.yul\":17606:17608   */\n      0x20\n        /* \"#utility.yul\":17598:17604   */\n      dup3\n        /* \"#utility.yul\":17595:17609   */\n      lt\n        /* \"#utility.yul\":17575:17593   */\n      dup2\n        /* \"#utility.yul\":17572:17610   */\n      sub\n        /* \"#utility.yul\":17569:17653   */\n      tag_349\n      jumpi\n        /* \"#utility.yul\":17625:17643   */\n      tag_350\n      tag_156\n      jump\t// in\n    tag_350:\n        /* \"#utility.yul\":17569:17653   */\n    tag_349:\n        /* \"#utility.yul\":17390:17659   */\n      pop\n        /* \"#utility.yul\":17339:17659   */\n      swap2\n      swap1\n      pop\n      jump\t// out\n        /* \"#utility.yul\":17665:17806   */\n    tag_157:\n        /* \"#utility.yul\":17714:17718   */\n      0x00\n        /* \"#utility.yul\":17737:17740   */\n      dup2\n        /* \"#utility.yul\":17729:17740   */\n      swap1\n      pop\n        /* \"#utility.yul\":17760:17763   */\n      dup2\n        /* \"#utility.yul\":17757:17758   */\n      0x00\n        /* \"#utility.yul\":17750:17764   */\n      mstore\n        /* \"#utility.yul\":17794:17798   */\n      0x20\n        /* \"#utility.yul\":17791:17792   */\n      0x00\n        /* \"#utility.yul\":17781:17799   */\n      keccak256\n        /* \"#utility.yul\":17773:17799   */\n      swap1\n      pop\n        /* \"#utility.yul\":17665:17806   */\n      swap2\n      swap1\n      pop\n      jump\t// out\n        /* \"#utility.yul\":17812:17905   */\n    tag_158:\n        /* \"#utility.yul\":17849:17855   */\n      0x00\n        /* \"#utility.yul\":17896:17898   */\n      0x20\n        /* \"#utility.yul\":17891:17893   */\n      0x1f\n        /* \"#utility.yul\":17884:17889   */\n      dup4\n        /* \"#utility.yul\":17880:17894   */\n      add\n        /* \"#utility.yul\":17876:17899   */\n      div\n        /* \"#utility.yul\":17866:17899   */\n      swap1\n      pop\n        /* \"#utility.yul\":17812:17905   */\n      swap2\n      swap1\n      pop\n      jump\t// out\n        /* \"#utility.yul\":17911:18018   */\n    tag_159:\n        /* \"#utility.yul\":17955:17963   */\n      0x00\n        /* \"#utility.yul\":18005:18010   */\n      dup3\n        /* \"#utility.yul\":17999:18003   */\n      dup3\n        /* \"#utility.yul\":17995:18011   */\n      shl\n        /* \"#utility.yul\":17974:18011   */\n      swap1\n      pop\n        /* \"#utility.yul\":17911:18018   */\n      swap3\n      swap2\n      pop\n      pop\n      jump\t// out\n        /* \"#utility.yul\":18024:18417   */\n    tag_160:\n        /* \"#utility.yul\":18093:18099   */\n      0x00\n        /* \"#utility.yul\":18143:18144   */\n      0x08\n        /* \"#utility.yul\":18131:18141   */\n      dup4\n        /* \"#utility.yul\":18127:18145   */\n      mul\n        /* \"#utility.yul\":18166:18263   */\n      tag_355\n        /* \"#utility.yul\":18196:18262   */\n      0xffffffffffffffffffffffffffffffffffffffffffffffffffffffffffffffff\n        /* \"#utility.yul\":18185:18194   */\n      dup3\n        /* \"#utility.yul\":18166:18263   */\n      tag_159\n      jump\t// in\n    tag_355:\n        /* \"#utility.yul\":18284:18323   */\n      tag_356\n        /* \"#utility.yul\":18314:18322   */\n      dup7\n        /* \"#utility.yul\":18303:18312   */\n      dup4\n        /* \"#utility.yul\":18284:18323   */\n      tag_159\n      jump\t// in\n    tag_356:\n        /* \"#utility.yul\":18272:18323   */\n      swap6\n      pop\n        /* \"#utility.yul\":18356:18360   */\n      dup1\n        /* \"#utility.yul\":18352:18361   */\n      not\n        /* \"#utility.yul\":18345:18350   */\n      dup5\n        /* \"#utility.yul\":18341:18362   */\n      and\n        /* \"#utility.yul\":18332:18362   */\n      swap4\n      pop\n        /* \"#utility.yul\":18405:18409   */\n      dup1\n        /* \"#utility.yul\":18395:18403   */\n      dup7\n        /* \"#utility.yul\":18391:18410   */\n      and\n        /* \"#utility.yul\":18384:18389   */\n      dup5\n        /* \"#utility.yul\":18381:18411   */\n      or\n        /* \"#utility.yul\":18371:18411   */\n      swap3\n      pop\n        /* \"#utility.yul\":18100:18417   */\n      pop\n      pop\n        /* \"#utility.yul\":18024:18417   */\n      swap4\n      swap3\n      pop\n      pop\n      pop\n      jump\t// out\n        /* \"#utility.yul\":18423:18483   */\n    tag_161:\n        /* \"#utility.yul\":18451:18454   */\n      0x00\n        /* \"#utility.yul\":18472:18477   */\n      dup2\n        /* \"#utility.yul\":18465:18477   */\n      swap1\n      pop\n        /* \"#utility.yul\":18423:18483   */\n      swap2\n      swap1\n      pop\n      jump\t// out\n        /* \"#utility.yul\":18489:18631   */\n    tag_162:\n        /* \"#utility.yul\":18539:18548   */\n      0x00\n        /* \"#utility.yul\":18572:18625   */\n      tag_359\n        /* \"#utility.yul\":18590:18624   */\n      tag_360\n        /* \"#utility.yul\":18599:18623   */\n      tag_361\n        /* \"#utility.yul\":18617:18622   */\n      dup5\n        /* \"#utility.yul\":18599:18623   */\n      tag_123\n      jump\t// in\n    tag_361:\n        /* \"#utility.yul\":18590:18624   */\n      tag_161\n      jump\t// in\n    tag_360:\n        /* \"#utility.yul\":18572:18625   */\n      tag_123\n      jump\t// in\n    tag_359:\n        /* \"#utility.yul\":18559:18625   */\n      swap1\n      pop\n        /* \"#utility.yul\":18489:18631   */\n      swap2\n      swap1\n      pop\n      jump\t// out\n        /* \"#utility.yul\":18637:18712   */\n    tag_163:\n        /* \"#utility.yul\":18680:18683   */\n      0x00\n        /* \"#utility.yul\":18701:18706   */\n      dup2\n        /* \"#utility.yul\":18694:18706   */\n      swap1\n      pop\n        /* \"#utility.yul\":18637:18712   */\n      swap2\n      swap1\n      pop\n      jump\t// out\n        /* \"#utility.yul\":18718:18987   */\n    tag_164:\n        /* \"#utility.yul\":18828:18867   */\n      tag_364\n        /* \"#utility.yul\":18859:18866   */\n      dup4\n        /* \"#utility.yul\":18828:18867   */\n      tag_162\n      jump\t// in\n    tag_364:\n        /* \"#utility.yul\":18889:18980   */\n      tag_365\n        /* \"#utility.yul\":18938:18979   */\n      tag_366\n        /* \"#utility.yul\":18962:18978   */\n      dup3\n        /* \"#utility.yul\":18938:18979   */\n      tag_163\n      jump\t// in\n    tag_366:\n        /* \"#utility.yul\":18930:18936   */\n      dup5\n        /* \"#utility.yul\":18923:18927   */\n      dup5\n        /* \"#utility.yul\":18917:18928   */\n      sload\n        /* \"#utility.yul\":18889:18980   */\n      tag_160\n      jump\t// in\n    tag_365:\n        /* \"#utility.yul\":18883:18887   */\n      dup3\n        /* \"#utility.yul\":18876:18981   */\n      sstore\n        /* \"#utility.yul\":18794:18987   */\n      pop\n        /* \"#utility.yul\":18718:18987   */\n      pop\n      pop\n      pop\n      jump\t// out\n        /* \"#utility.yul\":18993:19066   */\n    tag_165:\n        /* \"#utility.yul\":19038:19041   */\n      0x00\n        /* \"#utility.yul\":18993:19066   */\n      swap1\n      jump\t// out\n        /* \"#utility.yul\":19072:19261   */\n    tag_166:\n        /* \"#utility.yul\":19149:19181   */\n      tag_369\n      tag_165\n      jump\t// in\n    tag_369:\n        /* \"#utility.yul\":19190:19255   */\n      tag_370\n        /* \"#utility.yul\":19248:19254   */\n      dup2\n        /* \"#utility.yul\":19240:19246   */\n      dup5\n        /* \"#utility.yul\":19234:19238   */\n      dup5\n        /* \"#utility.yul\":19190:19255   */\n      tag_164\n      jump\t// in\n    tag_370:\n        /* \"#utility.yul\":19125:19261   */\n      pop\n        /* \"#utility.yul\":19072:19261   */\n      pop\n      pop\n      jump\t// out\n        /* \"#utility.yul\":19267:19453   */\n    tag_167:\n        /* \"#utility.yul\":19327:19447   */\n    tag_372:\n        /* \"#utility.yul\":19344:19347   */\n      dup2\n        /* \"#utility.yul\":19337:19342   */\n      dup2\n        /* \"#utility.yul\":19334:19348   */\n      lt\n        /* \"#utility.yul\":19327:19447   */\n      iszero\n      tag_374\n      jumpi\n        /* \"#utility.yul\":19398:19437   */\n      tag_375\n        /* \"#utility.yul\":19435:19436   */\n      0x00\n        /* \"#utility.yul\":19428:19433   */\n      dup3\n        /* \"#utility.yul\":19398:19437   */\n      tag_166\n      jump\t// in\n    tag_375:\n        /* \"#utility.yul\":19371:19372   */\n      0x01\n        /* \"#utility.yul\":19364:19369   */\n      dup2\n        /* \"#utility.yul\":19360:19373   */\n      add\n        /* \"#utility.yul\":19351:19373   */\n      swap1\n      pop\n        /* \"#utility.yul\":19327:19447   */\n      jump(tag_372)\n    tag_374:\n        /* \"#utility.yul\":19267:19453   */\n      pop\n      pop\n      jump\t// out\n        /* \"#utility.yul\":19459:20002   */\n    tag_168:\n        /* \"#utility.yul\":19560:19562   */\n      0x1f\n        /* \"#utility.yul\":19555:19558   */\n      dup3\n        /* \"#utility.yul\":19552:19563   */\n      gt\n        /* \"#utility.yul\":19549:19995   */\n      iszero\n      tag_377\n      jumpi\n        /* \"#utility.yul\":19594:19632   */\n      tag_378\n        /* \"#utility.yul\":19626:19631   */\n      dup2\n        /* \"#utility.yul\":19594:19632   */\n      tag_157\n      jump\t// in\n    tag_378:\n        /* \"#utility.yul\":19678:19707   */\n      tag_379\n        /* \"#utility.yul\":19696:19706   */\n      dup5\n        /* \"#utility.yul\":19678:19707   */\n      tag_158\n      jump\t// in\n    tag_379:\n        /* \"#utility.yul\":19668:19676   */\n      dup2\n        /* \"#utility.yul\":19664:19708   */\n      add\n        /* \"#utility.yul\":19861:19863   */\n      0x20\n        /* \"#utility.yul\":19849:19859   */\n      dup6\n        /* \"#utility.yul\":19846:19864   */\n      lt\n        /* \"#utility.yul\":19843:19892   */\n      iszero\n      tag_380\n      jumpi\n        /* \"#utility.yul\":19882:19890   */\n      dup2\n        /* \"#utility.yul\":19867:19890   */\n      swap1\n      pop\n        /* \"#utility.yul\":19843:19892   */\n    tag_380:\n        /* \"#utility.yul\":19905:19985   */\n      tag_381\n        /* \"#utility.yul\":19961:19983   */\n      tag_382\n        /* \"#utility.yul\":19979:19982   */\n      dup6\n        /* \"#utility.yul\":19961:19983   */\n      tag_158\n      jump\t// in\n    tag_382:\n        /* \"#utility.yul\":19951:19959   */\n      dup4\n        /* \"#utility.yul\":19947:19984   */\n      add\n        /* \"#utility.yul\":19934:19945   */\n      dup3\n        /* \"#utility.yul\":19905:19985   */\n      tag_167\n      jump\t// in\n    tag_381:\n        /* \"#utility.yul\":19564:19995   */\n      pop\n      pop\n        /* \"#utility.yul\":19549:19995   */\n    tag_377:\n        /* \"#utility.yul\":19459:20002   */\n      pop\n      pop\n      pop\n      jump\t// out\n        /* \"#utility.yul\":20008:20125   */\n    tag_169:\n        /* \"#utility.yul\":20062:20070   */\n      0x00\n        /* \"#utility.yul\":20112:20117   */\n      dup3\n        /* \"#utility.yul\":20106:20110   */\n      dup3\n        /* \"#utility.yul\":20102:20118   */\n      shr\n        /* \"#utility.yul\":20081:20118   */\n      swap1\n      pop\n        /* \"#utility.yul\":20008:20125   */\n      swap3\n      swap2\n      pop\n      pop\n      jump\t// out\n        /* \"#utility.yul\":20131:20300   */\n    tag_170:\n        /* \"#utility.yul\":20175:20181   */\n      0x00\n        /* \"#utility.yul\":20208:20259   */\n      tag_385\n        /* \"#utility.yul\":20256:20257   */\n      0x00\n        /* \"#utility.yul\":20252:20258   */\n      not\n        /* \"#utility.yul\":20244:20249   */\n      dup5\n        /* \"#utility.yul\":20241:20242   */\n      0x08\n        /* \"#utility.yul\":20237:20250   */\n      mul\n        /* \"#utility.yul\":20208:20259   */\n      tag_169\n      jump\t// in\n    tag_385:\n        /* \"#utility.yul\":20204:20260   */\n      not\n        /* \"#utility.yul\":20289:20293   */\n      dup1\n        /* \"#utility.yul\":20283:20287   */\n      dup4\n        /* \"#utility.yul\":20279:20294   */\n      and\n        /* \"#utility.yul\":20269:20294   */\n      swap2\n      pop\n        /* \"#utility.yul\":20182:20300   */\n      pop\n        /* \"#utility.yul\":20131:20300   */\n      swap3\n      swap2\n      pop\n      pop\n      jump\t// out\n        /* \"#utility.yul\":20305:20600   */\n    tag_171:\n        /* \"#utility.yul\":20381:20385   */\n      0x00\n        /* \"#utility.yul\":20527:20556   */\n      tag_387\n        /* \"#utility.yul\":20552:20555   */\n      dup4\n        /* \"#utility.yul\":20546:20550   */\n      dup4\n        /* \"#utility.yul\":20527:20556   */\n      tag_170\n      jump\t// in\n    tag_387:\n        /* \"#utility.yul\":20519:20556   */\n      swap2\n      pop\n        /* \"#utility.yul\":20589:20592   */\n      dup3\n        /* \"#utility.yul\":20586:20587   */\n      0x02\n        /* \"#utility.yul\":20582:20593   */\n      mul\n        /* \"#utility.yul\":20576:20580   */\n      dup3\n        /* \"#utility.yul\":20573:20594   */\n      or\n        /* \"#utility.yul\":20565:20594   */\n      swap1\n      pop\n        /* \"#utility.yul\":20305:20600   */\n      swap3\n      swap2\n      pop\n      pop\n      jump\t// out\n        /* \"#utility.yul\":20605:22000   */\n    tag_57:\n        /* \"#utility.yul\":20722:20759   */\n      tag_389\n        /* \"#utility.yul\":20755:20758   */\n      dup3\n        /* \"#utility.yul\":20722:20759   */\n      tag_146\n      jump\t// in\n    tag_389:\n        /* \"#utility.yul\":20824:20842   */\n      0xffffffffffffffff\n        /* \"#utility.yul\":20816:20822   */\n      dup2\n        /* \"#utility.yul\":20813:20843   */\n      gt\n        /* \"#utility.yul\":20810:20866   */\n      iszero\n      tag_390\n      jumpi\n        /* \"#utility.yul\":20846:20864   */\n      tag_391\n      tag_130\n      jump\t// in\n    tag_391:\n        /* \"#utility.yul\":20810:20866   */\n    tag_390:\n        /* \"#utility.yul\":20890:20928   */\n      tag_392\n        /* \"#utility.yul\":20922:20926   */\n      dup3\n        /* \"#utility.yul\":20916:20927   */\n      sload\n        /* \"#utility.yul\":20890:20928   */\n      tag_68\n      jump\t// in\n    tag_392:\n        /* \"#utility.yul\":20975:21042   */\n      tag_393\n        /* \"#utility.yul\":21035:21041   */\n      dup3\n        /* \"#utility.yul\":21027:21033   */\n      dup3\n        /* \"#utility.yul\":21021:21025   */\n      dup6\n        /* \"#utility.yul\":20975:21042   */\n      tag_168\n      jump\t// in\n    tag_393:\n        /* \"#utility.yul\":21069:21070   */\n      0x00\n        /* \"#utility.yul\":21093:21097   */\n      0x20\n        /* \"#utility.yul\":21080:21097   */\n      swap1\n      pop\n        /* \"#utility.yul\":21125:21127   */\n      0x1f\n        /* \"#utility.yul\":21117:21123   */\n      dup4\n        /* \"#utility.yul\":21114:21128   */\n      gt\n        /* \"#utility.yul\":21142:21143   */\n      0x01\n        /* \"#utility.yul\":21137:21755   */\n      dup2\n      eq\n      tag_395\n      jumpi\n        /* \"#utility.yul\":21799:21800   */\n      0x00\n        /* \"#utility.yul\":21816:21822   */\n      dup5\n        /* \"#utility.yul\":21813:21890   */\n      iszero\n      tag_396\n      jumpi\n        /* \"#utility.yul\":21865:21874   */\n      dup3\n        /* \"#utility.yul\":21860:21863   */\n      dup8\n        /* \"#utility.yul\":21856:21875   */\n      add\n        /* \"#utility.yul\":21850:21876   */\n      mload\n        /* \"#utility.yul\":21841:21876   */\n      swap1\n      pop\n        /* \"#utility.yul\":21813:21890   */\n    tag_396:\n        /* \"#utility.yul\":21916:21983   */\n      tag_397\n        /* \"#utility.yul\":21976:21982   */\n      dup6\n        /* \"#utility.yul\":21969:21974   */\n      dup3\n        /* \"#utility.yul\":21916:21983   */\n      tag_171\n      jump\t// in\n    tag_397:\n        /* \"#utility.yul\":21910:21914   */\n      dup7\n        /* \"#utility.yul\":21903:21984   */\n      sstore\n        /* \"#utility.yul\":21772:21994   */\n      pop\n        /* \"#utility.yul\":21107:21994   */\n      jump(tag_394)\n        /* \"#utility.yul\":21137:21755   */\n    tag_395:\n        /* \"#utility.yul\":21189:21193   */\n      0x1f\n        /* \"#utility.yul\":21185:21194   */\n      not\n        /* \"#utility.yul\":21177:21183   */\n      dup5\n        /* \"#utility.yul\":21173:21195   */\n      and\n        /* \"#utility.yul\":21223:21260   */\n      tag_398\n        /* \"#utility.yul\":21255:21259   */\n      dup7\n        /* \"#utility.yul\":21223:21260   */\n      tag_157\n      jump\t// in\n    tag_398:\n        /* \"#utility.yul\":21282:21283   */\n      0x00\n        /* \"#utility.yul\":21296:21504   */\n    tag_399:\n        /* \"#utility.yul\":21310:21317   */\n      dup3\n        /* \"#utility.yul\":21307:21308   */\n      dup2\n        /* \"#utility.yul\":21304:21318   */\n      lt\n        /* \"#utility.yul\":21296:21504   */\n      iszero\n      tag_401\n      jumpi\n        /* \"#utility.yul\":21389:21398   */\n      dup5\n        /* \"#utility.yul\":21384:21387   */\n      dup10\n        /* \"#utility.yul\":21380:21399   */\n      add\n        /* \"#utility.yul\":21374:21400   */\n      mload\n        /* \"#utility.yul\":21366:21372   */\n      dup3\n        /* \"#utility.yul\":21359:21401   */\n      sstore\n        /* \"#utility.yul\":21440:21441   */\n      0x01\n        /* \"#utility.yul\":21432:21438   */\n      dup3\n        /* \"#utility.yul\":21428:21442   */\n      add\n        /* \"#utility.yul\":21418:21442   */\n      swap2\n      pop\n        /* \"#utility.yul\":21487:21489   */\n      0x20\n        /* \"#utility.yul\":21476:21485   */\n      dup6\n        /* \"#utility.yul\":21472:21490   */\n      add\n        /* \"#utility.yul\":21459:21490   */\n      swap5\n      pop\n        /* \"#utility.yul\":21333:21337   */\n      0x20\n        /* \"#utility.yul\":21330:21331   */\n      dup2\n        /* \"#utility.yul\":21326:21338   */\n      add\n        /* \"#utility.yul\":21321:21338   */\n      swap1\n      pop\n        /* \"#utility.yul\":21296:21504   */\n      jump(tag_399)\n    tag_401:\n        /* \"#utility.yul\":21532:21538   */\n      dup7\n        /* \"#utility.yul\":21523:21530   */\n      dup4\n        /* \"#utility.yul\":21520:21539   */\n      lt\n        /* \"#utility.yul\":21517:21696   */\n      iszero\n      tag_402\n      jumpi\n        /* \"#utility.yul\":21590:21599   */\n      dup5\n        /* \"#utility.yul\":21585:21588   */\n      dup10\n        /* \"#utility.yul\":21581:21600   */\n      add\n        /* \"#utility.yul\":21575:21601   */\n      mload\n        /* \"#utility.yul\":21633:21681   */\n      tag_403\n        /* \"#utility.yul\":21675:21679   */\n      0x1f\n        /* \"#utility.yul\":21667:21673   */\n      dup10\n        /* \"#utility.yul\":21663:21680   */\n      and\n        /* \"#utility.yul\":21652:21661   */\n      dup3\n        /* \"#utility.yul\":21633:21681   */\n      tag_170\n      jump\t// in\n    tag_403:\n        /* \"#utility.yul\":21625:21631   */\n      dup4\n        /* \"#utility.yul\":21618:21682   */\n      sstore\n        /* \"#utility.yul\":21540:21696   */\n      pop\n        /* \"#utility.yul\":21517:21696   */\n    tag_402:\n        /* \"#utility.yul\":21742:21743   */\n      0x01\n        /* \"#utility.yul\":21738:21739   */\n      0x02\n        /* \"#utility.yul\":21730:21736   */\n      dup9\n        /* \"#utility.yul\":21726:21740   */\n      mul\n        /* \"#utility.yul\":21722:21744   */\n      add\n        /* \"#utility.yul\":21716:21720   */\n      dup9\n        /* \"#utility.yul\":21709:21745   */\n      sstore\n        /* \"#utility.yul\":21144:21755   */\n      pop\n      pop\n      pop\n        /* \"#utility.yul\":21107:21994   */\n    tag_394:\n      pop\n        /* \"#utility.yul\":20697:22000   */\n      pop\n      pop\n      pop\n        /* \"#utility.yul\":20605:22000   */\n      pop\n      pop\n      jump\t// out\n        /* \"#utility.yul\":22006:22186   */\n    tag_172:\n        /* \"#utility.yul\":22054:22131   */\n      0x4e487b7100000000000000000000000000000000000000000000000000000000\n        /* \"#utility.yul\":22051:22052   */\n      0x00\n        /* \"#utility.yul\":22044:22132   */\n      mstore\n        /* \"#utility.yul\":22151:22155   */\n      0x11\n        /* \"#utility.yul\":22148:22149   */\n      0x04\n        /* \"#utility.yul\":22141:22156   */\n      mstore\n        /* \"#utility.yul\":22175:22179   */\n      0x24\n        /* \"#utility.yul\":22172:22173   */\n      0x00\n        /* \"#utility.yul\":22165:22180   */\n      revert\n        /* \"#utility.yul\":22192:22425   */\n    tag_61:\n        /* \"#utility.yul\":22231:22234   */\n      0x00\n        /* \"#utility.yul\":22254:22278   */\n      tag_406\n        /* \"#utility.yul\":22272:22277   */\n      dup3\n        /* \"#utility.yul\":22254:22278   */\n      tag_123\n      jump\t// in\n    tag_406:\n        /* \"#utility.yul\":22245:22278   */\n      swap2\n      pop\n        /* \"#utility.yul\":22300:22366   */\n      0xffffffffffffffffffffffffffffffffffffffffffffffffffffffffffffffff\n        /* \"#utility.yul\":22293:22298   */\n      dup3\n        /* \"#utility.yul\":22290:22367   */\n      sub\n        /* \"#utility.yul\":22287:22390   */\n      tag_407\n      jumpi\n        /* \"#utility.yul\":22370:22388   */\n      tag_408\n      tag_172\n      jump\t// in\n    tag_408:\n        /* \"#utility.yul\":22287:22390   */\n    tag_407:\n        /* \"#utility.yul\":22417:22418   */\n      0x01\n        /* \"#utility.yul\":22410:22415   */\n      dup3\n        /* \"#utility.yul\":22406:22419   */\n      add\n        /* \"#utility.yul\":22399:22419   */\n      swap1\n      pop\n        /* \"#utility.yul\":22192:22425   */\n      swap2\n      swap1\n      pop\n      jump\t// out\n        /* \"#utility.yul\":22431:22604   */\n    tag_173:\n        /* \"#utility.yul\":22571:22596   */\n      0x456d706c6f79656520616c726561647920657869737473000000000000000000\n        /* \"#utility.yul\":22567:22568   */\n      0x00\n        /* \"#utility.yul\":22559:22565   */\n      dup3\n        /* \"#utility.yul\":22555:22569   */\n      add\n        /* \"#utility.yul\":22548:22597   */\n      mstore\n        /* \"#utility.yul\":22431:22604   */\n      pop\n      jump\t// out\n        /* \"#utility.yul\":22610:22976   */\n    tag_174:\n        /* \"#utility.yul\":22752:22755   */\n      0x00\n        /* \"#utility.yul\":22773:22840   */\n      tag_411\n        /* \"#utility.yul\":22837:22839   */\n      0x17\n        /* \"#utility.yul\":22832:22835   */\n      dup4\n        /* \"#utility.yul\":22773:22840   */\n      tag_147\n      jump\t// in\n    tag_411:\n        /* \"#utility.yul\":22766:22840   */\n      swap2\n      pop\n        /* \"#utility.yul\":22849:22942   */\n      tag_412\n        /* \"#utility.yul\":22938:22941   */\n      dup3\n        /* \"#utility.yul\":22849:22942   */\n      tag_173\n      jump\t// in\n    tag_412:\n        /* \"#utility.yul\":22967:22969   */\n      0x20\n        /* \"#utility.yul\":22962:22965   */\n      dup3\n        /* \"#utility.yul\":22958:22970   */\n      add\n        /* \"#utility.yul\":22951:22970   */\n      swap1\n      pop\n        /* \"#utility.yul\":22610:22976   */\n      swap2\n      swap1\n      pop\n      jump\t// out\n        /* \"#utility.yul\":22982:23401   */\n    tag_91:\n        /* \"#utility.yul\":23148:23152   */\n      0x00\n        /* \"#utility.yul\":23186:23188   */\n      0x20\n        /* \"#utility.yul\":23175:23184   */\n      dup3\n        /* \"#utility.yul\":23171:23189   */\n      add\n        /* \"#utility.yul\":23163:23189   */\n      swap1\n      pop\n        /* \"#utility.yul\":23235:23244   */\n      dup2\n        /* \"#utility.yul\":23229:23233   */\n      dup2\n        /* \"#utility.yul\":23225:23245   */\n      sub\n        /* \"#utility.yul\":23221:23222   */\n      0x00\n        /* \"#utility.yul\":23210:23219   */\n      dup4\n        /* \"#utility.yul\":23206:23223   */\n      add\n        /* \"#utility.yul\":23199:23246   */\n      mstore\n        /* \"#utility.yul\":23263:23394   */\n      tag_414\n        /* \"#utility.yul\":23389:23393   */\n      dup2\n        /* \"#utility.yul\":23263:23394   */\n      tag_174\n      jump\t// in\n    tag_414:\n        /* \"#utility.yul\":23255:23394   */\n      swap1\n      pop\n        /* \"#utility.yul\":22982:23401   */\n      swap2\n      swap1\n      pop\n      jump\t// out\n        /* \"#utility.yul\":23407:23587   */\n    tag_111:\n        /* \"#utility.yul\":23455:23532   */\n      0x4e487b7100000000000000000000000000000000000000000000000000000000\n        /* \"#utility.yul\":23452:23453   */\n      0x00\n        /* \"#utility.yul\":23445:23533   */\n      mstore\n        /* \"#utility.yul\":23552:23556   */\n      0x32\n        /* \"#utility.yul\":23549:23550   */\n      0x04\n        /* \"#utility.yul\":23542:23557   */\n      mstore\n        /* \"#utility.yul\":23576:23580   */\n      0x24\n        /* \"#utility.yul\":23573:23574   */\n      0x00\n        /* \"#utility.yul\":23566:23581   */\n      revert\n\n    auxdata: 0xa264697066735822122079e761fb330d97a321a9c962e571d004c7abdfbe8a98fc4c5338f1e8dfb324a664736f6c634300081a0033\n}\n",
				"bytecode": {
					"linkReferences": {},
					"object": "60806040525f6004553480156012575f80fd5b5061161c806100205f395ff3fe608060405234801561000f575f80fd5b5060043610610086575f3560e01c806340646bd51161005957806340646bd5146101135780634e6d14051461012f578063d44f376e14610165578063f6757cff1461019557610086565b80630786a6a61461008a57806308aabe9c146100a65780631346f0c4146100c2578063272cc76a146100e0575b5f80fd5b6100a4600480360381019061009f9190610c9f565b6101c8565b005b6100c060048036038101906100bb9190610e18565b6102d7565b005b6100ca610369565b6040516100d79190610f0e565b60405180910390f35b6100fa60048036038101906100f59190610f27565b61036f565b60405161010a9493929190610fb2565b60405180910390f35b61012d60048036038101906101289190610e18565b6104a6565b005b61014960048036038101906101449190610f27565b610538565b60405161015c9796959493929190611076565b60405180910390f35b61017f600480360381019061017a91906110ea565b610608565b60405161018c9190610f0e565b60405180910390f35b6101af60048036038101906101aa9190610f27565b6106da565b6040516101bf9493929190610fb2565b60405180910390f35b865188511480156101da575085518751145b80156101e7575084518651145b610226576040517f08c379a000000000000000000000000000000000000000000000000000000000815260040161021d906111f6565b60405180910390fd5b5f60035f60045481526020019081526020015f2090508b815f01819055508a816001015f6101000a81548160ff0219169083600281111561026a57610269611003565b5b0217905550898160020181905550848160040181905550838160050181905550828160060181905550818160070190816102a4919061140e565b506102b2818a8a8a8a610853565b60045f8154809291906102c49061150a565b9190505550505050505050505050505050565b60405180608001604052808581526020018481526020018381526020018281525060015f8781526020019081526020015f205f820151815f01908161031c919061140e565b506020820151816001019081610332919061140e565b506040820151816002019081610348919061140e565b50606082015181600301908161035e919061140e565b509050505050505050565b60045481565b5f602052805f5260405f205f91509050805f01549080600101805461039390611241565b80601f01602080910402602001604051908101604052809291908181526020018280546103bf90611241565b801561040a5780601f106103e15761010080835404028352916020019161040a565b820191905f5260205f20905b8154815290600101906020018083116103ed57829003601f168201915b50505050509080600201805461041f90611241565b80601f016020809104026020016040519081016040528092919081815260200182805461044b90611241565b80156104965780601f1061046d57610100808354040283529160200191610496565b820191905f5260205f20905b81548152906001019060200180831161047957829003601f168201915b5050505050908060030154905084565b60405180608001604052808581526020018481526020018381526020018281525060025f8781526020019081526020015f205f820151815f0190816104eb919061140e565b506020820151816001019081610501919061140e565b506040820151816002019081610517919061140e565b50606082015181600301908161052d919061140e565b509050505050505050565b6003602052805f5260405f205f91509050805f015490806001015f9054906101000a900460ff169080600201549080600401549080600501549080600601549080600701805461058790611241565b80601f01602080910402602001604051908101604052809291908181526020018280546105b390611241565b80156105fe5780601f106105d5576101008083540402835291602001916105fe565b820191905f5260205f20905b8154815290600101906020018083116105e157829003601f168201915b5050505050905087565b5f805f808781526020019081526020015f205f01541461065d576040517f08c379a00000000000000000000000000000000000000000000000000000000081526004016106549061159b565b60405180910390fd5b6040518060800160405280868152602001858152602001848152602001838152505f808781526020019081526020015f205f820151815f015560208201518160010190816106ab919061140e565b5060408201518160020190816106c1919061140e565b5060608201518160030155905050849050949350505050565b5f6060805f805f808781526020019081526020015f206040518060800160405290815f820154815260200160018201805461071490611241565b80601f016020809104026020016040519081016040528092919081815260200182805461074090611241565b801561078b5780601f106107625761010080835404028352916020019161078b565b820191905f5260205f20905b81548152906001019060200180831161076e57829003601f168201915b505050505081526020016002820180546107a490611241565b80601f01602080910402602001604051908101604052809291908181526020018280546107d090611241565b801561081b5780601f106107f25761010080835404028352916020019161081b565b820191905f5260205f20905b8154815290600101906020018083116107fe57829003601f168201915b505050505081526020016003820154815250509050805f01518160200151826040015183606001519450945094509450509193509193565b5f5b8451811015610952578560030160405180608001604052808784815181106108805761087f6115b9565b5b602002602001015181526020018684815181106108a05761089f6115b9565b5b602002602001015181526020018584815181106108c0576108bf6115b9565b5b602002602001015181526020018484815181106108e0576108df6115b9565b5b6020026020010151815250908060018154018082558091505060019003905f5260205f2090600402015f909190919091505f820151815f019081610924919061140e565b5060208201518160010155604082015181600201556060820151816003015550508080600101915050610855565b505050505050565b5f604051905090565b5f80fd5b5f80fd5b5f819050919050565b61097d8161096b565b8114610987575f80fd5b50565b5f8135905061099881610974565b92915050565b600381106109aa575f80fd5b50565b5f813590506109bb8161099e565b92915050565b5f80fd5b5f601f19601f8301169050919050565b7f4e487b71000000000000000000000000000000000000000000000000000000005f52604160045260245ffd5b610a0b826109c5565b810181811067ffffffffffffffff82111715610a2a57610a296109d5565b5b80604052505050565b5f610a3c61095a565b9050610a488282610a02565b919050565b5f67ffffffffffffffff821115610a6757610a666109d5565b5b602082029050602081019050919050565b5f80fd5b5f80fd5b5f67ffffffffffffffff821115610a9a57610a996109d5565b5b610aa3826109c5565b9050602081019050919050565b828183375f83830152505050565b5f610ad0610acb84610a80565b610a33565b905082815260208101848484011115610aec57610aeb610a7c565b5b610af7848285610ab0565b509392505050565b5f82601f830112610b1357610b126109c1565b5b8135610b23848260208601610abe565b91505092915050565b5f610b3e610b3984610a4d565b610a33565b90508083825260208201905060208402830185811115610b6157610b60610a78565b5b835b81811015610ba857803567ffffffffffffffff811115610b8657610b856109c1565b5b808601610b938982610aff565b85526020850194505050602081019050610b63565b5050509392505050565b5f82601f830112610bc657610bc56109c1565b5b8135610bd6848260208601610b2c565b91505092915050565b5f67ffffffffffffffff821115610bf957610bf86109d5565b5b602082029050602081019050919050565b5f610c1c610c1784610bdf565b610a33565b90508083825260208201905060208402830185811115610c3f57610c3e610a78565b5b835b81811015610c685780610c54888261098a565b845260208401935050602081019050610c41565b5050509392505050565b5f82601f830112610c8657610c856109c1565b5b8135610c96848260208601610c0a565b91505092915050565b5f805f805f805f805f805f6101608c8e031215610cbf57610cbe610963565b5b5f610ccc8e828f0161098a565b9b50506020610cdd8e828f016109ad565b9a50506040610cee8e828f0161098a565b99505060608c013567ffffffffffffffff811115610d0f57610d0e610967565b5b610d1b8e828f01610bb2565b98505060808c013567ffffffffffffffff811115610d3c57610d3b610967565b5b610d488e828f01610c72565b97505060a08c013567ffffffffffffffff811115610d6957610d68610967565b5b610d758e828f01610c72565b96505060c08c013567ffffffffffffffff811115610d9657610d95610967565b5b610da28e828f01610c72565b95505060e0610db38e828f0161098a565b945050610100610dc58e828f0161098a565b935050610120610dd78e828f0161098a565b9250506101408c013567ffffffffffffffff811115610df957610df8610967565b5b610e058e828f01610aff565b9150509295989b509295989b9093969950565b5f805f805f60a08688031215610e3157610e30610963565b5b5f610e3e8882890161098a565b955050602086013567ffffffffffffffff811115610e5f57610e5e610967565b5b610e6b88828901610aff565b945050604086013567ffffffffffffffff811115610e8c57610e8b610967565b5b610e9888828901610aff565b935050606086013567ffffffffffffffff811115610eb957610eb8610967565b5b610ec588828901610aff565b925050608086013567ffffffffffffffff811115610ee657610ee5610967565b5b610ef288828901610aff565b9150509295509295909350565b610f088161096b565b82525050565b5f602082019050610f215f830184610eff565b92915050565b5f60208284031215610f3c57610f3b610963565b5b5f610f498482850161098a565b91505092915050565b5f81519050919050565b5f82825260208201905092915050565b8281835e5f83830152505050565b5f610f8482610f52565b610f8e8185610f5c565b9350610f9e818560208601610f6c565b610fa7816109c5565b840191505092915050565b5f608082019050610fc55f830187610eff565b8181036020830152610fd78186610f7a565b90508181036040830152610feb8185610f7a565b9050610ffa6060830184610eff565b95945050505050565b7f4e487b71000000000000000000000000000000000000000000000000000000005f52602160045260245ffd5b6003811061104157611040611003565b5b50565b5f81905061105182611030565b919050565b5f61106082611044565b9050919050565b61107081611056565b82525050565b5f60e0820190506110895f83018a610eff565b6110966020830189611067565b6110a36040830188610eff565b6110b06060830187610eff565b6110bd6080830186610eff565b6110ca60a0830185610eff565b81810360c08301526110dc8184610f7a565b905098975050505050505050565b5f805f806080858703121561110257611101610963565b5b5f61110f8782880161098a565b945050602085013567ffffffffffffffff8111156111305761112f610967565b5b61113c87828801610aff565b935050604085013567ffffffffffffffff81111561115d5761115c610967565b5b61116987828801610aff565b925050606061117a8782880161098a565b91505092959194509250565b7f50726f6475637420617272617973206d757374206265206f6620657175616c205f8201527f6c656e6774680000000000000000000000000000000000000000000000000000602082015250565b5f6111e0602683610f5c565b91506111eb82611186565b604082019050919050565b5f6020820190508181035f83015261120d816111d4565b9050919050565b7f4e487b71000000000000000000000000000000000000000000000000000000005f52602260045260245ffd5b5f600282049050600182168061125857607f821691505b60208210810361126b5761126a611214565b5b50919050565b5f819050815f5260205f209050919050565b5f6020601f8301049050919050565b5f82821b905092915050565b5f600883026112cd7fffffffffffffffffffffffffffffffffffffffffffffffffffffffffffffffff82611292565b6112d78683611292565b95508019841693508086168417925050509392505050565b5f819050919050565b5f61131261130d6113088461096b565b6112ef565b61096b565b9050919050565b5f819050919050565b61132b836112f8565b61133f61133782611319565b84845461129e565b825550505050565b5f90565b611353611347565b61135e818484611322565b505050565b5b81811015611381576113765f8261134b565b600181019050611364565b5050565b601f8211156113c65761139781611271565b6113a084611283565b810160208510156113af578190505b6113c36113bb85611283565b830182611363565b50505b505050565b5f82821c905092915050565b5f6113e65f19846008026113cb565b1980831691505092915050565b5f6113fe83836113d7565b9150826002028217905092915050565b61141782610f52565b67ffffffffffffffff8111156114305761142f6109d5565b5b61143a8254611241565b611445828285611385565b5f60209050601f831160018114611476575f8415611464578287015190505b61146e85826113f3565b8655506114d5565b601f19841661148486611271565b5f5b828110156114ab57848901518255600182019150602085019450602081019050611486565b868310156114c857848901516114c4601f8916826113d7565b8355505b6001600288020188555050505b505050505050565b7f4e487b71000000000000000000000000000000000000000000000000000000005f52601160045260245ffd5b5f6115148261096b565b91507fffffffffffffffffffffffffffffffffffffffffffffffffffffffffffffffff8203611546576115456114dd565b5b600182019050919050565b7f456d706c6f79656520616c7265616479206578697374730000000000000000005f82015250565b5f611585601783610f5c565b915061159082611551565b602082019050919050565b5f6020820190508181035f8301526115b281611579565b9050919050565b7f4e487b71000000000000000000000000000000000000000000000000000000005f52603260045260245ffdfea264697066735822122079e761fb330d97a321a9c962e571d004c7abdfbe8a98fc4c5338f1e8dfb324a664736f6c634300081a0033",
					"opcodes": "PUSH1 0x80 PUSH1 0x40 MSTORE PUSH0 PUSH1 0x4 SSTORE CALLVALUE DUP1 ISZERO PUSH1 0x12 JUMPI PUSH0 DUP1 REVERT JUMPDEST POP PUSH2 0x161C DUP1 PUSH2 0x20 PUSH0 CODECOPY PUSH0 RETURN INVALID PUSH1 0x80 PUSH1 0x40 MSTORE CALLVALUE DUP1 ISZERO PUSH2 0xF JUMPI PUSH0 DUP1 REVERT JUMPDEST POP PUSH1 0x4 CALLDATASIZE LT PUSH2 0x86 JUMPI PUSH0 CALLDATALOAD PUSH1 0xE0 SHR DUP1 PUSH4 0x40646BD5 GT PUSH2 0x59 JUMPI DUP1 PUSH4 0x40646BD5 EQ PUSH2 0x113 JUMPI DUP1 PUSH4 0x4E6D1405 EQ PUSH2 0x12F JUMPI DUP1 PUSH4 0xD44F376E EQ PUSH2 0x165 JUMPI DUP1 PUSH4 0xF6757CFF EQ PUSH2 0x195 JUMPI PUSH2 0x86 JUMP JUMPDEST DUP1 PUSH4 0x786A6A6 EQ PUSH2 0x8A JUMPI DUP1 PUSH4 0x8AABE9C EQ PUSH2 0xA6 JUMPI DUP1 PUSH4 0x1346F0C4 EQ PUSH2 0xC2 JUMPI DUP1 PUSH4 0x272CC76A EQ PUSH2 0xE0 JUMPI JUMPDEST PUSH0 DUP1 REVERT JUMPDEST PUSH2 0xA4 PUSH1 0x4 DUP1 CALLDATASIZE SUB DUP2 ADD SWAP1 PUSH2 0x9F SWAP2 SWAP1 PUSH2 0xC9F JUMP JUMPDEST PUSH2 0x1C8 JUMP JUMPDEST STOP JUMPDEST PUSH2 0xC0 PUSH1 0x4 DUP1 CALLDATASIZE SUB DUP2 ADD SWAP1 PUSH2 0xBB SWAP2 SWAP1 PUSH2 0xE18 JUMP JUMPDEST PUSH2 0x2D7 JUMP JUMPDEST STOP JUMPDEST PUSH2 0xCA PUSH2 0x369 JUMP JUMPDEST PUSH1 0x40 MLOAD PUSH2 0xD7 SWAP2 SWAP1 PUSH2 0xF0E JUMP JUMPDEST PUSH1 0x40 MLOAD DUP1 SWAP2 SUB SWAP1 RETURN JUMPDEST PUSH2 0xFA PUSH1 0x4 DUP1 CALLDATASIZE SUB DUP2 ADD SWAP1 PUSH2 0xF5 SWAP2 SWAP1 PUSH2 0xF27 JUMP JUMPDEST PUSH2 0x36F JUMP JUMPDEST PUSH1 0x40 MLOAD PUSH2 0x10A SWAP5 SWAP4 SWAP3 SWAP2 SWAP1 PUSH2 0xFB2 JUMP JUMPDEST PUSH1 0x40 MLOAD DUP1 SWAP2 SUB SWAP1 RETURN JUMPDEST PUSH2 0x12D PUSH1 0x4 DUP1 CALLDATASIZE SUB DUP2 ADD SWAP1 PUSH2 0x128 SWAP2 SWAP1 PUSH2 0xE18 JUMP JUMPDEST PUSH2 0x4A6 JUMP JUMPDEST STOP JUMPDEST PUSH2 0x149 PUSH1 0x4 DUP1 CALLDATASIZE SUB DUP2 ADD SWAP1 PUSH2 0x144 SWAP2 SWAP1 PUSH2 0xF27 JUMP JUMPDEST PUSH2 0x538 JUMP JUMPDEST PUSH1 0x40 MLOAD PUSH2 0x15C SWAP8 SWAP7 SWAP6 SWAP5 SWAP4 SWAP3 SWAP2 SWAP1 PUSH2 0x1076 JUMP JUMPDEST PUSH1 0x40 MLOAD DUP1 SWAP2 SUB SWAP1 RETURN JUMPDEST PUSH2 0x17F PUSH1 0x4 DUP1 CALLDATASIZE SUB DUP2 ADD SWAP1 PUSH2 0x17A SWAP2 SWAP1 PUSH2 0x10EA JUMP JUMPDEST PUSH2 0x608 JUMP JUMPDEST PUSH1 0x40 MLOAD PUSH2 0x18C SWAP2 SWAP1 PUSH2 0xF0E JUMP JUMPDEST PUSH1 0x40 MLOAD DUP1 SWAP2 SUB SWAP1 RETURN JUMPDEST PUSH2 0x1AF PUSH1 0x4 DUP1 CALLDATASIZE SUB DUP2 ADD SWAP1 PUSH2 0x1AA SWAP2 SWAP1 PUSH2 0xF27 JUMP JUMPDEST PUSH2 0x6DA JUMP JUMPDEST PUSH1 0x40 MLOAD PUSH2 0x1BF SWAP5 SWAP4 SWAP3 SWAP2 SWAP1 PUSH2 0xFB2 JUMP JUMPDEST PUSH1 0x40 MLOAD DUP1 SWAP2 SUB SWAP1 RETURN JUMPDEST DUP7 MLOAD DUP9 MLOAD EQ DUP1 ISZERO PUSH2 0x1DA JUMPI POP DUP6 MLOAD DUP8 MLOAD EQ JUMPDEST DUP1 ISZERO PUSH2 0x1E7 JUMPI POP DUP5 MLOAD DUP7 MLOAD EQ JUMPDEST PUSH2 0x226 JUMPI PUSH1 0x40 MLOAD PUSH32 0x8C379A000000000000000000000000000000000000000000000000000000000 DUP2 MSTORE PUSH1 0x4 ADD PUSH2 0x21D SWAP1 PUSH2 0x11F6 JUMP JUMPDEST PUSH1 0x40 MLOAD DUP1 SWAP2 SUB SWAP1 REVERT JUMPDEST PUSH0 PUSH1 0x3 PUSH0 PUSH1 0x4 SLOAD DUP2 MSTORE PUSH1 0x20 ADD SWAP1 DUP2 MSTORE PUSH1 0x20 ADD PUSH0 KECCAK256 SWAP1 POP DUP12 DUP2 PUSH0 ADD DUP2 SWAP1 SSTORE POP DUP11 DUP2 PUSH1 0x1 ADD PUSH0 PUSH2 0x100 EXP DUP2 SLOAD DUP2 PUSH1 0xFF MUL NOT AND SWAP1 DUP4 PUSH1 0x2 DUP2 GT ISZERO PUSH2 0x26A JUMPI PUSH2 0x269 PUSH2 0x1003 JUMP JUMPDEST JUMPDEST MUL OR SWAP1 SSTORE POP DUP10 DUP2 PUSH1 0x2 ADD DUP2 SWAP1 SSTORE POP DUP5 DUP2 PUSH1 0x4 ADD DUP2 SWAP1 SSTORE POP DUP4 DUP2 PUSH1 0x5 ADD DUP2 SWAP1 SSTORE POP DUP3 DUP2 PUSH1 0x6 ADD DUP2 SWAP1 SSTORE POP DUP2 DUP2 PUSH1 0x7 ADD SWAP1 DUP2 PUSH2 0x2A4 SWAP2 SWAP1 PUSH2 0x140E JUMP JUMPDEST POP PUSH2 0x2B2 DUP2 DUP11 DUP11 DUP11 DUP11 PUSH2 0x853 JUMP JUMPDEST PUSH1 0x4 PUSH0 DUP2 SLOAD DUP1 SWAP3 SWAP2 SWAP1 PUSH2 0x2C4 SWAP1 PUSH2 0x150A JUMP JUMPDEST SWAP2 SWAP1 POP SSTORE POP POP POP POP POP POP POP POP POP POP POP POP POP JUMP JUMPDEST PUSH1 0x40 MLOAD DUP1 PUSH1 0x80 ADD PUSH1 0x40 MSTORE DUP1 DUP6 DUP2 MSTORE PUSH1 0x20 ADD DUP5 DUP2 MSTORE PUSH1 0x20 ADD DUP4 DUP2 MSTORE PUSH1 0x20 ADD DUP3 DUP2 MSTORE POP PUSH1 0x1 PUSH0 DUP8 DUP2 MSTORE PUSH1 0x20 ADD SWAP1 DUP2 MSTORE PUSH1 0x20 ADD PUSH0 KECCAK256 PUSH0 DUP3 ADD MLOAD DUP2 PUSH0 ADD SWAP1 DUP2 PUSH2 0x31C SWAP2 SWAP1 PUSH2 0x140E JUMP JUMPDEST POP PUSH1 0x20 DUP3 ADD MLOAD DUP2 PUSH1 0x1 ADD SWAP1 DUP2 PUSH2 0x332 SWAP2 SWAP1 PUSH2 0x140E JUMP JUMPDEST POP PUSH1 0x40 DUP3 ADD MLOAD DUP2 PUSH1 0x2 ADD SWAP1 DUP2 PUSH2 0x348 SWAP2 SWAP1 PUSH2 0x140E JUMP JUMPDEST POP PUSH1 0x60 DUP3 ADD MLOAD DUP2 PUSH1 0x3 ADD SWAP1 DUP2 PUSH2 0x35E SWAP2 SWAP1 PUSH2 0x140E JUMP JUMPDEST POP SWAP1 POP POP POP POP POP POP POP JUMP JUMPDEST PUSH1 0x4 SLOAD DUP2 JUMP JUMPDEST PUSH0 PUSH1 0x20 MSTORE DUP1 PUSH0 MSTORE PUSH1 0x40 PUSH0 KECCAK256 PUSH0 SWAP2 POP SWAP1 POP DUP1 PUSH0 ADD SLOAD SWAP1 DUP1 PUSH1 0x1 ADD DUP1 SLOAD PUSH2 0x393 SWAP1 PUSH2 0x1241 JUMP JUMPDEST DUP1 PUSH1 0x1F ADD PUSH1 0x20 DUP1 SWAP2 DIV MUL PUSH1 0x20 ADD PUSH1 0x40 MLOAD SWAP1 DUP2 ADD PUSH1 0x40 MSTORE DUP1 SWAP3 SWAP2 SWAP1 DUP2 DUP2 MSTORE PUSH1 0x20 ADD DUP3 DUP1 SLOAD PUSH2 0x3BF SWAP1 PUSH2 0x1241 JUMP JUMPDEST DUP1 ISZERO PUSH2 0x40A JUMPI DUP1 PUSH1 0x1F LT PUSH2 0x3E1 JUMPI PUSH2 0x100 DUP1 DUP4 SLOAD DIV MUL DUP4 MSTORE SWAP2 PUSH1 0x20 ADD SWAP2 PUSH2 0x40A JUMP JUMPDEST DUP3 ADD SWAP2 SWAP1 PUSH0 MSTORE PUSH1 0x20 PUSH0 KECCAK256 SWAP1 JUMPDEST DUP2 SLOAD DUP2 MSTORE SWAP1 PUSH1 0x1 ADD SWAP1 PUSH1 0x20 ADD DUP1 DUP4 GT PUSH2 0x3ED JUMPI DUP3 SWAP1 SUB PUSH1 0x1F AND DUP3 ADD SWAP2 JUMPDEST POP POP POP POP POP SWAP1 DUP1 PUSH1 0x2 ADD DUP1 SLOAD PUSH2 0x41F SWAP1 PUSH2 0x1241 JUMP JUMPDEST DUP1 PUSH1 0x1F ADD PUSH1 0x20 DUP1 SWAP2 DIV MUL PUSH1 0x20 ADD PUSH1 0x40 MLOAD SWAP1 DUP2 ADD PUSH1 0x40 MSTORE DUP1 SWAP3 SWAP2 SWAP1 DUP2 DUP2 MSTORE PUSH1 0x20 ADD DUP3 DUP1 SLOAD PUSH2 0x44B SWAP1 PUSH2 0x1241 JUMP JUMPDEST DUP1 ISZERO PUSH2 0x496 JUMPI DUP1 PUSH1 0x1F LT PUSH2 0x46D JUMPI PUSH2 0x100 DUP1 DUP4 SLOAD DIV MUL DUP4 MSTORE SWAP2 PUSH1 0x20 ADD SWAP2 PUSH2 0x496 JUMP JUMPDEST DUP3 ADD SWAP2 SWAP1 PUSH0 MSTORE PUSH1 0x20 PUSH0 KECCAK256 SWAP1 JUMPDEST DUP2 SLOAD DUP2 MSTORE SWAP1 PUSH1 0x1 ADD SWAP1 PUSH1 0x20 ADD DUP1 DUP4 GT PUSH2 0x479 JUMPI DUP3 SWAP1 SUB PUSH1 0x1F AND DUP3 ADD SWAP2 JUMPDEST POP POP POP POP POP SWAP1 DUP1 PUSH1 0x3 ADD SLOAD SWAP1 POP DUP5 JUMP JUMPDEST PUSH1 0x40 MLOAD DUP1 PUSH1 0x80 ADD PUSH1 0x40 MSTORE DUP1 DUP6 DUP2 MSTORE PUSH1 0x20 ADD DUP5 DUP2 MSTORE PUSH1 0x20 ADD DUP4 DUP2 MSTORE PUSH1 0x20 ADD DUP3 DUP2 MSTORE POP PUSH1 0x2 PUSH0 DUP8 DUP2 MSTORE PUSH1 0x20 ADD SWAP1 DUP2 MSTORE PUSH1 0x20 ADD PUSH0 KECCAK256 PUSH0 DUP3 ADD MLOAD DUP2 PUSH0 ADD SWAP1 DUP2 PUSH2 0x4EB SWAP2 SWAP1 PUSH2 0x140E JUMP JUMPDEST POP PUSH1 0x20 DUP3 ADD MLOAD DUP2 PUSH1 0x1 ADD SWAP1 DUP2 PUSH2 0x501 SWAP2 SWAP1 PUSH2 0x140E JUMP JUMPDEST POP PUSH1 0x40 DUP3 ADD MLOAD DUP2 PUSH1 0x2 ADD SWAP1 DUP2 PUSH2 0x517 SWAP2 SWAP1 PUSH2 0x140E JUMP JUMPDEST POP PUSH1 0x60 DUP3 ADD MLOAD DUP2 PUSH1 0x3 ADD SWAP1 DUP2 PUSH2 0x52D SWAP2 SWAP1 PUSH2 0x140E JUMP JUMPDEST POP SWAP1 POP POP POP POP POP POP POP JUMP JUMPDEST PUSH1 0x3 PUSH1 0x20 MSTORE DUP1 PUSH0 MSTORE PUSH1 0x40 PUSH0 KECCAK256 PUSH0 SWAP2 POP SWAP1 POP DUP1 PUSH0 ADD SLOAD SWAP1 DUP1 PUSH1 0x1 ADD PUSH0 SWAP1 SLOAD SWAP1 PUSH2 0x100 EXP SWAP1 DIV PUSH1 0xFF AND SWAP1 DUP1 PUSH1 0x2 ADD SLOAD SWAP1 DUP1 PUSH1 0x4 ADD SLOAD SWAP1 DUP1 PUSH1 0x5 ADD SLOAD SWAP1 DUP1 PUSH1 0x6 ADD SLOAD SWAP1 DUP1 PUSH1 0x7 ADD DUP1 SLOAD PUSH2 0x587 SWAP1 PUSH2 0x1241 JUMP JUMPDEST DUP1 PUSH1 0x1F ADD PUSH1 0x20 DUP1 SWAP2 DIV MUL PUSH1 0x20 ADD PUSH1 0x40 MLOAD SWAP1 DUP2 ADD PUSH1 0x40 MSTORE DUP1 SWAP3 SWAP2 SWAP1 DUP2 DUP2 MSTORE PUSH1 0x20 ADD DUP3 DUP1 SLOAD PUSH2 0x5B3 SWAP1 PUSH2 0x1241 JUMP JUMPDEST DUP1 ISZERO PUSH2 0x5FE JUMPI DUP1 PUSH1 0x1F LT PUSH2 0x5D5 JUMPI PUSH2 0x100 DUP1 DUP4 SLOAD DIV MUL DUP4 MSTORE SWAP2 PUSH1 0x20 ADD SWAP2 PUSH2 0x5FE JUMP JUMPDEST DUP3 ADD SWAP2 SWAP1 PUSH0 MSTORE PUSH1 0x20 PUSH0 KECCAK256 SWAP1 JUMPDEST DUP2 SLOAD DUP2 MSTORE SWAP1 PUSH1 0x1 ADD SWAP1 PUSH1 0x20 ADD DUP1 DUP4 GT PUSH2 0x5E1 JUMPI DUP3 SWAP1 SUB PUSH1 0x1F AND DUP3 ADD SWAP2 JUMPDEST POP POP POP POP POP SWAP1 POP DUP8 JUMP JUMPDEST PUSH0 DUP1 PUSH0 DUP1 DUP8 DUP2 MSTORE PUSH1 0x20 ADD SWAP1 DUP2 MSTORE PUSH1 0x20 ADD PUSH0 KECCAK256 PUSH0 ADD SLOAD EQ PUSH2 0x65D JUMPI PUSH1 0x40 MLOAD PUSH32 0x8C379A000000000000000000000000000000000000000000000000000000000 DUP2 MSTORE PUSH1 0x4 ADD PUSH2 0x654 SWAP1 PUSH2 0x159B JUMP JUMPDEST PUSH1 0x40 MLOAD DUP1 SWAP2 SUB SWAP1 REVERT JUMPDEST PUSH1 0x40 MLOAD DUP1 PUSH1 0x80 ADD PUSH1 0x40 MSTORE DUP1 DUP7 DUP2 MSTORE PUSH1 0x20 ADD DUP6 DUP2 MSTORE PUSH1 0x20 ADD DUP5 DUP2 MSTORE PUSH1 0x20 ADD DUP4 DUP2 MSTORE POP PUSH0 DUP1 DUP8 DUP2 MSTORE PUSH1 0x20 ADD SWAP1 DUP2 MSTORE PUSH1 0x20 ADD PUSH0 KECCAK256 PUSH0 DUP3 ADD MLOAD DUP2 PUSH0 ADD SSTORE PUSH1 0x20 DUP3 ADD MLOAD DUP2 PUSH1 0x1 ADD SWAP1 DUP2 PUSH2 0x6AB SWAP2 SWAP1 PUSH2 0x140E JUMP JUMPDEST POP PUSH1 0x40 DUP3 ADD MLOAD DUP2 PUSH1 0x2 ADD SWAP1 DUP2 PUSH2 0x6C1 SWAP2 SWAP1 PUSH2 0x140E JUMP JUMPDEST POP PUSH1 0x60 DUP3 ADD MLOAD DUP2 PUSH1 0x3 ADD SSTORE SWAP1 POP POP DUP5 SWAP1 POP SWAP5 SWAP4 POP POP POP POP JUMP JUMPDEST PUSH0 PUSH1 0x60 DUP1 PUSH0 DUP1 PUSH0 DUP1 DUP8 DUP2 MSTORE PUSH1 0x20 ADD SWAP1 DUP2 MSTORE PUSH1 0x20 ADD PUSH0 KECCAK256 PUSH1 0x40 MLOAD DUP1 PUSH1 0x80 ADD PUSH1 0x40 MSTORE SWAP1 DUP2 PUSH0 DUP3 ADD SLOAD DUP2 MSTORE PUSH1 0x20 ADD PUSH1 0x1 DUP3 ADD DUP1 SLOAD PUSH2 0x714 SWAP1 PUSH2 0x1241 JUMP JUMPDEST DUP1 PUSH1 0x1F ADD PUSH1 0x20 DUP1 SWAP2 DIV MUL PUSH1 0x20 ADD PUSH1 0x40 MLOAD SWAP1 DUP2 ADD PUSH1 0x40 MSTORE DUP1 SWAP3 SWAP2 SWAP1 DUP2 DUP2 MSTORE PUSH1 0x20 ADD DUP3 DUP1 SLOAD PUSH2 0x740 SWAP1 PUSH2 0x1241 JUMP JUMPDEST DUP1 ISZERO PUSH2 0x78B JUMPI DUP1 PUSH1 0x1F LT PUSH2 0x762 JUMPI PUSH2 0x100 DUP1 DUP4 SLOAD DIV MUL DUP4 MSTORE SWAP2 PUSH1 0x20 ADD SWAP2 PUSH2 0x78B JUMP JUMPDEST DUP3 ADD SWAP2 SWAP1 PUSH0 MSTORE PUSH1 0x20 PUSH0 KECCAK256 SWAP1 JUMPDEST DUP2 SLOAD DUP2 MSTORE SWAP1 PUSH1 0x1 ADD SWAP1 PUSH1 0x20 ADD DUP1 DUP4 GT PUSH2 0x76E JUMPI DUP3 SWAP1 SUB PUSH1 0x1F AND DUP3 ADD SWAP2 JUMPDEST POP POP POP POP POP DUP2 MSTORE PUSH1 0x20 ADD PUSH1 0x2 DUP3 ADD DUP1 SLOAD PUSH2 0x7A4 SWAP1 PUSH2 0x1241 JUMP JUMPDEST DUP1 PUSH1 0x1F ADD PUSH1 0x20 DUP1 SWAP2 DIV MUL PUSH1 0x20 ADD PUSH1 0x40 MLOAD SWAP1 DUP2 ADD PUSH1 0x40 MSTORE DUP1 SWAP3 SWAP2 SWAP1 DUP2 DUP2 MSTORE PUSH1 0x20 ADD DUP3 DUP1 SLOAD PUSH2 0x7D0 SWAP1 PUSH2 0x1241 JUMP JUMPDEST DUP1 ISZERO PUSH2 0x81B JUMPI DUP1 PUSH1 0x1F LT PUSH2 0x7F2 JUMPI PUSH2 0x100 DUP1 DUP4 SLOAD DIV MUL DUP4 MSTORE SWAP2 PUSH1 0x20 ADD SWAP2 PUSH2 0x81B JUMP JUMPDEST DUP3 ADD SWAP2 SWAP1 PUSH0 MSTORE PUSH1 0x20 PUSH0 KECCAK256 SWAP1 JUMPDEST DUP2 SLOAD DUP2 MSTORE SWAP1 PUSH1 0x1 ADD SWAP1 PUSH1 0x20 ADD DUP1 DUP4 GT PUSH2 0x7FE JUMPI DUP3 SWAP1 SUB PUSH1 0x1F AND DUP3 ADD SWAP2 JUMPDEST POP POP POP POP POP DUP2 MSTORE PUSH1 0x20 ADD PUSH1 0x3 DUP3 ADD SLOAD DUP2 MSTORE POP POP SWAP1 POP DUP1 PUSH0 ADD MLOAD DUP2 PUSH1 0x20 ADD MLOAD DUP3 PUSH1 0x40 ADD MLOAD DUP4 PUSH1 0x60 ADD MLOAD SWAP5 POP SWAP5 POP SWAP5 POP SWAP5 POP POP SWAP2 SWAP4 POP SWAP2 SWAP4 JUMP JUMPDEST PUSH0 JUMPDEST DUP5 MLOAD DUP2 LT ISZERO PUSH2 0x952 JUMPI DUP6 PUSH1 0x3 ADD PUSH1 0x40 MLOAD DUP1 PUSH1 0x80 ADD PUSH1 0x40 MSTORE DUP1 DUP8 DUP5 DUP2 MLOAD DUP2 LT PUSH2 0x880 JUMPI PUSH2 0x87F PUSH2 0x15B9 JUMP JUMPDEST JUMPDEST PUSH1 0x20 MUL PUSH1 0x20 ADD ADD MLOAD DUP2 MSTORE PUSH1 0x20 ADD DUP7 DUP5 DUP2 MLOAD DUP2 LT PUSH2 0x8A0 JUMPI PUSH2 0x89F PUSH2 0x15B9 JUMP JUMPDEST JUMPDEST PUSH1 0x20 MUL PUSH1 0x20 ADD ADD MLOAD DUP2 MSTORE PUSH1 0x20 ADD DUP6 DUP5 DUP2 MLOAD DUP2 LT PUSH2 0x8C0 JUMPI PUSH2 0x8BF PUSH2 0x15B9 JUMP JUMPDEST JUMPDEST PUSH1 0x20 MUL PUSH1 0x20 ADD ADD MLOAD DUP2 MSTORE PUSH1 0x20 ADD DUP5 DUP5 DUP2 MLOAD DUP2 LT PUSH2 0x8E0 JUMPI PUSH2 0x8DF PUSH2 0x15B9 JUMP JUMPDEST JUMPDEST PUSH1 0x20 MUL PUSH1 0x20 ADD ADD MLOAD DUP2 MSTORE POP SWAP1 DUP1 PUSH1 0x1 DUP2 SLOAD ADD DUP1 DUP3 SSTORE DUP1 SWAP2 POP POP PUSH1 0x1 SWAP1 SUB SWAP1 PUSH0 MSTORE PUSH1 0x20 PUSH0 KECCAK256 SWAP1 PUSH1 0x4 MUL ADD PUSH0 SWAP1 SWAP2 SWAP1 SWAP2 SWAP1 SWAP2 POP PUSH0 DUP3 ADD MLOAD DUP2 PUSH0 ADD SWAP1 DUP2 PUSH2 0x924 SWAP2 SWAP1 PUSH2 0x140E JUMP JUMPDEST POP PUSH1 0x20 DUP3 ADD MLOAD DUP2 PUSH1 0x1 ADD SSTORE PUSH1 0x40 DUP3 ADD MLOAD DUP2 PUSH1 0x2 ADD SSTORE PUSH1 0x60 DUP3 ADD MLOAD DUP2 PUSH1 0x3 ADD SSTORE POP POP DUP1 DUP1 PUSH1 0x1 ADD SWAP2 POP POP PUSH2 0x855 JUMP JUMPDEST POP POP POP POP POP POP JUMP JUMPDEST PUSH0 PUSH1 0x40 MLOAD SWAP1 POP SWAP1 JUMP JUMPDEST PUSH0 DUP1 REVERT JUMPDEST PUSH0 DUP1 REVERT JUMPDEST PUSH0 DUP2 SWAP1 POP SWAP2 SWAP1 POP JUMP JUMPDEST PUSH2 0x97D DUP2 PUSH2 0x96B JUMP JUMPDEST DUP2 EQ PUSH2 0x987 JUMPI PUSH0 DUP1 REVERT JUMPDEST POP JUMP JUMPDEST PUSH0 DUP2 CALLDATALOAD SWAP1 POP PUSH2 0x998 DUP2 PUSH2 0x974 JUMP JUMPDEST SWAP3 SWAP2 POP POP JUMP JUMPDEST PUSH1 0x3 DUP2 LT PUSH2 0x9AA JUMPI PUSH0 DUP1 REVERT JUMPDEST POP JUMP JUMPDEST PUSH0 DUP2 CALLDATALOAD SWAP1 POP PUSH2 0x9BB DUP2 PUSH2 0x99E JUMP JUMPDEST SWAP3 SWAP2 POP POP JUMP JUMPDEST PUSH0 DUP1 REVERT JUMPDEST PUSH0 PUSH1 0x1F NOT PUSH1 0x1F DUP4 ADD AND SWAP1 POP SWAP2 SWAP1 POP JUMP JUMPDEST PUSH32 0x4E487B7100000000000000000000000000000000000000000000000000000000 PUSH0 MSTORE PUSH1 0x41 PUSH1 0x4 MSTORE PUSH1 0x24 PUSH0 REVERT JUMPDEST PUSH2 0xA0B DUP3 PUSH2 0x9C5 JUMP JUMPDEST DUP2 ADD DUP2 DUP2 LT PUSH8 0xFFFFFFFFFFFFFFFF DUP3 GT OR ISZERO PUSH2 0xA2A JUMPI PUSH2 0xA29 PUSH2 0x9D5 JUMP JUMPDEST JUMPDEST DUP1 PUSH1 0x40 MSTORE POP POP POP JUMP JUMPDEST PUSH0 PUSH2 0xA3C PUSH2 0x95A JUMP JUMPDEST SWAP1 POP PUSH2 0xA48 DUP3 DUP3 PUSH2 0xA02 JUMP JUMPDEST SWAP2 SWAP1 POP JUMP JUMPDEST PUSH0 PUSH8 0xFFFFFFFFFFFFFFFF DUP3 GT ISZERO PUSH2 0xA67 JUMPI PUSH2 0xA66 PUSH2 0x9D5 JUMP JUMPDEST JUMPDEST PUSH1 0x20 DUP3 MUL SWAP1 POP PUSH1 0x20 DUP2 ADD SWAP1 POP SWAP2 SWAP1 POP JUMP JUMPDEST PUSH0 DUP1 REVERT JUMPDEST PUSH0 DUP1 REVERT JUMPDEST PUSH0 PUSH8 0xFFFFFFFFFFFFFFFF DUP3 GT ISZERO PUSH2 0xA9A JUMPI PUSH2 0xA99 PUSH2 0x9D5 JUMP JUMPDEST JUMPDEST PUSH2 0xAA3 DUP3 PUSH2 0x9C5 JUMP JUMPDEST SWAP1 POP PUSH1 0x20 DUP2 ADD SWAP1 POP SWAP2 SWAP1 POP JUMP JUMPDEST DUP3 DUP2 DUP4 CALLDATACOPY PUSH0 DUP4 DUP4 ADD MSTORE POP POP POP JUMP JUMPDEST PUSH0 PUSH2 0xAD0 PUSH2 0xACB DUP5 PUSH2 0xA80 JUMP JUMPDEST PUSH2 0xA33 JUMP JUMPDEST SWAP1 POP DUP3 DUP2 MSTORE PUSH1 0x20 DUP2 ADD DUP5 DUP5 DUP5 ADD GT ISZERO PUSH2 0xAEC JUMPI PUSH2 0xAEB PUSH2 0xA7C JUMP JUMPDEST JUMPDEST PUSH2 0xAF7 DUP5 DUP3 DUP6 PUSH2 0xAB0 JUMP JUMPDEST POP SWAP4 SWAP3 POP POP POP JUMP JUMPDEST PUSH0 DUP3 PUSH1 0x1F DUP4 ADD SLT PUSH2 0xB13 JUMPI PUSH2 0xB12 PUSH2 0x9C1 JUMP JUMPDEST JUMPDEST DUP2 CALLDATALOAD PUSH2 0xB23 DUP5 DUP3 PUSH1 0x20 DUP7 ADD PUSH2 0xABE JUMP JUMPDEST SWAP2 POP POP SWAP3 SWAP2 POP POP JUMP JUMPDEST PUSH0 PUSH2 0xB3E PUSH2 0xB39 DUP5 PUSH2 0xA4D JUMP JUMPDEST PUSH2 0xA33 JUMP JUMPDEST SWAP1 POP DUP1 DUP4 DUP3 MSTORE PUSH1 0x20 DUP3 ADD SWAP1 POP PUSH1 0x20 DUP5 MUL DUP4 ADD DUP6 DUP2 GT ISZERO PUSH2 0xB61 JUMPI PUSH2 0xB60 PUSH2 0xA78 JUMP JUMPDEST JUMPDEST DUP4 JUMPDEST DUP2 DUP2 LT ISZERO PUSH2 0xBA8 JUMPI DUP1 CALLDATALOAD PUSH8 0xFFFFFFFFFFFFFFFF DUP2 GT ISZERO PUSH2 0xB86 JUMPI PUSH2 0xB85 PUSH2 0x9C1 JUMP JUMPDEST JUMPDEST DUP1 DUP7 ADD PUSH2 0xB93 DUP10 DUP3 PUSH2 0xAFF JUMP JUMPDEST DUP6 MSTORE PUSH1 0x20 DUP6 ADD SWAP5 POP POP POP PUSH1 0x20 DUP2 ADD SWAP1 POP PUSH2 0xB63 JUMP JUMPDEST POP POP POP SWAP4 SWAP3 POP POP POP JUMP JUMPDEST PUSH0 DUP3 PUSH1 0x1F DUP4 ADD SLT PUSH2 0xBC6 JUMPI PUSH2 0xBC5 PUSH2 0x9C1 JUMP JUMPDEST JUMPDEST DUP2 CALLDATALOAD PUSH2 0xBD6 DUP5 DUP3 PUSH1 0x20 DUP7 ADD PUSH2 0xB2C JUMP JUMPDEST SWAP2 POP POP SWAP3 SWAP2 POP POP JUMP JUMPDEST PUSH0 PUSH8 0xFFFFFFFFFFFFFFFF DUP3 GT ISZERO PUSH2 0xBF9 JUMPI PUSH2 0xBF8 PUSH2 0x9D5 JUMP JUMPDEST JUMPDEST PUSH1 0x20 DUP3 MUL SWAP1 POP PUSH1 0x20 DUP2 ADD SWAP1 POP SWAP2 SWAP1 POP JUMP JUMPDEST PUSH0 PUSH2 0xC1C PUSH2 0xC17 DUP5 PUSH2 0xBDF JUMP JUMPDEST PUSH2 0xA33 JUMP JUMPDEST SWAP1 POP DUP1 DUP4 DUP3 MSTORE PUSH1 0x20 DUP3 ADD SWAP1 POP PUSH1 0x20 DUP5 MUL DUP4 ADD DUP6 DUP2 GT ISZERO PUSH2 0xC3F JUMPI PUSH2 0xC3E PUSH2 0xA78 JUMP JUMPDEST JUMPDEST DUP4 JUMPDEST DUP2 DUP2 LT ISZERO PUSH2 0xC68 JUMPI DUP1 PUSH2 0xC54 DUP9 DUP3 PUSH2 0x98A JUMP JUMPDEST DUP5 MSTORE PUSH1 0x20 DUP5 ADD SWAP4 POP POP PUSH1 0x20 DUP2 ADD SWAP1 POP PUSH2 0xC41 JUMP JUMPDEST POP POP POP SWAP4 SWAP3 POP POP POP JUMP JUMPDEST PUSH0 DUP3 PUSH1 0x1F DUP4 ADD SLT PUSH2 0xC86 JUMPI PUSH2 0xC85 PUSH2 0x9C1 JUMP JUMPDEST JUMPDEST DUP2 CALLDATALOAD PUSH2 0xC96 DUP5 DUP3 PUSH1 0x20 DUP7 ADD PUSH2 0xC0A JUMP JUMPDEST SWAP2 POP POP SWAP3 SWAP2 POP POP JUMP JUMPDEST PUSH0 DUP1 PUSH0 DUP1 PUSH0 DUP1 PUSH0 DUP1 PUSH0 DUP1 PUSH0 PUSH2 0x160 DUP13 DUP15 SUB SLT ISZERO PUSH2 0xCBF JUMPI PUSH2 0xCBE PUSH2 0x963 JUMP JUMPDEST JUMPDEST PUSH0 PUSH2 0xCCC DUP15 DUP3 DUP16 ADD PUSH2 0x98A JUMP JUMPDEST SWAP12 POP POP PUSH1 0x20 PUSH2 0xCDD DUP15 DUP3 DUP16 ADD PUSH2 0x9AD JUMP JUMPDEST SWAP11 POP POP PUSH1 0x40 PUSH2 0xCEE DUP15 DUP3 DUP16 ADD PUSH2 0x98A JUMP JUMPDEST SWAP10 POP POP PUSH1 0x60 DUP13 ADD CALLDATALOAD PUSH8 0xFFFFFFFFFFFFFFFF DUP2 GT ISZERO PUSH2 0xD0F JUMPI PUSH2 0xD0E PUSH2 0x967 JUMP JUMPDEST JUMPDEST PUSH2 0xD1B DUP15 DUP3 DUP16 ADD PUSH2 0xBB2 JUMP JUMPDEST SWAP9 POP POP PUSH1 0x80 DUP13 ADD CALLDATALOAD PUSH8 0xFFFFFFFFFFFFFFFF DUP2 GT ISZERO PUSH2 0xD3C JUMPI PUSH2 0xD3B PUSH2 0x967 JUMP JUMPDEST JUMPDEST PUSH2 0xD48 DUP15 DUP3 DUP16 ADD PUSH2 0xC72 JUMP JUMPDEST SWAP8 POP POP PUSH1 0xA0 DUP13 ADD CALLDATALOAD PUSH8 0xFFFFFFFFFFFFFFFF DUP2 GT ISZERO PUSH2 0xD69 JUMPI PUSH2 0xD68 PUSH2 0x967 JUMP JUMPDEST JUMPDEST PUSH2 0xD75 DUP15 DUP3 DUP16 ADD PUSH2 0xC72 JUMP JUMPDEST SWAP7 POP POP PUSH1 0xC0 DUP13 ADD CALLDATALOAD PUSH8 0xFFFFFFFFFFFFFFFF DUP2 GT ISZERO PUSH2 0xD96 JUMPI PUSH2 0xD95 PUSH2 0x967 JUMP JUMPDEST JUMPDEST PUSH2 0xDA2 DUP15 DUP3 DUP16 ADD PUSH2 0xC72 JUMP JUMPDEST SWAP6 POP POP PUSH1 0xE0 PUSH2 0xDB3 DUP15 DUP3 DUP16 ADD PUSH2 0x98A JUMP JUMPDEST SWAP5 POP POP PUSH2 0x100 PUSH2 0xDC5 DUP15 DUP3 DUP16 ADD PUSH2 0x98A JUMP JUMPDEST SWAP4 POP POP PUSH2 0x120 PUSH2 0xDD7 DUP15 DUP3 DUP16 ADD PUSH2 0x98A JUMP JUMPDEST SWAP3 POP POP PUSH2 0x140 DUP13 ADD CALLDATALOAD PUSH8 0xFFFFFFFFFFFFFFFF DUP2 GT ISZERO PUSH2 0xDF9 JUMPI PUSH2 0xDF8 PUSH2 0x967 JUMP JUMPDEST JUMPDEST PUSH2 0xE05 DUP15 DUP3 DUP16 ADD PUSH2 0xAFF JUMP JUMPDEST SWAP2 POP POP SWAP3 SWAP6 SWAP9 SWAP12 POP SWAP3 SWAP6 SWAP9 SWAP12 SWAP1 SWAP4 SWAP7 SWAP10 POP JUMP JUMPDEST PUSH0 DUP1 PUSH0 DUP1 PUSH0 PUSH1 0xA0 DUP7 DUP9 SUB SLT ISZERO PUSH2 0xE31 JUMPI PUSH2 0xE30 PUSH2 0x963 JUMP JUMPDEST JUMPDEST PUSH0 PUSH2 0xE3E DUP9 DUP3 DUP10 ADD PUSH2 0x98A JUMP JUMPDEST SWAP6 POP POP PUSH1 0x20 DUP7 ADD CALLDATALOAD PUSH8 0xFFFFFFFFFFFFFFFF DUP2 GT ISZERO PUSH2 0xE5F JUMPI PUSH2 0xE5E PUSH2 0x967 JUMP JUMPDEST JUMPDEST PUSH2 0xE6B DUP9 DUP3 DUP10 ADD PUSH2 0xAFF JUMP JUMPDEST SWAP5 POP POP PUSH1 0x40 DUP7 ADD CALLDATALOAD PUSH8 0xFFFFFFFFFFFFFFFF DUP2 GT ISZERO PUSH2 0xE8C JUMPI PUSH2 0xE8B PUSH2 0x967 JUMP JUMPDEST JUMPDEST PUSH2 0xE98 DUP9 DUP3 DUP10 ADD PUSH2 0xAFF JUMP JUMPDEST SWAP4 POP POP PUSH1 0x60 DUP7 ADD CALLDATALOAD PUSH8 0xFFFFFFFFFFFFFFFF DUP2 GT ISZERO PUSH2 0xEB9 JUMPI PUSH2 0xEB8 PUSH2 0x967 JUMP JUMPDEST JUMPDEST PUSH2 0xEC5 DUP9 DUP3 DUP10 ADD PUSH2 0xAFF JUMP JUMPDEST SWAP3 POP POP PUSH1 0x80 DUP7 ADD CALLDATALOAD PUSH8 0xFFFFFFFFFFFFFFFF DUP2 GT ISZERO PUSH2 0xEE6 JUMPI PUSH2 0xEE5 PUSH2 0x967 JUMP JUMPDEST JUMPDEST PUSH2 0xEF2 DUP9 DUP3 DUP10 ADD PUSH2 0xAFF JUMP JUMPDEST SWAP2 POP POP SWAP3 SWAP6 POP SWAP3 SWAP6 SWAP1 SWAP4 POP JUMP JUMPDEST PUSH2 0xF08 DUP2 PUSH2 0x96B JUMP JUMPDEST DUP3 MSTORE POP POP JUMP JUMPDEST PUSH0 PUSH1 0x20 DUP3 ADD SWAP1 POP PUSH2 0xF21 PUSH0 DUP4 ADD DUP5 PUSH2 0xEFF JUMP JUMPDEST SWAP3 SWAP2 POP POP JUMP JUMPDEST PUSH0 PUSH1 0x20 DUP3 DUP5 SUB SLT ISZERO PUSH2 0xF3C JUMPI PUSH2 0xF3B PUSH2 0x963 JUMP JUMPDEST JUMPDEST PUSH0 PUSH2 0xF49 DUP5 DUP3 DUP6 ADD PUSH2 0x98A JUMP JUMPDEST SWAP2 POP POP SWAP3 SWAP2 POP POP JUMP JUMPDEST PUSH0 DUP2 MLOAD SWAP1 POP SWAP2 SWAP1 POP JUMP JUMPDEST PUSH0 DUP3 DUP3 MSTORE PUSH1 0x20 DUP3 ADD SWAP1 POP SWAP3 SWAP2 POP POP JUMP JUMPDEST DUP3 DUP2 DUP4 MCOPY PUSH0 DUP4 DUP4 ADD MSTORE POP POP POP JUMP JUMPDEST PUSH0 PUSH2 0xF84 DUP3 PUSH2 0xF52 JUMP JUMPDEST PUSH2 0xF8E DUP2 DUP6 PUSH2 0xF5C JUMP JUMPDEST SWAP4 POP PUSH2 0xF9E DUP2 DUP6 PUSH1 0x20 DUP7 ADD PUSH2 0xF6C JUMP JUMPDEST PUSH2 0xFA7 DUP2 PUSH2 0x9C5 JUMP JUMPDEST DUP5 ADD SWAP2 POP POP SWAP3 SWAP2 POP POP JUMP JUMPDEST PUSH0 PUSH1 0x80 DUP3 ADD SWAP1 POP PUSH2 0xFC5 PUSH0 DUP4 ADD DUP8 PUSH2 0xEFF JUMP JUMPDEST DUP2 DUP2 SUB PUSH1 0x20 DUP4 ADD MSTORE PUSH2 0xFD7 DUP2 DUP7 PUSH2 0xF7A JUMP JUMPDEST SWAP1 POP DUP2 DUP2 SUB PUSH1 0x40 DUP4 ADD MSTORE PUSH2 0xFEB DUP2 DUP6 PUSH2 0xF7A JUMP JUMPDEST SWAP1 POP PUSH2 0xFFA PUSH1 0x60 DUP4 ADD DUP5 PUSH2 0xEFF JUMP JUMPDEST SWAP6 SWAP5 POP POP POP POP POP JUMP JUMPDEST PUSH32 0x4E487B7100000000000000000000000000000000000000000000000000000000 PUSH0 MSTORE PUSH1 0x21 PUSH1 0x4 MSTORE PUSH1 0x24 PUSH0 REVERT JUMPDEST PUSH1 0x3 DUP2 LT PUSH2 0x1041 JUMPI PUSH2 0x1040 PUSH2 0x1003 JUMP JUMPDEST JUMPDEST POP JUMP JUMPDEST PUSH0 DUP2 SWAP1 POP PUSH2 0x1051 DUP3 PUSH2 0x1030 JUMP JUMPDEST SWAP2 SWAP1 POP JUMP JUMPDEST PUSH0 PUSH2 0x1060 DUP3 PUSH2 0x1044 JUMP JUMPDEST SWAP1 POP SWAP2 SWAP1 POP JUMP JUMPDEST PUSH2 0x1070 DUP2 PUSH2 0x1056 JUMP JUMPDEST DUP3 MSTORE POP POP JUMP JUMPDEST PUSH0 PUSH1 0xE0 DUP3 ADD SWAP1 POP PUSH2 0x1089 PUSH0 DUP4 ADD DUP11 PUSH2 0xEFF JUMP JUMPDEST PUSH2 0x1096 PUSH1 0x20 DUP4 ADD DUP10 PUSH2 0x1067 JUMP JUMPDEST PUSH2 0x10A3 PUSH1 0x40 DUP4 ADD DUP9 PUSH2 0xEFF JUMP JUMPDEST PUSH2 0x10B0 PUSH1 0x60 DUP4 ADD DUP8 PUSH2 0xEFF JUMP JUMPDEST PUSH2 0x10BD PUSH1 0x80 DUP4 ADD DUP7 PUSH2 0xEFF JUMP JUMPDEST PUSH2 0x10CA PUSH1 0xA0 DUP4 ADD DUP6 PUSH2 0xEFF JUMP JUMPDEST DUP2 DUP2 SUB PUSH1 0xC0 DUP4 ADD MSTORE PUSH2 0x10DC DUP2 DUP5 PUSH2 0xF7A JUMP JUMPDEST SWAP1 POP SWAP9 SWAP8 POP POP POP POP POP POP POP POP JUMP JUMPDEST PUSH0 DUP1 PUSH0 DUP1 PUSH1 0x80 DUP6 DUP8 SUB SLT ISZERO PUSH2 0x1102 JUMPI PUSH2 0x1101 PUSH2 0x963 JUMP JUMPDEST JUMPDEST PUSH0 PUSH2 0x110F DUP8 DUP3 DUP9 ADD PUSH2 0x98A JUMP JUMPDEST SWAP5 POP POP PUSH1 0x20 DUP6 ADD CALLDATALOAD PUSH8 0xFFFFFFFFFFFFFFFF DUP2 GT ISZERO PUSH2 0x1130 JUMPI PUSH2 0x112F PUSH2 0x967 JUMP JUMPDEST JUMPDEST PUSH2 0x113C DUP8 DUP3 DUP9 ADD PUSH2 0xAFF JUMP JUMPDEST SWAP4 POP POP PUSH1 0x40 DUP6 ADD CALLDATALOAD PUSH8 0xFFFFFFFFFFFFFFFF DUP2 GT ISZERO PUSH2 0x115D JUMPI PUSH2 0x115C PUSH2 0x967 JUMP JUMPDEST JUMPDEST PUSH2 0x1169 DUP8 DUP3 DUP9 ADD PUSH2 0xAFF JUMP JUMPDEST SWAP3 POP POP PUSH1 0x60 PUSH2 0x117A DUP8 DUP3 DUP9 ADD PUSH2 0x98A JUMP JUMPDEST SWAP2 POP POP SWAP3 SWAP6 SWAP2 SWAP5 POP SWAP3 POP JUMP JUMPDEST PUSH32 0x50726F6475637420617272617973206D757374206265206F6620657175616C20 PUSH0 DUP3 ADD MSTORE PUSH32 0x6C656E6774680000000000000000000000000000000000000000000000000000 PUSH1 0x20 DUP3 ADD MSTORE POP JUMP JUMPDEST PUSH0 PUSH2 0x11E0 PUSH1 0x26 DUP4 PUSH2 0xF5C JUMP JUMPDEST SWAP2 POP PUSH2 0x11EB DUP3 PUSH2 0x1186 JUMP JUMPDEST PUSH1 0x40 DUP3 ADD SWAP1 POP SWAP2 SWAP1 POP JUMP JUMPDEST PUSH0 PUSH1 0x20 DUP3 ADD SWAP1 POP DUP2 DUP2 SUB PUSH0 DUP4 ADD MSTORE PUSH2 0x120D DUP2 PUSH2 0x11D4 JUMP JUMPDEST SWAP1 POP SWAP2 SWAP1 POP JUMP JUMPDEST PUSH32 0x4E487B7100000000000000000000000000000000000000000000000000000000 PUSH0 MSTORE PUSH1 0x22 PUSH1 0x4 MSTORE PUSH1 0x24 PUSH0 REVERT JUMPDEST PUSH0 PUSH1 0x2 DUP3 DIV SWAP1 POP PUSH1 0x1 DUP3 AND DUP1 PUSH2 0x1258 JUMPI PUSH1 0x7F DUP3 AND SWAP2 POP JUMPDEST PUSH1 0x20 DUP3 LT DUP2 SUB PUSH2 0x126B JUMPI PUSH2 0x126A PUSH2 0x1214 JUMP JUMPDEST JUMPDEST POP SWAP2 SWAP1 POP JUMP JUMPDEST PUSH0 DUP2 SWAP1 POP DUP2 PUSH0 MSTORE PUSH1 0x20 PUSH0 KECCAK256 SWAP1 POP SWAP2 SWAP1 POP JUMP JUMPDEST PUSH0 PUSH1 0x20 PUSH1 0x1F DUP4 ADD DIV SWAP1 POP SWAP2 SWAP1 POP JUMP JUMPDEST PUSH0 DUP3 DUP3 SHL SWAP1 POP SWAP3 SWAP2 POP POP JUMP JUMPDEST PUSH0 PUSH1 0x8 DUP4 MUL PUSH2 0x12CD PUSH32 0xFFFFFFFFFFFFFFFFFFFFFFFFFFFFFFFFFFFFFFFFFFFFFFFFFFFFFFFFFFFFFFFF DUP3 PUSH2 0x1292 JUMP JUMPDEST PUSH2 0x12D7 DUP7 DUP4 PUSH2 0x1292 JUMP JUMPDEST SWAP6 POP DUP1 NOT DUP5 AND SWAP4 POP DUP1 DUP7 AND DUP5 OR SWAP3 POP POP POP SWAP4 SWAP3 POP POP POP JUMP JUMPDEST PUSH0 DUP2 SWAP1 POP SWAP2 SWAP1 POP JUMP JUMPDEST PUSH0 PUSH2 0x1312 PUSH2 0x130D PUSH2 0x1308 DUP5 PUSH2 0x96B JUMP JUMPDEST PUSH2 0x12EF JUMP JUMPDEST PUSH2 0x96B JUMP JUMPDEST SWAP1 POP SWAP2 SWAP1 POP JUMP JUMPDEST PUSH0 DUP2 SWAP1 POP SWAP2 SWAP1 POP JUMP JUMPDEST PUSH2 0x132B DUP4 PUSH2 0x12F8 JUMP JUMPDEST PUSH2 0x133F PUSH2 0x1337 DUP3 PUSH2 0x1319 JUMP JUMPDEST DUP5 DUP5 SLOAD PUSH2 0x129E JUMP JUMPDEST DUP3 SSTORE POP POP POP POP JUMP JUMPDEST PUSH0 SWAP1 JUMP JUMPDEST PUSH2 0x1353 PUSH2 0x1347 JUMP JUMPDEST PUSH2 0x135E DUP2 DUP5 DUP5 PUSH2 0x1322 JUMP JUMPDEST POP POP POP JUMP JUMPDEST JUMPDEST DUP2 DUP2 LT ISZERO PUSH2 0x1381 JUMPI PUSH2 0x1376 PUSH0 DUP3 PUSH2 0x134B JUMP JUMPDEST PUSH1 0x1 DUP2 ADD SWAP1 POP PUSH2 0x1364 JUMP JUMPDEST POP POP JUMP JUMPDEST PUSH1 0x1F DUP3 GT ISZERO PUSH2 0x13C6 JUMPI PUSH2 0x1397 DUP2 PUSH2 0x1271 JUMP JUMPDEST PUSH2 0x13A0 DUP5 PUSH2 0x1283 JUMP JUMPDEST DUP2 ADD PUSH1 0x20 DUP6 LT ISZERO PUSH2 0x13AF JUMPI DUP2 SWAP1 POP JUMPDEST PUSH2 0x13C3 PUSH2 0x13BB DUP6 PUSH2 0x1283 JUMP JUMPDEST DUP4 ADD DUP3 PUSH2 0x1363 JUMP JUMPDEST POP POP JUMPDEST POP POP POP JUMP JUMPDEST PUSH0 DUP3 DUP3 SHR SWAP1 POP SWAP3 SWAP2 POP POP JUMP JUMPDEST PUSH0 PUSH2 0x13E6 PUSH0 NOT DUP5 PUSH1 0x8 MUL PUSH2 0x13CB JUMP JUMPDEST NOT DUP1 DUP4 AND SWAP2 POP POP SWAP3 SWAP2 POP POP JUMP JUMPDEST PUSH0 PUSH2 0x13FE DUP4 DUP4 PUSH2 0x13D7 JUMP JUMPDEST SWAP2 POP DUP3 PUSH1 0x2 MUL DUP3 OR SWAP1 POP SWAP3 SWAP2 POP POP JUMP JUMPDEST PUSH2 0x1417 DUP3 PUSH2 0xF52 JUMP JUMPDEST PUSH8 0xFFFFFFFFFFFFFFFF DUP2 GT ISZERO PUSH2 0x1430 JUMPI PUSH2 0x142F PUSH2 0x9D5 JUMP JUMPDEST JUMPDEST PUSH2 0x143A DUP3 SLOAD PUSH2 0x1241 JUMP JUMPDEST PUSH2 0x1445 DUP3 DUP3 DUP6 PUSH2 0x1385 JUMP JUMPDEST PUSH0 PUSH1 0x20 SWAP1 POP PUSH1 0x1F DUP4 GT PUSH1 0x1 DUP2 EQ PUSH2 0x1476 JUMPI PUSH0 DUP5 ISZERO PUSH2 0x1464 JUMPI DUP3 DUP8 ADD MLOAD SWAP1 POP JUMPDEST PUSH2 0x146E DUP6 DUP3 PUSH2 0x13F3 JUMP JUMPDEST DUP7 SSTORE POP PUSH2 0x14D5 JUMP JUMPDEST PUSH1 0x1F NOT DUP5 AND PUSH2 0x1484 DUP7 PUSH2 0x1271 JUMP JUMPDEST PUSH0 JUMPDEST DUP3 DUP2 LT ISZERO PUSH2 0x14AB JUMPI DUP5 DUP10 ADD MLOAD DUP3 SSTORE PUSH1 0x1 DUP3 ADD SWAP2 POP PUSH1 0x20 DUP6 ADD SWAP5 POP PUSH1 0x20 DUP2 ADD SWAP1 POP PUSH2 0x1486 JUMP JUMPDEST DUP7 DUP4 LT ISZERO PUSH2 0x14C8 JUMPI DUP5 DUP10 ADD MLOAD PUSH2 0x14C4 PUSH1 0x1F DUP10 AND DUP3 PUSH2 0x13D7 JUMP JUMPDEST DUP4 SSTORE POP JUMPDEST PUSH1 0x1 PUSH1 0x2 DUP9 MUL ADD DUP9 SSTORE POP POP POP JUMPDEST POP POP POP POP POP POP JUMP JUMPDEST PUSH32 0x4E487B7100000000000000000000000000000000000000000000000000000000 PUSH0 MSTORE PUSH1 0x11 PUSH1 0x4 MSTORE PUSH1 0x24 PUSH0 REVERT JUMPDEST PUSH0 PUSH2 0x1514 DUP3 PUSH2 0x96B JUMP JUMPDEST SWAP2 POP PUSH32 0xFFFFFFFFFFFFFFFFFFFFFFFFFFFFFFFFFFFFFFFFFFFFFFFFFFFFFFFFFFFFFFFF DUP3 SUB PUSH2 0x1546 JUMPI PUSH2 0x1545 PUSH2 0x14DD JUMP JUMPDEST JUMPDEST PUSH1 0x1 DUP3 ADD SWAP1 POP SWAP2 SWAP1 POP JUMP JUMPDEST PUSH32 0x456D706C6F79656520616C726561647920657869737473000000000000000000 PUSH0 DUP3 ADD MSTORE POP JUMP JUMPDEST PUSH0 PUSH2 0x1585 PUSH1 0x17 DUP4 PUSH2 0xF5C JUMP JUMPDEST SWAP2 POP PUSH2 0x1590 DUP3 PUSH2 0x1551 JUMP JUMPDEST PUSH1 0x20 DUP3 ADD SWAP1 POP SWAP2 SWAP1 POP JUMP JUMPDEST PUSH0 PUSH1 0x20 DUP3 ADD SWAP1 POP DUP2 DUP2 SUB PUSH0 DUP4 ADD MSTORE PUSH2 0x15B2 DUP2 PUSH2 0x1579 JUMP JUMPDEST SWAP1 POP SWAP2 SWAP1 POP JUMP JUMPDEST PUSH32 0x4E487B7100000000000000000000000000000000000000000000000000000000 PUSH0 MSTORE PUSH1 0x32 PUSH1 0x4 MSTORE PUSH1 0x24 PUSH0 REVERT INVALID LOG2 PUSH5 0x6970667358 0x22 SLT KECCAK256 PUSH26 0xE761FB330D97A321A9C962E571D004C7ABDFBE8A98FC4C5338F1 0xE8 0xDF 0xB3 0x24 0xA6 PUSH5 0x736F6C6343 STOP ADDMOD BYTE STOP CALLER "
				},
				"gasEstimates": {
					"creation": {
						"codeDepositCost": "1132000",
						"executionCost": "6177",
						"totalCost": "1138177"
					},
					"external": {
						"addEmployee(uint256,string,string,uint256)": "infinite",
						"createInvoice(uint256,uint8,uint256,string[],uint256[],uint256[],uint256[],uint256,uint256,uint256,string)": "infinite",
						"empData(uint256)": "infinite",
						"getEmployeeInfo(uint256)": "infinite",
						"invoiceCount()": "2470",
						"invoices(uint256)": "infinite",
						"saveClient(uint256,string,string,string,string)": "infinite",
						"saveCompany(uint256,string,string,string,string)": "infinite"
					},
					"internal": {
						"addProductsToInvoice(struct InvoiceData.Invoice storage pointer,string memory[] memory,uint256[] memory,uint256[] memory,uint256[] memory)": "infinite"
					}
				},
				"methodIdentifiers": {
					"addEmployee(uint256,string,string,uint256)": "d44f376e",
					"createInvoice(uint256,uint8,uint256,string[],uint256[],uint256[],uint256[],uint256,uint256,uint256,string)": "0786a6a6",
					"empData(uint256)": "272cc76a",
					"getEmployeeInfo(uint256)": "f6757cff",
					"invoiceCount()": "1346f0c4",
					"invoices(uint256)": "4e6d1405",
					"saveClient(uint256,string,string,string,string)": "40646bd5",
					"saveCompany(uint256,string,string,string,string)": "08aabe9c"
				}
			},
			"storageLayout": {
				"storage": [
					{
						"astId": 15,
						"contract": "contracts/InvoiceData.sol:InvoiceData",
						"label": "empData",
						"offset": 0,
						"slot": "0",
						"type": "t_mapping(t_uint256,t_struct(Employee)10_storage)"
					},
					{
						"astId": 139,
						"contract": "contracts/InvoiceData.sol:InvoiceData",
						"label": "companies",
						"offset": 0,
						"slot": "1",
						"type": "t_mapping(t_uint256,t_struct(CompanyInfo)92_storage)"
					},
					{
						"astId": 144,
						"contract": "contracts/InvoiceData.sol:InvoiceData",
						"label": "clients",
						"offset": 0,
						"slot": "2",
						"type": "t_mapping(t_uint256,t_struct(ClientInfo)101_storage)"
					},
					{
						"astId": 149,
						"contract": "contracts/InvoiceData.sol:InvoiceData",
						"label": "invoices",
						"offset": 0,
						"slot": "3",
						"type": "t_mapping(t_uint256,t_struct(Invoice)134_storage)"
					},
					{
						"astId": 152,
						"contract": "contracts/InvoiceData.sol:InvoiceData",
						"label": "invoiceCount",
						"offset": 0,
						"slot": "4",
						"type": "t_uint256"
					}
				],
				"types": {
					"t_array(t_struct(Product)110_storage)dyn_storage": {
						"base": "t_struct(Product)110_storage",
						"encoding": "dynamic_array",
						"label": "struct InvoiceData.Product[]",
						"numberOfBytes": "32"
					},
					"t_enum(InvoiceType)114": {
						"encoding": "inplace",
						"label": "enum InvoiceData.InvoiceType",
						"numberOfBytes": "1"
					},
					"t_mapping(t_uint256,t_struct(ClientInfo)101_storage)": {
						"encoding": "mapping",
						"key": "t_uint256",
						"label": "mapping(uint256 => struct InvoiceData.ClientInfo)",
						"numberOfBytes": "32",
						"value": "t_struct(ClientInfo)101_storage"
					},
					"t_mapping(t_uint256,t_struct(CompanyInfo)92_storage)": {
						"encoding": "mapping",
						"key": "t_uint256",
						"label": "mapping(uint256 => struct InvoiceData.CompanyInfo)",
						"numberOfBytes": "32",
						"value": "t_struct(CompanyInfo)92_storage"
					},
					"t_mapping(t_uint256,t_struct(Employee)10_storage)": {
						"encoding": "mapping",
						"key": "t_uint256",
						"label": "mapping(uint256 => struct InvoiceData.Employee)",
						"numberOfBytes": "32",
						"value": "t_struct(Employee)10_storage"
					},
					"t_mapping(t_uint256,t_struct(Invoice)134_storage)": {
						"encoding": "mapping",
						"key": "t_uint256",
						"label": "mapping(uint256 => struct InvoiceData.Invoice)",
						"numberOfBytes": "32",
						"value": "t_struct(Invoice)134_storage"
					},
					"t_string_storage": {
						"encoding": "bytes",
						"label": "string",
						"numberOfBytes": "32"
					},
					"t_struct(ClientInfo)101_storage": {
						"encoding": "inplace",
						"label": "struct InvoiceData.ClientInfo",
						"members": [
							{
								"astId": 94,
								"contract": "contracts/InvoiceData.sol:InvoiceData",
								"label": "clientName",
								"offset": 0,
								"slot": "0",
								"type": "t_string_storage"
							},
							{
								"astId": 96,
								"contract": "contracts/InvoiceData.sol:InvoiceData",
								"label": "clientId",
								"offset": 0,
								"slot": "1",
								"type": "t_string_storage"
							},
							{
								"astId": 98,
								"contract": "contracts/InvoiceData.sol:InvoiceData",
								"label": "postalCode",
								"offset": 0,
								"slot": "2",
								"type": "t_string_storage"
							},
							{
								"astId": 100,
								"contract": "contracts/InvoiceData.sol:InvoiceData",
								"label": "taxNumber",
								"offset": 0,
								"slot": "3",
								"type": "t_string_storage"
							}
						],
						"numberOfBytes": "128"
					},
					"t_struct(CompanyInfo)92_storage": {
						"encoding": "inplace",
						"label": "struct InvoiceData.CompanyInfo",
						"members": [
							{
								"astId": 85,
								"contract": "contracts/InvoiceData.sol:InvoiceData",
								"label": "companyName",
								"offset": 0,
								"slot": "0",
								"type": "t_string_storage"
							},
							{
								"astId": 87,
								"contract": "contracts/InvoiceData.sol:InvoiceData",
								"label": "taxNumber",
								"offset": 0,
								"slot": "1",
								"type": "t_string_storage"
							},
							{
								"astId": 89,
								"contract": "contracts/InvoiceData.sol:InvoiceData",
								"label": "postalCode",
								"offset": 0,
								"slot": "2",
								"type": "t_string_storage"
							},
							{
								"astId": 91,
								"contract": "contracts/InvoiceData.sol:InvoiceData",
								"label": "ownerId",
								"offset": 0,
								"slot": "3",
								"type": "t_string_storage"
							}
						],
						"numberOfBytes": "128"
					},
					"t_struct(Employee)10_storage": {
						"encoding": "inplace",
						"label": "struct InvoiceData.Employee",
						"members": [
							{
								"astId": 3,
								"contract": "contracts/InvoiceData.sol:InvoiceData",
								"label": "empNumber",
								"offset": 0,
								"slot": "0",
								"type": "t_uint256"
							},
							{
								"astId": 5,
								"contract": "contracts/InvoiceData.sol:InvoiceData",
								"label": "name",
								"offset": 0,
								"slot": "1",
								"type": "t_string_storage"
							},
							{
								"astId": 7,
								"contract": "contracts/InvoiceData.sol:InvoiceData",
								"label": "accountingInfo",
								"offset": 0,
								"slot": "2",
								"type": "t_string_storage"
							},
							{
								"astId": 9,
								"contract": "contracts/InvoiceData.sol:InvoiceData",
								"label": "timestamp",
								"offset": 0,
								"slot": "3",
								"type": "t_uint256"
							}
						],
						"numberOfBytes": "128"
					},
					"t_struct(Invoice)134_storage": {
						"encoding": "inplace",
						"label": "struct InvoiceData.Invoice",
						"members": [
							{
								"astId": 116,
								"contract": "contracts/InvoiceData.sol:InvoiceData",
								"label": "date",
								"offset": 0,
								"slot": "0",
								"type": "t_uint256"
							},
							{
								"astId": 119,
								"contract": "contracts/InvoiceData.sol:InvoiceData",
								"label": "invoiceType",
								"offset": 0,
								"slot": "1",
								"type": "t_enum(InvoiceType)114"
							},
							{
								"astId": 121,
								"contract": "contracts/InvoiceData.sol:InvoiceData",
								"label": "amountPaid",
								"offset": 0,
								"slot": "2",
								"type": "t_uint256"
							},
							{
								"astId": 125,
								"contract": "contracts/InvoiceData.sol:InvoiceData",
								"label": "products",
								"offset": 0,
								"slot": "3",
								"type": "t_array(t_struct(Product)110_storage)dyn_storage"
							},
							{
								"astId": 127,
								"contract": "contracts/InvoiceData.sol:InvoiceData",
								"label": "totalBeforeTax",
								"offset": 0,
								"slot": "4",
								"type": "t_uint256"
							},
							{
								"astId": 129,
								"contract": "contracts/InvoiceData.sol:InvoiceData",
								"label": "totalTax",
								"offset": 0,
								"slot": "5",
								"type": "t_uint256"
							},
							{
								"astId": 131,
								"contract": "contracts/InvoiceData.sol:InvoiceData",
								"label": "totalWithTax",
								"offset": 0,
								"slot": "6",
								"type": "t_uint256"
							},
							{
								"astId": 133,
								"contract": "contracts/InvoiceData.sol:InvoiceData",
								"label": "taxInvoiceCode",
								"offset": 0,
								"slot": "7",
								"type": "t_string_storage"
							}
						],
						"numberOfBytes": "256"
					},
					"t_struct(Product)110_storage": {
						"encoding": "inplace",
						"label": "struct InvoiceData.Product",
						"members": [
							{
								"astId": 103,
								"contract": "contracts/InvoiceData.sol:InvoiceData",
								"label": "name",
								"offset": 0,
								"slot": "0",
								"type": "t_string_storage"
							},
							{
								"astId": 105,
								"contract": "contracts/InvoiceData.sol:InvoiceData",
								"label": "priceBeforeTax",
								"offset": 0,
								"slot": "1",
								"type": "t_uint256"
							},
							{
								"astId": 107,
								"contract": "contracts/InvoiceData.sol:InvoiceData",
								"label": "tax",
								"offset": 0,
								"slot": "2",
								"type": "t_uint256"
							},
							{
								"astId": 109,
								"contract": "contracts/InvoiceData.sol:InvoiceData",
								"label": "priceAfterTax",
								"offset": 0,
								"slot": "3",
								"type": "t_uint256"
							}
						],
						"numberOfBytes": "128"
					},
					"t_uint256": {
						"encoding": "inplace",
						"label": "uint256",
						"numberOfBytes": "32"
					}
				}
			},
			"userdoc": {
				"kind": "user",
				"methods": {},
				"version": 1
			}
		}
	}
}