{
	"contracts/InvoiceData.sol": {
		"InvoiceData": {
			"abi": [
				{
					"inputs": [
						{
							"internalType": "uint256",
							"name": "_empNumber",
							"type": "uint256"
						},
						{
							"internalType": "string",
							"name": "_name",
							"type": "string"
						},
						{
							"internalType": "string",
							"name": "_accountingInfo",
							"type": "string"
						}
					],
					"name": "addEmployees",
					"outputs": [
						{
							"internalType": "uint256",
							"name": "",
							"type": "uint256"
						}
					],
					"stateMutability": "nonpayable",
					"type": "function"
				},
				{
					"inputs": [
						{
							"internalType": "uint256",
							"name": "",
							"type": "uint256"
						}
					],
					"name": "empData",
					"outputs": [
						{
							"internalType": "uint256",
							"name": "empNumber",
							"type": "uint256"
						},
						{
							"internalType": "string",
							"name": "name",
							"type": "string"
						},
						{
							"internalType": "string",
							"name": "accountingInfo",
							"type": "string"
						}
					],
					"stateMutability": "view",
					"type": "function"
				}
			],
			"devdoc": {
				"kind": "dev",
				"methods": {},
				"version": 1
			},
			"evm": {
				"assembly": "    /* \"contracts/InvoiceData.sol\":67:636  contract InvoiceData {... */\n  mstore(0x40, 0x80)\n  callvalue\n  dup1\n  iszero\n  tag_1\n  jumpi\n  0x00\n  dup1\n  revert\ntag_1:\n  pop\n  dataSize(sub_0)\n  dup1\n  dataOffset(sub_0)\n  0x00\n  codecopy\n  0x00\n  return\nstop\n\nsub_0: assembly {\n        /* \"contracts/InvoiceData.sol\":67:636  contract InvoiceData {... */\n      mstore(0x40, 0x80)\n      callvalue\n      dup1\n      iszero\n      tag_1\n      jumpi\n      0x00\n      dup1\n      revert\n    tag_1:\n      pop\n      jumpi(tag_2, lt(calldatasize, 0x04))\n      shr(0xe0, calldataload(0x00))\n      dup1\n      0x272cc76a\n      eq\n      tag_3\n      jumpi\n      dup1\n      0xa7bd8ac0\n      eq\n      tag_4\n      jumpi\n    tag_2:\n      0x00\n      dup1\n      revert\n        /* \"contracts/InvoiceData.sol\":214:257  mapping(uint256 => Employee) public empData */\n    tag_3:\n      tag_5\n      0x04\n      dup1\n      calldatasize\n      sub\n      dup2\n      add\n      swap1\n      tag_6\n      swap2\n      swap1\n      tag_7\n      jump\t// in\n    tag_6:\n      tag_8\n      jump\t// in\n    tag_5:\n      mload(0x40)\n      tag_9\n      swap4\n      swap3\n      swap2\n      swap1\n      tag_10\n      jump\t// in\n    tag_9:\n      mload(0x40)\n      dup1\n      swap2\n      sub\n      swap1\n      return\n        /* \"contracts/InvoiceData.sol\":266:619  function addEmployees(... */\n    tag_4:\n      tag_11\n      0x04\n      dup1\n      calldatasize\n      sub\n      dup2\n      add\n      swap1\n      tag_12\n      swap2\n      swap1\n      tag_13\n      jump\t// in\n    tag_12:\n      tag_14\n      jump\t// in\n    tag_11:\n      mload(0x40)\n      tag_15\n      swap2\n      swap1\n      tag_16\n      jump\t// in\n    tag_15:\n      mload(0x40)\n      dup1\n      swap2\n      sub\n      swap1\n      return\n        /* \"contracts/InvoiceData.sol\":214:257  mapping(uint256 => Employee) public empData */\n    tag_8:\n      mstore(0x20, 0x00)\n      dup1\n      0x00\n      mstore\n      keccak256(0x00, 0x40)\n      0x00\n      swap2\n      pop\n      swap1\n      pop\n      dup1\n      0x00\n      add\n      sload\n      swap1\n      dup1\n      0x01\n      add\n      dup1\n      sload\n      tag_17\n      swap1\n      tag_18\n      jump\t// in\n    tag_17:\n      dup1\n      0x1f\n      add\n      0x20\n      dup1\n      swap2\n      div\n      mul\n      0x20\n      add\n      mload(0x40)\n      swap1\n      dup2\n      add\n      0x40\n      mstore\n      dup1\n      swap3\n      swap2\n      swap1\n      dup2\n      dup2\n      mstore\n      0x20\n      add\n      dup3\n      dup1\n      sload\n      tag_19\n      swap1\n      tag_18\n      jump\t// in\n    tag_19:\n      dup1\n      iszero\n      tag_20\n      jumpi\n      dup1\n      0x1f\n      lt\n      tag_21\n      jumpi\n      0x0100\n      dup1\n      dup4\n      sload\n      div\n      mul\n      dup4\n      mstore\n      swap2\n      0x20\n      add\n      swap2\n      jump(tag_20)\n    tag_21:\n      dup3\n      add\n      swap2\n      swap1\n      0x00\n      mstore\n      keccak256(0x00, 0x20)\n      swap1\n    tag_22:\n      dup2\n      sload\n      dup2\n      mstore\n      swap1\n      0x01\n      add\n      swap1\n      0x20\n      add\n      dup1\n      dup4\n      gt\n      tag_22\n      jumpi\n      dup3\n      swap1\n      sub\n      0x1f\n      and\n      dup3\n      add\n      swap2\n    tag_20:\n      pop\n      pop\n      pop\n      pop\n      pop\n      swap1\n      dup1\n      0x02\n      add\n      dup1\n      sload\n      tag_23\n      swap1\n      tag_18\n      jump\t// in\n    tag_23:\n      dup1\n      0x1f\n      add\n      0x20\n      dup1\n      swap2\n      div\n      mul\n      0x20\n      add\n      mload(0x40)\n      swap1\n      dup2\n      add\n      0x40\n      mstore\n      dup1\n      swap3\n      swap2\n      swap1\n      dup2\n      dup2\n      mstore\n      0x20\n      add\n      dup3\n      dup1\n      sload\n      tag_24\n      swap1\n      tag_18\n      jump\t// in\n    tag_24:\n      dup1\n      iszero\n      tag_25\n      jumpi\n      dup1\n      0x1f\n      lt\n      tag_26\n      jumpi\n      0x0100\n      dup1\n      dup4\n      sload\n      div\n      mul\n      dup4\n      mstore\n      swap2\n      0x20\n      add\n      swap2\n      jump(tag_25)\n    tag_26:\n      dup3\n      add\n      swap2\n      swap1\n      0x00\n      mstore\n      keccak256(0x00, 0x20)\n      swap1\n    tag_27:\n      dup2\n      sload\n      dup2\n      mstore\n      swap1\n      0x01\n      add\n      swap1\n      0x20\n      add\n      dup1\n      dup4\n      gt\n      tag_27\n      jumpi\n      dup3\n      swap1\n      sub\n      0x1f\n      and\n      dup3\n      add\n      swap2\n    tag_25:\n      pop\n      pop\n      pop\n      pop\n      pop\n      swap1\n      pop\n      dup4\n      jump\t// out\n        /* \"contracts/InvoiceData.sol\":266:619  function addEmployees(... */\n    tag_14:\n        /* \"contracts/InvoiceData.sol\":394:401  uint256 */\n      0x00\n        /* \"contracts/InvoiceData.sol\":451:452  0 */\n      dup1\n        /* \"contracts/InvoiceData.sol\":418:425  empData */\n      0x00\n        /* \"contracts/InvoiceData.sol\":418:437  empData[_empNumber] */\n      dup1\n        /* \"contracts/InvoiceData.sol\":426:436  _empNumber */\n      dup7\n        /* \"contracts/InvoiceData.sol\":418:437  empData[_empNumber] */\n      dup2\n      mstore\n      0x20\n      add\n      swap1\n      dup2\n      mstore\n      0x20\n      add\n      0x00\n      keccak256\n        /* \"contracts/InvoiceData.sol\":418:447  empData[_empNumber].empNumber */\n      0x00\n      add\n      sload\n        /* \"contracts/InvoiceData.sol\":418:452  empData[_empNumber].empNumber == 0 */\n      eq\n        /* \"contracts/InvoiceData.sol\":410:480  require(empData[_empNumber].empNumber == 0, \"Employee already exists\") */\n      tag_29\n      jumpi\n      mload(0x40)\n      0x08c379a000000000000000000000000000000000000000000000000000000000\n      dup2\n      mstore\n      0x04\n      add\n      tag_30\n      swap1\n      tag_31\n      jump\t// in\n    tag_30:\n      mload(0x40)\n      dup1\n      swap2\n      sub\n      swap1\n      revert\n    tag_29:\n        /* \"contracts/InvoiceData.sol\":511:589  Employee(... */\n      mload(0x40)\n      dup1\n      0x60\n      add\n      0x40\n      mstore\n      dup1\n        /* \"contracts/InvoiceData.sol\":530:540  _empNumber */\n      dup6\n        /* \"contracts/InvoiceData.sol\":511:589  Employee(... */\n      dup2\n      mstore\n      0x20\n      add\n        /* \"contracts/InvoiceData.sol\":551:556  _name */\n      dup5\n        /* \"contracts/InvoiceData.sol\":511:589  Employee(... */\n      dup2\n      mstore\n      0x20\n      add\n        /* \"contracts/InvoiceData.sol\":567:582  _accountingInfo */\n      dup4\n        /* \"contracts/InvoiceData.sol\":511:589  Employee(... */\n      dup2\n      mstore\n      pop\n        /* \"contracts/InvoiceData.sol\":489:496  empData */\n      0x00\n        /* \"contracts/InvoiceData.sol\":489:508  empData[_empNumber] */\n      dup1\n        /* \"contracts/InvoiceData.sol\":497:507  _empNumber */\n      dup7\n        /* \"contracts/InvoiceData.sol\":489:508  empData[_empNumber] */\n      dup2\n      mstore\n      0x20\n      add\n      swap1\n      dup2\n      mstore\n      0x20\n      add\n      0x00\n      keccak256\n        /* \"contracts/InvoiceData.sol\":489:589  empData[_empNumber] = Employee(... */\n      0x00\n      dup3\n      add\n      mload\n      dup2\n      0x00\n      add\n      sstore\n      0x20\n      dup3\n      add\n      mload\n      dup2\n      0x01\n      add\n      swap1\n      dup2\n      tag_32\n      swap2\n      swap1\n      tag_33\n      jump\t// in\n    tag_32:\n      pop\n      0x40\n      dup3\n      add\n      mload\n      dup2\n      0x02\n      add\n      swap1\n      dup2\n      tag_34\n      swap2\n      swap1\n      tag_33\n      jump\t// in\n    tag_34:\n      pop\n      swap1\n      pop\n      pop\n        /* \"contracts/InvoiceData.sol\":605:615  _empNumber */\n      dup4\n        /* \"contracts/InvoiceData.sol\":598:615  return _empNumber */\n      swap1\n      pop\n        /* \"contracts/InvoiceData.sol\":266:619  function addEmployees(... */\n      swap4\n      swap3\n      pop\n      pop\n      pop\n      jump\t// out\n        /* \"#utility.yul\":7:82   */\n    tag_35:\n        /* \"#utility.yul\":40:46   */\n      0x00\n        /* \"#utility.yul\":73:75   */\n      0x40\n        /* \"#utility.yul\":67:76   */\n      mload\n        /* \"#utility.yul\":57:76   */\n      swap1\n      pop\n        /* \"#utility.yul\":7:82   */\n      swap1\n      jump\t// out\n        /* \"#utility.yul\":88:205   */\n    tag_36:\n        /* \"#utility.yul\":197:198   */\n      0x00\n        /* \"#utility.yul\":194:195   */\n      dup1\n        /* \"#utility.yul\":187:199   */\n      revert\n        /* \"#utility.yul\":211:328   */\n    tag_37:\n        /* \"#utility.yul\":320:321   */\n      0x00\n        /* \"#utility.yul\":317:318   */\n      dup1\n        /* \"#utility.yul\":310:322   */\n      revert\n        /* \"#utility.yul\":334:411   */\n    tag_38:\n        /* \"#utility.yul\":371:378   */\n      0x00\n        /* \"#utility.yul\":400:405   */\n      dup2\n        /* \"#utility.yul\":389:405   */\n      swap1\n      pop\n        /* \"#utility.yul\":334:411   */\n      swap2\n      swap1\n      pop\n      jump\t// out\n        /* \"#utility.yul\":417:539   */\n    tag_39:\n        /* \"#utility.yul\":490:514   */\n      tag_80\n        /* \"#utility.yul\":508:513   */\n      dup2\n        /* \"#utility.yul\":490:514   */\n      tag_38\n      jump\t// in\n    tag_80:\n        /* \"#utility.yul\":483:488   */\n      dup2\n        /* \"#utility.yul\":480:515   */\n      eq\n        /* \"#utility.yul\":470:533   */\n      tag_81\n      jumpi\n        /* \"#utility.yul\":529:530   */\n      0x00\n        /* \"#utility.yul\":526:527   */\n      dup1\n        /* \"#utility.yul\":519:531   */\n      revert\n        /* \"#utility.yul\":470:533   */\n    tag_81:\n        /* \"#utility.yul\":417:539   */\n      pop\n      jump\t// out\n        /* \"#utility.yul\":545:684   */\n    tag_40:\n        /* \"#utility.yul\":591:596   */\n      0x00\n        /* \"#utility.yul\":629:635   */\n      dup2\n        /* \"#utility.yul\":616:636   */\n      calldataload\n        /* \"#utility.yul\":607:636   */\n      swap1\n      pop\n        /* \"#utility.yul\":645:678   */\n      tag_83\n        /* \"#utility.yul\":672:677   */\n      dup2\n        /* \"#utility.yul\":645:678   */\n      tag_39\n      jump\t// in\n    tag_83:\n        /* \"#utility.yul\":545:684   */\n      swap3\n      swap2\n      pop\n      pop\n      jump\t// out\n        /* \"#utility.yul\":690:1019   */\n    tag_7:\n        /* \"#utility.yul\":749:755   */\n      0x00\n        /* \"#utility.yul\":798:800   */\n      0x20\n        /* \"#utility.yul\":786:795   */\n      dup3\n        /* \"#utility.yul\":777:784   */\n      dup5\n        /* \"#utility.yul\":773:796   */\n      sub\n        /* \"#utility.yul\":769:801   */\n      slt\n        /* \"#utility.yul\":766:885   */\n      iszero\n      tag_85\n      jumpi\n        /* \"#utility.yul\":804:883   */\n      tag_86\n      tag_36\n      jump\t// in\n    tag_86:\n        /* \"#utility.yul\":766:885   */\n    tag_85:\n        /* \"#utility.yul\":924:925   */\n      0x00\n        /* \"#utility.yul\":949:1002   */\n      tag_87\n        /* \"#utility.yul\":994:1001   */\n      dup5\n        /* \"#utility.yul\":985:991   */\n      dup3\n        /* \"#utility.yul\":974:983   */\n      dup6\n        /* \"#utility.yul\":970:992   */\n      add\n        /* \"#utility.yul\":949:1002   */\n      tag_40\n      jump\t// in\n    tag_87:\n        /* \"#utility.yul\":939:1002   */\n      swap2\n      pop\n        /* \"#utility.yul\":895:1012   */\n      pop\n        /* \"#utility.yul\":690:1019   */\n      swap3\n      swap2\n      pop\n      pop\n      jump\t// out\n        /* \"#utility.yul\":1025:1143   */\n    tag_41:\n        /* \"#utility.yul\":1112:1136   */\n      tag_89\n        /* \"#utility.yul\":1130:1135   */\n      dup2\n        /* \"#utility.yul\":1112:1136   */\n      tag_38\n      jump\t// in\n    tag_89:\n        /* \"#utility.yul\":1107:1110   */\n      dup3\n        /* \"#utility.yul\":1100:1137   */\n      mstore\n        /* \"#utility.yul\":1025:1143   */\n      pop\n      pop\n      jump\t// out\n        /* \"#utility.yul\":1149:1248   */\n    tag_42:\n        /* \"#utility.yul\":1201:1207   */\n      0x00\n        /* \"#utility.yul\":1235:1240   */\n      dup2\n        /* \"#utility.yul\":1229:1241   */\n      mload\n        /* \"#utility.yul\":1219:1241   */\n      swap1\n      pop\n        /* \"#utility.yul\":1149:1248   */\n      swap2\n      swap1\n      pop\n      jump\t// out\n        /* \"#utility.yul\":1254:1423   */\n    tag_43:\n        /* \"#utility.yul\":1338:1349   */\n      0x00\n        /* \"#utility.yul\":1372:1378   */\n      dup3\n        /* \"#utility.yul\":1367:1370   */\n      dup3\n        /* \"#utility.yul\":1360:1379   */\n      mstore\n        /* \"#utility.yul\":1412:1416   */\n      0x20\n        /* \"#utility.yul\":1407:1410   */\n      dup3\n        /* \"#utility.yul\":1403:1417   */\n      add\n        /* \"#utility.yul\":1388:1417   */\n      swap1\n      pop\n        /* \"#utility.yul\":1254:1423   */\n      swap3\n      swap2\n      pop\n      pop\n      jump\t// out\n        /* \"#utility.yul\":1429:1568   */\n    tag_44:\n        /* \"#utility.yul\":1518:1524   */\n      dup3\n        /* \"#utility.yul\":1513:1516   */\n      dup2\n        /* \"#utility.yul\":1508:1511   */\n      dup4\n        /* \"#utility.yul\":1502:1525   */\n      mcopy\n        /* \"#utility.yul\":1559:1560   */\n      0x00\n        /* \"#utility.yul\":1550:1556   */\n      dup4\n        /* \"#utility.yul\":1545:1548   */\n      dup4\n        /* \"#utility.yul\":1541:1557   */\n      add\n        /* \"#utility.yul\":1534:1561   */\n      mstore\n        /* \"#utility.yul\":1429:1568   */\n      pop\n      pop\n      pop\n      jump\t// out\n        /* \"#utility.yul\":1574:1676   */\n    tag_45:\n        /* \"#utility.yul\":1615:1621   */\n      0x00\n        /* \"#utility.yul\":1666:1668   */\n      0x1f\n        /* \"#utility.yul\":1662:1669   */\n      not\n        /* \"#utility.yul\":1657:1659   */\n      0x1f\n        /* \"#utility.yul\":1650:1655   */\n      dup4\n        /* \"#utility.yul\":1646:1660   */\n      add\n        /* \"#utility.yul\":1642:1670   */\n      and\n        /* \"#utility.yul\":1632:1670   */\n      swap1\n      pop\n        /* \"#utility.yul\":1574:1676   */\n      swap2\n      swap1\n      pop\n      jump\t// out\n        /* \"#utility.yul\":1682:2059   */\n    tag_46:\n        /* \"#utility.yul\":1770:1773   */\n      0x00\n        /* \"#utility.yul\":1798:1837   */\n      tag_95\n        /* \"#utility.yul\":1831:1836   */\n      dup3\n        /* \"#utility.yul\":1798:1837   */\n      tag_42\n      jump\t// in\n    tag_95:\n        /* \"#utility.yul\":1853:1924   */\n      tag_96\n        /* \"#utility.yul\":1917:1923   */\n      dup2\n        /* \"#utility.yul\":1912:1915   */\n      dup6\n        /* \"#utility.yul\":1853:1924   */\n      tag_43\n      jump\t// in\n    tag_96:\n        /* \"#utility.yul\":1846:1924   */\n      swap4\n      pop\n        /* \"#utility.yul\":1933:1998   */\n      tag_97\n        /* \"#utility.yul\":1991:1997   */\n      dup2\n        /* \"#utility.yul\":1986:1989   */\n      dup6\n        /* \"#utility.yul\":1979:1983   */\n      0x20\n        /* \"#utility.yul\":1972:1977   */\n      dup7\n        /* \"#utility.yul\":1968:1984   */\n      add\n        /* \"#utility.yul\":1933:1998   */\n      tag_44\n      jump\t// in\n    tag_97:\n        /* \"#utility.yul\":2023:2052   */\n      tag_98\n        /* \"#utility.yul\":2045:2051   */\n      dup2\n        /* \"#utility.yul\":2023:2052   */\n      tag_45\n      jump\t// in\n    tag_98:\n        /* \"#utility.yul\":2018:2021   */\n      dup5\n        /* \"#utility.yul\":2014:2053   */\n      add\n        /* \"#utility.yul\":2007:2053   */\n      swap2\n      pop\n        /* \"#utility.yul\":1774:2059   */\n      pop\n        /* \"#utility.yul\":1682:2059   */\n      swap3\n      swap2\n      pop\n      pop\n      jump\t// out\n        /* \"#utility.yul\":2065:2689   */\n    tag_10:\n        /* \"#utility.yul\":2254:2258   */\n      0x00\n        /* \"#utility.yul\":2292:2294   */\n      0x60\n        /* \"#utility.yul\":2281:2290   */\n      dup3\n        /* \"#utility.yul\":2277:2295   */\n      add\n        /* \"#utility.yul\":2269:2295   */\n      swap1\n      pop\n        /* \"#utility.yul\":2305:2376   */\n      tag_100\n        /* \"#utility.yul\":2373:2374   */\n      0x00\n        /* \"#utility.yul\":2362:2371   */\n      dup4\n        /* \"#utility.yul\":2358:2375   */\n      add\n        /* \"#utility.yul\":2349:2355   */\n      dup7\n        /* \"#utility.yul\":2305:2376   */\n      tag_41\n      jump\t// in\n    tag_100:\n        /* \"#utility.yul\":2423:2432   */\n      dup2\n        /* \"#utility.yul\":2417:2421   */\n      dup2\n        /* \"#utility.yul\":2413:2433   */\n      sub\n        /* \"#utility.yul\":2408:2410   */\n      0x20\n        /* \"#utility.yul\":2397:2406   */\n      dup4\n        /* \"#utility.yul\":2393:2411   */\n      add\n        /* \"#utility.yul\":2386:2434   */\n      mstore\n        /* \"#utility.yul\":2451:2529   */\n      tag_101\n        /* \"#utility.yul\":2524:2528   */\n      dup2\n        /* \"#utility.yul\":2515:2521   */\n      dup6\n        /* \"#utility.yul\":2451:2529   */\n      tag_46\n      jump\t// in\n    tag_101:\n        /* \"#utility.yul\":2443:2529   */\n      swap1\n      pop\n        /* \"#utility.yul\":2576:2585   */\n      dup2\n        /* \"#utility.yul\":2570:2574   */\n      dup2\n        /* \"#utility.yul\":2566:2586   */\n      sub\n        /* \"#utility.yul\":2561:2563   */\n      0x40\n        /* \"#utility.yul\":2550:2559   */\n      dup4\n        /* \"#utility.yul\":2546:2564   */\n      add\n        /* \"#utility.yul\":2539:2587   */\n      mstore\n        /* \"#utility.yul\":2604:2682   */\n      tag_102\n        /* \"#utility.yul\":2677:2681   */\n      dup2\n        /* \"#utility.yul\":2668:2674   */\n      dup5\n        /* \"#utility.yul\":2604:2682   */\n      tag_46\n      jump\t// in\n    tag_102:\n        /* \"#utility.yul\":2596:2682   */\n      swap1\n      pop\n        /* \"#utility.yul\":2065:2689   */\n      swap5\n      swap4\n      pop\n      pop\n      pop\n      pop\n      jump\t// out\n        /* \"#utility.yul\":2695:2812   */\n    tag_47:\n        /* \"#utility.yul\":2804:2805   */\n      0x00\n        /* \"#utility.yul\":2801:2802   */\n      dup1\n        /* \"#utility.yul\":2794:2806   */\n      revert\n        /* \"#utility.yul\":2818:2935   */\n    tag_48:\n        /* \"#utility.yul\":2927:2928   */\n      0x00\n        /* \"#utility.yul\":2924:2925   */\n      dup1\n        /* \"#utility.yul\":2917:2929   */\n      revert\n        /* \"#utility.yul\":2941:3121   */\n    tag_49:\n        /* \"#utility.yul\":2989:3066   */\n      0x4e487b7100000000000000000000000000000000000000000000000000000000\n        /* \"#utility.yul\":2986:2987   */\n      0x00\n        /* \"#utility.yul\":2979:3067   */\n      mstore\n        /* \"#utility.yul\":3086:3090   */\n      0x41\n        /* \"#utility.yul\":3083:3084   */\n      0x04\n        /* \"#utility.yul\":3076:3091   */\n      mstore\n        /* \"#utility.yul\":3110:3114   */\n      0x24\n        /* \"#utility.yul\":3107:3108   */\n      0x00\n        /* \"#utility.yul\":3100:3115   */\n      revert\n        /* \"#utility.yul\":3127:3408   */\n    tag_50:\n        /* \"#utility.yul\":3210:3237   */\n      tag_107\n        /* \"#utility.yul\":3232:3236   */\n      dup3\n        /* \"#utility.yul\":3210:3237   */\n      tag_45\n      jump\t// in\n    tag_107:\n        /* \"#utility.yul\":3202:3208   */\n      dup2\n        /* \"#utility.yul\":3198:3238   */\n      add\n        /* \"#utility.yul\":3340:3346   */\n      dup2\n        /* \"#utility.yul\":3328:3338   */\n      dup2\n        /* \"#utility.yul\":3325:3347   */\n      lt\n        /* \"#utility.yul\":3304:3322   */\n      0xffffffffffffffff\n        /* \"#utility.yul\":3292:3302   */\n      dup3\n        /* \"#utility.yul\":3289:3323   */\n      gt\n        /* \"#utility.yul\":3286:3348   */\n      or\n        /* \"#utility.yul\":3283:3371   */\n      iszero\n      tag_108\n      jumpi\n        /* \"#utility.yul\":3351:3369   */\n      tag_109\n      tag_49\n      jump\t// in\n    tag_109:\n        /* \"#utility.yul\":3283:3371   */\n    tag_108:\n        /* \"#utility.yul\":3391:3401   */\n      dup1\n        /* \"#utility.yul\":3387:3389   */\n      0x40\n        /* \"#utility.yul\":3380:3402   */\n      mstore\n        /* \"#utility.yul\":3170:3408   */\n      pop\n        /* \"#utility.yul\":3127:3408   */\n      pop\n      pop\n      jump\t// out\n        /* \"#utility.yul\":3414:3543   */\n    tag_51:\n        /* \"#utility.yul\":3448:3454   */\n      0x00\n        /* \"#utility.yul\":3475:3495   */\n      tag_111\n      tag_35\n      jump\t// in\n    tag_111:\n        /* \"#utility.yul\":3465:3495   */\n      swap1\n      pop\n        /* \"#utility.yul\":3504:3537   */\n      tag_112\n        /* \"#utility.yul\":3532:3536   */\n      dup3\n        /* \"#utility.yul\":3524:3530   */\n      dup3\n        /* \"#utility.yul\":3504:3537   */\n      tag_50\n      jump\t// in\n    tag_112:\n        /* \"#utility.yul\":3414:3543   */\n      swap2\n      swap1\n      pop\n      jump\t// out\n        /* \"#utility.yul\":3549:3857   */\n    tag_52:\n        /* \"#utility.yul\":3611:3615   */\n      0x00\n        /* \"#utility.yul\":3701:3719   */\n      0xffffffffffffffff\n        /* \"#utility.yul\":3693:3699   */\n      dup3\n        /* \"#utility.yul\":3690:3720   */\n      gt\n        /* \"#utility.yul\":3687:3743   */\n      iszero\n      tag_114\n      jumpi\n        /* \"#utility.yul\":3723:3741   */\n      tag_115\n      tag_49\n      jump\t// in\n    tag_115:\n        /* \"#utility.yul\":3687:3743   */\n    tag_114:\n        /* \"#utility.yul\":3761:3790   */\n      tag_116\n        /* \"#utility.yul\":3783:3789   */\n      dup3\n        /* \"#utility.yul\":3761:3790   */\n      tag_45\n      jump\t// in\n    tag_116:\n        /* \"#utility.yul\":3753:3790   */\n      swap1\n      pop\n        /* \"#utility.yul\":3845:3849   */\n      0x20\n        /* \"#utility.yul\":3839:3843   */\n      dup2\n        /* \"#utility.yul\":3835:3850   */\n      add\n        /* \"#utility.yul\":3827:3850   */\n      swap1\n      pop\n        /* \"#utility.yul\":3549:3857   */\n      swap2\n      swap1\n      pop\n      jump\t// out\n        /* \"#utility.yul\":3863:4011   */\n    tag_53:\n        /* \"#utility.yul\":3961:3967   */\n      dup3\n        /* \"#utility.yul\":3956:3959   */\n      dup2\n        /* \"#utility.yul\":3951:3954   */\n      dup4\n        /* \"#utility.yul\":3938:3968   */\n      calldatacopy\n        /* \"#utility.yul\":4002:4003   */\n      0x00\n        /* \"#utility.yul\":3993:3999   */\n      dup4\n        /* \"#utility.yul\":3988:3991   */\n      dup4\n        /* \"#utility.yul\":3984:4000   */\n      add\n        /* \"#utility.yul\":3977:4004   */\n      mstore\n        /* \"#utility.yul\":3863:4011   */\n      pop\n      pop\n      pop\n      jump\t// out\n        /* \"#utility.yul\":4017:4442   */\n    tag_54:\n        /* \"#utility.yul\":4095:4100   */\n      0x00\n        /* \"#utility.yul\":4120:4186   */\n      tag_119\n        /* \"#utility.yul\":4136:4185   */\n      tag_120\n        /* \"#utility.yul\":4178:4184   */\n      dup5\n        /* \"#utility.yul\":4136:4185   */\n      tag_52\n      jump\t// in\n    tag_120:\n        /* \"#utility.yul\":4120:4186   */\n      tag_51\n      jump\t// in\n    tag_119:\n        /* \"#utility.yul\":4111:4186   */\n      swap1\n      pop\n        /* \"#utility.yul\":4209:4215   */\n      dup3\n        /* \"#utility.yul\":4202:4207   */\n      dup2\n        /* \"#utility.yul\":4195:4216   */\n      mstore\n        /* \"#utility.yul\":4247:4251   */\n      0x20\n        /* \"#utility.yul\":4240:4245   */\n      dup2\n        /* \"#utility.yul\":4236:4252   */\n      add\n        /* \"#utility.yul\":4285:4288   */\n      dup5\n        /* \"#utility.yul\":4276:4282   */\n      dup5\n        /* \"#utility.yul\":4271:4274   */\n      dup5\n        /* \"#utility.yul\":4267:4283   */\n      add\n        /* \"#utility.yul\":4264:4289   */\n      gt\n        /* \"#utility.yul\":4261:4373   */\n      iszero\n      tag_121\n      jumpi\n        /* \"#utility.yul\":4292:4371   */\n      tag_122\n      tag_48\n      jump\t// in\n    tag_122:\n        /* \"#utility.yul\":4261:4373   */\n    tag_121:\n        /* \"#utility.yul\":4382:4436   */\n      tag_123\n        /* \"#utility.yul\":4429:4435   */\n      dup5\n        /* \"#utility.yul\":4424:4427   */\n      dup3\n        /* \"#utility.yul\":4419:4422   */\n      dup6\n        /* \"#utility.yul\":4382:4436   */\n      tag_53\n      jump\t// in\n    tag_123:\n        /* \"#utility.yul\":4101:4442   */\n      pop\n        /* \"#utility.yul\":4017:4442   */\n      swap4\n      swap3\n      pop\n      pop\n      pop\n      jump\t// out\n        /* \"#utility.yul\":4462:4802   */\n    tag_55:\n        /* \"#utility.yul\":4518:4523   */\n      0x00\n        /* \"#utility.yul\":4567:4570   */\n      dup3\n        /* \"#utility.yul\":4560:4564   */\n      0x1f\n        /* \"#utility.yul\":4552:4558   */\n      dup4\n        /* \"#utility.yul\":4548:4565   */\n      add\n        /* \"#utility.yul\":4544:4571   */\n      slt\n        /* \"#utility.yul\":4534:4656   */\n      tag_125\n      jumpi\n        /* \"#utility.yul\":4575:4654   */\n      tag_126\n      tag_47\n      jump\t// in\n    tag_126:\n        /* \"#utility.yul\":4534:4656   */\n    tag_125:\n        /* \"#utility.yul\":4692:4698   */\n      dup2\n        /* \"#utility.yul\":4679:4699   */\n      calldataload\n        /* \"#utility.yul\":4717:4796   */\n      tag_127\n        /* \"#utility.yul\":4792:4795   */\n      dup5\n        /* \"#utility.yul\":4784:4790   */\n      dup3\n        /* \"#utility.yul\":4777:4781   */\n      0x20\n        /* \"#utility.yul\":4769:4775   */\n      dup7\n        /* \"#utility.yul\":4765:4782   */\n      add\n        /* \"#utility.yul\":4717:4796   */\n      tag_54\n      jump\t// in\n    tag_127:\n        /* \"#utility.yul\":4708:4796   */\n      swap2\n      pop\n        /* \"#utility.yul\":4524:4802   */\n      pop\n        /* \"#utility.yul\":4462:4802   */\n      swap3\n      swap2\n      pop\n      pop\n      jump\t// out\n        /* \"#utility.yul\":4808:5787   */\n    tag_13:\n        /* \"#utility.yul\":4905:4911   */\n      0x00\n        /* \"#utility.yul\":4913:4919   */\n      dup1\n        /* \"#utility.yul\":4921:4927   */\n      0x00\n        /* \"#utility.yul\":4970:4972   */\n      0x60\n        /* \"#utility.yul\":4958:4967   */\n      dup5\n        /* \"#utility.yul\":4949:4956   */\n      dup7\n        /* \"#utility.yul\":4945:4968   */\n      sub\n        /* \"#utility.yul\":4941:4973   */\n      slt\n        /* \"#utility.yul\":4938:5057   */\n      iszero\n      tag_129\n      jumpi\n        /* \"#utility.yul\":4976:5055   */\n      tag_130\n      tag_36\n      jump\t// in\n    tag_130:\n        /* \"#utility.yul\":4938:5057   */\n    tag_129:\n        /* \"#utility.yul\":5096:5097   */\n      0x00\n        /* \"#utility.yul\":5121:5174   */\n      tag_131\n        /* \"#utility.yul\":5166:5173   */\n      dup7\n        /* \"#utility.yul\":5157:5163   */\n      dup3\n        /* \"#utility.yul\":5146:5155   */\n      dup8\n        /* \"#utility.yul\":5142:5164   */\n      add\n        /* \"#utility.yul\":5121:5174   */\n      tag_40\n      jump\t// in\n    tag_131:\n        /* \"#utility.yul\":5111:5174   */\n      swap4\n      pop\n        /* \"#utility.yul\":5067:5184   */\n      pop\n        /* \"#utility.yul\":5251:5253   */\n      0x20\n        /* \"#utility.yul\":5240:5249   */\n      dup5\n        /* \"#utility.yul\":5236:5254   */\n      add\n        /* \"#utility.yul\":5223:5255   */\n      calldataload\n        /* \"#utility.yul\":5282:5300   */\n      0xffffffffffffffff\n        /* \"#utility.yul\":5274:5280   */\n      dup2\n        /* \"#utility.yul\":5271:5301   */\n      gt\n        /* \"#utility.yul\":5268:5385   */\n      iszero\n      tag_132\n      jumpi\n        /* \"#utility.yul\":5304:5383   */\n      tag_133\n      tag_37\n      jump\t// in\n    tag_133:\n        /* \"#utility.yul\":5268:5385   */\n    tag_132:\n        /* \"#utility.yul\":5409:5472   */\n      tag_134\n        /* \"#utility.yul\":5464:5471   */\n      dup7\n        /* \"#utility.yul\":5455:5461   */\n      dup3\n        /* \"#utility.yul\":5444:5453   */\n      dup8\n        /* \"#utility.yul\":5440:5462   */\n      add\n        /* \"#utility.yul\":5409:5472   */\n      tag_55\n      jump\t// in\n    tag_134:\n        /* \"#utility.yul\":5399:5472   */\n      swap3\n      pop\n        /* \"#utility.yul\":5194:5482   */\n      pop\n        /* \"#utility.yul\":5549:5551   */\n      0x40\n        /* \"#utility.yul\":5538:5547   */\n      dup5\n        /* \"#utility.yul\":5534:5552   */\n      add\n        /* \"#utility.yul\":5521:5553   */\n      calldataload\n        /* \"#utility.yul\":5580:5598   */\n      0xffffffffffffffff\n        /* \"#utility.yul\":5572:5578   */\n      dup2\n        /* \"#utility.yul\":5569:5599   */\n      gt\n        /* \"#utility.yul\":5566:5683   */\n      iszero\n      tag_135\n      jumpi\n        /* \"#utility.yul\":5602:5681   */\n      tag_136\n      tag_37\n      jump\t// in\n    tag_136:\n        /* \"#utility.yul\":5566:5683   */\n    tag_135:\n        /* \"#utility.yul\":5707:5770   */\n      tag_137\n        /* \"#utility.yul\":5762:5769   */\n      dup7\n        /* \"#utility.yul\":5753:5759   */\n      dup3\n        /* \"#utility.yul\":5742:5751   */\n      dup8\n        /* \"#utility.yul\":5738:5760   */\n      add\n        /* \"#utility.yul\":5707:5770   */\n      tag_55\n      jump\t// in\n    tag_137:\n        /* \"#utility.yul\":5697:5770   */\n      swap2\n      pop\n        /* \"#utility.yul\":5492:5780   */\n      pop\n        /* \"#utility.yul\":4808:5787   */\n      swap3\n      pop\n      swap3\n      pop\n      swap3\n      jump\t// out\n        /* \"#utility.yul\":5793:6015   */\n    tag_16:\n        /* \"#utility.yul\":5886:5890   */\n      0x00\n        /* \"#utility.yul\":5924:5926   */\n      0x20\n        /* \"#utility.yul\":5913:5922   */\n      dup3\n        /* \"#utility.yul\":5909:5927   */\n      add\n        /* \"#utility.yul\":5901:5927   */\n      swap1\n      pop\n        /* \"#utility.yul\":5937:6008   */\n      tag_139\n        /* \"#utility.yul\":6005:6006   */\n      0x00\n        /* \"#utility.yul\":5994:6003   */\n      dup4\n        /* \"#utility.yul\":5990:6007   */\n      add\n        /* \"#utility.yul\":5981:5987   */\n      dup5\n        /* \"#utility.yul\":5937:6008   */\n      tag_41\n      jump\t// in\n    tag_139:\n        /* \"#utility.yul\":5793:6015   */\n      swap3\n      swap2\n      pop\n      pop\n      jump\t// out\n        /* \"#utility.yul\":6021:6201   */\n    tag_56:\n        /* \"#utility.yul\":6069:6146   */\n      0x4e487b7100000000000000000000000000000000000000000000000000000000\n        /* \"#utility.yul\":6066:6067   */\n      0x00\n        /* \"#utility.yul\":6059:6147   */\n      mstore\n        /* \"#utility.yul\":6166:6170   */\n      0x22\n        /* \"#utility.yul\":6163:6164   */\n      0x04\n        /* \"#utility.yul\":6156:6171   */\n      mstore\n        /* \"#utility.yul\":6190:6194   */\n      0x24\n        /* \"#utility.yul\":6187:6188   */\n      0x00\n        /* \"#utility.yul\":6180:6195   */\n      revert\n        /* \"#utility.yul\":6207:6527   */\n    tag_18:\n        /* \"#utility.yul\":6251:6257   */\n      0x00\n        /* \"#utility.yul\":6288:6289   */\n      0x02\n        /* \"#utility.yul\":6282:6286   */\n      dup3\n        /* \"#utility.yul\":6278:6290   */\n      div\n        /* \"#utility.yul\":6268:6290   */\n      swap1\n      pop\n        /* \"#utility.yul\":6335:6336   */\n      0x01\n        /* \"#utility.yul\":6329:6333   */\n      dup3\n        /* \"#utility.yul\":6325:6337   */\n      and\n        /* \"#utility.yul\":6356:6374   */\n      dup1\n        /* \"#utility.yul\":6346:6427   */\n      tag_142\n      jumpi\n        /* \"#utility.yul\":6412:6416   */\n      0x7f\n        /* \"#utility.yul\":6404:6410   */\n      dup3\n        /* \"#utility.yul\":6400:6417   */\n      and\n        /* \"#utility.yul\":6390:6417   */\n      swap2\n      pop\n        /* \"#utility.yul\":6346:6427   */\n    tag_142:\n        /* \"#utility.yul\":6474:6476   */\n      0x20\n        /* \"#utility.yul\":6466:6472   */\n      dup3\n        /* \"#utility.yul\":6463:6477   */\n      lt\n        /* \"#utility.yul\":6443:6461   */\n      dup2\n        /* \"#utility.yul\":6440:6478   */\n      sub\n        /* \"#utility.yul\":6437:6521   */\n      tag_143\n      jumpi\n        /* \"#utility.yul\":6493:6511   */\n      tag_144\n      tag_56\n      jump\t// in\n    tag_144:\n        /* \"#utility.yul\":6437:6521   */\n    tag_143:\n        /* \"#utility.yul\":6258:6527   */\n      pop\n        /* \"#utility.yul\":6207:6527   */\n      swap2\n      swap1\n      pop\n      jump\t// out\n        /* \"#utility.yul\":6533:6706   */\n    tag_57:\n        /* \"#utility.yul\":6673:6698   */\n      0x456d706c6f79656520616c726561647920657869737473000000000000000000\n        /* \"#utility.yul\":6669:6670   */\n      0x00\n        /* \"#utility.yul\":6661:6667   */\n      dup3\n        /* \"#utility.yul\":6657:6671   */\n      add\n        /* \"#utility.yul\":6650:6699   */\n      mstore\n        /* \"#utility.yul\":6533:6706   */\n      pop\n      jump\t// out\n        /* \"#utility.yul\":6712:7078   */\n    tag_58:\n        /* \"#utility.yul\":6854:6857   */\n      0x00\n        /* \"#utility.yul\":6875:6942   */\n      tag_147\n        /* \"#utility.yul\":6939:6941   */\n      0x17\n        /* \"#utility.yul\":6934:6937   */\n      dup4\n        /* \"#utility.yul\":6875:6942   */\n      tag_43\n      jump\t// in\n    tag_147:\n        /* \"#utility.yul\":6868:6942   */\n      swap2\n      pop\n        /* \"#utility.yul\":6951:7044   */\n      tag_148\n        /* \"#utility.yul\":7040:7043   */\n      dup3\n        /* \"#utility.yul\":6951:7044   */\n      tag_57\n      jump\t// in\n    tag_148:\n        /* \"#utility.yul\":7069:7071   */\n      0x20\n        /* \"#utility.yul\":7064:7067   */\n      dup3\n        /* \"#utility.yul\":7060:7072   */\n      add\n        /* \"#utility.yul\":7053:7072   */\n      swap1\n      pop\n        /* \"#utility.yul\":6712:7078   */\n      swap2\n      swap1\n      pop\n      jump\t// out\n        /* \"#utility.yul\":7084:7503   */\n    tag_31:\n        /* \"#utility.yul\":7250:7254   */\n      0x00\n        /* \"#utility.yul\":7288:7290   */\n      0x20\n        /* \"#utility.yul\":7277:7286   */\n      dup3\n        /* \"#utility.yul\":7273:7291   */\n      add\n        /* \"#utility.yul\":7265:7291   */\n      swap1\n      pop\n        /* \"#utility.yul\":7337:7346   */\n      dup2\n        /* \"#utility.yul\":7331:7335   */\n      dup2\n        /* \"#utility.yul\":7327:7347   */\n      sub\n        /* \"#utility.yul\":7323:7324   */\n      0x00\n        /* \"#utility.yul\":7312:7321   */\n      dup4\n        /* \"#utility.yul\":7308:7325   */\n      add\n        /* \"#utility.yul\":7301:7348   */\n      mstore\n        /* \"#utility.yul\":7365:7496   */\n      tag_150\n        /* \"#utility.yul\":7491:7495   */\n      dup2\n        /* \"#utility.yul\":7365:7496   */\n      tag_58\n      jump\t// in\n    tag_150:\n        /* \"#utility.yul\":7357:7496   */\n      swap1\n      pop\n        /* \"#utility.yul\":7084:7503   */\n      swap2\n      swap1\n      pop\n      jump\t// out\n        /* \"#utility.yul\":7509:7650   */\n    tag_59:\n        /* \"#utility.yul\":7558:7562   */\n      0x00\n        /* \"#utility.yul\":7581:7584   */\n      dup2\n        /* \"#utility.yul\":7573:7584   */\n      swap1\n      pop\n        /* \"#utility.yul\":7604:7607   */\n      dup2\n        /* \"#utility.yul\":7601:7602   */\n      0x00\n        /* \"#utility.yul\":7594:7608   */\n      mstore\n        /* \"#utility.yul\":7638:7642   */\n      0x20\n        /* \"#utility.yul\":7635:7636   */\n      0x00\n        /* \"#utility.yul\":7625:7643   */\n      keccak256\n        /* \"#utility.yul\":7617:7643   */\n      swap1\n      pop\n        /* \"#utility.yul\":7509:7650   */\n      swap2\n      swap1\n      pop\n      jump\t// out\n        /* \"#utility.yul\":7656:7749   */\n    tag_60:\n        /* \"#utility.yul\":7693:7699   */\n      0x00\n        /* \"#utility.yul\":7740:7742   */\n      0x20\n        /* \"#utility.yul\":7735:7737   */\n      0x1f\n        /* \"#utility.yul\":7728:7733   */\n      dup4\n        /* \"#utility.yul\":7724:7738   */\n      add\n        /* \"#utility.yul\":7720:7743   */\n      div\n        /* \"#utility.yul\":7710:7743   */\n      swap1\n      pop\n        /* \"#utility.yul\":7656:7749   */\n      swap2\n      swap1\n      pop\n      jump\t// out\n        /* \"#utility.yul\":7755:7862   */\n    tag_61:\n        /* \"#utility.yul\":7799:7807   */\n      0x00\n        /* \"#utility.yul\":7849:7854   */\n      dup3\n        /* \"#utility.yul\":7843:7847   */\n      dup3\n        /* \"#utility.yul\":7839:7855   */\n      shl\n        /* \"#utility.yul\":7818:7855   */\n      swap1\n      pop\n        /* \"#utility.yul\":7755:7862   */\n      swap3\n      swap2\n      pop\n      pop\n      jump\t// out\n        /* \"#utility.yul\":7868:8261   */\n    tag_62:\n        /* \"#utility.yul\":7937:7943   */\n      0x00\n        /* \"#utility.yul\":7987:7988   */\n      0x08\n        /* \"#utility.yul\":7975:7985   */\n      dup4\n        /* \"#utility.yul\":7971:7989   */\n      mul\n        /* \"#utility.yul\":8010:8107   */\n      tag_155\n        /* \"#utility.yul\":8040:8106   */\n      0xffffffffffffffffffffffffffffffffffffffffffffffffffffffffffffffff\n        /* \"#utility.yul\":8029:8038   */\n      dup3\n        /* \"#utility.yul\":8010:8107   */\n      tag_61\n      jump\t// in\n    tag_155:\n        /* \"#utility.yul\":8128:8167   */\n      tag_156\n        /* \"#utility.yul\":8158:8166   */\n      dup7\n        /* \"#utility.yul\":8147:8156   */\n      dup4\n        /* \"#utility.yul\":8128:8167   */\n      tag_61\n      jump\t// in\n    tag_156:\n        /* \"#utility.yul\":8116:8167   */\n      swap6\n      pop\n        /* \"#utility.yul\":8200:8204   */\n      dup1\n        /* \"#utility.yul\":8196:8205   */\n      not\n        /* \"#utility.yul\":8189:8194   */\n      dup5\n        /* \"#utility.yul\":8185:8206   */\n      and\n        /* \"#utility.yul\":8176:8206   */\n      swap4\n      pop\n        /* \"#utility.yul\":8249:8253   */\n      dup1\n        /* \"#utility.yul\":8239:8247   */\n      dup7\n        /* \"#utility.yul\":8235:8254   */\n      and\n        /* \"#utility.yul\":8228:8233   */\n      dup5\n        /* \"#utility.yul\":8225:8255   */\n      or\n        /* \"#utility.yul\":8215:8255   */\n      swap3\n      pop\n        /* \"#utility.yul\":7944:8261   */\n      pop\n      pop\n        /* \"#utility.yul\":7868:8261   */\n      swap4\n      swap3\n      pop\n      pop\n      pop\n      jump\t// out\n        /* \"#utility.yul\":8267:8327   */\n    tag_63:\n        /* \"#utility.yul\":8295:8298   */\n      0x00\n        /* \"#utility.yul\":8316:8321   */\n      dup2\n        /* \"#utility.yul\":8309:8321   */\n      swap1\n      pop\n        /* \"#utility.yul\":8267:8327   */\n      swap2\n      swap1\n      pop\n      jump\t// out\n        /* \"#utility.yul\":8333:8475   */\n    tag_64:\n        /* \"#utility.yul\":8383:8392   */\n      0x00\n        /* \"#utility.yul\":8416:8469   */\n      tag_159\n        /* \"#utility.yul\":8434:8468   */\n      tag_160\n        /* \"#utility.yul\":8443:8467   */\n      tag_161\n        /* \"#utility.yul\":8461:8466   */\n      dup5\n        /* \"#utility.yul\":8443:8467   */\n      tag_38\n      jump\t// in\n    tag_161:\n        /* \"#utility.yul\":8434:8468   */\n      tag_63\n      jump\t// in\n    tag_160:\n        /* \"#utility.yul\":8416:8469   */\n      tag_38\n      jump\t// in\n    tag_159:\n        /* \"#utility.yul\":8403:8469   */\n      swap1\n      pop\n        /* \"#utility.yul\":8333:8475   */\n      swap2\n      swap1\n      pop\n      jump\t// out\n        /* \"#utility.yul\":8481:8556   */\n    tag_65:\n        /* \"#utility.yul\":8524:8527   */\n      0x00\n        /* \"#utility.yul\":8545:8550   */\n      dup2\n        /* \"#utility.yul\":8538:8550   */\n      swap1\n      pop\n        /* \"#utility.yul\":8481:8556   */\n      swap2\n      swap1\n      pop\n      jump\t// out\n        /* \"#utility.yul\":8562:8831   */\n    tag_66:\n        /* \"#utility.yul\":8672:8711   */\n      tag_164\n        /* \"#utility.yul\":8703:8710   */\n      dup4\n        /* \"#utility.yul\":8672:8711   */\n      tag_64\n      jump\t// in\n    tag_164:\n        /* \"#utility.yul\":8733:8824   */\n      tag_165\n        /* \"#utility.yul\":8782:8823   */\n      tag_166\n        /* \"#utility.yul\":8806:8822   */\n      dup3\n        /* \"#utility.yul\":8782:8823   */\n      tag_65\n      jump\t// in\n    tag_166:\n        /* \"#utility.yul\":8774:8780   */\n      dup5\n        /* \"#utility.yul\":8767:8771   */\n      dup5\n        /* \"#utility.yul\":8761:8772   */\n      sload\n        /* \"#utility.yul\":8733:8824   */\n      tag_62\n      jump\t// in\n    tag_165:\n        /* \"#utility.yul\":8727:8731   */\n      dup3\n        /* \"#utility.yul\":8720:8825   */\n      sstore\n        /* \"#utility.yul\":8638:8831   */\n      pop\n        /* \"#utility.yul\":8562:8831   */\n      pop\n      pop\n      pop\n      jump\t// out\n        /* \"#utility.yul\":8837:8910   */\n    tag_67:\n        /* \"#utility.yul\":8882:8885   */\n      0x00\n        /* \"#utility.yul\":8837:8910   */\n      swap1\n      jump\t// out\n        /* \"#utility.yul\":8916:9105   */\n    tag_68:\n        /* \"#utility.yul\":8993:9025   */\n      tag_169\n      tag_67\n      jump\t// in\n    tag_169:\n        /* \"#utility.yul\":9034:9099   */\n      tag_170\n        /* \"#utility.yul\":9092:9098   */\n      dup2\n        /* \"#utility.yul\":9084:9090   */\n      dup5\n        /* \"#utility.yul\":9078:9082   */\n      dup5\n        /* \"#utility.yul\":9034:9099   */\n      tag_66\n      jump\t// in\n    tag_170:\n        /* \"#utility.yul\":8969:9105   */\n      pop\n        /* \"#utility.yul\":8916:9105   */\n      pop\n      pop\n      jump\t// out\n        /* \"#utility.yul\":9111:9297   */\n    tag_69:\n        /* \"#utility.yul\":9171:9291   */\n    tag_172:\n        /* \"#utility.yul\":9188:9191   */\n      dup2\n        /* \"#utility.yul\":9181:9186   */\n      dup2\n        /* \"#utility.yul\":9178:9192   */\n      lt\n        /* \"#utility.yul\":9171:9291   */\n      iszero\n      tag_174\n      jumpi\n        /* \"#utility.yul\":9242:9281   */\n      tag_175\n        /* \"#utility.yul\":9279:9280   */\n      0x00\n        /* \"#utility.yul\":9272:9277   */\n      dup3\n        /* \"#utility.yul\":9242:9281   */\n      tag_68\n      jump\t// in\n    tag_175:\n        /* \"#utility.yul\":9215:9216   */\n      0x01\n        /* \"#utility.yul\":9208:9213   */\n      dup2\n        /* \"#utility.yul\":9204:9217   */\n      add\n        /* \"#utility.yul\":9195:9217   */\n      swap1\n      pop\n        /* \"#utility.yul\":9171:9291   */\n      jump(tag_172)\n    tag_174:\n        /* \"#utility.yul\":9111:9297   */\n      pop\n      pop\n      jump\t// out\n        /* \"#utility.yul\":9303:9846   */\n    tag_70:\n        /* \"#utility.yul\":9404:9406   */\n      0x1f\n        /* \"#utility.yul\":9399:9402   */\n      dup3\n        /* \"#utility.yul\":9396:9407   */\n      gt\n        /* \"#utility.yul\":9393:9839   */\n      iszero\n      tag_177\n      jumpi\n        /* \"#utility.yul\":9438:9476   */\n      tag_178\n        /* \"#utility.yul\":9470:9475   */\n      dup2\n        /* \"#utility.yul\":9438:9476   */\n      tag_59\n      jump\t// in\n    tag_178:\n        /* \"#utility.yul\":9522:9551   */\n      tag_179\n        /* \"#utility.yul\":9540:9550   */\n      dup5\n        /* \"#utility.yul\":9522:9551   */\n      tag_60\n      jump\t// in\n    tag_179:\n        /* \"#utility.yul\":9512:9520   */\n      dup2\n        /* \"#utility.yul\":9508:9552   */\n      add\n        /* \"#utility.yul\":9705:9707   */\n      0x20\n        /* \"#utility.yul\":9693:9703   */\n      dup6\n        /* \"#utility.yul\":9690:9708   */\n      lt\n        /* \"#utility.yul\":9687:9736   */\n      iszero\n      tag_180\n      jumpi\n        /* \"#utility.yul\":9726:9734   */\n      dup2\n        /* \"#utility.yul\":9711:9734   */\n      swap1\n      pop\n        /* \"#utility.yul\":9687:9736   */\n    tag_180:\n        /* \"#utility.yul\":9749:9829   */\n      tag_181\n        /* \"#utility.yul\":9805:9827   */\n      tag_182\n        /* \"#utility.yul\":9823:9826   */\n      dup6\n        /* \"#utility.yul\":9805:9827   */\n      tag_60\n      jump\t// in\n    tag_182:\n        /* \"#utility.yul\":9795:9803   */\n      dup4\n        /* \"#utility.yul\":9791:9828   */\n      add\n        /* \"#utility.yul\":9778:9789   */\n      dup3\n        /* \"#utility.yul\":9749:9829   */\n      tag_69\n      jump\t// in\n    tag_181:\n        /* \"#utility.yul\":9408:9839   */\n      pop\n      pop\n        /* \"#utility.yul\":9393:9839   */\n    tag_177:\n        /* \"#utility.yul\":9303:9846   */\n      pop\n      pop\n      pop\n      jump\t// out\n        /* \"#utility.yul\":9852:9969   */\n    tag_71:\n        /* \"#utility.yul\":9906:9914   */\n      0x00\n        /* \"#utility.yul\":9956:9961   */\n      dup3\n        /* \"#utility.yul\":9950:9954   */\n      dup3\n        /* \"#utility.yul\":9946:9962   */\n      shr\n        /* \"#utility.yul\":9925:9962   */\n      swap1\n      pop\n        /* \"#utility.yul\":9852:9969   */\n      swap3\n      swap2\n      pop\n      pop\n      jump\t// out\n        /* \"#utility.yul\":9975:10144   */\n    tag_72:\n        /* \"#utility.yul\":10019:10025   */\n      0x00\n        /* \"#utility.yul\":10052:10103   */\n      tag_185\n        /* \"#utility.yul\":10100:10101   */\n      0x00\n        /* \"#utility.yul\":10096:10102   */\n      not\n        /* \"#utility.yul\":10088:10093   */\n      dup5\n        /* \"#utility.yul\":10085:10086   */\n      0x08\n        /* \"#utility.yul\":10081:10094   */\n      mul\n        /* \"#utility.yul\":10052:10103   */\n      tag_71\n      jump\t// in\n    tag_185:\n        /* \"#utility.yul\":10048:10104   */\n      not\n        /* \"#utility.yul\":10133:10137   */\n      dup1\n        /* \"#utility.yul\":10127:10131   */\n      dup4\n        /* \"#utility.yul\":10123:10138   */\n      and\n        /* \"#utility.yul\":10113:10138   */\n      swap2\n      pop\n        /* \"#utility.yul\":10026:10144   */\n      pop\n        /* \"#utility.yul\":9975:10144   */\n      swap3\n      swap2\n      pop\n      pop\n      jump\t// out\n        /* \"#utility.yul\":10149:10444   */\n    tag_73:\n        /* \"#utility.yul\":10225:10229   */\n      0x00\n        /* \"#utility.yul\":10371:10400   */\n      tag_187\n        /* \"#utility.yul\":10396:10399   */\n      dup4\n        /* \"#utility.yul\":10390:10394   */\n      dup4\n        /* \"#utility.yul\":10371:10400   */\n      tag_72\n      jump\t// in\n    tag_187:\n        /* \"#utility.yul\":10363:10400   */\n      swap2\n      pop\n        /* \"#utility.yul\":10433:10436   */\n      dup3\n        /* \"#utility.yul\":10430:10431   */\n      0x02\n        /* \"#utility.yul\":10426:10437   */\n      mul\n        /* \"#utility.yul\":10420:10424   */\n      dup3\n        /* \"#utility.yul\":10417:10438   */\n      or\n        /* \"#utility.yul\":10409:10438   */\n      swap1\n      pop\n        /* \"#utility.yul\":10149:10444   */\n      swap3\n      swap2\n      pop\n      pop\n      jump\t// out\n        /* \"#utility.yul\":10449:11844   */\n    tag_33:\n        /* \"#utility.yul\":10566:10603   */\n      tag_189\n        /* \"#utility.yul\":10599:10602   */\n      dup3\n        /* \"#utility.yul\":10566:10603   */\n      tag_42\n      jump\t// in\n    tag_189:\n        /* \"#utility.yul\":10668:10686   */\n      0xffffffffffffffff\n        /* \"#utility.yul\":10660:10666   */\n      dup2\n        /* \"#utility.yul\":10657:10687   */\n      gt\n        /* \"#utility.yul\":10654:10710   */\n      iszero\n      tag_190\n      jumpi\n        /* \"#utility.yul\":10690:10708   */\n      tag_191\n      tag_49\n      jump\t// in\n    tag_191:\n        /* \"#utility.yul\":10654:10710   */\n    tag_190:\n        /* \"#utility.yul\":10734:10772   */\n      tag_192\n        /* \"#utility.yul\":10766:10770   */\n      dup3\n        /* \"#utility.yul\":10760:10771   */\n      sload\n        /* \"#utility.yul\":10734:10772   */\n      tag_18\n      jump\t// in\n    tag_192:\n        /* \"#utility.yul\":10819:10886   */\n      tag_193\n        /* \"#utility.yul\":10879:10885   */\n      dup3\n        /* \"#utility.yul\":10871:10877   */\n      dup3\n        /* \"#utility.yul\":10865:10869   */\n      dup6\n        /* \"#utility.yul\":10819:10886   */\n      tag_70\n      jump\t// in\n    tag_193:\n        /* \"#utility.yul\":10913:10914   */\n      0x00\n        /* \"#utility.yul\":10937:10941   */\n      0x20\n        /* \"#utility.yul\":10924:10941   */\n      swap1\n      pop\n        /* \"#utility.yul\":10969:10971   */\n      0x1f\n        /* \"#utility.yul\":10961:10967   */\n      dup4\n        /* \"#utility.yul\":10958:10972   */\n      gt\n        /* \"#utility.yul\":10986:10987   */\n      0x01\n        /* \"#utility.yul\":10981:11599   */\n      dup2\n      eq\n      tag_195\n      jumpi\n        /* \"#utility.yul\":11643:11644   */\n      0x00\n        /* \"#utility.yul\":11660:11666   */\n      dup5\n        /* \"#utility.yul\":11657:11734   */\n      iszero\n      tag_196\n      jumpi\n        /* \"#utility.yul\":11709:11718   */\n      dup3\n        /* \"#utility.yul\":11704:11707   */\n      dup8\n        /* \"#utility.yul\":11700:11719   */\n      add\n        /* \"#utility.yul\":11694:11720   */\n      mload\n        /* \"#utility.yul\":11685:11720   */\n      swap1\n      pop\n        /* \"#utility.yul\":11657:11734   */\n    tag_196:\n        /* \"#utility.yul\":11760:11827   */\n      tag_197\n        /* \"#utility.yul\":11820:11826   */\n      dup6\n        /* \"#utility.yul\":11813:11818   */\n      dup3\n        /* \"#utility.yul\":11760:11827   */\n      tag_73\n      jump\t// in\n    tag_197:\n        /* \"#utility.yul\":11754:11758   */\n      dup7\n        /* \"#utility.yul\":11747:11828   */\n      sstore\n        /* \"#utility.yul\":11616:11838   */\n      pop\n        /* \"#utility.yul\":10951:11838   */\n      jump(tag_194)\n        /* \"#utility.yul\":10981:11599   */\n    tag_195:\n        /* \"#utility.yul\":11033:11037   */\n      0x1f\n        /* \"#utility.yul\":11029:11038   */\n      not\n        /* \"#utility.yul\":11021:11027   */\n      dup5\n        /* \"#utility.yul\":11017:11039   */\n      and\n        /* \"#utility.yul\":11067:11104   */\n      tag_198\n        /* \"#utility.yul\":11099:11103   */\n      dup7\n        /* \"#utility.yul\":11067:11104   */\n      tag_59\n      jump\t// in\n    tag_198:\n        /* \"#utility.yul\":11126:11127   */\n      0x00\n        /* \"#utility.yul\":11140:11348   */\n    tag_199:\n        /* \"#utility.yul\":11154:11161   */\n      dup3\n        /* \"#utility.yul\":11151:11152   */\n      dup2\n        /* \"#utility.yul\":11148:11162   */\n      lt\n        /* \"#utility.yul\":11140:11348   */\n      iszero\n      tag_201\n      jumpi\n        /* \"#utility.yul\":11233:11242   */\n      dup5\n        /* \"#utility.yul\":11228:11231   */\n      dup10\n        /* \"#utility.yul\":11224:11243   */\n      add\n        /* \"#utility.yul\":11218:11244   */\n      mload\n        /* \"#utility.yul\":11210:11216   */\n      dup3\n        /* \"#utility.yul\":11203:11245   */\n      sstore\n        /* \"#utility.yul\":11284:11285   */\n      0x01\n        /* \"#utility.yul\":11276:11282   */\n      dup3\n        /* \"#utility.yul\":11272:11286   */\n      add\n        /* \"#utility.yul\":11262:11286   */\n      swap2\n      pop\n        /* \"#utility.yul\":11331:11333   */\n      0x20\n        /* \"#utility.yul\":11320:11329   */\n      dup6\n        /* \"#utility.yul\":11316:11334   */\n      add\n        /* \"#utility.yul\":11303:11334   */\n      swap5\n      pop\n        /* \"#utility.yul\":11177:11181   */\n      0x20\n        /* \"#utility.yul\":11174:11175   */\n      dup2\n        /* \"#utility.yul\":11170:11182   */\n      add\n        /* \"#utility.yul\":11165:11182   */\n      swap1\n      pop\n        /* \"#utility.yul\":11140:11348   */\n      jump(tag_199)\n    tag_201:\n        /* \"#utility.yul\":11376:11382   */\n      dup7\n        /* \"#utility.yul\":11367:11374   */\n      dup4\n        /* \"#utility.yul\":11364:11383   */\n      lt\n        /* \"#utility.yul\":11361:11540   */\n      iszero\n      tag_202\n      jumpi\n        /* \"#utility.yul\":11434:11443   */\n      dup5\n        /* \"#utility.yul\":11429:11432   */\n      dup10\n        /* \"#utility.yul\":11425:11444   */\n      add\n        /* \"#utility.yul\":11419:11445   */\n      mload\n        /* \"#utility.yul\":11477:11525   */\n      tag_203\n        /* \"#utility.yul\":11519:11523   */\n      0x1f\n        /* \"#utility.yul\":11511:11517   */\n      dup10\n        /* \"#utility.yul\":11507:11524   */\n      and\n        /* \"#utility.yul\":11496:11505   */\n      dup3\n        /* \"#utility.yul\":11477:11525   */\n      tag_72\n      jump\t// in\n    tag_203:\n        /* \"#utility.yul\":11469:11475   */\n      dup4\n        /* \"#utility.yul\":11462:11526   */\n      sstore\n        /* \"#utility.yul\":11384:11540   */\n      pop\n        /* \"#utility.yul\":11361:11540   */\n    tag_202:\n        /* \"#utility.yul\":11586:11587   */\n      0x01\n        /* \"#utility.yul\":11582:11583   */\n      0x02\n        /* \"#utility.yul\":11574:11580   */\n      dup9\n        /* \"#utility.yul\":11570:11584   */\n      mul\n        /* \"#utility.yul\":11566:11588   */\n      add\n        /* \"#utility.yul\":11560:11564   */\n      dup9\n        /* \"#utility.yul\":11553:11589   */\n      sstore\n        /* \"#utility.yul\":10988:11599   */\n      pop\n      pop\n      pop\n        /* \"#utility.yul\":10951:11838   */\n    tag_194:\n      pop\n        /* \"#utility.yul\":10541:11844   */\n      pop\n      pop\n      pop\n        /* \"#utility.yul\":10449:11844   */\n      pop\n      pop\n      jump\t// out\n\n    auxdata: 0xa2646970667358221220ef3597cd0e7fcedc5ec03dee5bd7ea1465fc440d62b6141772b9698d873fbe4964736f6c634300081a0033\n}\n",
				"bytecode": {
					"linkReferences": {},
					"object": "6080604052348015600e575f80fd5b506108f18061001c5f395ff3fe608060405234801561000f575f80fd5b5060043610610034575f3560e01c8063272cc76a14610038578063a7bd8ac01461006a575b5f80fd5b610052600480360381019061004d91906102d0565b61009a565b6040516100619392919061037a565b60405180910390f35b610084600480360381019061007f91906104e9565b6101cb565b6040516100919190610571565b60405180910390f35b5f602052805f5260405f205f91509050805f0154908060010180546100be906105b7565b80601f01602080910402602001604051908101604052809291908181526020018280546100ea906105b7565b80156101355780601f1061010c57610100808354040283529160200191610135565b820191905f5260205f20905b81548152906001019060200180831161011857829003601f168201915b50505050509080600201805461014a906105b7565b80601f0160208091040260200160405190810160405280929190818152602001828054610176906105b7565b80156101c15780601f10610198576101008083540402835291602001916101c1565b820191905f5260205f20905b8154815290600101906020018083116101a457829003601f168201915b5050505050905083565b5f805f808681526020019081526020015f205f015414610220576040517f08c379a000000000000000000000000000000000000000000000000000000000815260040161021790610631565b60405180910390fd5b6040518060600160405280858152602001848152602001838152505f808681526020019081526020015f205f820151815f0155602082015181600101908161026891906107ec565b50604082015181600201908161027e91906107ec565b509050508390509392505050565b5f604051905090565b5f80fd5b5f80fd5b5f819050919050565b6102af8161029d565b81146102b9575f80fd5b50565b5f813590506102ca816102a6565b92915050565b5f602082840312156102e5576102e4610295565b5b5f6102f2848285016102bc565b91505092915050565b6103048161029d565b82525050565b5f81519050919050565b5f82825260208201905092915050565b8281835e5f83830152505050565b5f601f19601f8301169050919050565b5f61034c8261030a565b6103568185610314565b9350610366818560208601610324565b61036f81610332565b840191505092915050565b5f60608201905061038d5f8301866102fb565b818103602083015261039f8185610342565b905081810360408301526103b38184610342565b9050949350505050565b5f80fd5b5f80fd5b7f4e487b71000000000000000000000000000000000000000000000000000000005f52604160045260245ffd5b6103fb82610332565b810181811067ffffffffffffffff8211171561041a576104196103c5565b5b80604052505050565b5f61042c61028c565b905061043882826103f2565b919050565b5f67ffffffffffffffff821115610457576104566103c5565b5b61046082610332565b9050602081019050919050565b828183375f83830152505050565b5f61048d6104888461043d565b610423565b9050828152602081018484840111156104a9576104a86103c1565b5b6104b484828561046d565b509392505050565b5f82601f8301126104d0576104cf6103bd565b5b81356104e084826020860161047b565b91505092915050565b5f805f60608486031215610500576104ff610295565b5b5f61050d868287016102bc565b935050602084013567ffffffffffffffff81111561052e5761052d610299565b5b61053a868287016104bc565b925050604084013567ffffffffffffffff81111561055b5761055a610299565b5b610567868287016104bc565b9150509250925092565b5f6020820190506105845f8301846102fb565b92915050565b7f4e487b71000000000000000000000000000000000000000000000000000000005f52602260045260245ffd5b5f60028204905060018216806105ce57607f821691505b6020821081036105e1576105e061058a565b5b50919050565b7f456d706c6f79656520616c7265616479206578697374730000000000000000005f82015250565b5f61061b601783610314565b9150610626826105e7565b602082019050919050565b5f6020820190508181035f8301526106488161060f565b9050919050565b5f819050815f5260205f209050919050565b5f6020601f8301049050919050565b5f82821b905092915050565b5f600883026106ab7fffffffffffffffffffffffffffffffffffffffffffffffffffffffffffffffff82610670565b6106b58683610670565b95508019841693508086168417925050509392505050565b5f819050919050565b5f6106f06106eb6106e68461029d565b6106cd565b61029d565b9050919050565b5f819050919050565b610709836106d6565b61071d610715826106f7565b84845461067c565b825550505050565b5f90565b610731610725565b61073c818484610700565b505050565b5b8181101561075f576107545f82610729565b600181019050610742565b5050565b601f8211156107a4576107758161064f565b61077e84610661565b8101602085101561078d578190505b6107a161079985610661565b830182610741565b50505b505050565b5f82821c905092915050565b5f6107c45f19846008026107a9565b1980831691505092915050565b5f6107dc83836107b5565b9150826002028217905092915050565b6107f58261030a565b67ffffffffffffffff81111561080e5761080d6103c5565b5b61081882546105b7565b610823828285610763565b5f60209050601f831160018114610854575f8415610842578287015190505b61084c85826107d1565b8655506108b3565b601f1984166108628661064f565b5f5b8281101561088957848901518255600182019150602085019450602081019050610864565b868310156108a657848901516108a2601f8916826107b5565b8355505b6001600288020188555050505b50505050505056fea2646970667358221220ef3597cd0e7fcedc5ec03dee5bd7ea1465fc440d62b6141772b9698d873fbe4964736f6c634300081a0033",
					"opcodes": "PUSH1 0x80 PUSH1 0x40 MSTORE CALLVALUE DUP1 ISZERO PUSH1 0xE JUMPI PUSH0 DUP1 REVERT JUMPDEST POP PUSH2 0x8F1 DUP1 PUSH2 0x1C PUSH0 CODECOPY PUSH0 RETURN INVALID PUSH1 0x80 PUSH1 0x40 MSTORE CALLVALUE DUP1 ISZERO PUSH2 0xF JUMPI PUSH0 DUP1 REVERT JUMPDEST POP PUSH1 0x4 CALLDATASIZE LT PUSH2 0x34 JUMPI PUSH0 CALLDATALOAD PUSH1 0xE0 SHR DUP1 PUSH4 0x272CC76A EQ PUSH2 0x38 JUMPI DUP1 PUSH4 0xA7BD8AC0 EQ PUSH2 0x6A JUMPI JUMPDEST PUSH0 DUP1 REVERT JUMPDEST PUSH2 0x52 PUSH1 0x4 DUP1 CALLDATASIZE SUB DUP2 ADD SWAP1 PUSH2 0x4D SWAP2 SWAP1 PUSH2 0x2D0 JUMP JUMPDEST PUSH2 0x9A JUMP JUMPDEST PUSH1 0x40 MLOAD PUSH2 0x61 SWAP4 SWAP3 SWAP2 SWAP1 PUSH2 0x37A JUMP JUMPDEST PUSH1 0x40 MLOAD DUP1 SWAP2 SUB SWAP1 RETURN JUMPDEST PUSH2 0x84 PUSH1 0x4 DUP1 CALLDATASIZE SUB DUP2 ADD SWAP1 PUSH2 0x7F SWAP2 SWAP1 PUSH2 0x4E9 JUMP JUMPDEST PUSH2 0x1CB JUMP JUMPDEST PUSH1 0x40 MLOAD PUSH2 0x91 SWAP2 SWAP1 PUSH2 0x571 JUMP JUMPDEST PUSH1 0x40 MLOAD DUP1 SWAP2 SUB SWAP1 RETURN JUMPDEST PUSH0 PUSH1 0x20 MSTORE DUP1 PUSH0 MSTORE PUSH1 0x40 PUSH0 KECCAK256 PUSH0 SWAP2 POP SWAP1 POP DUP1 PUSH0 ADD SLOAD SWAP1 DUP1 PUSH1 0x1 ADD DUP1 SLOAD PUSH2 0xBE SWAP1 PUSH2 0x5B7 JUMP JUMPDEST DUP1 PUSH1 0x1F ADD PUSH1 0x20 DUP1 SWAP2 DIV MUL PUSH1 0x20 ADD PUSH1 0x40 MLOAD SWAP1 DUP2 ADD PUSH1 0x40 MSTORE DUP1 SWAP3 SWAP2 SWAP1 DUP2 DUP2 MSTORE PUSH1 0x20 ADD DUP3 DUP1 SLOAD PUSH2 0xEA SWAP1 PUSH2 0x5B7 JUMP JUMPDEST DUP1 ISZERO PUSH2 0x135 JUMPI DUP1 PUSH1 0x1F LT PUSH2 0x10C JUMPI PUSH2 0x100 DUP1 DUP4 SLOAD DIV MUL DUP4 MSTORE SWAP2 PUSH1 0x20 ADD SWAP2 PUSH2 0x135 JUMP JUMPDEST DUP3 ADD SWAP2 SWAP1 PUSH0 MSTORE PUSH1 0x20 PUSH0 KECCAK256 SWAP1 JUMPDEST DUP2 SLOAD DUP2 MSTORE SWAP1 PUSH1 0x1 ADD SWAP1 PUSH1 0x20 ADD DUP1 DUP4 GT PUSH2 0x118 JUMPI DUP3 SWAP1 SUB PUSH1 0x1F AND DUP3 ADD SWAP2 JUMPDEST POP POP POP POP POP SWAP1 DUP1 PUSH1 0x2 ADD DUP1 SLOAD PUSH2 0x14A SWAP1 PUSH2 0x5B7 JUMP JUMPDEST DUP1 PUSH1 0x1F ADD PUSH1 0x20 DUP1 SWAP2 DIV MUL PUSH1 0x20 ADD PUSH1 0x40 MLOAD SWAP1 DUP2 ADD PUSH1 0x40 MSTORE DUP1 SWAP3 SWAP2 SWAP1 DUP2 DUP2 MSTORE PUSH1 0x20 ADD DUP3 DUP1 SLOAD PUSH2 0x176 SWAP1 PUSH2 0x5B7 JUMP JUMPDEST DUP1 ISZERO PUSH2 0x1C1 JUMPI DUP1 PUSH1 0x1F LT PUSH2 0x198 JUMPI PUSH2 0x100 DUP1 DUP4 SLOAD DIV MUL DUP4 MSTORE SWAP2 PUSH1 0x20 ADD SWAP2 PUSH2 0x1C1 JUMP JUMPDEST DUP3 ADD SWAP2 SWAP1 PUSH0 MSTORE PUSH1 0x20 PUSH0 KECCAK256 SWAP1 JUMPDEST DUP2 SLOAD DUP2 MSTORE SWAP1 PUSH1 0x1 ADD SWAP1 PUSH1 0x20 ADD DUP1 DUP4 GT PUSH2 0x1A4 JUMPI DUP3 SWAP1 SUB PUSH1 0x1F AND DUP3 ADD SWAP2 JUMPDEST POP POP POP POP POP SWAP1 POP DUP4 JUMP JUMPDEST PUSH0 DUP1 PUSH0 DUP1 DUP7 DUP2 MSTORE PUSH1 0x20 ADD SWAP1 DUP2 MSTORE PUSH1 0x20 ADD PUSH0 KECCAK256 PUSH0 ADD SLOAD EQ PUSH2 0x220 JUMPI PUSH1 0x40 MLOAD PUSH32 0x8C379A000000000000000000000000000000000000000000000000000000000 DUP2 MSTORE PUSH1 0x4 ADD PUSH2 0x217 SWAP1 PUSH2 0x631 JUMP JUMPDEST PUSH1 0x40 MLOAD DUP1 SWAP2 SUB SWAP1 REVERT JUMPDEST PUSH1 0x40 MLOAD DUP1 PUSH1 0x60 ADD PUSH1 0x40 MSTORE DUP1 DUP6 DUP2 MSTORE PUSH1 0x20 ADD DUP5 DUP2 MSTORE PUSH1 0x20 ADD DUP4 DUP2 MSTORE POP PUSH0 DUP1 DUP7 DUP2 MSTORE PUSH1 0x20 ADD SWAP1 DUP2 MSTORE PUSH1 0x20 ADD PUSH0 KECCAK256 PUSH0 DUP3 ADD MLOAD DUP2 PUSH0 ADD SSTORE PUSH1 0x20 DUP3 ADD MLOAD DUP2 PUSH1 0x1 ADD SWAP1 DUP2 PUSH2 0x268 SWAP2 SWAP1 PUSH2 0x7EC JUMP JUMPDEST POP PUSH1 0x40 DUP3 ADD MLOAD DUP2 PUSH1 0x2 ADD SWAP1 DUP2 PUSH2 0x27E SWAP2 SWAP1 PUSH2 0x7EC JUMP JUMPDEST POP SWAP1 POP POP DUP4 SWAP1 POP SWAP4 SWAP3 POP POP POP JUMP JUMPDEST PUSH0 PUSH1 0x40 MLOAD SWAP1 POP SWAP1 JUMP JUMPDEST PUSH0 DUP1 REVERT JUMPDEST PUSH0 DUP1 REVERT JUMPDEST PUSH0 DUP2 SWAP1 POP SWAP2 SWAP1 POP JUMP JUMPDEST PUSH2 0x2AF DUP2 PUSH2 0x29D JUMP JUMPDEST DUP2 EQ PUSH2 0x2B9 JUMPI PUSH0 DUP1 REVERT JUMPDEST POP JUMP JUMPDEST PUSH0 DUP2 CALLDATALOAD SWAP1 POP PUSH2 0x2CA DUP2 PUSH2 0x2A6 JUMP JUMPDEST SWAP3 SWAP2 POP POP JUMP JUMPDEST PUSH0 PUSH1 0x20 DUP3 DUP5 SUB SLT ISZERO PUSH2 0x2E5 JUMPI PUSH2 0x2E4 PUSH2 0x295 JUMP JUMPDEST JUMPDEST PUSH0 PUSH2 0x2F2 DUP5 DUP3 DUP6 ADD PUSH2 0x2BC JUMP JUMPDEST SWAP2 POP POP SWAP3 SWAP2 POP POP JUMP JUMPDEST PUSH2 0x304 DUP2 PUSH2 0x29D JUMP JUMPDEST DUP3 MSTORE POP POP JUMP JUMPDEST PUSH0 DUP2 MLOAD SWAP1 POP SWAP2 SWAP1 POP JUMP JUMPDEST PUSH0 DUP3 DUP3 MSTORE PUSH1 0x20 DUP3 ADD SWAP1 POP SWAP3 SWAP2 POP POP JUMP JUMPDEST DUP3 DUP2 DUP4 MCOPY PUSH0 DUP4 DUP4 ADD MSTORE POP POP POP JUMP JUMPDEST PUSH0 PUSH1 0x1F NOT PUSH1 0x1F DUP4 ADD AND SWAP1 POP SWAP2 SWAP1 POP JUMP JUMPDEST PUSH0 PUSH2 0x34C DUP3 PUSH2 0x30A JUMP JUMPDEST PUSH2 0x356 DUP2 DUP6 PUSH2 0x314 JUMP JUMPDEST SWAP4 POP PUSH2 0x366 DUP2 DUP6 PUSH1 0x20 DUP7 ADD PUSH2 0x324 JUMP JUMPDEST PUSH2 0x36F DUP2 PUSH2 0x332 JUMP JUMPDEST DUP5 ADD SWAP2 POP POP SWAP3 SWAP2 POP POP JUMP JUMPDEST PUSH0 PUSH1 0x60 DUP3 ADD SWAP1 POP PUSH2 0x38D PUSH0 DUP4 ADD DUP7 PUSH2 0x2FB JUMP JUMPDEST DUP2 DUP2 SUB PUSH1 0x20 DUP4 ADD MSTORE PUSH2 0x39F DUP2 DUP6 PUSH2 0x342 JUMP JUMPDEST SWAP1 POP DUP2 DUP2 SUB PUSH1 0x40 DUP4 ADD MSTORE PUSH2 0x3B3 DUP2 DUP5 PUSH2 0x342 JUMP JUMPDEST SWAP1 POP SWAP5 SWAP4 POP POP POP POP JUMP JUMPDEST PUSH0 DUP1 REVERT JUMPDEST PUSH0 DUP1 REVERT JUMPDEST PUSH32 0x4E487B7100000000000000000000000000000000000000000000000000000000 PUSH0 MSTORE PUSH1 0x41 PUSH1 0x4 MSTORE PUSH1 0x24 PUSH0 REVERT JUMPDEST PUSH2 0x3FB DUP3 PUSH2 0x332 JUMP JUMPDEST DUP2 ADD DUP2 DUP2 LT PUSH8 0xFFFFFFFFFFFFFFFF DUP3 GT OR ISZERO PUSH2 0x41A JUMPI PUSH2 0x419 PUSH2 0x3C5 JUMP JUMPDEST JUMPDEST DUP1 PUSH1 0x40 MSTORE POP POP POP JUMP JUMPDEST PUSH0 PUSH2 0x42C PUSH2 0x28C JUMP JUMPDEST SWAP1 POP PUSH2 0x438 DUP3 DUP3 PUSH2 0x3F2 JUMP JUMPDEST SWAP2 SWAP1 POP JUMP JUMPDEST PUSH0 PUSH8 0xFFFFFFFFFFFFFFFF DUP3 GT ISZERO PUSH2 0x457 JUMPI PUSH2 0x456 PUSH2 0x3C5 JUMP JUMPDEST JUMPDEST PUSH2 0x460 DUP3 PUSH2 0x332 JUMP JUMPDEST SWAP1 POP PUSH1 0x20 DUP2 ADD SWAP1 POP SWAP2 SWAP1 POP JUMP JUMPDEST DUP3 DUP2 DUP4 CALLDATACOPY PUSH0 DUP4 DUP4 ADD MSTORE POP POP POP JUMP JUMPDEST PUSH0 PUSH2 0x48D PUSH2 0x488 DUP5 PUSH2 0x43D JUMP JUMPDEST PUSH2 0x423 JUMP JUMPDEST SWAP1 POP DUP3 DUP2 MSTORE PUSH1 0x20 DUP2 ADD DUP5 DUP5 DUP5 ADD GT ISZERO PUSH2 0x4A9 JUMPI PUSH2 0x4A8 PUSH2 0x3C1 JUMP JUMPDEST JUMPDEST PUSH2 0x4B4 DUP5 DUP3 DUP6 PUSH2 0x46D JUMP JUMPDEST POP SWAP4 SWAP3 POP POP POP JUMP JUMPDEST PUSH0 DUP3 PUSH1 0x1F DUP4 ADD SLT PUSH2 0x4D0 JUMPI PUSH2 0x4CF PUSH2 0x3BD JUMP JUMPDEST JUMPDEST DUP2 CALLDATALOAD PUSH2 0x4E0 DUP5 DUP3 PUSH1 0x20 DUP7 ADD PUSH2 0x47B JUMP JUMPDEST SWAP2 POP POP SWAP3 SWAP2 POP POP JUMP JUMPDEST PUSH0 DUP1 PUSH0 PUSH1 0x60 DUP5 DUP7 SUB SLT ISZERO PUSH2 0x500 JUMPI PUSH2 0x4FF PUSH2 0x295 JUMP JUMPDEST JUMPDEST PUSH0 PUSH2 0x50D DUP7 DUP3 DUP8 ADD PUSH2 0x2BC JUMP JUMPDEST SWAP4 POP POP PUSH1 0x20 DUP5 ADD CALLDATALOAD PUSH8 0xFFFFFFFFFFFFFFFF DUP2 GT ISZERO PUSH2 0x52E JUMPI PUSH2 0x52D PUSH2 0x299 JUMP JUMPDEST JUMPDEST PUSH2 0x53A DUP7 DUP3 DUP8 ADD PUSH2 0x4BC JUMP JUMPDEST SWAP3 POP POP PUSH1 0x40 DUP5 ADD CALLDATALOAD PUSH8 0xFFFFFFFFFFFFFFFF DUP2 GT ISZERO PUSH2 0x55B JUMPI PUSH2 0x55A PUSH2 0x299 JUMP JUMPDEST JUMPDEST PUSH2 0x567 DUP7 DUP3 DUP8 ADD PUSH2 0x4BC JUMP JUMPDEST SWAP2 POP POP SWAP3 POP SWAP3 POP SWAP3 JUMP JUMPDEST PUSH0 PUSH1 0x20 DUP3 ADD SWAP1 POP PUSH2 0x584 PUSH0 DUP4 ADD DUP5 PUSH2 0x2FB JUMP JUMPDEST SWAP3 SWAP2 POP POP JUMP JUMPDEST PUSH32 0x4E487B7100000000000000000000000000000000000000000000000000000000 PUSH0 MSTORE PUSH1 0x22 PUSH1 0x4 MSTORE PUSH1 0x24 PUSH0 REVERT JUMPDEST PUSH0 PUSH1 0x2 DUP3 DIV SWAP1 POP PUSH1 0x1 DUP3 AND DUP1 PUSH2 0x5CE JUMPI PUSH1 0x7F DUP3 AND SWAP2 POP JUMPDEST PUSH1 0x20 DUP3 LT DUP2 SUB PUSH2 0x5E1 JUMPI PUSH2 0x5E0 PUSH2 0x58A JUMP JUMPDEST JUMPDEST POP SWAP2 SWAP1 POP JUMP JUMPDEST PUSH32 0x456D706C6F79656520616C726561647920657869737473000000000000000000 PUSH0 DUP3 ADD MSTORE POP JUMP JUMPDEST PUSH0 PUSH2 0x61B PUSH1 0x17 DUP4 PUSH2 0x314 JUMP JUMPDEST SWAP2 POP PUSH2 0x626 DUP3 PUSH2 0x5E7 JUMP JUMPDEST PUSH1 0x20 DUP3 ADD SWAP1 POP SWAP2 SWAP1 POP JUMP JUMPDEST PUSH0 PUSH1 0x20 DUP3 ADD SWAP1 POP DUP2 DUP2 SUB PUSH0 DUP4 ADD MSTORE PUSH2 0x648 DUP2 PUSH2 0x60F JUMP JUMPDEST SWAP1 POP SWAP2 SWAP1 POP JUMP JUMPDEST PUSH0 DUP2 SWAP1 POP DUP2 PUSH0 MSTORE PUSH1 0x20 PUSH0 KECCAK256 SWAP1 POP SWAP2 SWAP1 POP JUMP JUMPDEST PUSH0 PUSH1 0x20 PUSH1 0x1F DUP4 ADD DIV SWAP1 POP SWAP2 SWAP1 POP JUMP JUMPDEST PUSH0 DUP3 DUP3 SHL SWAP1 POP SWAP3 SWAP2 POP POP JUMP JUMPDEST PUSH0 PUSH1 0x8 DUP4 MUL PUSH2 0x6AB PUSH32 0xFFFFFFFFFFFFFFFFFFFFFFFFFFFFFFFFFFFFFFFFFFFFFFFFFFFFFFFFFFFFFFFF DUP3 PUSH2 0x670 JUMP JUMPDEST PUSH2 0x6B5 DUP7 DUP4 PUSH2 0x670 JUMP JUMPDEST SWAP6 POP DUP1 NOT DUP5 AND SWAP4 POP DUP1 DUP7 AND DUP5 OR SWAP3 POP POP POP SWAP4 SWAP3 POP POP POP JUMP JUMPDEST PUSH0 DUP2 SWAP1 POP SWAP2 SWAP1 POP JUMP JUMPDEST PUSH0 PUSH2 0x6F0 PUSH2 0x6EB PUSH2 0x6E6 DUP5 PUSH2 0x29D JUMP JUMPDEST PUSH2 0x6CD JUMP JUMPDEST PUSH2 0x29D JUMP JUMPDEST SWAP1 POP SWAP2 SWAP1 POP JUMP JUMPDEST PUSH0 DUP2 SWAP1 POP SWAP2 SWAP1 POP JUMP JUMPDEST PUSH2 0x709 DUP4 PUSH2 0x6D6 JUMP JUMPDEST PUSH2 0x71D PUSH2 0x715 DUP3 PUSH2 0x6F7 JUMP JUMPDEST DUP5 DUP5 SLOAD PUSH2 0x67C JUMP JUMPDEST DUP3 SSTORE POP POP POP POP JUMP JUMPDEST PUSH0 SWAP1 JUMP JUMPDEST PUSH2 0x731 PUSH2 0x725 JUMP JUMPDEST PUSH2 0x73C DUP2 DUP5 DUP5 PUSH2 0x700 JUMP JUMPDEST POP POP POP JUMP JUMPDEST JUMPDEST DUP2 DUP2 LT ISZERO PUSH2 0x75F JUMPI PUSH2 0x754 PUSH0 DUP3 PUSH2 0x729 JUMP JUMPDEST PUSH1 0x1 DUP2 ADD SWAP1 POP PUSH2 0x742 JUMP JUMPDEST POP POP JUMP JUMPDEST PUSH1 0x1F DUP3 GT ISZERO PUSH2 0x7A4 JUMPI PUSH2 0x775 DUP2 PUSH2 0x64F JUMP JUMPDEST PUSH2 0x77E DUP5 PUSH2 0x661 JUMP JUMPDEST DUP2 ADD PUSH1 0x20 DUP6 LT ISZERO PUSH2 0x78D JUMPI DUP2 SWAP1 POP JUMPDEST PUSH2 0x7A1 PUSH2 0x799 DUP6 PUSH2 0x661 JUMP JUMPDEST DUP4 ADD DUP3 PUSH2 0x741 JUMP JUMPDEST POP POP JUMPDEST POP POP POP JUMP JUMPDEST PUSH0 DUP3 DUP3 SHR SWAP1 POP SWAP3 SWAP2 POP POP JUMP JUMPDEST PUSH0 PUSH2 0x7C4 PUSH0 NOT DUP5 PUSH1 0x8 MUL PUSH2 0x7A9 JUMP JUMPDEST NOT DUP1 DUP4 AND SWAP2 POP POP SWAP3 SWAP2 POP POP JUMP JUMPDEST PUSH0 PUSH2 0x7DC DUP4 DUP4 PUSH2 0x7B5 JUMP JUMPDEST SWAP2 POP DUP3 PUSH1 0x2 MUL DUP3 OR SWAP1 POP SWAP3 SWAP2 POP POP JUMP JUMPDEST PUSH2 0x7F5 DUP3 PUSH2 0x30A JUMP JUMPDEST PUSH8 0xFFFFFFFFFFFFFFFF DUP2 GT ISZERO PUSH2 0x80E JUMPI PUSH2 0x80D PUSH2 0x3C5 JUMP JUMPDEST JUMPDEST PUSH2 0x818 DUP3 SLOAD PUSH2 0x5B7 JUMP JUMPDEST PUSH2 0x823 DUP3 DUP3 DUP6 PUSH2 0x763 JUMP JUMPDEST PUSH0 PUSH1 0x20 SWAP1 POP PUSH1 0x1F DUP4 GT PUSH1 0x1 DUP2 EQ PUSH2 0x854 JUMPI PUSH0 DUP5 ISZERO PUSH2 0x842 JUMPI DUP3 DUP8 ADD MLOAD SWAP1 POP JUMPDEST PUSH2 0x84C DUP6 DUP3 PUSH2 0x7D1 JUMP JUMPDEST DUP7 SSTORE POP PUSH2 0x8B3 JUMP JUMPDEST PUSH1 0x1F NOT DUP5 AND PUSH2 0x862 DUP7 PUSH2 0x64F JUMP JUMPDEST PUSH0 JUMPDEST DUP3 DUP2 LT ISZERO PUSH2 0x889 JUMPI DUP5 DUP10 ADD MLOAD DUP3 SSTORE PUSH1 0x1 DUP3 ADD SWAP2 POP PUSH1 0x20 DUP6 ADD SWAP5 POP PUSH1 0x20 DUP2 ADD SWAP1 POP PUSH2 0x864 JUMP JUMPDEST DUP7 DUP4 LT ISZERO PUSH2 0x8A6 JUMPI DUP5 DUP10 ADD MLOAD PUSH2 0x8A2 PUSH1 0x1F DUP10 AND DUP3 PUSH2 0x7B5 JUMP JUMPDEST DUP4 SSTORE POP JUMPDEST PUSH1 0x1 PUSH1 0x2 DUP9 MUL ADD DUP9 SSTORE POP POP POP JUMPDEST POP POP POP POP POP POP JUMP INVALID LOG2 PUSH5 0x6970667358 0x22 SLT KECCAK256 0xEF CALLDATALOAD SWAP8 0xCD 0xE PUSH32 0xCEDC5EC03DEE5BD7EA1465FC440D62B6141772B9698D873FBE4964736F6C6343 STOP ADDMOD BYTE STOP CALLER "
				},
				"gasEstimates": {
					"creation": {
						"codeDepositCost": "457800",
						"executionCost": "491",
						"totalCost": "458291"
					},
					"external": {
						"addEmployees(uint256,string,string)": "infinite",
						"empData(uint256)": "infinite"
					}
				},
				"methodIdentifiers": {
					"addEmployees(uint256,string,string)": "a7bd8ac0",
					"empData(uint256)": "272cc76a"
				}
			},
			"storageLayout": {
				"storage": [
					{
						"astId": 13,
						"contract": "contracts/InvoiceData.sol:InvoiceData",
						"label": "empData",
						"offset": 0,
						"slot": "0",
						"type": "t_mapping(t_uint256,t_struct(Employee)8_storage)"
					}
				],
				"types": {
					"t_mapping(t_uint256,t_struct(Employee)8_storage)": {
						"encoding": "mapping",
						"key": "t_uint256",
						"label": "mapping(uint256 => struct InvoiceData.Employee)",
						"numberOfBytes": "32",
						"value": "t_struct(Employee)8_storage"
					},
					"t_string_storage": {
						"encoding": "bytes",
						"label": "string",
						"numberOfBytes": "32"
					},
					"t_struct(Employee)8_storage": {
						"encoding": "inplace",
						"label": "struct InvoiceData.Employee",
						"members": [
							{
								"astId": 3,
								"contract": "contracts/InvoiceData.sol:InvoiceData",
								"label": "empNumber",
								"offset": 0,
								"slot": "0",
								"type": "t_uint256"
							},
							{
								"astId": 5,
								"contract": "contracts/InvoiceData.sol:InvoiceData",
								"label": "name",
								"offset": 0,
								"slot": "1",
								"type": "t_string_storage"
							},
							{
								"astId": 7,
								"contract": "contracts/InvoiceData.sol:InvoiceData",
								"label": "accountingInfo",
								"offset": 0,
								"slot": "2",
								"type": "t_string_storage"
							}
						],
						"numberOfBytes": "96"
					},
					"t_uint256": {
						"encoding": "inplace",
						"label": "uint256",
						"numberOfBytes": "32"
					}
				}
			},
			"userdoc": {
				"kind": "user",
				"methods": {},
				"version": 1
			}
		}
	}
}