{
	"contracts/EmpData.sol": {
		"EmpData": {
			"abi": [
				{
					"inputs": [
						{
							"internalType": "uint256",
							"name": "_empNumber",
							"type": "uint256"
						},
						{
							"internalType": "string",
							"name": "_name",
							"type": "string"
						},
						{
							"internalType": "string",
							"name": "_accountingInfo",
							"type": "string"
						},
						{
							"internalType": "uint256",
							"name": "_timestamp",
							"type": "uint256"
						}
					],
					"name": "addEmployee",
					"outputs": [
						{
							"internalType": "uint256",
							"name": "",
							"type": "uint256"
						}
					],
					"stateMutability": "nonpayable",
					"type": "function"
				},
				{
					"inputs": [
						{
							"internalType": "uint256",
							"name": "",
							"type": "uint256"
						}
					],
					"name": "empData",
					"outputs": [
						{
							"internalType": "uint256",
							"name": "empNumber",
							"type": "uint256"
						},
						{
							"internalType": "string",
							"name": "name",
							"type": "string"
						},
						{
							"internalType": "string",
							"name": "accountingInfo",
							"type": "string"
						},
						{
							"internalType": "uint256",
							"name": "timestamp",
							"type": "uint256"
						}
					],
					"stateMutability": "view",
					"type": "function"
				},
				{
					"inputs": [
						{
							"internalType": "uint256",
							"name": "_empNumber",
							"type": "uint256"
						}
					],
					"name": "getEmployeeInfo",
					"outputs": [
						{
							"internalType": "uint256",
							"name": "",
							"type": "uint256"
						},
						{
							"internalType": "string",
							"name": "",
							"type": "string"
						},
						{
							"internalType": "string",
							"name": "",
							"type": "string"
						},
						{
							"internalType": "uint256",
							"name": "",
							"type": "uint256"
						}
					],
					"stateMutability": "view",
					"type": "function"
				}
			],
			"devdoc": {
				"kind": "dev",
				"methods": {},
				"version": 1
			},
			"evm": {
				"assembly": "    /* \"contracts/EmpData.sol\":67:2101  contract EmpData {... */\n  mstore(0x40, 0x80)\n  callvalue\n  dup1\n  iszero\n  tag_1\n  jumpi\n  0x00\n  dup1\n  revert\ntag_1:\n  pop\n  dataSize(sub_0)\n  dup1\n  dataOffset(sub_0)\n  0x00\n  codecopy\n  0x00\n  return\nstop\n\nsub_0: assembly {\n        /* \"contracts/EmpData.sol\":67:2101  contract EmpData {... */\n      mstore(0x40, 0x80)\n      callvalue\n      dup1\n      iszero\n      tag_1\n      jumpi\n      0x00\n      dup1\n      revert\n    tag_1:\n      pop\n      jumpi(tag_2, lt(calldatasize, 0x04))\n      shr(0xe0, calldataload(0x00))\n      dup1\n      0x272cc76a\n      eq\n      tag_3\n      jumpi\n      dup1\n      0xd44f376e\n      eq\n      tag_4\n      jumpi\n      dup1\n      0xf6757cff\n      eq\n      tag_5\n      jumpi\n    tag_2:\n      0x00\n      dup1\n      revert\n        /* \"contracts/EmpData.sol\":233:276  mapping(uint256 => Employee) public empData */\n    tag_3:\n      tag_6\n      0x04\n      dup1\n      calldatasize\n      sub\n      dup2\n      add\n      swap1\n      tag_7\n      swap2\n      swap1\n      tag_8\n      jump\t// in\n    tag_7:\n      tag_9\n      jump\t// in\n    tag_6:\n      mload(0x40)\n      tag_10\n      swap5\n      swap4\n      swap3\n      swap2\n      swap1\n      tag_11\n      jump\t// in\n    tag_10:\n      mload(0x40)\n      dup1\n      swap2\n      sub\n      swap1\n      return\n        /* \"contracts/EmpData.sol\":285:854  function addEmployee(... */\n    tag_4:\n      tag_12\n      0x04\n      dup1\n      calldatasize\n      sub\n      dup2\n      add\n      swap1\n      tag_13\n      swap2\n      swap1\n      tag_14\n      jump\t// in\n    tag_13:\n      tag_15\n      jump\t// in\n    tag_12:\n      mload(0x40)\n      tag_16\n      swap2\n      swap1\n      tag_17\n      jump\t// in\n    tag_16:\n      mload(0x40)\n      dup1\n      swap2\n      sub\n      swap1\n      return\n        /* \"contracts/EmpData.sol\":862:1297  function getEmployeeInfo(uint256 _empNumber)... */\n    tag_5:\n      tag_18\n      0x04\n      dup1\n      calldatasize\n      sub\n      dup2\n      add\n      swap1\n      tag_19\n      swap2\n      swap1\n      tag_8\n      jump\t// in\n    tag_19:\n      tag_20\n      jump\t// in\n    tag_18:\n      mload(0x40)\n      tag_21\n      swap5\n      swap4\n      swap3\n      swap2\n      swap1\n      tag_11\n      jump\t// in\n    tag_21:\n      mload(0x40)\n      dup1\n      swap2\n      sub\n      swap1\n      return\n        /* \"contracts/EmpData.sol\":233:276  mapping(uint256 => Employee) public empData */\n    tag_9:\n      mstore(0x20, 0x00)\n      dup1\n      0x00\n      mstore\n      keccak256(0x00, 0x40)\n      0x00\n      swap2\n      pop\n      swap1\n      pop\n      dup1\n      0x00\n      add\n      sload\n      swap1\n      dup1\n      0x01\n      add\n      dup1\n      sload\n      tag_22\n      swap1\n      tag_23\n      jump\t// in\n    tag_22:\n      dup1\n      0x1f\n      add\n      0x20\n      dup1\n      swap2\n      div\n      mul\n      0x20\n      add\n      mload(0x40)\n      swap1\n      dup2\n      add\n      0x40\n      mstore\n      dup1\n      swap3\n      swap2\n      swap1\n      dup2\n      dup2\n      mstore\n      0x20\n      add\n      dup3\n      dup1\n      sload\n      tag_24\n      swap1\n      tag_23\n      jump\t// in\n    tag_24:\n      dup1\n      iszero\n      tag_25\n      jumpi\n      dup1\n      0x1f\n      lt\n      tag_26\n      jumpi\n      0x0100\n      dup1\n      dup4\n      sload\n      div\n      mul\n      dup4\n      mstore\n      swap2\n      0x20\n      add\n      swap2\n      jump(tag_25)\n    tag_26:\n      dup3\n      add\n      swap2\n      swap1\n      0x00\n      mstore\n      keccak256(0x00, 0x20)\n      swap1\n    tag_27:\n      dup2\n      sload\n      dup2\n      mstore\n      swap1\n      0x01\n      add\n      swap1\n      0x20\n      add\n      dup1\n      dup4\n      gt\n      tag_27\n      jumpi\n      dup3\n      swap1\n      sub\n      0x1f\n      and\n      dup3\n      add\n      swap2\n    tag_25:\n      pop\n      pop\n      pop\n      pop\n      pop\n      swap1\n      dup1\n      0x02\n      add\n      dup1\n      sload\n      tag_28\n      swap1\n      tag_23\n      jump\t// in\n    tag_28:\n      dup1\n      0x1f\n      add\n      0x20\n      dup1\n      swap2\n      div\n      mul\n      0x20\n      add\n      mload(0x40)\n      swap1\n      dup2\n      add\n      0x40\n      mstore\n      dup1\n      swap3\n      swap2\n      swap1\n      dup2\n      dup2\n      mstore\n      0x20\n      add\n      dup3\n      dup1\n      sload\n      tag_29\n      swap1\n      tag_23\n      jump\t// in\n    tag_29:\n      dup1\n      iszero\n      tag_30\n      jumpi\n      dup1\n      0x1f\n      lt\n      tag_31\n      jumpi\n      0x0100\n      dup1\n      dup4\n      sload\n      div\n      mul\n      dup4\n      mstore\n      swap2\n      0x20\n      add\n      swap2\n      jump(tag_30)\n    tag_31:\n      dup3\n      add\n      swap2\n      swap1\n      0x00\n      mstore\n      keccak256(0x00, 0x20)\n      swap1\n    tag_32:\n      dup2\n      sload\n      dup2\n      mstore\n      swap1\n      0x01\n      add\n      swap1\n      0x20\n      add\n      dup1\n      dup4\n      gt\n      tag_32\n      jumpi\n      dup3\n      swap1\n      sub\n      0x1f\n      and\n      dup3\n      add\n      swap2\n    tag_30:\n      pop\n      pop\n      pop\n      pop\n      pop\n      swap1\n      dup1\n      0x03\n      add\n      sload\n      swap1\n      pop\n      dup5\n      jump\t// out\n        /* \"contracts/EmpData.sol\":285:854  function addEmployee(... */\n    tag_15:\n        /* \"contracts/EmpData.sol\":457:464  uint256 */\n      0x00\n        /* \"contracts/EmpData.sol\":584:585  0 */\n      dup1\n        /* \"contracts/EmpData.sol\":551:558  empData */\n      0x00\n        /* \"contracts/EmpData.sol\":551:570  empData[_empNumber] */\n      dup1\n        /* \"contracts/EmpData.sol\":559:569  _empNumber */\n      dup8\n        /* \"contracts/EmpData.sol\":551:570  empData[_empNumber] */\n      dup2\n      mstore\n      0x20\n      add\n      swap1\n      dup2\n      mstore\n      0x20\n      add\n      0x00\n      keccak256\n        /* \"contracts/EmpData.sol\":551:580  empData[_empNumber].empNumber */\n      0x00\n      add\n      sload\n        /* \"contracts/EmpData.sol\":551:585  empData[_empNumber].empNumber == 0 */\n      eq\n        /* \"contracts/EmpData.sol\":543:613  require(empData[_empNumber].empNumber == 0, \"Employee already exists\") */\n      tag_34\n      jumpi\n      mload(0x40)\n      0x08c379a000000000000000000000000000000000000000000000000000000000\n      dup2\n      mstore\n      0x04\n      add\n      tag_35\n      swap1\n      tag_36\n      jump\t// in\n    tag_35:\n      mload(0x40)\n      dup1\n      swap2\n      sub\n      swap1\n      revert\n    tag_34:\n        /* \"contracts/EmpData.sol\":697:816  Employee(... */\n      mload(0x40)\n      dup1\n      0x80\n      add\n      0x40\n      mstore\n      dup1\n        /* \"contracts/EmpData.sol\":720:730  _empNumber */\n      dup7\n        /* \"contracts/EmpData.sol\":697:816  Employee(... */\n      dup2\n      mstore\n      0x20\n      add\n        /* \"contracts/EmpData.sol\":745:750  _name */\n      dup6\n        /* \"contracts/EmpData.sol\":697:816  Employee(... */\n      dup2\n      mstore\n      0x20\n      add\n        /* \"contracts/EmpData.sol\":765:780  _accountingInfo */\n      dup5\n        /* \"contracts/EmpData.sol\":697:816  Employee(... */\n      dup2\n      mstore\n      0x20\n      add\n        /* \"contracts/EmpData.sol\":795:805  _timestamp */\n      dup4\n        /* \"contracts/EmpData.sol\":697:816  Employee(... */\n      dup2\n      mstore\n      pop\n        /* \"contracts/EmpData.sol\":675:682  empData */\n      0x00\n        /* \"contracts/EmpData.sol\":675:694  empData[_empNumber] */\n      dup1\n        /* \"contracts/EmpData.sol\":683:693  _empNumber */\n      dup8\n        /* \"contracts/EmpData.sol\":675:694  empData[_empNumber] */\n      dup2\n      mstore\n      0x20\n      add\n      swap1\n      dup2\n      mstore\n      0x20\n      add\n      0x00\n      keccak256\n        /* \"contracts/EmpData.sol\":675:816  empData[_empNumber] = Employee(... */\n      0x00\n      dup3\n      add\n      mload\n      dup2\n      0x00\n      add\n      sstore\n      0x20\n      dup3\n      add\n      mload\n      dup2\n      0x01\n      add\n      swap1\n      dup2\n      tag_37\n      swap2\n      swap1\n      tag_38\n      jump\t// in\n    tag_37:\n      pop\n      0x40\n      dup3\n      add\n      mload\n      dup2\n      0x02\n      add\n      swap1\n      dup2\n      tag_39\n      swap2\n      swap1\n      tag_38\n      jump\t// in\n    tag_39:\n      pop\n      0x60\n      dup3\n      add\n      mload\n      dup2\n      0x03\n      add\n      sstore\n      swap1\n      pop\n      pop\n        /* \"contracts/EmpData.sol\":836:846  _empNumber */\n      dup5\n        /* \"contracts/EmpData.sol\":829:846  return _empNumber */\n      swap1\n      pop\n        /* \"contracts/EmpData.sol\":285:854  function addEmployee(... */\n      swap5\n      swap4\n      pop\n      pop\n      pop\n      pop\n      jump\t// out\n        /* \"contracts/EmpData.sol\":862:1297  function getEmployeeInfo(uint256 _empNumber)... */\n    tag_20:\n        /* \"contracts/EmpData.sol\":969:976  uint256 */\n      0x00\n        /* \"contracts/EmpData.sol\":991:1004  string memory */\n      0x60\n        /* \"contracts/EmpData.sol\":1019:1032  string memory */\n      dup1\n        /* \"contracts/EmpData.sol\":1047:1054  uint256 */\n      0x00\n        /* \"contracts/EmpData.sol\":1082:1106  Employee memory employee */\n      dup1\n        /* \"contracts/EmpData.sol\":1109:1116  empData */\n      0x00\n        /* \"contracts/EmpData.sol\":1109:1128  empData[_empNumber] */\n      dup1\n        /* \"contracts/EmpData.sol\":1117:1127  _empNumber */\n      dup8\n        /* \"contracts/EmpData.sol\":1109:1128  empData[_empNumber] */\n      dup2\n      mstore\n      0x20\n      add\n      swap1\n      dup2\n      mstore\n      0x20\n      add\n      0x00\n      keccak256\n        /* \"contracts/EmpData.sol\":1082:1128  Employee memory employee = empData[_empNumber] */\n      mload(0x40)\n      dup1\n      0x80\n      add\n      0x40\n      mstore\n      swap1\n      dup2\n      0x00\n      dup3\n      add\n      sload\n      dup2\n      mstore\n      0x20\n      add\n      0x01\n      dup3\n      add\n      dup1\n      sload\n      tag_41\n      swap1\n      tag_23\n      jump\t// in\n    tag_41:\n      dup1\n      0x1f\n      add\n      0x20\n      dup1\n      swap2\n      div\n      mul\n      0x20\n      add\n      mload(0x40)\n      swap1\n      dup2\n      add\n      0x40\n      mstore\n      dup1\n      swap3\n      swap2\n      swap1\n      dup2\n      dup2\n      mstore\n      0x20\n      add\n      dup3\n      dup1\n      sload\n      tag_42\n      swap1\n      tag_23\n      jump\t// in\n    tag_42:\n      dup1\n      iszero\n      tag_43\n      jumpi\n      dup1\n      0x1f\n      lt\n      tag_44\n      jumpi\n      0x0100\n      dup1\n      dup4\n      sload\n      div\n      mul\n      dup4\n      mstore\n      swap2\n      0x20\n      add\n      swap2\n      jump(tag_43)\n    tag_44:\n      dup3\n      add\n      swap2\n      swap1\n      0x00\n      mstore\n      keccak256(0x00, 0x20)\n      swap1\n    tag_45:\n      dup2\n      sload\n      dup2\n      mstore\n      swap1\n      0x01\n      add\n      swap1\n      0x20\n      add\n      dup1\n      dup4\n      gt\n      tag_45\n      jumpi\n      dup3\n      swap1\n      sub\n      0x1f\n      and\n      dup3\n      add\n      swap2\n    tag_43:\n      pop\n      pop\n      pop\n      pop\n      pop\n      dup2\n      mstore\n      0x20\n      add\n      0x02\n      dup3\n      add\n      dup1\n      sload\n      tag_46\n      swap1\n      tag_23\n      jump\t// in\n    tag_46:\n      dup1\n      0x1f\n      add\n      0x20\n      dup1\n      swap2\n      div\n      mul\n      0x20\n      add\n      mload(0x40)\n      swap1\n      dup2\n      add\n      0x40\n      mstore\n      dup1\n      swap3\n      swap2\n      swap1\n      dup2\n      dup2\n      mstore\n      0x20\n      add\n      dup3\n      dup1\n      sload\n      tag_47\n      swap1\n      tag_23\n      jump\t// in\n    tag_47:\n      dup1\n      iszero\n      tag_48\n      jumpi\n      dup1\n      0x1f\n      lt\n      tag_49\n      jumpi\n      0x0100\n      dup1\n      dup4\n      sload\n      div\n      mul\n      dup4\n      mstore\n      swap2\n      0x20\n      add\n      swap2\n      jump(tag_48)\n    tag_49:\n      dup3\n      add\n      swap2\n      swap1\n      0x00\n      mstore\n      keccak256(0x00, 0x20)\n      swap1\n    tag_50:\n      dup2\n      sload\n      dup2\n      mstore\n      swap1\n      0x01\n      add\n      swap1\n      0x20\n      add\n      dup1\n      dup4\n      gt\n      tag_50\n      jumpi\n      dup3\n      swap1\n      sub\n      0x1f\n      and\n      dup3\n      add\n      swap2\n    tag_48:\n      pop\n      pop\n      pop\n      pop\n      pop\n      dup2\n      mstore\n      0x20\n      add\n      0x03\n      dup3\n      add\n      sload\n      dup2\n      mstore\n      pop\n      pop\n      swap1\n      pop\n        /* \"contracts/EmpData.sol\":1161:1169  employee */\n      dup1\n        /* \"contracts/EmpData.sol\":1161:1179  employee.empNumber */\n      0x00\n      add\n      mload\n        /* \"contracts/EmpData.sol\":1194:1202  employee */\n      dup2\n        /* \"contracts/EmpData.sol\":1194:1207  employee.name */\n      0x20\n      add\n      mload\n        /* \"contracts/EmpData.sol\":1222:1230  employee */\n      dup3\n        /* \"contracts/EmpData.sol\":1222:1245  employee.accountingInfo */\n      0x40\n      add\n      mload\n        /* \"contracts/EmpData.sol\":1260:1268  employee */\n      dup4\n        /* \"contracts/EmpData.sol\":1260:1278  employee.timestamp */\n      0x60\n      add\n      mload\n        /* \"contracts/EmpData.sol\":1139:1289  return (... */\n      swap5\n      pop\n      swap5\n      pop\n      swap5\n      pop\n      swap5\n      pop\n      pop\n        /* \"contracts/EmpData.sol\":862:1297  function getEmployeeInfo(uint256 _empNumber)... */\n      swap2\n      swap4\n      pop\n      swap2\n      swap4\n      jump\t// out\n        /* \"#utility.yul\":7:82   */\n    tag_51:\n        /* \"#utility.yul\":40:46   */\n      0x00\n        /* \"#utility.yul\":73:75   */\n      0x40\n        /* \"#utility.yul\":67:76   */\n      mload\n        /* \"#utility.yul\":57:76   */\n      swap1\n      pop\n        /* \"#utility.yul\":7:82   */\n      swap1\n      jump\t// out\n        /* \"#utility.yul\":88:205   */\n    tag_52:\n        /* \"#utility.yul\":197:198   */\n      0x00\n        /* \"#utility.yul\":194:195   */\n      dup1\n        /* \"#utility.yul\":187:199   */\n      revert\n        /* \"#utility.yul\":211:328   */\n    tag_53:\n        /* \"#utility.yul\":320:321   */\n      0x00\n        /* \"#utility.yul\":317:318   */\n      dup1\n        /* \"#utility.yul\":310:322   */\n      revert\n        /* \"#utility.yul\":334:411   */\n    tag_54:\n        /* \"#utility.yul\":371:378   */\n      0x00\n        /* \"#utility.yul\":400:405   */\n      dup2\n        /* \"#utility.yul\":389:405   */\n      swap1\n      pop\n        /* \"#utility.yul\":334:411   */\n      swap2\n      swap1\n      pop\n      jump\t// out\n        /* \"#utility.yul\":417:539   */\n    tag_55:\n        /* \"#utility.yul\":490:514   */\n      tag_96\n        /* \"#utility.yul\":508:513   */\n      dup2\n        /* \"#utility.yul\":490:514   */\n      tag_54\n      jump\t// in\n    tag_96:\n        /* \"#utility.yul\":483:488   */\n      dup2\n        /* \"#utility.yul\":480:515   */\n      eq\n        /* \"#utility.yul\":470:533   */\n      tag_97\n      jumpi\n        /* \"#utility.yul\":529:530   */\n      0x00\n        /* \"#utility.yul\":526:527   */\n      dup1\n        /* \"#utility.yul\":519:531   */\n      revert\n        /* \"#utility.yul\":470:533   */\n    tag_97:\n        /* \"#utility.yul\":417:539   */\n      pop\n      jump\t// out\n        /* \"#utility.yul\":545:684   */\n    tag_56:\n        /* \"#utility.yul\":591:596   */\n      0x00\n        /* \"#utility.yul\":629:635   */\n      dup2\n        /* \"#utility.yul\":616:636   */\n      calldataload\n        /* \"#utility.yul\":607:636   */\n      swap1\n      pop\n        /* \"#utility.yul\":645:678   */\n      tag_99\n        /* \"#utility.yul\":672:677   */\n      dup2\n        /* \"#utility.yul\":645:678   */\n      tag_55\n      jump\t// in\n    tag_99:\n        /* \"#utility.yul\":545:684   */\n      swap3\n      swap2\n      pop\n      pop\n      jump\t// out\n        /* \"#utility.yul\":690:1019   */\n    tag_8:\n        /* \"#utility.yul\":749:755   */\n      0x00\n        /* \"#utility.yul\":798:800   */\n      0x20\n        /* \"#utility.yul\":786:795   */\n      dup3\n        /* \"#utility.yul\":777:784   */\n      dup5\n        /* \"#utility.yul\":773:796   */\n      sub\n        /* \"#utility.yul\":769:801   */\n      slt\n        /* \"#utility.yul\":766:885   */\n      iszero\n      tag_101\n      jumpi\n        /* \"#utility.yul\":804:883   */\n      tag_102\n      tag_52\n      jump\t// in\n    tag_102:\n        /* \"#utility.yul\":766:885   */\n    tag_101:\n        /* \"#utility.yul\":924:925   */\n      0x00\n        /* \"#utility.yul\":949:1002   */\n      tag_103\n        /* \"#utility.yul\":994:1001   */\n      dup5\n        /* \"#utility.yul\":985:991   */\n      dup3\n        /* \"#utility.yul\":974:983   */\n      dup6\n        /* \"#utility.yul\":970:992   */\n      add\n        /* \"#utility.yul\":949:1002   */\n      tag_56\n      jump\t// in\n    tag_103:\n        /* \"#utility.yul\":939:1002   */\n      swap2\n      pop\n        /* \"#utility.yul\":895:1012   */\n      pop\n        /* \"#utility.yul\":690:1019   */\n      swap3\n      swap2\n      pop\n      pop\n      jump\t// out\n        /* \"#utility.yul\":1025:1143   */\n    tag_57:\n        /* \"#utility.yul\":1112:1136   */\n      tag_105\n        /* \"#utility.yul\":1130:1135   */\n      dup2\n        /* \"#utility.yul\":1112:1136   */\n      tag_54\n      jump\t// in\n    tag_105:\n        /* \"#utility.yul\":1107:1110   */\n      dup3\n        /* \"#utility.yul\":1100:1137   */\n      mstore\n        /* \"#utility.yul\":1025:1143   */\n      pop\n      pop\n      jump\t// out\n        /* \"#utility.yul\":1149:1248   */\n    tag_58:\n        /* \"#utility.yul\":1201:1207   */\n      0x00\n        /* \"#utility.yul\":1235:1240   */\n      dup2\n        /* \"#utility.yul\":1229:1241   */\n      mload\n        /* \"#utility.yul\":1219:1241   */\n      swap1\n      pop\n        /* \"#utility.yul\":1149:1248   */\n      swap2\n      swap1\n      pop\n      jump\t// out\n        /* \"#utility.yul\":1254:1423   */\n    tag_59:\n        /* \"#utility.yul\":1338:1349   */\n      0x00\n        /* \"#utility.yul\":1372:1378   */\n      dup3\n        /* \"#utility.yul\":1367:1370   */\n      dup3\n        /* \"#utility.yul\":1360:1379   */\n      mstore\n        /* \"#utility.yul\":1412:1416   */\n      0x20\n        /* \"#utility.yul\":1407:1410   */\n      dup3\n        /* \"#utility.yul\":1403:1417   */\n      add\n        /* \"#utility.yul\":1388:1417   */\n      swap1\n      pop\n        /* \"#utility.yul\":1254:1423   */\n      swap3\n      swap2\n      pop\n      pop\n      jump\t// out\n        /* \"#utility.yul\":1429:1568   */\n    tag_60:\n        /* \"#utility.yul\":1518:1524   */\n      dup3\n        /* \"#utility.yul\":1513:1516   */\n      dup2\n        /* \"#utility.yul\":1508:1511   */\n      dup4\n        /* \"#utility.yul\":1502:1525   */\n      mcopy\n        /* \"#utility.yul\":1559:1560   */\n      0x00\n        /* \"#utility.yul\":1550:1556   */\n      dup4\n        /* \"#utility.yul\":1545:1548   */\n      dup4\n        /* \"#utility.yul\":1541:1557   */\n      add\n        /* \"#utility.yul\":1534:1561   */\n      mstore\n        /* \"#utility.yul\":1429:1568   */\n      pop\n      pop\n      pop\n      jump\t// out\n        /* \"#utility.yul\":1574:1676   */\n    tag_61:\n        /* \"#utility.yul\":1615:1621   */\n      0x00\n        /* \"#utility.yul\":1666:1668   */\n      0x1f\n        /* \"#utility.yul\":1662:1669   */\n      not\n        /* \"#utility.yul\":1657:1659   */\n      0x1f\n        /* \"#utility.yul\":1650:1655   */\n      dup4\n        /* \"#utility.yul\":1646:1660   */\n      add\n        /* \"#utility.yul\":1642:1670   */\n      and\n        /* \"#utility.yul\":1632:1670   */\n      swap1\n      pop\n        /* \"#utility.yul\":1574:1676   */\n      swap2\n      swap1\n      pop\n      jump\t// out\n        /* \"#utility.yul\":1682:2059   */\n    tag_62:\n        /* \"#utility.yul\":1770:1773   */\n      0x00\n        /* \"#utility.yul\":1798:1837   */\n      tag_111\n        /* \"#utility.yul\":1831:1836   */\n      dup3\n        /* \"#utility.yul\":1798:1837   */\n      tag_58\n      jump\t// in\n    tag_111:\n        /* \"#utility.yul\":1853:1924   */\n      tag_112\n        /* \"#utility.yul\":1917:1923   */\n      dup2\n        /* \"#utility.yul\":1912:1915   */\n      dup6\n        /* \"#utility.yul\":1853:1924   */\n      tag_59\n      jump\t// in\n    tag_112:\n        /* \"#utility.yul\":1846:1924   */\n      swap4\n      pop\n        /* \"#utility.yul\":1933:1998   */\n      tag_113\n        /* \"#utility.yul\":1991:1997   */\n      dup2\n        /* \"#utility.yul\":1986:1989   */\n      dup6\n        /* \"#utility.yul\":1979:1983   */\n      0x20\n        /* \"#utility.yul\":1972:1977   */\n      dup7\n        /* \"#utility.yul\":1968:1984   */\n      add\n        /* \"#utility.yul\":1933:1998   */\n      tag_60\n      jump\t// in\n    tag_113:\n        /* \"#utility.yul\":2023:2052   */\n      tag_114\n        /* \"#utility.yul\":2045:2051   */\n      dup2\n        /* \"#utility.yul\":2023:2052   */\n      tag_61\n      jump\t// in\n    tag_114:\n        /* \"#utility.yul\":2018:2021   */\n      dup5\n        /* \"#utility.yul\":2014:2053   */\n      add\n        /* \"#utility.yul\":2007:2053   */\n      swap2\n      pop\n        /* \"#utility.yul\":1774:2059   */\n      pop\n        /* \"#utility.yul\":1682:2059   */\n      swap3\n      swap2\n      pop\n      pop\n      jump\t// out\n        /* \"#utility.yul\":2065:2800   */\n    tag_11:\n        /* \"#utility.yul\":2282:2286   */\n      0x00\n        /* \"#utility.yul\":2320:2323   */\n      0x80\n        /* \"#utility.yul\":2309:2318   */\n      dup3\n        /* \"#utility.yul\":2305:2324   */\n      add\n        /* \"#utility.yul\":2297:2324   */\n      swap1\n      pop\n        /* \"#utility.yul\":2334:2405   */\n      tag_116\n        /* \"#utility.yul\":2402:2403   */\n      0x00\n        /* \"#utility.yul\":2391:2400   */\n      dup4\n        /* \"#utility.yul\":2387:2404   */\n      add\n        /* \"#utility.yul\":2378:2384   */\n      dup8\n        /* \"#utility.yul\":2334:2405   */\n      tag_57\n      jump\t// in\n    tag_116:\n        /* \"#utility.yul\":2452:2461   */\n      dup2\n        /* \"#utility.yul\":2446:2450   */\n      dup2\n        /* \"#utility.yul\":2442:2462   */\n      sub\n        /* \"#utility.yul\":2437:2439   */\n      0x20\n        /* \"#utility.yul\":2426:2435   */\n      dup4\n        /* \"#utility.yul\":2422:2440   */\n      add\n        /* \"#utility.yul\":2415:2463   */\n      mstore\n        /* \"#utility.yul\":2480:2558   */\n      tag_117\n        /* \"#utility.yul\":2553:2557   */\n      dup2\n        /* \"#utility.yul\":2544:2550   */\n      dup7\n        /* \"#utility.yul\":2480:2558   */\n      tag_62\n      jump\t// in\n    tag_117:\n        /* \"#utility.yul\":2472:2558   */\n      swap1\n      pop\n        /* \"#utility.yul\":2605:2614   */\n      dup2\n        /* \"#utility.yul\":2599:2603   */\n      dup2\n        /* \"#utility.yul\":2595:2615   */\n      sub\n        /* \"#utility.yul\":2590:2592   */\n      0x40\n        /* \"#utility.yul\":2579:2588   */\n      dup4\n        /* \"#utility.yul\":2575:2593   */\n      add\n        /* \"#utility.yul\":2568:2616   */\n      mstore\n        /* \"#utility.yul\":2633:2711   */\n      tag_118\n        /* \"#utility.yul\":2706:2710   */\n      dup2\n        /* \"#utility.yul\":2697:2703   */\n      dup6\n        /* \"#utility.yul\":2633:2711   */\n      tag_62\n      jump\t// in\n    tag_118:\n        /* \"#utility.yul\":2625:2711   */\n      swap1\n      pop\n        /* \"#utility.yul\":2721:2793   */\n      tag_119\n        /* \"#utility.yul\":2789:2791   */\n      0x60\n        /* \"#utility.yul\":2778:2787   */\n      dup4\n        /* \"#utility.yul\":2774:2792   */\n      add\n        /* \"#utility.yul\":2765:2771   */\n      dup5\n        /* \"#utility.yul\":2721:2793   */\n      tag_57\n      jump\t// in\n    tag_119:\n        /* \"#utility.yul\":2065:2800   */\n      swap6\n      swap5\n      pop\n      pop\n      pop\n      pop\n      pop\n      jump\t// out\n        /* \"#utility.yul\":2806:2923   */\n    tag_63:\n        /* \"#utility.yul\":2915:2916   */\n      0x00\n        /* \"#utility.yul\":2912:2913   */\n      dup1\n        /* \"#utility.yul\":2905:2917   */\n      revert\n        /* \"#utility.yul\":2929:3046   */\n    tag_64:\n        /* \"#utility.yul\":3038:3039   */\n      0x00\n        /* \"#utility.yul\":3035:3036   */\n      dup1\n        /* \"#utility.yul\":3028:3040   */\n      revert\n        /* \"#utility.yul\":3052:3232   */\n    tag_65:\n        /* \"#utility.yul\":3100:3177   */\n      0x4e487b7100000000000000000000000000000000000000000000000000000000\n        /* \"#utility.yul\":3097:3098   */\n      0x00\n        /* \"#utility.yul\":3090:3178   */\n      mstore\n        /* \"#utility.yul\":3197:3201   */\n      0x41\n        /* \"#utility.yul\":3194:3195   */\n      0x04\n        /* \"#utility.yul\":3187:3202   */\n      mstore\n        /* \"#utility.yul\":3221:3225   */\n      0x24\n        /* \"#utility.yul\":3218:3219   */\n      0x00\n        /* \"#utility.yul\":3211:3226   */\n      revert\n        /* \"#utility.yul\":3238:3519   */\n    tag_66:\n        /* \"#utility.yul\":3321:3348   */\n      tag_124\n        /* \"#utility.yul\":3343:3347   */\n      dup3\n        /* \"#utility.yul\":3321:3348   */\n      tag_61\n      jump\t// in\n    tag_124:\n        /* \"#utility.yul\":3313:3319   */\n      dup2\n        /* \"#utility.yul\":3309:3349   */\n      add\n        /* \"#utility.yul\":3451:3457   */\n      dup2\n        /* \"#utility.yul\":3439:3449   */\n      dup2\n        /* \"#utility.yul\":3436:3458   */\n      lt\n        /* \"#utility.yul\":3415:3433   */\n      0xffffffffffffffff\n        /* \"#utility.yul\":3403:3413   */\n      dup3\n        /* \"#utility.yul\":3400:3434   */\n      gt\n        /* \"#utility.yul\":3397:3459   */\n      or\n        /* \"#utility.yul\":3394:3482   */\n      iszero\n      tag_125\n      jumpi\n        /* \"#utility.yul\":3462:3480   */\n      tag_126\n      tag_65\n      jump\t// in\n    tag_126:\n        /* \"#utility.yul\":3394:3482   */\n    tag_125:\n        /* \"#utility.yul\":3502:3512   */\n      dup1\n        /* \"#utility.yul\":3498:3500   */\n      0x40\n        /* \"#utility.yul\":3491:3513   */\n      mstore\n        /* \"#utility.yul\":3281:3519   */\n      pop\n        /* \"#utility.yul\":3238:3519   */\n      pop\n      pop\n      jump\t// out\n        /* \"#utility.yul\":3525:3654   */\n    tag_67:\n        /* \"#utility.yul\":3559:3565   */\n      0x00\n        /* \"#utility.yul\":3586:3606   */\n      tag_128\n      tag_51\n      jump\t// in\n    tag_128:\n        /* \"#utility.yul\":3576:3606   */\n      swap1\n      pop\n        /* \"#utility.yul\":3615:3648   */\n      tag_129\n        /* \"#utility.yul\":3643:3647   */\n      dup3\n        /* \"#utility.yul\":3635:3641   */\n      dup3\n        /* \"#utility.yul\":3615:3648   */\n      tag_66\n      jump\t// in\n    tag_129:\n        /* \"#utility.yul\":3525:3654   */\n      swap2\n      swap1\n      pop\n      jump\t// out\n        /* \"#utility.yul\":3660:3968   */\n    tag_68:\n        /* \"#utility.yul\":3722:3726   */\n      0x00\n        /* \"#utility.yul\":3812:3830   */\n      0xffffffffffffffff\n        /* \"#utility.yul\":3804:3810   */\n      dup3\n        /* \"#utility.yul\":3801:3831   */\n      gt\n        /* \"#utility.yul\":3798:3854   */\n      iszero\n      tag_131\n      jumpi\n        /* \"#utility.yul\":3834:3852   */\n      tag_132\n      tag_65\n      jump\t// in\n    tag_132:\n        /* \"#utility.yul\":3798:3854   */\n    tag_131:\n        /* \"#utility.yul\":3872:3901   */\n      tag_133\n        /* \"#utility.yul\":3894:3900   */\n      dup3\n        /* \"#utility.yul\":3872:3901   */\n      tag_61\n      jump\t// in\n    tag_133:\n        /* \"#utility.yul\":3864:3901   */\n      swap1\n      pop\n        /* \"#utility.yul\":3956:3960   */\n      0x20\n        /* \"#utility.yul\":3950:3954   */\n      dup2\n        /* \"#utility.yul\":3946:3961   */\n      add\n        /* \"#utility.yul\":3938:3961   */\n      swap1\n      pop\n        /* \"#utility.yul\":3660:3968   */\n      swap2\n      swap1\n      pop\n      jump\t// out\n        /* \"#utility.yul\":3974:4122   */\n    tag_69:\n        /* \"#utility.yul\":4072:4078   */\n      dup3\n        /* \"#utility.yul\":4067:4070   */\n      dup2\n        /* \"#utility.yul\":4062:4065   */\n      dup4\n        /* \"#utility.yul\":4049:4079   */\n      calldatacopy\n        /* \"#utility.yul\":4113:4114   */\n      0x00\n        /* \"#utility.yul\":4104:4110   */\n      dup4\n        /* \"#utility.yul\":4099:4102   */\n      dup4\n        /* \"#utility.yul\":4095:4111   */\n      add\n        /* \"#utility.yul\":4088:4115   */\n      mstore\n        /* \"#utility.yul\":3974:4122   */\n      pop\n      pop\n      pop\n      jump\t// out\n        /* \"#utility.yul\":4128:4553   */\n    tag_70:\n        /* \"#utility.yul\":4206:4211   */\n      0x00\n        /* \"#utility.yul\":4231:4297   */\n      tag_136\n        /* \"#utility.yul\":4247:4296   */\n      tag_137\n        /* \"#utility.yul\":4289:4295   */\n      dup5\n        /* \"#utility.yul\":4247:4296   */\n      tag_68\n      jump\t// in\n    tag_137:\n        /* \"#utility.yul\":4231:4297   */\n      tag_67\n      jump\t// in\n    tag_136:\n        /* \"#utility.yul\":4222:4297   */\n      swap1\n      pop\n        /* \"#utility.yul\":4320:4326   */\n      dup3\n        /* \"#utility.yul\":4313:4318   */\n      dup2\n        /* \"#utility.yul\":4306:4327   */\n      mstore\n        /* \"#utility.yul\":4358:4362   */\n      0x20\n        /* \"#utility.yul\":4351:4356   */\n      dup2\n        /* \"#utility.yul\":4347:4363   */\n      add\n        /* \"#utility.yul\":4396:4399   */\n      dup5\n        /* \"#utility.yul\":4387:4393   */\n      dup5\n        /* \"#utility.yul\":4382:4385   */\n      dup5\n        /* \"#utility.yul\":4378:4394   */\n      add\n        /* \"#utility.yul\":4375:4400   */\n      gt\n        /* \"#utility.yul\":4372:4484   */\n      iszero\n      tag_138\n      jumpi\n        /* \"#utility.yul\":4403:4482   */\n      tag_139\n      tag_64\n      jump\t// in\n    tag_139:\n        /* \"#utility.yul\":4372:4484   */\n    tag_138:\n        /* \"#utility.yul\":4493:4547   */\n      tag_140\n        /* \"#utility.yul\":4540:4546   */\n      dup5\n        /* \"#utility.yul\":4535:4538   */\n      dup3\n        /* \"#utility.yul\":4530:4533   */\n      dup6\n        /* \"#utility.yul\":4493:4547   */\n      tag_69\n      jump\t// in\n    tag_140:\n        /* \"#utility.yul\":4212:4553   */\n      pop\n        /* \"#utility.yul\":4128:4553   */\n      swap4\n      swap3\n      pop\n      pop\n      pop\n      jump\t// out\n        /* \"#utility.yul\":4573:4913   */\n    tag_71:\n        /* \"#utility.yul\":4629:4634   */\n      0x00\n        /* \"#utility.yul\":4678:4681   */\n      dup3\n        /* \"#utility.yul\":4671:4675   */\n      0x1f\n        /* \"#utility.yul\":4663:4669   */\n      dup4\n        /* \"#utility.yul\":4659:4676   */\n      add\n        /* \"#utility.yul\":4655:4682   */\n      slt\n        /* \"#utility.yul\":4645:4767   */\n      tag_142\n      jumpi\n        /* \"#utility.yul\":4686:4765   */\n      tag_143\n      tag_63\n      jump\t// in\n    tag_143:\n        /* \"#utility.yul\":4645:4767   */\n    tag_142:\n        /* \"#utility.yul\":4803:4809   */\n      dup2\n        /* \"#utility.yul\":4790:4810   */\n      calldataload\n        /* \"#utility.yul\":4828:4907   */\n      tag_144\n        /* \"#utility.yul\":4903:4906   */\n      dup5\n        /* \"#utility.yul\":4895:4901   */\n      dup3\n        /* \"#utility.yul\":4888:4892   */\n      0x20\n        /* \"#utility.yul\":4880:4886   */\n      dup7\n        /* \"#utility.yul\":4876:4893   */\n      add\n        /* \"#utility.yul\":4828:4907   */\n      tag_70\n      jump\t// in\n    tag_144:\n        /* \"#utility.yul\":4819:4907   */\n      swap2\n      pop\n        /* \"#utility.yul\":4635:4913   */\n      pop\n        /* \"#utility.yul\":4573:4913   */\n      swap3\n      swap2\n      pop\n      pop\n      jump\t// out\n        /* \"#utility.yul\":4919:6044   */\n    tag_14:\n        /* \"#utility.yul\":5025:5031   */\n      0x00\n        /* \"#utility.yul\":5033:5039   */\n      dup1\n        /* \"#utility.yul\":5041:5047   */\n      0x00\n        /* \"#utility.yul\":5049:5055   */\n      dup1\n        /* \"#utility.yul\":5098:5101   */\n      0x80\n        /* \"#utility.yul\":5086:5095   */\n      dup6\n        /* \"#utility.yul\":5077:5084   */\n      dup8\n        /* \"#utility.yul\":5073:5096   */\n      sub\n        /* \"#utility.yul\":5069:5102   */\n      slt\n        /* \"#utility.yul\":5066:5186   */\n      iszero\n      tag_146\n      jumpi\n        /* \"#utility.yul\":5105:5184   */\n      tag_147\n      tag_52\n      jump\t// in\n    tag_147:\n        /* \"#utility.yul\":5066:5186   */\n    tag_146:\n        /* \"#utility.yul\":5225:5226   */\n      0x00\n        /* \"#utility.yul\":5250:5303   */\n      tag_148\n        /* \"#utility.yul\":5295:5302   */\n      dup8\n        /* \"#utility.yul\":5286:5292   */\n      dup3\n        /* \"#utility.yul\":5275:5284   */\n      dup9\n        /* \"#utility.yul\":5271:5293   */\n      add\n        /* \"#utility.yul\":5250:5303   */\n      tag_56\n      jump\t// in\n    tag_148:\n        /* \"#utility.yul\":5240:5303   */\n      swap5\n      pop\n        /* \"#utility.yul\":5196:5313   */\n      pop\n        /* \"#utility.yul\":5380:5382   */\n      0x20\n        /* \"#utility.yul\":5369:5378   */\n      dup6\n        /* \"#utility.yul\":5365:5383   */\n      add\n        /* \"#utility.yul\":5352:5384   */\n      calldataload\n        /* \"#utility.yul\":5411:5429   */\n      0xffffffffffffffff\n        /* \"#utility.yul\":5403:5409   */\n      dup2\n        /* \"#utility.yul\":5400:5430   */\n      gt\n        /* \"#utility.yul\":5397:5514   */\n      iszero\n      tag_149\n      jumpi\n        /* \"#utility.yul\":5433:5512   */\n      tag_150\n      tag_53\n      jump\t// in\n    tag_150:\n        /* \"#utility.yul\":5397:5514   */\n    tag_149:\n        /* \"#utility.yul\":5538:5601   */\n      tag_151\n        /* \"#utility.yul\":5593:5600   */\n      dup8\n        /* \"#utility.yul\":5584:5590   */\n      dup3\n        /* \"#utility.yul\":5573:5582   */\n      dup9\n        /* \"#utility.yul\":5569:5591   */\n      add\n        /* \"#utility.yul\":5538:5601   */\n      tag_71\n      jump\t// in\n    tag_151:\n        /* \"#utility.yul\":5528:5601   */\n      swap4\n      pop\n        /* \"#utility.yul\":5323:5611   */\n      pop\n        /* \"#utility.yul\":5678:5680   */\n      0x40\n        /* \"#utility.yul\":5667:5676   */\n      dup6\n        /* \"#utility.yul\":5663:5681   */\n      add\n        /* \"#utility.yul\":5650:5682   */\n      calldataload\n        /* \"#utility.yul\":5709:5727   */\n      0xffffffffffffffff\n        /* \"#utility.yul\":5701:5707   */\n      dup2\n        /* \"#utility.yul\":5698:5728   */\n      gt\n        /* \"#utility.yul\":5695:5812   */\n      iszero\n      tag_152\n      jumpi\n        /* \"#utility.yul\":5731:5810   */\n      tag_153\n      tag_53\n      jump\t// in\n    tag_153:\n        /* \"#utility.yul\":5695:5812   */\n    tag_152:\n        /* \"#utility.yul\":5836:5899   */\n      tag_154\n        /* \"#utility.yul\":5891:5898   */\n      dup8\n        /* \"#utility.yul\":5882:5888   */\n      dup3\n        /* \"#utility.yul\":5871:5880   */\n      dup9\n        /* \"#utility.yul\":5867:5889   */\n      add\n        /* \"#utility.yul\":5836:5899   */\n      tag_71\n      jump\t// in\n    tag_154:\n        /* \"#utility.yul\":5826:5899   */\n      swap3\n      pop\n        /* \"#utility.yul\":5621:5909   */\n      pop\n        /* \"#utility.yul\":5948:5950   */\n      0x60\n        /* \"#utility.yul\":5974:6027   */\n      tag_155\n        /* \"#utility.yul\":6019:6026   */\n      dup8\n        /* \"#utility.yul\":6010:6016   */\n      dup3\n        /* \"#utility.yul\":5999:6008   */\n      dup9\n        /* \"#utility.yul\":5995:6017   */\n      add\n        /* \"#utility.yul\":5974:6027   */\n      tag_56\n      jump\t// in\n    tag_155:\n        /* \"#utility.yul\":5964:6027   */\n      swap2\n      pop\n        /* \"#utility.yul\":5919:6037   */\n      pop\n        /* \"#utility.yul\":4919:6044   */\n      swap3\n      swap6\n      swap2\n      swap5\n      pop\n      swap3\n      pop\n      jump\t// out\n        /* \"#utility.yul\":6050:6272   */\n    tag_17:\n        /* \"#utility.yul\":6143:6147   */\n      0x00\n        /* \"#utility.yul\":6181:6183   */\n      0x20\n        /* \"#utility.yul\":6170:6179   */\n      dup3\n        /* \"#utility.yul\":6166:6184   */\n      add\n        /* \"#utility.yul\":6158:6184   */\n      swap1\n      pop\n        /* \"#utility.yul\":6194:6265   */\n      tag_157\n        /* \"#utility.yul\":6262:6263   */\n      0x00\n        /* \"#utility.yul\":6251:6260   */\n      dup4\n        /* \"#utility.yul\":6247:6264   */\n      add\n        /* \"#utility.yul\":6238:6244   */\n      dup5\n        /* \"#utility.yul\":6194:6265   */\n      tag_57\n      jump\t// in\n    tag_157:\n        /* \"#utility.yul\":6050:6272   */\n      swap3\n      swap2\n      pop\n      pop\n      jump\t// out\n        /* \"#utility.yul\":6278:6458   */\n    tag_72:\n        /* \"#utility.yul\":6326:6403   */\n      0x4e487b7100000000000000000000000000000000000000000000000000000000\n        /* \"#utility.yul\":6323:6324   */\n      0x00\n        /* \"#utility.yul\":6316:6404   */\n      mstore\n        /* \"#utility.yul\":6423:6427   */\n      0x22\n        /* \"#utility.yul\":6420:6421   */\n      0x04\n        /* \"#utility.yul\":6413:6428   */\n      mstore\n        /* \"#utility.yul\":6447:6451   */\n      0x24\n        /* \"#utility.yul\":6444:6445   */\n      0x00\n        /* \"#utility.yul\":6437:6452   */\n      revert\n        /* \"#utility.yul\":6464:6784   */\n    tag_23:\n        /* \"#utility.yul\":6508:6514   */\n      0x00\n        /* \"#utility.yul\":6545:6546   */\n      0x02\n        /* \"#utility.yul\":6539:6543   */\n      dup3\n        /* \"#utility.yul\":6535:6547   */\n      div\n        /* \"#utility.yul\":6525:6547   */\n      swap1\n      pop\n        /* \"#utility.yul\":6592:6593   */\n      0x01\n        /* \"#utility.yul\":6586:6590   */\n      dup3\n        /* \"#utility.yul\":6582:6594   */\n      and\n        /* \"#utility.yul\":6613:6631   */\n      dup1\n        /* \"#utility.yul\":6603:6684   */\n      tag_160\n      jumpi\n        /* \"#utility.yul\":6669:6673   */\n      0x7f\n        /* \"#utility.yul\":6661:6667   */\n      dup3\n        /* \"#utility.yul\":6657:6674   */\n      and\n        /* \"#utility.yul\":6647:6674   */\n      swap2\n      pop\n        /* \"#utility.yul\":6603:6684   */\n    tag_160:\n        /* \"#utility.yul\":6731:6733   */\n      0x20\n        /* \"#utility.yul\":6723:6729   */\n      dup3\n        /* \"#utility.yul\":6720:6734   */\n      lt\n        /* \"#utility.yul\":6700:6718   */\n      dup2\n        /* \"#utility.yul\":6697:6735   */\n      sub\n        /* \"#utility.yul\":6694:6778   */\n      tag_161\n      jumpi\n        /* \"#utility.yul\":6750:6768   */\n      tag_162\n      tag_72\n      jump\t// in\n    tag_162:\n        /* \"#utility.yul\":6694:6778   */\n    tag_161:\n        /* \"#utility.yul\":6515:6784   */\n      pop\n        /* \"#utility.yul\":6464:6784   */\n      swap2\n      swap1\n      pop\n      jump\t// out\n        /* \"#utility.yul\":6790:6963   */\n    tag_73:\n        /* \"#utility.yul\":6930:6955   */\n      0x456d706c6f79656520616c726561647920657869737473000000000000000000\n        /* \"#utility.yul\":6926:6927   */\n      0x00\n        /* \"#utility.yul\":6918:6924   */\n      dup3\n        /* \"#utility.yul\":6914:6928   */\n      add\n        /* \"#utility.yul\":6907:6956   */\n      mstore\n        /* \"#utility.yul\":6790:6963   */\n      pop\n      jump\t// out\n        /* \"#utility.yul\":6969:7335   */\n    tag_74:\n        /* \"#utility.yul\":7111:7114   */\n      0x00\n        /* \"#utility.yul\":7132:7199   */\n      tag_165\n        /* \"#utility.yul\":7196:7198   */\n      0x17\n        /* \"#utility.yul\":7191:7194   */\n      dup4\n        /* \"#utility.yul\":7132:7199   */\n      tag_59\n      jump\t// in\n    tag_165:\n        /* \"#utility.yul\":7125:7199   */\n      swap2\n      pop\n        /* \"#utility.yul\":7208:7301   */\n      tag_166\n        /* \"#utility.yul\":7297:7300   */\n      dup3\n        /* \"#utility.yul\":7208:7301   */\n      tag_73\n      jump\t// in\n    tag_166:\n        /* \"#utility.yul\":7326:7328   */\n      0x20\n        /* \"#utility.yul\":7321:7324   */\n      dup3\n        /* \"#utility.yul\":7317:7329   */\n      add\n        /* \"#utility.yul\":7310:7329   */\n      swap1\n      pop\n        /* \"#utility.yul\":6969:7335   */\n      swap2\n      swap1\n      pop\n      jump\t// out\n        /* \"#utility.yul\":7341:7760   */\n    tag_36:\n        /* \"#utility.yul\":7507:7511   */\n      0x00\n        /* \"#utility.yul\":7545:7547   */\n      0x20\n        /* \"#utility.yul\":7534:7543   */\n      dup3\n        /* \"#utility.yul\":7530:7548   */\n      add\n        /* \"#utility.yul\":7522:7548   */\n      swap1\n      pop\n        /* \"#utility.yul\":7594:7603   */\n      dup2\n        /* \"#utility.yul\":7588:7592   */\n      dup2\n        /* \"#utility.yul\":7584:7604   */\n      sub\n        /* \"#utility.yul\":7580:7581   */\n      0x00\n        /* \"#utility.yul\":7569:7578   */\n      dup4\n        /* \"#utility.yul\":7565:7582   */\n      add\n        /* \"#utility.yul\":7558:7605   */\n      mstore\n        /* \"#utility.yul\":7622:7753   */\n      tag_168\n        /* \"#utility.yul\":7748:7752   */\n      dup2\n        /* \"#utility.yul\":7622:7753   */\n      tag_74\n      jump\t// in\n    tag_168:\n        /* \"#utility.yul\":7614:7753   */\n      swap1\n      pop\n        /* \"#utility.yul\":7341:7760   */\n      swap2\n      swap1\n      pop\n      jump\t// out\n        /* \"#utility.yul\":7766:7907   */\n    tag_75:\n        /* \"#utility.yul\":7815:7819   */\n      0x00\n        /* \"#utility.yul\":7838:7841   */\n      dup2\n        /* \"#utility.yul\":7830:7841   */\n      swap1\n      pop\n        /* \"#utility.yul\":7861:7864   */\n      dup2\n        /* \"#utility.yul\":7858:7859   */\n      0x00\n        /* \"#utility.yul\":7851:7865   */\n      mstore\n        /* \"#utility.yul\":7895:7899   */\n      0x20\n        /* \"#utility.yul\":7892:7893   */\n      0x00\n        /* \"#utility.yul\":7882:7900   */\n      keccak256\n        /* \"#utility.yul\":7874:7900   */\n      swap1\n      pop\n        /* \"#utility.yul\":7766:7907   */\n      swap2\n      swap1\n      pop\n      jump\t// out\n        /* \"#utility.yul\":7913:8006   */\n    tag_76:\n        /* \"#utility.yul\":7950:7956   */\n      0x00\n        /* \"#utility.yul\":7997:7999   */\n      0x20\n        /* \"#utility.yul\":7992:7994   */\n      0x1f\n        /* \"#utility.yul\":7985:7990   */\n      dup4\n        /* \"#utility.yul\":7981:7995   */\n      add\n        /* \"#utility.yul\":7977:8000   */\n      div\n        /* \"#utility.yul\":7967:8000   */\n      swap1\n      pop\n        /* \"#utility.yul\":7913:8006   */\n      swap2\n      swap1\n      pop\n      jump\t// out\n        /* \"#utility.yul\":8012:8119   */\n    tag_77:\n        /* \"#utility.yul\":8056:8064   */\n      0x00\n        /* \"#utility.yul\":8106:8111   */\n      dup3\n        /* \"#utility.yul\":8100:8104   */\n      dup3\n        /* \"#utility.yul\":8096:8112   */\n      shl\n        /* \"#utility.yul\":8075:8112   */\n      swap1\n      pop\n        /* \"#utility.yul\":8012:8119   */\n      swap3\n      swap2\n      pop\n      pop\n      jump\t// out\n        /* \"#utility.yul\":8125:8518   */\n    tag_78:\n        /* \"#utility.yul\":8194:8200   */\n      0x00\n        /* \"#utility.yul\":8244:8245   */\n      0x08\n        /* \"#utility.yul\":8232:8242   */\n      dup4\n        /* \"#utility.yul\":8228:8246   */\n      mul\n        /* \"#utility.yul\":8267:8364   */\n      tag_173\n        /* \"#utility.yul\":8297:8363   */\n      0xffffffffffffffffffffffffffffffffffffffffffffffffffffffffffffffff\n        /* \"#utility.yul\":8286:8295   */\n      dup3\n        /* \"#utility.yul\":8267:8364   */\n      tag_77\n      jump\t// in\n    tag_173:\n        /* \"#utility.yul\":8385:8424   */\n      tag_174\n        /* \"#utility.yul\":8415:8423   */\n      dup7\n        /* \"#utility.yul\":8404:8413   */\n      dup4\n        /* \"#utility.yul\":8385:8424   */\n      tag_77\n      jump\t// in\n    tag_174:\n        /* \"#utility.yul\":8373:8424   */\n      swap6\n      pop\n        /* \"#utility.yul\":8457:8461   */\n      dup1\n        /* \"#utility.yul\":8453:8462   */\n      not\n        /* \"#utility.yul\":8446:8451   */\n      dup5\n        /* \"#utility.yul\":8442:8463   */\n      and\n        /* \"#utility.yul\":8433:8463   */\n      swap4\n      pop\n        /* \"#utility.yul\":8506:8510   */\n      dup1\n        /* \"#utility.yul\":8496:8504   */\n      dup7\n        /* \"#utility.yul\":8492:8511   */\n      and\n        /* \"#utility.yul\":8485:8490   */\n      dup5\n        /* \"#utility.yul\":8482:8512   */\n      or\n        /* \"#utility.yul\":8472:8512   */\n      swap3\n      pop\n        /* \"#utility.yul\":8201:8518   */\n      pop\n      pop\n        /* \"#utility.yul\":8125:8518   */\n      swap4\n      swap3\n      pop\n      pop\n      pop\n      jump\t// out\n        /* \"#utility.yul\":8524:8584   */\n    tag_79:\n        /* \"#utility.yul\":8552:8555   */\n      0x00\n        /* \"#utility.yul\":8573:8578   */\n      dup2\n        /* \"#utility.yul\":8566:8578   */\n      swap1\n      pop\n        /* \"#utility.yul\":8524:8584   */\n      swap2\n      swap1\n      pop\n      jump\t// out\n        /* \"#utility.yul\":8590:8732   */\n    tag_80:\n        /* \"#utility.yul\":8640:8649   */\n      0x00\n        /* \"#utility.yul\":8673:8726   */\n      tag_177\n        /* \"#utility.yul\":8691:8725   */\n      tag_178\n        /* \"#utility.yul\":8700:8724   */\n      tag_179\n        /* \"#utility.yul\":8718:8723   */\n      dup5\n        /* \"#utility.yul\":8700:8724   */\n      tag_54\n      jump\t// in\n    tag_179:\n        /* \"#utility.yul\":8691:8725   */\n      tag_79\n      jump\t// in\n    tag_178:\n        /* \"#utility.yul\":8673:8726   */\n      tag_54\n      jump\t// in\n    tag_177:\n        /* \"#utility.yul\":8660:8726   */\n      swap1\n      pop\n        /* \"#utility.yul\":8590:8732   */\n      swap2\n      swap1\n      pop\n      jump\t// out\n        /* \"#utility.yul\":8738:8813   */\n    tag_81:\n        /* \"#utility.yul\":8781:8784   */\n      0x00\n        /* \"#utility.yul\":8802:8807   */\n      dup2\n        /* \"#utility.yul\":8795:8807   */\n      swap1\n      pop\n        /* \"#utility.yul\":8738:8813   */\n      swap2\n      swap1\n      pop\n      jump\t// out\n        /* \"#utility.yul\":8819:9088   */\n    tag_82:\n        /* \"#utility.yul\":8929:8968   */\n      tag_182\n        /* \"#utility.yul\":8960:8967   */\n      dup4\n        /* \"#utility.yul\":8929:8968   */\n      tag_80\n      jump\t// in\n    tag_182:\n        /* \"#utility.yul\":8990:9081   */\n      tag_183\n        /* \"#utility.yul\":9039:9080   */\n      tag_184\n        /* \"#utility.yul\":9063:9079   */\n      dup3\n        /* \"#utility.yul\":9039:9080   */\n      tag_81\n      jump\t// in\n    tag_184:\n        /* \"#utility.yul\":9031:9037   */\n      dup5\n        /* \"#utility.yul\":9024:9028   */\n      dup5\n        /* \"#utility.yul\":9018:9029   */\n      sload\n        /* \"#utility.yul\":8990:9081   */\n      tag_78\n      jump\t// in\n    tag_183:\n        /* \"#utility.yul\":8984:8988   */\n      dup3\n        /* \"#utility.yul\":8977:9082   */\n      sstore\n        /* \"#utility.yul\":8895:9088   */\n      pop\n        /* \"#utility.yul\":8819:9088   */\n      pop\n      pop\n      pop\n      jump\t// out\n        /* \"#utility.yul\":9094:9167   */\n    tag_83:\n        /* \"#utility.yul\":9139:9142   */\n      0x00\n        /* \"#utility.yul\":9094:9167   */\n      swap1\n      jump\t// out\n        /* \"#utility.yul\":9173:9362   */\n    tag_84:\n        /* \"#utility.yul\":9250:9282   */\n      tag_187\n      tag_83\n      jump\t// in\n    tag_187:\n        /* \"#utility.yul\":9291:9356   */\n      tag_188\n        /* \"#utility.yul\":9349:9355   */\n      dup2\n        /* \"#utility.yul\":9341:9347   */\n      dup5\n        /* \"#utility.yul\":9335:9339   */\n      dup5\n        /* \"#utility.yul\":9291:9356   */\n      tag_82\n      jump\t// in\n    tag_188:\n        /* \"#utility.yul\":9226:9362   */\n      pop\n        /* \"#utility.yul\":9173:9362   */\n      pop\n      pop\n      jump\t// out\n        /* \"#utility.yul\":9368:9554   */\n    tag_85:\n        /* \"#utility.yul\":9428:9548   */\n    tag_190:\n        /* \"#utility.yul\":9445:9448   */\n      dup2\n        /* \"#utility.yul\":9438:9443   */\n      dup2\n        /* \"#utility.yul\":9435:9449   */\n      lt\n        /* \"#utility.yul\":9428:9548   */\n      iszero\n      tag_192\n      jumpi\n        /* \"#utility.yul\":9499:9538   */\n      tag_193\n        /* \"#utility.yul\":9536:9537   */\n      0x00\n        /* \"#utility.yul\":9529:9534   */\n      dup3\n        /* \"#utility.yul\":9499:9538   */\n      tag_84\n      jump\t// in\n    tag_193:\n        /* \"#utility.yul\":9472:9473   */\n      0x01\n        /* \"#utility.yul\":9465:9470   */\n      dup2\n        /* \"#utility.yul\":9461:9474   */\n      add\n        /* \"#utility.yul\":9452:9474   */\n      swap1\n      pop\n        /* \"#utility.yul\":9428:9548   */\n      jump(tag_190)\n    tag_192:\n        /* \"#utility.yul\":9368:9554   */\n      pop\n      pop\n      jump\t// out\n        /* \"#utility.yul\":9560:10103   */\n    tag_86:\n        /* \"#utility.yul\":9661:9663   */\n      0x1f\n        /* \"#utility.yul\":9656:9659   */\n      dup3\n        /* \"#utility.yul\":9653:9664   */\n      gt\n        /* \"#utility.yul\":9650:10096   */\n      iszero\n      tag_195\n      jumpi\n        /* \"#utility.yul\":9695:9733   */\n      tag_196\n        /* \"#utility.yul\":9727:9732   */\n      dup2\n        /* \"#utility.yul\":9695:9733   */\n      tag_75\n      jump\t// in\n    tag_196:\n        /* \"#utility.yul\":9779:9808   */\n      tag_197\n        /* \"#utility.yul\":9797:9807   */\n      dup5\n        /* \"#utility.yul\":9779:9808   */\n      tag_76\n      jump\t// in\n    tag_197:\n        /* \"#utility.yul\":9769:9777   */\n      dup2\n        /* \"#utility.yul\":9765:9809   */\n      add\n        /* \"#utility.yul\":9962:9964   */\n      0x20\n        /* \"#utility.yul\":9950:9960   */\n      dup6\n        /* \"#utility.yul\":9947:9965   */\n      lt\n        /* \"#utility.yul\":9944:9993   */\n      iszero\n      tag_198\n      jumpi\n        /* \"#utility.yul\":9983:9991   */\n      dup2\n        /* \"#utility.yul\":9968:9991   */\n      swap1\n      pop\n        /* \"#utility.yul\":9944:9993   */\n    tag_198:\n        /* \"#utility.yul\":10006:10086   */\n      tag_199\n        /* \"#utility.yul\":10062:10084   */\n      tag_200\n        /* \"#utility.yul\":10080:10083   */\n      dup6\n        /* \"#utility.yul\":10062:10084   */\n      tag_76\n      jump\t// in\n    tag_200:\n        /* \"#utility.yul\":10052:10060   */\n      dup4\n        /* \"#utility.yul\":10048:10085   */\n      add\n        /* \"#utility.yul\":10035:10046   */\n      dup3\n        /* \"#utility.yul\":10006:10086   */\n      tag_85\n      jump\t// in\n    tag_199:\n        /* \"#utility.yul\":9665:10096   */\n      pop\n      pop\n        /* \"#utility.yul\":9650:10096   */\n    tag_195:\n        /* \"#utility.yul\":9560:10103   */\n      pop\n      pop\n      pop\n      jump\t// out\n        /* \"#utility.yul\":10109:10226   */\n    tag_87:\n        /* \"#utility.yul\":10163:10171   */\n      0x00\n        /* \"#utility.yul\":10213:10218   */\n      dup3\n        /* \"#utility.yul\":10207:10211   */\n      dup3\n        /* \"#utility.yul\":10203:10219   */\n      shr\n        /* \"#utility.yul\":10182:10219   */\n      swap1\n      pop\n        /* \"#utility.yul\":10109:10226   */\n      swap3\n      swap2\n      pop\n      pop\n      jump\t// out\n        /* \"#utility.yul\":10232:10401   */\n    tag_88:\n        /* \"#utility.yul\":10276:10282   */\n      0x00\n        /* \"#utility.yul\":10309:10360   */\n      tag_203\n        /* \"#utility.yul\":10357:10358   */\n      0x00\n        /* \"#utility.yul\":10353:10359   */\n      not\n        /* \"#utility.yul\":10345:10350   */\n      dup5\n        /* \"#utility.yul\":10342:10343   */\n      0x08\n        /* \"#utility.yul\":10338:10351   */\n      mul\n        /* \"#utility.yul\":10309:10360   */\n      tag_87\n      jump\t// in\n    tag_203:\n        /* \"#utility.yul\":10305:10361   */\n      not\n        /* \"#utility.yul\":10390:10394   */\n      dup1\n        /* \"#utility.yul\":10384:10388   */\n      dup4\n        /* \"#utility.yul\":10380:10395   */\n      and\n        /* \"#utility.yul\":10370:10395   */\n      swap2\n      pop\n        /* \"#utility.yul\":10283:10401   */\n      pop\n        /* \"#utility.yul\":10232:10401   */\n      swap3\n      swap2\n      pop\n      pop\n      jump\t// out\n        /* \"#utility.yul\":10406:10701   */\n    tag_89:\n        /* \"#utility.yul\":10482:10486   */\n      0x00\n        /* \"#utility.yul\":10628:10657   */\n      tag_205\n        /* \"#utility.yul\":10653:10656   */\n      dup4\n        /* \"#utility.yul\":10647:10651   */\n      dup4\n        /* \"#utility.yul\":10628:10657   */\n      tag_88\n      jump\t// in\n    tag_205:\n        /* \"#utility.yul\":10620:10657   */\n      swap2\n      pop\n        /* \"#utility.yul\":10690:10693   */\n      dup3\n        /* \"#utility.yul\":10687:10688   */\n      0x02\n        /* \"#utility.yul\":10683:10694   */\n      mul\n        /* \"#utility.yul\":10677:10681   */\n      dup3\n        /* \"#utility.yul\":10674:10695   */\n      or\n        /* \"#utility.yul\":10666:10695   */\n      swap1\n      pop\n        /* \"#utility.yul\":10406:10701   */\n      swap3\n      swap2\n      pop\n      pop\n      jump\t// out\n        /* \"#utility.yul\":10706:12101   */\n    tag_38:\n        /* \"#utility.yul\":10823:10860   */\n      tag_207\n        /* \"#utility.yul\":10856:10859   */\n      dup3\n        /* \"#utility.yul\":10823:10860   */\n      tag_58\n      jump\t// in\n    tag_207:\n        /* \"#utility.yul\":10925:10943   */\n      0xffffffffffffffff\n        /* \"#utility.yul\":10917:10923   */\n      dup2\n        /* \"#utility.yul\":10914:10944   */\n      gt\n        /* \"#utility.yul\":10911:10967   */\n      iszero\n      tag_208\n      jumpi\n        /* \"#utility.yul\":10947:10965   */\n      tag_209\n      tag_65\n      jump\t// in\n    tag_209:\n        /* \"#utility.yul\":10911:10967   */\n    tag_208:\n        /* \"#utility.yul\":10991:11029   */\n      tag_210\n        /* \"#utility.yul\":11023:11027   */\n      dup3\n        /* \"#utility.yul\":11017:11028   */\n      sload\n        /* \"#utility.yul\":10991:11029   */\n      tag_23\n      jump\t// in\n    tag_210:\n        /* \"#utility.yul\":11076:11143   */\n      tag_211\n        /* \"#utility.yul\":11136:11142   */\n      dup3\n        /* \"#utility.yul\":11128:11134   */\n      dup3\n        /* \"#utility.yul\":11122:11126   */\n      dup6\n        /* \"#utility.yul\":11076:11143   */\n      tag_86\n      jump\t// in\n    tag_211:\n        /* \"#utility.yul\":11170:11171   */\n      0x00\n        /* \"#utility.yul\":11194:11198   */\n      0x20\n        /* \"#utility.yul\":11181:11198   */\n      swap1\n      pop\n        /* \"#utility.yul\":11226:11228   */\n      0x1f\n        /* \"#utility.yul\":11218:11224   */\n      dup4\n        /* \"#utility.yul\":11215:11229   */\n      gt\n        /* \"#utility.yul\":11243:11244   */\n      0x01\n        /* \"#utility.yul\":11238:11856   */\n      dup2\n      eq\n      tag_213\n      jumpi\n        /* \"#utility.yul\":11900:11901   */\n      0x00\n        /* \"#utility.yul\":11917:11923   */\n      dup5\n        /* \"#utility.yul\":11914:11991   */\n      iszero\n      tag_214\n      jumpi\n        /* \"#utility.yul\":11966:11975   */\n      dup3\n        /* \"#utility.yul\":11961:11964   */\n      dup8\n        /* \"#utility.yul\":11957:11976   */\n      add\n        /* \"#utility.yul\":11951:11977   */\n      mload\n        /* \"#utility.yul\":11942:11977   */\n      swap1\n      pop\n        /* \"#utility.yul\":11914:11991   */\n    tag_214:\n        /* \"#utility.yul\":12017:12084   */\n      tag_215\n        /* \"#utility.yul\":12077:12083   */\n      dup6\n        /* \"#utility.yul\":12070:12075   */\n      dup3\n        /* \"#utility.yul\":12017:12084   */\n      tag_89\n      jump\t// in\n    tag_215:\n        /* \"#utility.yul\":12011:12015   */\n      dup7\n        /* \"#utility.yul\":12004:12085   */\n      sstore\n        /* \"#utility.yul\":11873:12095   */\n      pop\n        /* \"#utility.yul\":11208:12095   */\n      jump(tag_212)\n        /* \"#utility.yul\":11238:11856   */\n    tag_213:\n        /* \"#utility.yul\":11290:11294   */\n      0x1f\n        /* \"#utility.yul\":11286:11295   */\n      not\n        /* \"#utility.yul\":11278:11284   */\n      dup5\n        /* \"#utility.yul\":11274:11296   */\n      and\n        /* \"#utility.yul\":11324:11361   */\n      tag_216\n        /* \"#utility.yul\":11356:11360   */\n      dup7\n        /* \"#utility.yul\":11324:11361   */\n      tag_75\n      jump\t// in\n    tag_216:\n        /* \"#utility.yul\":11383:11384   */\n      0x00\n        /* \"#utility.yul\":11397:11605   */\n    tag_217:\n        /* \"#utility.yul\":11411:11418   */\n      dup3\n        /* \"#utility.yul\":11408:11409   */\n      dup2\n        /* \"#utility.yul\":11405:11419   */\n      lt\n        /* \"#utility.yul\":11397:11605   */\n      iszero\n      tag_219\n      jumpi\n        /* \"#utility.yul\":11490:11499   */\n      dup5\n        /* \"#utility.yul\":11485:11488   */\n      dup10\n        /* \"#utility.yul\":11481:11500   */\n      add\n        /* \"#utility.yul\":11475:11501   */\n      mload\n        /* \"#utility.yul\":11467:11473   */\n      dup3\n        /* \"#utility.yul\":11460:11502   */\n      sstore\n        /* \"#utility.yul\":11541:11542   */\n      0x01\n        /* \"#utility.yul\":11533:11539   */\n      dup3\n        /* \"#utility.yul\":11529:11543   */\n      add\n        /* \"#utility.yul\":11519:11543   */\n      swap2\n      pop\n        /* \"#utility.yul\":11588:11590   */\n      0x20\n        /* \"#utility.yul\":11577:11586   */\n      dup6\n        /* \"#utility.yul\":11573:11591   */\n      add\n        /* \"#utility.yul\":11560:11591   */\n      swap5\n      pop\n        /* \"#utility.yul\":11434:11438   */\n      0x20\n        /* \"#utility.yul\":11431:11432   */\n      dup2\n        /* \"#utility.yul\":11427:11439   */\n      add\n        /* \"#utility.yul\":11422:11439   */\n      swap1\n      pop\n        /* \"#utility.yul\":11397:11605   */\n      jump(tag_217)\n    tag_219:\n        /* \"#utility.yul\":11633:11639   */\n      dup7\n        /* \"#utility.yul\":11624:11631   */\n      dup4\n        /* \"#utility.yul\":11621:11640   */\n      lt\n        /* \"#utility.yul\":11618:11797   */\n      iszero\n      tag_220\n      jumpi\n        /* \"#utility.yul\":11691:11700   */\n      dup5\n        /* \"#utility.yul\":11686:11689   */\n      dup10\n        /* \"#utility.yul\":11682:11701   */\n      add\n        /* \"#utility.yul\":11676:11702   */\n      mload\n        /* \"#utility.yul\":11734:11782   */\n      tag_221\n        /* \"#utility.yul\":11776:11780   */\n      0x1f\n        /* \"#utility.yul\":11768:11774   */\n      dup10\n        /* \"#utility.yul\":11764:11781   */\n      and\n        /* \"#utility.yul\":11753:11762   */\n      dup3\n        /* \"#utility.yul\":11734:11782   */\n      tag_88\n      jump\t// in\n    tag_221:\n        /* \"#utility.yul\":11726:11732   */\n      dup4\n        /* \"#utility.yul\":11719:11783   */\n      sstore\n        /* \"#utility.yul\":11641:11797   */\n      pop\n        /* \"#utility.yul\":11618:11797   */\n    tag_220:\n        /* \"#utility.yul\":11843:11844   */\n      0x01\n        /* \"#utility.yul\":11839:11840   */\n      0x02\n        /* \"#utility.yul\":11831:11837   */\n      dup9\n        /* \"#utility.yul\":11827:11841   */\n      mul\n        /* \"#utility.yul\":11823:11845   */\n      add\n        /* \"#utility.yul\":11817:11821   */\n      dup9\n        /* \"#utility.yul\":11810:11846   */\n      sstore\n        /* \"#utility.yul\":11245:11856   */\n      pop\n      pop\n      pop\n        /* \"#utility.yul\":11208:12095   */\n    tag_212:\n      pop\n        /* \"#utility.yul\":10798:12101   */\n      pop\n      pop\n      pop\n        /* \"#utility.yul\":10706:12101   */\n      pop\n      pop\n      jump\t// out\n\n    auxdata: 0xa2646970667358221220b734aa208b346af2623d4f7895f40c8133859ce76e78f31f779d48fe5674d1e164736f6c634300081a0033\n}\n",
				"bytecode": {
					"linkReferences": {},
					"object": "6080604052348015600e575f80fd5b50610ae28061001c5f395ff3fe608060405234801561000f575f80fd5b506004361061003f575f3560e01c8063272cc76a14610043578063d44f376e14610076578063f6757cff146100a6575b5f80fd5b61005d6004803603810190610058919061049f565b6100d9565b60405161006d9493929190610549565b60405180910390f35b610090600480360381019061008b91906106c6565b610210565b60405161009d9190610762565b60405180910390f35b6100c060048036038101906100bb919061049f565b6102e2565b6040516100d09493929190610549565b60405180910390f35b5f602052805f5260405f205f91509050805f0154908060010180546100fd906107a8565b80601f0160208091040260200160405190810160405280929190818152602001828054610129906107a8565b80156101745780601f1061014b57610100808354040283529160200191610174565b820191905f5260205f20905b81548152906001019060200180831161015757829003601f168201915b505050505090806002018054610189906107a8565b80601f01602080910402602001604051908101604052809291908181526020018280546101b5906107a8565b80156102005780601f106101d757610100808354040283529160200191610200565b820191905f5260205f20905b8154815290600101906020018083116101e357829003601f168201915b5050505050908060030154905084565b5f805f808781526020019081526020015f205f015414610265576040517f08c379a000000000000000000000000000000000000000000000000000000000815260040161025c90610822565b60405180910390fd5b6040518060800160405280868152602001858152602001848152602001838152505f808781526020019081526020015f205f820151815f015560208201518160010190816102b391906109dd565b5060408201518160020190816102c991906109dd565b5060608201518160030155905050849050949350505050565b5f6060805f805f808781526020019081526020015f206040518060800160405290815f820154815260200160018201805461031c906107a8565b80601f0160208091040260200160405190810160405280929190818152602001828054610348906107a8565b80156103935780601f1061036a57610100808354040283529160200191610393565b820191905f5260205f20905b81548152906001019060200180831161037657829003601f168201915b505050505081526020016002820180546103ac906107a8565b80601f01602080910402602001604051908101604052809291908181526020018280546103d8906107a8565b80156104235780601f106103fa57610100808354040283529160200191610423565b820191905f5260205f20905b81548152906001019060200180831161040657829003601f168201915b505050505081526020016003820154815250509050805f01518160200151826040015183606001519450945094509450509193509193565b5f604051905090565b5f80fd5b5f80fd5b5f819050919050565b61047e8161046c565b8114610488575f80fd5b50565b5f8135905061049981610475565b92915050565b5f602082840312156104b4576104b3610464565b5b5f6104c18482850161048b565b91505092915050565b6104d38161046c565b82525050565b5f81519050919050565b5f82825260208201905092915050565b8281835e5f83830152505050565b5f601f19601f8301169050919050565b5f61051b826104d9565b61052581856104e3565b93506105358185602086016104f3565b61053e81610501565b840191505092915050565b5f60808201905061055c5f8301876104ca565b818103602083015261056e8186610511565b905081810360408301526105828185610511565b905061059160608301846104ca565b95945050505050565b5f80fd5b5f80fd5b7f4e487b71000000000000000000000000000000000000000000000000000000005f52604160045260245ffd5b6105d882610501565b810181811067ffffffffffffffff821117156105f7576105f66105a2565b5b80604052505050565b5f61060961045b565b905061061582826105cf565b919050565b5f67ffffffffffffffff821115610634576106336105a2565b5b61063d82610501565b9050602081019050919050565b828183375f83830152505050565b5f61066a6106658461061a565b610600565b9050828152602081018484840111156106865761068561059e565b5b61069184828561064a565b509392505050565b5f82601f8301126106ad576106ac61059a565b5b81356106bd848260208601610658565b91505092915050565b5f805f80608085870312156106de576106dd610464565b5b5f6106eb8782880161048b565b945050602085013567ffffffffffffffff81111561070c5761070b610468565b5b61071887828801610699565b935050604085013567ffffffffffffffff81111561073957610738610468565b5b61074587828801610699565b92505060606107568782880161048b565b91505092959194509250565b5f6020820190506107755f8301846104ca565b92915050565b7f4e487b71000000000000000000000000000000000000000000000000000000005f52602260045260245ffd5b5f60028204905060018216806107bf57607f821691505b6020821081036107d2576107d161077b565b5b50919050565b7f456d706c6f79656520616c7265616479206578697374730000000000000000005f82015250565b5f61080c6017836104e3565b9150610817826107d8565b602082019050919050565b5f6020820190508181035f83015261083981610800565b9050919050565b5f819050815f5260205f209050919050565b5f6020601f8301049050919050565b5f82821b905092915050565b5f6008830261089c7fffffffffffffffffffffffffffffffffffffffffffffffffffffffffffffffff82610861565b6108a68683610861565b95508019841693508086168417925050509392505050565b5f819050919050565b5f6108e16108dc6108d78461046c565b6108be565b61046c565b9050919050565b5f819050919050565b6108fa836108c7565b61090e610906826108e8565b84845461086d565b825550505050565b5f90565b610922610916565b61092d8184846108f1565b505050565b5b81811015610950576109455f8261091a565b600181019050610933565b5050565b601f8211156109955761096681610840565b61096f84610852565b8101602085101561097e578190505b61099261098a85610852565b830182610932565b50505b505050565b5f82821c905092915050565b5f6109b55f198460080261099a565b1980831691505092915050565b5f6109cd83836109a6565b9150826002028217905092915050565b6109e6826104d9565b67ffffffffffffffff8111156109ff576109fe6105a2565b5b610a0982546107a8565b610a14828285610954565b5f60209050601f831160018114610a45575f8415610a33578287015190505b610a3d85826109c2565b865550610aa4565b601f198416610a5386610840565b5f5b82811015610a7a57848901518255600182019150602085019450602081019050610a55565b86831015610a975784890151610a93601f8916826109a6565b8355505b6001600288020188555050505b50505050505056fea2646970667358221220b734aa208b346af2623d4f7895f40c8133859ce76e78f31f779d48fe5674d1e164736f6c634300081a0033",
					"opcodes": "PUSH1 0x80 PUSH1 0x40 MSTORE CALLVALUE DUP1 ISZERO PUSH1 0xE JUMPI PUSH0 DUP1 REVERT JUMPDEST POP PUSH2 0xAE2 DUP1 PUSH2 0x1C PUSH0 CODECOPY PUSH0 RETURN INVALID PUSH1 0x80 PUSH1 0x40 MSTORE CALLVALUE DUP1 ISZERO PUSH2 0xF JUMPI PUSH0 DUP1 REVERT JUMPDEST POP PUSH1 0x4 CALLDATASIZE LT PUSH2 0x3F JUMPI PUSH0 CALLDATALOAD PUSH1 0xE0 SHR DUP1 PUSH4 0x272CC76A EQ PUSH2 0x43 JUMPI DUP1 PUSH4 0xD44F376E EQ PUSH2 0x76 JUMPI DUP1 PUSH4 0xF6757CFF EQ PUSH2 0xA6 JUMPI JUMPDEST PUSH0 DUP1 REVERT JUMPDEST PUSH2 0x5D PUSH1 0x4 DUP1 CALLDATASIZE SUB DUP2 ADD SWAP1 PUSH2 0x58 SWAP2 SWAP1 PUSH2 0x49F JUMP JUMPDEST PUSH2 0xD9 JUMP JUMPDEST PUSH1 0x40 MLOAD PUSH2 0x6D SWAP5 SWAP4 SWAP3 SWAP2 SWAP1 PUSH2 0x549 JUMP JUMPDEST PUSH1 0x40 MLOAD DUP1 SWAP2 SUB SWAP1 RETURN JUMPDEST PUSH2 0x90 PUSH1 0x4 DUP1 CALLDATASIZE SUB DUP2 ADD SWAP1 PUSH2 0x8B SWAP2 SWAP1 PUSH2 0x6C6 JUMP JUMPDEST PUSH2 0x210 JUMP JUMPDEST PUSH1 0x40 MLOAD PUSH2 0x9D SWAP2 SWAP1 PUSH2 0x762 JUMP JUMPDEST PUSH1 0x40 MLOAD DUP1 SWAP2 SUB SWAP1 RETURN JUMPDEST PUSH2 0xC0 PUSH1 0x4 DUP1 CALLDATASIZE SUB DUP2 ADD SWAP1 PUSH2 0xBB SWAP2 SWAP1 PUSH2 0x49F JUMP JUMPDEST PUSH2 0x2E2 JUMP JUMPDEST PUSH1 0x40 MLOAD PUSH2 0xD0 SWAP5 SWAP4 SWAP3 SWAP2 SWAP1 PUSH2 0x549 JUMP JUMPDEST PUSH1 0x40 MLOAD DUP1 SWAP2 SUB SWAP1 RETURN JUMPDEST PUSH0 PUSH1 0x20 MSTORE DUP1 PUSH0 MSTORE PUSH1 0x40 PUSH0 KECCAK256 PUSH0 SWAP2 POP SWAP1 POP DUP1 PUSH0 ADD SLOAD SWAP1 DUP1 PUSH1 0x1 ADD DUP1 SLOAD PUSH2 0xFD SWAP1 PUSH2 0x7A8 JUMP JUMPDEST DUP1 PUSH1 0x1F ADD PUSH1 0x20 DUP1 SWAP2 DIV MUL PUSH1 0x20 ADD PUSH1 0x40 MLOAD SWAP1 DUP2 ADD PUSH1 0x40 MSTORE DUP1 SWAP3 SWAP2 SWAP1 DUP2 DUP2 MSTORE PUSH1 0x20 ADD DUP3 DUP1 SLOAD PUSH2 0x129 SWAP1 PUSH2 0x7A8 JUMP JUMPDEST DUP1 ISZERO PUSH2 0x174 JUMPI DUP1 PUSH1 0x1F LT PUSH2 0x14B JUMPI PUSH2 0x100 DUP1 DUP4 SLOAD DIV MUL DUP4 MSTORE SWAP2 PUSH1 0x20 ADD SWAP2 PUSH2 0x174 JUMP JUMPDEST DUP3 ADD SWAP2 SWAP1 PUSH0 MSTORE PUSH1 0x20 PUSH0 KECCAK256 SWAP1 JUMPDEST DUP2 SLOAD DUP2 MSTORE SWAP1 PUSH1 0x1 ADD SWAP1 PUSH1 0x20 ADD DUP1 DUP4 GT PUSH2 0x157 JUMPI DUP3 SWAP1 SUB PUSH1 0x1F AND DUP3 ADD SWAP2 JUMPDEST POP POP POP POP POP SWAP1 DUP1 PUSH1 0x2 ADD DUP1 SLOAD PUSH2 0x189 SWAP1 PUSH2 0x7A8 JUMP JUMPDEST DUP1 PUSH1 0x1F ADD PUSH1 0x20 DUP1 SWAP2 DIV MUL PUSH1 0x20 ADD PUSH1 0x40 MLOAD SWAP1 DUP2 ADD PUSH1 0x40 MSTORE DUP1 SWAP3 SWAP2 SWAP1 DUP2 DUP2 MSTORE PUSH1 0x20 ADD DUP3 DUP1 SLOAD PUSH2 0x1B5 SWAP1 PUSH2 0x7A8 JUMP JUMPDEST DUP1 ISZERO PUSH2 0x200 JUMPI DUP1 PUSH1 0x1F LT PUSH2 0x1D7 JUMPI PUSH2 0x100 DUP1 DUP4 SLOAD DIV MUL DUP4 MSTORE SWAP2 PUSH1 0x20 ADD SWAP2 PUSH2 0x200 JUMP JUMPDEST DUP3 ADD SWAP2 SWAP1 PUSH0 MSTORE PUSH1 0x20 PUSH0 KECCAK256 SWAP1 JUMPDEST DUP2 SLOAD DUP2 MSTORE SWAP1 PUSH1 0x1 ADD SWAP1 PUSH1 0x20 ADD DUP1 DUP4 GT PUSH2 0x1E3 JUMPI DUP3 SWAP1 SUB PUSH1 0x1F AND DUP3 ADD SWAP2 JUMPDEST POP POP POP POP POP SWAP1 DUP1 PUSH1 0x3 ADD SLOAD SWAP1 POP DUP5 JUMP JUMPDEST PUSH0 DUP1 PUSH0 DUP1 DUP8 DUP2 MSTORE PUSH1 0x20 ADD SWAP1 DUP2 MSTORE PUSH1 0x20 ADD PUSH0 KECCAK256 PUSH0 ADD SLOAD EQ PUSH2 0x265 JUMPI PUSH1 0x40 MLOAD PUSH32 0x8C379A000000000000000000000000000000000000000000000000000000000 DUP2 MSTORE PUSH1 0x4 ADD PUSH2 0x25C SWAP1 PUSH2 0x822 JUMP JUMPDEST PUSH1 0x40 MLOAD DUP1 SWAP2 SUB SWAP1 REVERT JUMPDEST PUSH1 0x40 MLOAD DUP1 PUSH1 0x80 ADD PUSH1 0x40 MSTORE DUP1 DUP7 DUP2 MSTORE PUSH1 0x20 ADD DUP6 DUP2 MSTORE PUSH1 0x20 ADD DUP5 DUP2 MSTORE PUSH1 0x20 ADD DUP4 DUP2 MSTORE POP PUSH0 DUP1 DUP8 DUP2 MSTORE PUSH1 0x20 ADD SWAP1 DUP2 MSTORE PUSH1 0x20 ADD PUSH0 KECCAK256 PUSH0 DUP3 ADD MLOAD DUP2 PUSH0 ADD SSTORE PUSH1 0x20 DUP3 ADD MLOAD DUP2 PUSH1 0x1 ADD SWAP1 DUP2 PUSH2 0x2B3 SWAP2 SWAP1 PUSH2 0x9DD JUMP JUMPDEST POP PUSH1 0x40 DUP3 ADD MLOAD DUP2 PUSH1 0x2 ADD SWAP1 DUP2 PUSH2 0x2C9 SWAP2 SWAP1 PUSH2 0x9DD JUMP JUMPDEST POP PUSH1 0x60 DUP3 ADD MLOAD DUP2 PUSH1 0x3 ADD SSTORE SWAP1 POP POP DUP5 SWAP1 POP SWAP5 SWAP4 POP POP POP POP JUMP JUMPDEST PUSH0 PUSH1 0x60 DUP1 PUSH0 DUP1 PUSH0 DUP1 DUP8 DUP2 MSTORE PUSH1 0x20 ADD SWAP1 DUP2 MSTORE PUSH1 0x20 ADD PUSH0 KECCAK256 PUSH1 0x40 MLOAD DUP1 PUSH1 0x80 ADD PUSH1 0x40 MSTORE SWAP1 DUP2 PUSH0 DUP3 ADD SLOAD DUP2 MSTORE PUSH1 0x20 ADD PUSH1 0x1 DUP3 ADD DUP1 SLOAD PUSH2 0x31C SWAP1 PUSH2 0x7A8 JUMP JUMPDEST DUP1 PUSH1 0x1F ADD PUSH1 0x20 DUP1 SWAP2 DIV MUL PUSH1 0x20 ADD PUSH1 0x40 MLOAD SWAP1 DUP2 ADD PUSH1 0x40 MSTORE DUP1 SWAP3 SWAP2 SWAP1 DUP2 DUP2 MSTORE PUSH1 0x20 ADD DUP3 DUP1 SLOAD PUSH2 0x348 SWAP1 PUSH2 0x7A8 JUMP JUMPDEST DUP1 ISZERO PUSH2 0x393 JUMPI DUP1 PUSH1 0x1F LT PUSH2 0x36A JUMPI PUSH2 0x100 DUP1 DUP4 SLOAD DIV MUL DUP4 MSTORE SWAP2 PUSH1 0x20 ADD SWAP2 PUSH2 0x393 JUMP JUMPDEST DUP3 ADD SWAP2 SWAP1 PUSH0 MSTORE PUSH1 0x20 PUSH0 KECCAK256 SWAP1 JUMPDEST DUP2 SLOAD DUP2 MSTORE SWAP1 PUSH1 0x1 ADD SWAP1 PUSH1 0x20 ADD DUP1 DUP4 GT PUSH2 0x376 JUMPI DUP3 SWAP1 SUB PUSH1 0x1F AND DUP3 ADD SWAP2 JUMPDEST POP POP POP POP POP DUP2 MSTORE PUSH1 0x20 ADD PUSH1 0x2 DUP3 ADD DUP1 SLOAD PUSH2 0x3AC SWAP1 PUSH2 0x7A8 JUMP JUMPDEST DUP1 PUSH1 0x1F ADD PUSH1 0x20 DUP1 SWAP2 DIV MUL PUSH1 0x20 ADD PUSH1 0x40 MLOAD SWAP1 DUP2 ADD PUSH1 0x40 MSTORE DUP1 SWAP3 SWAP2 SWAP1 DUP2 DUP2 MSTORE PUSH1 0x20 ADD DUP3 DUP1 SLOAD PUSH2 0x3D8 SWAP1 PUSH2 0x7A8 JUMP JUMPDEST DUP1 ISZERO PUSH2 0x423 JUMPI DUP1 PUSH1 0x1F LT PUSH2 0x3FA JUMPI PUSH2 0x100 DUP1 DUP4 SLOAD DIV MUL DUP4 MSTORE SWAP2 PUSH1 0x20 ADD SWAP2 PUSH2 0x423 JUMP JUMPDEST DUP3 ADD SWAP2 SWAP1 PUSH0 MSTORE PUSH1 0x20 PUSH0 KECCAK256 SWAP1 JUMPDEST DUP2 SLOAD DUP2 MSTORE SWAP1 PUSH1 0x1 ADD SWAP1 PUSH1 0x20 ADD DUP1 DUP4 GT PUSH2 0x406 JUMPI DUP3 SWAP1 SUB PUSH1 0x1F AND DUP3 ADD SWAP2 JUMPDEST POP POP POP POP POP DUP2 MSTORE PUSH1 0x20 ADD PUSH1 0x3 DUP3 ADD SLOAD DUP2 MSTORE POP POP SWAP1 POP DUP1 PUSH0 ADD MLOAD DUP2 PUSH1 0x20 ADD MLOAD DUP3 PUSH1 0x40 ADD MLOAD DUP4 PUSH1 0x60 ADD MLOAD SWAP5 POP SWAP5 POP SWAP5 POP SWAP5 POP POP SWAP2 SWAP4 POP SWAP2 SWAP4 JUMP JUMPDEST PUSH0 PUSH1 0x40 MLOAD SWAP1 POP SWAP1 JUMP JUMPDEST PUSH0 DUP1 REVERT JUMPDEST PUSH0 DUP1 REVERT JUMPDEST PUSH0 DUP2 SWAP1 POP SWAP2 SWAP1 POP JUMP JUMPDEST PUSH2 0x47E DUP2 PUSH2 0x46C JUMP JUMPDEST DUP2 EQ PUSH2 0x488 JUMPI PUSH0 DUP1 REVERT JUMPDEST POP JUMP JUMPDEST PUSH0 DUP2 CALLDATALOAD SWAP1 POP PUSH2 0x499 DUP2 PUSH2 0x475 JUMP JUMPDEST SWAP3 SWAP2 POP POP JUMP JUMPDEST PUSH0 PUSH1 0x20 DUP3 DUP5 SUB SLT ISZERO PUSH2 0x4B4 JUMPI PUSH2 0x4B3 PUSH2 0x464 JUMP JUMPDEST JUMPDEST PUSH0 PUSH2 0x4C1 DUP5 DUP3 DUP6 ADD PUSH2 0x48B JUMP JUMPDEST SWAP2 POP POP SWAP3 SWAP2 POP POP JUMP JUMPDEST PUSH2 0x4D3 DUP2 PUSH2 0x46C JUMP JUMPDEST DUP3 MSTORE POP POP JUMP JUMPDEST PUSH0 DUP2 MLOAD SWAP1 POP SWAP2 SWAP1 POP JUMP JUMPDEST PUSH0 DUP3 DUP3 MSTORE PUSH1 0x20 DUP3 ADD SWAP1 POP SWAP3 SWAP2 POP POP JUMP JUMPDEST DUP3 DUP2 DUP4 MCOPY PUSH0 DUP4 DUP4 ADD MSTORE POP POP POP JUMP JUMPDEST PUSH0 PUSH1 0x1F NOT PUSH1 0x1F DUP4 ADD AND SWAP1 POP SWAP2 SWAP1 POP JUMP JUMPDEST PUSH0 PUSH2 0x51B DUP3 PUSH2 0x4D9 JUMP JUMPDEST PUSH2 0x525 DUP2 DUP6 PUSH2 0x4E3 JUMP JUMPDEST SWAP4 POP PUSH2 0x535 DUP2 DUP6 PUSH1 0x20 DUP7 ADD PUSH2 0x4F3 JUMP JUMPDEST PUSH2 0x53E DUP2 PUSH2 0x501 JUMP JUMPDEST DUP5 ADD SWAP2 POP POP SWAP3 SWAP2 POP POP JUMP JUMPDEST PUSH0 PUSH1 0x80 DUP3 ADD SWAP1 POP PUSH2 0x55C PUSH0 DUP4 ADD DUP8 PUSH2 0x4CA JUMP JUMPDEST DUP2 DUP2 SUB PUSH1 0x20 DUP4 ADD MSTORE PUSH2 0x56E DUP2 DUP7 PUSH2 0x511 JUMP JUMPDEST SWAP1 POP DUP2 DUP2 SUB PUSH1 0x40 DUP4 ADD MSTORE PUSH2 0x582 DUP2 DUP6 PUSH2 0x511 JUMP JUMPDEST SWAP1 POP PUSH2 0x591 PUSH1 0x60 DUP4 ADD DUP5 PUSH2 0x4CA JUMP JUMPDEST SWAP6 SWAP5 POP POP POP POP POP JUMP JUMPDEST PUSH0 DUP1 REVERT JUMPDEST PUSH0 DUP1 REVERT JUMPDEST PUSH32 0x4E487B7100000000000000000000000000000000000000000000000000000000 PUSH0 MSTORE PUSH1 0x41 PUSH1 0x4 MSTORE PUSH1 0x24 PUSH0 REVERT JUMPDEST PUSH2 0x5D8 DUP3 PUSH2 0x501 JUMP JUMPDEST DUP2 ADD DUP2 DUP2 LT PUSH8 0xFFFFFFFFFFFFFFFF DUP3 GT OR ISZERO PUSH2 0x5F7 JUMPI PUSH2 0x5F6 PUSH2 0x5A2 JUMP JUMPDEST JUMPDEST DUP1 PUSH1 0x40 MSTORE POP POP POP JUMP JUMPDEST PUSH0 PUSH2 0x609 PUSH2 0x45B JUMP JUMPDEST SWAP1 POP PUSH2 0x615 DUP3 DUP3 PUSH2 0x5CF JUMP JUMPDEST SWAP2 SWAP1 POP JUMP JUMPDEST PUSH0 PUSH8 0xFFFFFFFFFFFFFFFF DUP3 GT ISZERO PUSH2 0x634 JUMPI PUSH2 0x633 PUSH2 0x5A2 JUMP JUMPDEST JUMPDEST PUSH2 0x63D DUP3 PUSH2 0x501 JUMP JUMPDEST SWAP1 POP PUSH1 0x20 DUP2 ADD SWAP1 POP SWAP2 SWAP1 POP JUMP JUMPDEST DUP3 DUP2 DUP4 CALLDATACOPY PUSH0 DUP4 DUP4 ADD MSTORE POP POP POP JUMP JUMPDEST PUSH0 PUSH2 0x66A PUSH2 0x665 DUP5 PUSH2 0x61A JUMP JUMPDEST PUSH2 0x600 JUMP JUMPDEST SWAP1 POP DUP3 DUP2 MSTORE PUSH1 0x20 DUP2 ADD DUP5 DUP5 DUP5 ADD GT ISZERO PUSH2 0x686 JUMPI PUSH2 0x685 PUSH2 0x59E JUMP JUMPDEST JUMPDEST PUSH2 0x691 DUP5 DUP3 DUP6 PUSH2 0x64A JUMP JUMPDEST POP SWAP4 SWAP3 POP POP POP JUMP JUMPDEST PUSH0 DUP3 PUSH1 0x1F DUP4 ADD SLT PUSH2 0x6AD JUMPI PUSH2 0x6AC PUSH2 0x59A JUMP JUMPDEST JUMPDEST DUP2 CALLDATALOAD PUSH2 0x6BD DUP5 DUP3 PUSH1 0x20 DUP7 ADD PUSH2 0x658 JUMP JUMPDEST SWAP2 POP POP SWAP3 SWAP2 POP POP JUMP JUMPDEST PUSH0 DUP1 PUSH0 DUP1 PUSH1 0x80 DUP6 DUP8 SUB SLT ISZERO PUSH2 0x6DE JUMPI PUSH2 0x6DD PUSH2 0x464 JUMP JUMPDEST JUMPDEST PUSH0 PUSH2 0x6EB DUP8 DUP3 DUP9 ADD PUSH2 0x48B JUMP JUMPDEST SWAP5 POP POP PUSH1 0x20 DUP6 ADD CALLDATALOAD PUSH8 0xFFFFFFFFFFFFFFFF DUP2 GT ISZERO PUSH2 0x70C JUMPI PUSH2 0x70B PUSH2 0x468 JUMP JUMPDEST JUMPDEST PUSH2 0x718 DUP8 DUP3 DUP9 ADD PUSH2 0x699 JUMP JUMPDEST SWAP4 POP POP PUSH1 0x40 DUP6 ADD CALLDATALOAD PUSH8 0xFFFFFFFFFFFFFFFF DUP2 GT ISZERO PUSH2 0x739 JUMPI PUSH2 0x738 PUSH2 0x468 JUMP JUMPDEST JUMPDEST PUSH2 0x745 DUP8 DUP3 DUP9 ADD PUSH2 0x699 JUMP JUMPDEST SWAP3 POP POP PUSH1 0x60 PUSH2 0x756 DUP8 DUP3 DUP9 ADD PUSH2 0x48B JUMP JUMPDEST SWAP2 POP POP SWAP3 SWAP6 SWAP2 SWAP5 POP SWAP3 POP JUMP JUMPDEST PUSH0 PUSH1 0x20 DUP3 ADD SWAP1 POP PUSH2 0x775 PUSH0 DUP4 ADD DUP5 PUSH2 0x4CA JUMP JUMPDEST SWAP3 SWAP2 POP POP JUMP JUMPDEST PUSH32 0x4E487B7100000000000000000000000000000000000000000000000000000000 PUSH0 MSTORE PUSH1 0x22 PUSH1 0x4 MSTORE PUSH1 0x24 PUSH0 REVERT JUMPDEST PUSH0 PUSH1 0x2 DUP3 DIV SWAP1 POP PUSH1 0x1 DUP3 AND DUP1 PUSH2 0x7BF JUMPI PUSH1 0x7F DUP3 AND SWAP2 POP JUMPDEST PUSH1 0x20 DUP3 LT DUP2 SUB PUSH2 0x7D2 JUMPI PUSH2 0x7D1 PUSH2 0x77B JUMP JUMPDEST JUMPDEST POP SWAP2 SWAP1 POP JUMP JUMPDEST PUSH32 0x456D706C6F79656520616C726561647920657869737473000000000000000000 PUSH0 DUP3 ADD MSTORE POP JUMP JUMPDEST PUSH0 PUSH2 0x80C PUSH1 0x17 DUP4 PUSH2 0x4E3 JUMP JUMPDEST SWAP2 POP PUSH2 0x817 DUP3 PUSH2 0x7D8 JUMP JUMPDEST PUSH1 0x20 DUP3 ADD SWAP1 POP SWAP2 SWAP1 POP JUMP JUMPDEST PUSH0 PUSH1 0x20 DUP3 ADD SWAP1 POP DUP2 DUP2 SUB PUSH0 DUP4 ADD MSTORE PUSH2 0x839 DUP2 PUSH2 0x800 JUMP JUMPDEST SWAP1 POP SWAP2 SWAP1 POP JUMP JUMPDEST PUSH0 DUP2 SWAP1 POP DUP2 PUSH0 MSTORE PUSH1 0x20 PUSH0 KECCAK256 SWAP1 POP SWAP2 SWAP1 POP JUMP JUMPDEST PUSH0 PUSH1 0x20 PUSH1 0x1F DUP4 ADD DIV SWAP1 POP SWAP2 SWAP1 POP JUMP JUMPDEST PUSH0 DUP3 DUP3 SHL SWAP1 POP SWAP3 SWAP2 POP POP JUMP JUMPDEST PUSH0 PUSH1 0x8 DUP4 MUL PUSH2 0x89C PUSH32 0xFFFFFFFFFFFFFFFFFFFFFFFFFFFFFFFFFFFFFFFFFFFFFFFFFFFFFFFFFFFFFFFF DUP3 PUSH2 0x861 JUMP JUMPDEST PUSH2 0x8A6 DUP7 DUP4 PUSH2 0x861 JUMP JUMPDEST SWAP6 POP DUP1 NOT DUP5 AND SWAP4 POP DUP1 DUP7 AND DUP5 OR SWAP3 POP POP POP SWAP4 SWAP3 POP POP POP JUMP JUMPDEST PUSH0 DUP2 SWAP1 POP SWAP2 SWAP1 POP JUMP JUMPDEST PUSH0 PUSH2 0x8E1 PUSH2 0x8DC PUSH2 0x8D7 DUP5 PUSH2 0x46C JUMP JUMPDEST PUSH2 0x8BE JUMP JUMPDEST PUSH2 0x46C JUMP JUMPDEST SWAP1 POP SWAP2 SWAP1 POP JUMP JUMPDEST PUSH0 DUP2 SWAP1 POP SWAP2 SWAP1 POP JUMP JUMPDEST PUSH2 0x8FA DUP4 PUSH2 0x8C7 JUMP JUMPDEST PUSH2 0x90E PUSH2 0x906 DUP3 PUSH2 0x8E8 JUMP JUMPDEST DUP5 DUP5 SLOAD PUSH2 0x86D JUMP JUMPDEST DUP3 SSTORE POP POP POP POP JUMP JUMPDEST PUSH0 SWAP1 JUMP JUMPDEST PUSH2 0x922 PUSH2 0x916 JUMP JUMPDEST PUSH2 0x92D DUP2 DUP5 DUP5 PUSH2 0x8F1 JUMP JUMPDEST POP POP POP JUMP JUMPDEST JUMPDEST DUP2 DUP2 LT ISZERO PUSH2 0x950 JUMPI PUSH2 0x945 PUSH0 DUP3 PUSH2 0x91A JUMP JUMPDEST PUSH1 0x1 DUP2 ADD SWAP1 POP PUSH2 0x933 JUMP JUMPDEST POP POP JUMP JUMPDEST PUSH1 0x1F DUP3 GT ISZERO PUSH2 0x995 JUMPI PUSH2 0x966 DUP2 PUSH2 0x840 JUMP JUMPDEST PUSH2 0x96F DUP5 PUSH2 0x852 JUMP JUMPDEST DUP2 ADD PUSH1 0x20 DUP6 LT ISZERO PUSH2 0x97E JUMPI DUP2 SWAP1 POP JUMPDEST PUSH2 0x992 PUSH2 0x98A DUP6 PUSH2 0x852 JUMP JUMPDEST DUP4 ADD DUP3 PUSH2 0x932 JUMP JUMPDEST POP POP JUMPDEST POP POP POP JUMP JUMPDEST PUSH0 DUP3 DUP3 SHR SWAP1 POP SWAP3 SWAP2 POP POP JUMP JUMPDEST PUSH0 PUSH2 0x9B5 PUSH0 NOT DUP5 PUSH1 0x8 MUL PUSH2 0x99A JUMP JUMPDEST NOT DUP1 DUP4 AND SWAP2 POP POP SWAP3 SWAP2 POP POP JUMP JUMPDEST PUSH0 PUSH2 0x9CD DUP4 DUP4 PUSH2 0x9A6 JUMP JUMPDEST SWAP2 POP DUP3 PUSH1 0x2 MUL DUP3 OR SWAP1 POP SWAP3 SWAP2 POP POP JUMP JUMPDEST PUSH2 0x9E6 DUP3 PUSH2 0x4D9 JUMP JUMPDEST PUSH8 0xFFFFFFFFFFFFFFFF DUP2 GT ISZERO PUSH2 0x9FF JUMPI PUSH2 0x9FE PUSH2 0x5A2 JUMP JUMPDEST JUMPDEST PUSH2 0xA09 DUP3 SLOAD PUSH2 0x7A8 JUMP JUMPDEST PUSH2 0xA14 DUP3 DUP3 DUP6 PUSH2 0x954 JUMP JUMPDEST PUSH0 PUSH1 0x20 SWAP1 POP PUSH1 0x1F DUP4 GT PUSH1 0x1 DUP2 EQ PUSH2 0xA45 JUMPI PUSH0 DUP5 ISZERO PUSH2 0xA33 JUMPI DUP3 DUP8 ADD MLOAD SWAP1 POP JUMPDEST PUSH2 0xA3D DUP6 DUP3 PUSH2 0x9C2 JUMP JUMPDEST DUP7 SSTORE POP PUSH2 0xAA4 JUMP JUMPDEST PUSH1 0x1F NOT DUP5 AND PUSH2 0xA53 DUP7 PUSH2 0x840 JUMP JUMPDEST PUSH0 JUMPDEST DUP3 DUP2 LT ISZERO PUSH2 0xA7A JUMPI DUP5 DUP10 ADD MLOAD DUP3 SSTORE PUSH1 0x1 DUP3 ADD SWAP2 POP PUSH1 0x20 DUP6 ADD SWAP5 POP PUSH1 0x20 DUP2 ADD SWAP1 POP PUSH2 0xA55 JUMP JUMPDEST DUP7 DUP4 LT ISZERO PUSH2 0xA97 JUMPI DUP5 DUP10 ADD MLOAD PUSH2 0xA93 PUSH1 0x1F DUP10 AND DUP3 PUSH2 0x9A6 JUMP JUMPDEST DUP4 SSTORE POP JUMPDEST PUSH1 0x1 PUSH1 0x2 DUP9 MUL ADD DUP9 SSTORE POP POP POP JUMPDEST POP POP POP POP POP POP JUMP INVALID LOG2 PUSH5 0x6970667358 0x22 SLT KECCAK256 0xB7 CALLVALUE 0xAA KECCAK256 DUP12 CALLVALUE PUSH11 0xF2623D4F7895F40C813385 SWAP13 0xE7 PUSH15 0x78F31F779D48FE5674D1E164736F6C PUSH4 0x4300081A STOP CALLER "
				},
				"gasEstimates": {
					"creation": {
						"codeDepositCost": "557200",
						"executionCost": "592",
						"totalCost": "557792"
					},
					"external": {
						"addEmployee(uint256,string,string,uint256)": "infinite",
						"empData(uint256)": "infinite",
						"getEmployeeInfo(uint256)": "infinite"
					}
				},
				"methodIdentifiers": {
					"addEmployee(uint256,string,string,uint256)": "d44f376e",
					"empData(uint256)": "272cc76a",
					"getEmployeeInfo(uint256)": "f6757cff"
				}
			},
			"storageLayout": {
				"storage": [
					{
						"astId": 15,
						"contract": "contracts/EmpData.sol:EmpData",
						"label": "empData",
						"offset": 0,
						"slot": "0",
						"type": "t_mapping(t_uint256,t_struct(Employee)10_storage)"
					}
				],
				"types": {
					"t_mapping(t_uint256,t_struct(Employee)10_storage)": {
						"encoding": "mapping",
						"key": "t_uint256",
						"label": "mapping(uint256 => struct EmpData.Employee)",
						"numberOfBytes": "32",
						"value": "t_struct(Employee)10_storage"
					},
					"t_string_storage": {
						"encoding": "bytes",
						"label": "string",
						"numberOfBytes": "32"
					},
					"t_struct(Employee)10_storage": {
						"encoding": "inplace",
						"label": "struct EmpData.Employee",
						"members": [
							{
								"astId": 3,
								"contract": "contracts/EmpData.sol:EmpData",
								"label": "empNumber",
								"offset": 0,
								"slot": "0",
								"type": "t_uint256"
							},
							{
								"astId": 5,
								"contract": "contracts/EmpData.sol:EmpData",
								"label": "name",
								"offset": 0,
								"slot": "1",
								"type": "t_string_storage"
							},
							{
								"astId": 7,
								"contract": "contracts/EmpData.sol:EmpData",
								"label": "accountingInfo",
								"offset": 0,
								"slot": "2",
								"type": "t_string_storage"
							},
							{
								"astId": 9,
								"contract": "contracts/EmpData.sol:EmpData",
								"label": "timestamp",
								"offset": 0,
								"slot": "3",
								"type": "t_uint256"
							}
						],
						"numberOfBytes": "128"
					},
					"t_uint256": {
						"encoding": "inplace",
						"label": "uint256",
						"numberOfBytes": "32"
					}
				}
			},
			"userdoc": {
				"kind": "user",
				"methods": {},
				"version": 1
			}
		}
	}
}